3872402281732BUELNAJ          4 27104  2ORDERS      01001   0   128860      1920301
3872402281732BUELNAJ          4 27104  2ORDERS      011    89 10     0      0920301
3872502281822BUELNAJ          4 27104  2ORDERS      01001   0   767220      1920301
3872502281822BUELNAJ          4 27104  2ORDERS      011   493 10     0      0920301
3872703011312BUELNAJ          4 27104  2ORDERS      01001   0   737315      1920301
3872703011312BUELNAJ          4 27104  2ORDERS      011   511 10     0      0920301
3872603011310BUELNAJ          4 27104  2NODEZ       0070000010001000000000001920301
3872903011706BUELNAJ          4 27104  2ORDERS      01001   0    72300      1920301
3872903011706BUELNAJ          4 27104  2ORDERS      011    57 10     0      0920301
3873003020000DANIELSR         1142734  0FILE SAVE   0040000010000000000000000920302
3873003020000DANIELSR         1142734  0FILE SAVE   0050003240000000000000000920302
3873203021321PAYROLL          4  4072  2X6415       01001   0   432965      3920302
3873203021321PAYROLL          4  4072  2X6415       011   184 10     0      0920302
3869902241734PAYROLL          4  4072  2PAYROLL     01001   0     4855      1920302
3869902241734PAYROLL          4  4072  2PAYROLL     011     2 10     0      0920302
3870602251724PAYROLL          4  4072  2PAYROLL     01001   0     1845      1920302
3870602251724PAYROLL          4  4072  2PAYROLL     011     2 10     0      0920302
3870802261723PAYROLL          4  4072  2PAYROLL     01001   0     1845      1920302
3870802261723PAYROLL          4  4072  2PAYROLL     011     2 10     0      0920302
3871502271707PAYROLL          4  4072  2PAYROLL     01001   0     1845      1920302
3871502271707PAYROLL          4  4072  2PAYROLL     011     2 10     0      0920302
3872302281715PAYROLL          4  4072  2PAYROLL     01001   0    17895      1920302
3872302281715PAYROLL          4  4072  2PAYROLL     011     5 10     0      0920302
3872803011320PAYROLL          4  4072  2PAYROLL     01001   0     1845      1920302
3872803011320PAYROLL          4  4072  2PAYROLL     011     2 10     0      0920302
3873103020907BILLING10        1 44355  0BSATFR.FEB  0040000010000000000000000920302
3873103020907BILLING10        1 44355  0BSATFR.FEB  0050002130000000000000002920302
3873303021324PAYROLL          4  4072  2MIS/ NEW PAY0050051150000000000000001920302
3873403021604PAYROLTYM   032173305551  2            0 9    86   363195      0920302
3873603021807BUELNAJ          4 27104  2ORDERS      01001   0   306510      1920302
3873603021807BUELNAJ          4 27104  2ORDERS      011   199 10     0      0920302
3873803021936BUELNAJ          4 27104  2ORDERS      01001   0   553910      1920302
3873803021936BUELNAJ          4 27104  2ORDERS      011   361 10     0      0920302
3873903022052BUELNAJ          4 27104  2ORDERS      01001   0   920565      1920302
3873903022052BUELNAJ          4 27104  2ORDERS      011   643 10     0      0920302
3874103031809BUELNAJ          4 27104  2ORDERS      01001   0   125280      1920303
3874103031809BUELNAJ          4 27104  2ORDERS      011    95 10     0      0920303
3874303040956MISTAPE     000004051660  2            0 9     3    10888      0920304
3874703041903BUELNAJ          4 27104  2ORDERS      01001   0   230455      1920304
3874703041903BUELNAJ          4 27104  2ORDERS      011   162 10     0      0920304
3874503041755BUELNAJ          4 27104  2ORDERS      01001   0    29725      1920304
3874503041755BUELNAJ          4 27104  2ORDERS      011    24 10     0      0920304
3874803041928BUELNAJ          4 27104  2ORDERS      01001   0   245685      1920304
3874803041928BUELNAJ          4 27104  2ORDERS      011   192 10     0      0920304
3874603041845BUELNAJ          4 27104  2ORDERS      01001   0   536085      1920304
3874603041845BUELNAJ          4 27104  2ORDERS      011   338 10     0      0920304
3875003060611FRANK            4111413  2ORDERS      01001   0    67575      1920306
3875003060611FRANK            4111413  2ORDERS      011    52 10     0      0920306
0175103060954PGRADE      000000000000201FEB92 BACKUP0050000870000000000000000920306
3875203061205FRANK       000004111413  2            0 9     2     6281      0920306
3875103060954PGRADE       21477372774201FEB92 BACKUP0040000010000000000000000920306
3875103060954PGRADE       21477372774201FEB92 BACKUP0050000870000000000000000920306
3875303061436FRANK       000004111413  2            0 9     1      779      0920306
3875403061437FRANK       000004111413  2            0 9     1      779      0920306
3875703061954BUELNAJ          4 27104  2            01001   0   359960      3920306
3875703061954BUELNAJ          4 27104  2            011    90 10     0      0920306
3875803080000NTRACKDATA   21477 14371229            0040000010000000000000000920308
3875803080000NTRACKDATA   21477 14371229            0050000040000000000000000920308
3875903080223OPER             1    21  0.           01001   0    31050      1920308
3875903080223OPER             1    21  0.           011    16 10     0      0920308
3876103090000JMS              34311162382105        01001   0      760      1920309
3876103090000JMS              34311162382105        011     1 10     0      0920309
3876203091323PAYROLL          4  4072  2X6415       01001   0   437580      3920309
3876203091323PAYROLL          4  4072  2X6415       011   185 10     0      0920309
3876003081342PAYROLL          4  4072  2PAYROLL     01001   0     1845      1920309
3876003081342PAYROLL          4  4072  2PAYROLL     011     2 10     0      0920309
3875503061734PAYROLL          4  4072  2PAYROLL     01001   0    21005      1920309
3875503061734PAYROLL          4  4072  2PAYROLL     011     6 10     0      0920309
3874903051759PAYROLL          4  4072  2PAYROLL     01001   0     1845      1920309
3874903051759PAYROLL          4  4072  2PAYROLL     011     2 10     0      0920309
3874403041746PAYROLL          4  4072  2PAYROLL     01001   0     2515      1920309
3874403041746PAYROLL          4  4072  2PAYROLL     011     2 10     0      0920309
3874003031758PAYROLL          4  4072  2PAYROLL     01001   0    11575      1920309
3874003031758PAYROLL          4  4072  2PAYROLL     011     4 10     0      0920309
3873503021710PAYROLL          4  4072  2PAYROLL     01001   0     3815      1920309
3873503021710PAYROLL          4  4072  2PAYROLL     011     2 10     0      0920309
3876303091325PAYROLL          4  4072  2MIS/ NEW PAY0050051310000000000000001920309
3876403091534PAYROLTYM   032173305551  2            0 9    86   364331      0920309
3876603092022BUELNAJ          4 27104  2ORDERS      01001   0   663965      1920309
3876603092022BUELNAJ          4 27104  2ORDERS      011   433 10     0      0920309
3876703092045BUELNAJ          4 27104  2ORDERS      01001   0   427885      1920309
3876703092045BUELNAJ          4 27104  2ORDERS      011   266 10     0      0920309
3877003112008BUELNAJ          4 27104  2ORDERS      01001   0   222560      1920311
3877003112008BUELNAJ          4 27104  2ORDERS      011   150 10     0      0920311
3877103112119BUELNAJ          4 27104  2ORDERS      01001   0   292400      1920311
3877103112119BUELNAJ          4 27104  2ORDERS      011   209 10     0      0920311
3876803110949FRANK            4111413  2TAP22C.DIR  0040000100000000000000000920312
3876803110949FRANK            4111413  2TAP22C.DIR  0050000410000000000000000920312
3877203120854NETSTAT      21477205635201FILE RECOVER0040000010000000000000000920312
3877303121714BUELNAJ          4 27104  2ORDERS      01001   0   136460      1920312
3877303121714BUELNAJ          4 27104  2ORDERS      011   108 10     0      0920312
3877503121752BUELNAJ          4 27104  2ORDERS      01001   0   326030      1920312
3877503121752BUELNAJ          4 27104  2ORDERS      011   227 10     0      0920312
3877603122238FRANK            4111413  2ORDERS      01001   0    63220      1920312
3877603122238FRANK            4111413  2ORDERS      011    46 10     0      0920312
3877703131517NETQC        214773043222292114        0040000060000000000000000920314
3878003150000NTRACKDATA   21477 14371229            0040000010000000000000000920315
3878003150000NTRACKDATA   21477 14371229            0050000020000000000000000920315
3877903131834BUELNAJ          4 27104  2ORDERS      01001   0    38430      1920315
3877903131834BUELNAJ          4 27104  2ORDERS      011    25 10     0      0920315
3878203151114BUELNAJ          4 27104  2ORDERS      01001   0    22115      1920315
3878203151114BUELNAJ          4 27104  2ORDERS      011    17 10     0      0920315
3878303151145JJOELS      011334474103200J           0 9     8    13368      0920315
3878103151109BUELNAJ          4 27104  2ORDERS      01001   0   331650      1920315
3878103151109BUELNAJ          4 27104  2ORDERS      011   233 10     0      0920315
3878403151158BUELNAJ          4 27104  2ORDERS      01001   0   518850      1920315
3878403151158BUELNAJ          4 27104  2ORDERS      011   355 10     0      0920315
3878503151300BUELNAJ          4 27104  2ORDERS      01001   0   476680      1920315
3878503151300BUELNAJ          4 27104  2ORDERS      011   322 10     0      0920315
3878803151935BUELNAJ          4 27104  2ORDERS      01001   0    66630      1920315
3878803151935BUELNAJ          4 27104  2ORDERS      011    51 10     0      0920315
3878903161309RJK              4   130  2ACTG        01001   0    55400      1920316
3878903161309RJK              4   130  2ACTG        011   120 10     0      0920316
3879003161453PAYROLL          4  4072  2X6415       01001   0   435450      3920316
3879003161453PAYROLL          4  4072  2X6415       011   185 10     0      0920316
3876503091744PAYROLL          4  4072  2PAYROLL     01001   0     1845      1920316
3876503091744PAYROLL          4  4072  2PAYROLL     011     2 10     0      0920316
3876903111809PAYROLL          4  4072  2PAYROLL     01001   0     1845      1920316
3876903111809PAYROLL          4  4072  2PAYROLL     011     2 10     0      0920316
3877403121716PAYROLL          4  4072  2PAYROLL     01001   0    18255      1920316
3877403121716PAYROLL          4  4072  2PAYROLL     011     6 10     0      0920316
3877803131728PAYROLL          4  4072  2PAYROLL     01001   0    10145      1920316
3877803131728PAYROLL          4  4072  2PAYROLL     011     4 10     0      0920316
3878603151323PAYROLL          4  4072  2PAYROLL     01001   0     1845      1920316
3878603151323PAYROLL          4  4072  2PAYROLL     011     2 10     0      0920316
3879103161501PAYROLL          4  4072  2MIS/ NEW PAY0050051330000000000000001920316
3879303161800PAYROLTYM   032173305551  2.           0 9     3     8400      0920316
3879403161839PAYROLTYM   032173305551  2.           0 9    86   364473      0920316
3878703151504BUELNAJ          4 27104  2TAP23A.DIR  0040000110000000000000000920317
3878703151504BUELNAJ          4 27104  2TAP23A.DIR  0050000460000000000000000920317
3879503170706OPER             1    21  0.           01001   0    26280      1920317
3879503170706OPER             1    21  0.           011    22 10     0      0920317
3879803180852SPOOLRM      11016165320  2IGGY        01001   0      690      1920318
3879803180852SPOOLRM      11016165320  2IGGY        011     1 10     0      0920318
3880103191057CORPAYROLL   14130151217  2            01001   0   202715      1920319
3880103191057CORPAYROLL   14130151217  2            011    51 10     0      0920319
3880003190614EDPROD           4641450  2ACTG        0040000080000000000000000920319
3880203191600EDPROD           4641450  2MAIL19      01001   0   132635      1920319
3880203191600EDPROD           4641450  2MAIL19      011    87 10     0      0920319
3880303191720EDPROD           4641450  2ORDERS      01001   0   737270      1920319
3880303191720EDPROD           4641450  2ORDERS      011   492 10     0      0920319
3880503191845BUELNAJ          4 27104  2ORDERS      01001   0    95650      1920319
3880503191845BUELNAJ          4 27104  2ORDERS      011    63 10     0      0920319
3880703191928BUELNAJ          4 27104  2ORDERS      01001   0   273180      1920319
3880703191928BUELNAJ          4 27104  2ORDERS      011   180 10     0      0920319
3880603191909BUELNAJ          4 27104  2ORDERS      01001   0   365215      1920319
3880603191909BUELNAJ          4 27104  2ORDERS      011   236 10     0      0920319
3880803192349BUELNAJ          4 27104  2ORDERS      01001   0    61245      1920319
3880803192349BUELNAJ          4 27104  2ORDERS      011    48 10     0      0920319
3880903201448EDPROD           4641450  2            01001   0   360845      1920320
3880903201448EDPROD           4641450  2            011   250 10     0      0920320
3881003201653BUELNAJ          4 27104  2ORDERS      01001   0   972520      1920320
3881003201653BUELNAJ          4 27104  2ORDERS      011   614 10     0      0920320
3881103201724BUELNAJ          4 27104  2ORDERS      01001   0   113350      1920320
3881103201724BUELNAJ          4 27104  2ORDERS      011    93 10     0      0920320
3881203201727PAYROLL          4  4072  2PAYROLL     01001   0    12615      1920320
3881203201727PAYROLL          4  4072  2PAYROLL     011     4 10     0      0920320
3880403191805PAYROLL          4  4072  2PAYROLL     01001   0     1845      1920320
3880403191805PAYROLL          4  4072  2PAYROLL     011     2 10     0      0920320
3879903181821PAYROLL          4  4072  2PAYROLL     01001   0     1845      1920320
3879903181821PAYROLL          4  4072  2PAYROLL     011     2 10     0      0920320
3879703171734PAYROLL          4  4072  2PAYROLL     01001   0     1845      1920320
3879703171734PAYROLL          4  4072  2PAYROLL     011     2 10     0      0920320
3879203161749PAYROLL          4  4072  2PAYROLL     01001   0     2515      1920320
3879203161749PAYROLL          4  4072  2PAYROLL     011     2 10     0      0920320
3881303201804BUELNAJ          4 27104  2ORDERS      01001   0   423760      1920320
3881303201804BUELNAJ          4 27104  2ORDERS      011   326 10     0      0920320
3881403220000NTRACKDATA   21477 14371229            0050000020000000000000000920322
3881403220000NTRACKDATA   21477 14371229            0040000010000000000000000920322
3881603221635BUELNAJ          4 27104  2ORDERS      01001   0    63525      1920322
3881603221635BUELNAJ          4 27104  2ORDERS      011    51 10     0      0920322
3881803231315PAYROLL          4  4072  2X6415       01001   0   438270      3920323
3881803231315PAYROLL          4  4072  2X6415       011   187 10     0      0920323
3881903231319PAYROLL          4  4072  2MIS/ NEW PAY0050051380000000000000001920323
3882003231517PAYROLTYM   032173305551  2            0 9    86   364828      0920323
3882603231845BUELNAJ          4 27104  2ORDERS      01001   0   226955      1920323
3882603231845BUELNAJ          4 27104  2ORDERS      011   152 10     0      0920323
3882503231825BUELNAJ          4 27104  2ORDERS      01001   0    14305      1920323
3882503231825BUELNAJ          4 27104  2ORDERS      011    12 10     0      0920323
3882403231819BUELNAJ          4 27104  2ORDERS      01001   0    65290      1920323
3882403231819BUELNAJ          4 27104  2ORDERS      011    42 10     0      0920323
3881703231302DDREW        11020165226  32158        0040000050000000000000000920323
3882803231941BUELNAJ          4 27104  2ORDERS      01001   0   266820      1920323
3882803231941BUELNAJ          4 27104  2ORDERS      011   199 10     0      0920323
3882703231913BUELNAJ          4 27104  2ORDERS      01001   0   370365      1920323
3882703231913BUELNAJ          4 27104  2ORDERS      011   240 10     0      0920323
3883003240628ATTEND.DEV       4454260  2PRINT       01001   0   812460      2920324
3883003240628ATTEND.DEV       4454260  2PRINT       011   204 10     0      0920324
3882903232305BUELNAJ          4 27104  2TAP23B.DIR  0040000130000000000000000920325
3882903232305BUELNAJ          4 27104  2TAP23B.DIR  0050000480000000000000000920325
3883403252144BUELNAJ          4 27104  2ORDERS      01001   0   596125      1920325
3883403252144BUELNAJ          4 27104  2ORDERS      011   377 10     0      0920325
3883503252243BUELNAJ          4 27104  2ORDERS      01001   0   713910      1920325
3883503252243BUELNAJ          4 27104  2ORDERS      011   494 10     0      0920325
3883603260833DDREW        11020165226  32158        0040000050000000000000000920326
3883603260833DDREW        11020165226  32158        0050000050000000000000000920326
3883903261806BUELNAJ          4 27104  2ORDERS      01001   0   415320      1920326
3883903261806BUELNAJ          4 27104  2ORDERS      011   284 10     0      0920326
3884003261905BUELNAJ          4 27104  2ORDERS      01001   0   589415      1920326
3884003261905BUELNAJ          4 27104  2ORDERS      011   467 10     0      0920326
3884203271820BUELNAJ          4 27104  2ORDERS      01001   0   535965      1920327
3884203271820BUELNAJ          4 27104  2ORDERS      011   334 10     0      0920327
3884303271849BUELNAJ          4 27104  2ORDERS      01001   0   403530      1920327
3884303271849BUELNAJ          4 27104  2ORDERS      011   294 10     0      0920327
0184403290000NTRACKDATA  000000000000229            0040000010000000000000000920329
0184403290000NTRACKDATA  000000000000229            0050000700000000000000000920329
3884503290325NTRACKDATA  021477014371229            0 9     9    15063      0920329
3884403290000NTRACKDATA   21477 14371229            0040000010000000000000000920329
3884403290000NTRACKDATA   21477 14371229            0050000020000000000000000920329
3883703260935ATTEND.DEV       4454260  2YEAR END PUR01001   0    26235      1920329
3883703260935ATTEND.DEV       4454260  2YEAR END PUR011     7 10     0      0920329
3884703300000JMS              34311162382105        01001   0      760      1920330
3884703300000JMS              34311162382105        011     1 10     0      0920330
3884803300743RJK              4   130  2ACTG        01001   0    30400      1920330
3884803300743RJK              4   130  2ACTG        011    60 10     0      0920330
3885203301137DDREW        11020165226  32158        0040000010000000000000000920330
3885203301REW        11020165226  32158        0050000010000000000000000920330
3885303301323PAYROLL          4  4072  2X6415       01001   0   446400      3920330
3885303301323PAYROLL          4  4072  2X6415       011   190 10     0      0920330
3881503221509PAYROLL          4  4072  2PAYROLL     01001   0     1845      1920330
3881503221509PAYROLL          4  4072  2PAYROLL     011     2 10     0      0920330
3882103231724PAYROLL          4  4072  2PAYROLL     01001   0     1845      1920330
3882103231724PAYROLL          4  4072  2PAYROLL     011     2 10     0      0920330
3883103241747PAYROLL          4  4072  2PAYROLL     01001   0     1845      1920330
3883103241747PAYROLL          4  4072  2PAYROLL     011     2 10     0      0920330
3883303251717PAYROLL          4  4072  2PAYROLL     01001   0     3035      1920330
3883303251717PAYROLL          4  4072  2PAYROLL     011     2 10     0      0920330
3883803261711PAYROLL          4  4072  2PAYROLL     01001   0     1845      1920330
3883803261711PAYROLL          4  4072  2PAYROLL     011     2 10     0      0920330
3884103271733PAYROLL          4  4072  2PAYROLL     01001   0    15965      1920330
3884103271733PAYROLL          4  4072  2PAYROLL     011     5 10     0      0920330
3884603291248PAYROLL          4  4072  2PAYROLL     01001   0     1845      1920330
3884603291248PAYROLL          4  4072  2PAYROLL     011     2 10     0      0920330
3885403301328PAYROLL          4  4072  2MIS/ NEW PAY0040051530000000000000000920330
3885403301328PAYROLL          4  4072  2MIS/ NEW PAY0050051530000000000000001920330
3885503301606PAYROLTYM   032173305551  2            0 9    87   365901      0920330
3885803301754BUELNAJ          4 27104  2ORDERS      01001   0   225365      1920330
3885803301754BUELNAJ          4 27104  2ORDERS      011   153 10     0      0920330
3885603301730BUELNAJ          4 27104  2ORDERS      01001   0   109915      1920330
3885603301730BUELNAJ          4 27104  2ORDERS      011    76 10     0      0920330
3885903302007BUELNAJ          4 27104  2ORDERS      01001   0   466295      1920330
3885903302007BUELNAJ          4 27104  2ORDERS      011   344 10     0      0920330
3886103302204BUELNAJ          4 27104  2            01001   0    14100      1920330
3886103302204BUELNAJ          4 27104  2            011    30 10     0      0920330
3886003302107BUELNAJ          4 27104  2STORE       0050000020000000000000001920330
3886303310727EDPROD           4641450  2ACTG        01001   0    25005     19920331
3886303310727EDPROD           4641450  2ACTG        011    26 10     0      0920331
3885003301017UIS              4125553  2VERTEX MAGCO0070000010001000000000000920331
3886203310000DANIELSR         1142734  0FILE SAVE   0040000010000000000000000920331
3886203310000DANIELSR         1142734  0FILE SAVE   0050003250000000000000000920331
3885103301134NETSTAT      21477205635201FILE RECOVER0040000100000000000000000920331
3891203010001MSNTRACK     21477454763201            0050000040000000000000000930301
3891203010001MSNTRACK     21477454763201            0040000010000000000000000930301
3891103010000JMS              34311162382105        01001   0      760      1930301
3891103010000JMS              34311162382105        011     1 10     0      0930301
3891303010730NETENG       21477235561201            0040000010000000000000000930301
3891403011411PAYROLL          4  4072  2X6415       01001   0   455480      3930301
3891403011411PAYROLL          4  4072  2X6415       011   192 10     0      0930301
3891603020821UIS              4125553  2VERTEX MAGCO0070000010001000000000000930302
3891703021100DBAMIKE      32120 67260201            0070000010001000000000000930302
3891903030205DANIELSR         1142734  0FILE SAVE   0050003040000000000000000930303
3892103030756ATTEND.DEV       4454260  2PRINT       01001   0   798280      2930303
3892103030756ATTEND.DEV       4454260  2PRINT       011   200 10     0      0930303
3892303030944FRANK       000004111413  2FEB93 EOM   0 9     1      743      0930303
3892303030944FRANK       000004111413  2FEB93 EOM   0 9     1     2900      0930303
3892303030944FRANK       000004111413  2FEB93 EOM   0 9     1      729      0930303
3892403030947FRANK       000004111413  2FEB93 EOM   0 9     1      743      0930303
3892403030947FRANK       000004111413  2FEB93 EOM   0 9     1     2900      0930303
3892403030947FRANK       000004111413  2FEB93 EOM   0 9     1      729      0930303
3892403030947FRANK       000004111413  2FEB93 EOM   0 9     1      650      0930303
3892403030947FRANK       000004111413  2FEB93 EOM   0 9     1      568      0930303
3892403030947FRANK       000004111413  2FEB93 EOM   0 9     1      691      0930303
3892403030947FRANK       000004111413  2FEB93 EOM   0 9     1      698      0930303
3892403030948FRANK       000004111413  2FEB93 EOM   0 9     3     2727      0930303
3892403030948FRANK       000004111413  2FEB93 EOM   0 9     3     2587      0930303
3892403030948FRANK       000004111413  2FEB93 EOM   0 9     1     1330      0930303
3892403030948FRANK       000004111413  2FEB93 EOM   0 9     1     1220      0930303
3892403030948FRANK       000004111413  2FEB93 EOM   0 9     2     2129      0930303
3892203030818ATTEND.DEV       4454260  2YEAR END PUR01001   0    21240      1930303
3892203030818ATTEND.DEV       4454260  2YEAR END PUR011     6 10     0      0930303
3892603031717DBAMIKE      32120 67260201            0070000010001000000000000930303
3892503031507BILLING10        1 44355  0BSATFR.FEB  0050001570000000000000000930304
3892503031507BILLING10        1 44355  0BSATFR.FEB  0040000010000000000000000930304
3892903041019FRANK            4111413  2TAP32C.DIR  0050000360000000000000000930305
3892903041019FRANK            4111413  2TAP32C.DIR  0040000010000000000000000930305
3892803041038DBAMIKE      32120 67260201            0070000010001000000000000920305
3893203070000NTRACKDATA   21477 14371229            0050000040000000000000000930307
3893203070000NTRACKDATA   21477 14371229            0040000010000000000000000930307
3893403071317PAYROLL          4  4072  2MIS/  PAYROL0040000010000000000000000930307
3893403071317PAYROLL          4  4072  2MIS/  PAYROL0050049730000000000000000930307
3893503071453OPER        000001000021  0            0 9    84   353000      0930307
3893603081408PAYROLL          4  4072  2X6415       01001   0   453055      3930308
3893603081408PAYROLL          4  4072  2X6415       011   191 10     0      0930308
3893803090957DBAMIKE      32120 67260201            0040000010000000000000000930309
3893903090959DBAMIKE      32120 67260201            0040000010000000000000000930309
3894103100929DBAMIKE      32120 67260201            0070000010001000000000000930310
3894303110850FRANK            4111413  2MAGCON      0070000060003000000000000930311
3894503121500FRANK       000004111413  2L           0 9    35    63395      0930312
3894703140000NTRACKDATA   21477 14371229            0050000040000000000000000930314
3894703140000NTRACKDATA   21477 14371229            0040000010000000000000000930314
3895003141329OPER        000001000021  0            0 9     1     1600      0930314
3895103141332OPER        000001000021  0            0 9     1     1600      0930314
3894903141242PAYROLL          4  4072  2MIS/  PAYROL0050049750000000000000000930314
3895203141337OPER        000001000021  0            0 9     1     2000      0930314
3894803141234PAYROLL          4  4072  2PAYROLL     01001   0     1845      1930315
3894803141234PAYROLL          4  4072  2PAYROLL     011     2 10     0      0930315
3894603121936PAYROLL          4  4072  2PAYROLL     01001   0    17245      1930315
3894603121936PAYROLL          4  4072  2PAYROLL     011     5 10     0      0930315
3895403151415PAYROLL          4  4072  2X6415       01001   0   441890      3930315
3895403151415PAYROLL          4  4072  2X6415       011   186 10     0      0930315
3895503151954PAYROLL          4  4072  2PAYROLL     01001   0     1845      1930316
3895503151954PAYROLL          4  4072  2PAYROLL     011     2 10     0      0930316
3895603160945DBAMIKE      32120 67260201            0040000010000000000000000930316
3895303150810FRANK            4111413  2TAP33A.DIR  0040000150000000000000000930316
3895303150810FRANK            4111413  2TAP33A.DIR  0050000480000000000000000930316
3895703161239DBAMIKE      32120 67260201            0070000010001000000000000930316
3895903171827PAYROLL          4  4072  2PAYROLL     01001   0     1845      1930318
3895903171827PAYROLL          4  4072  2PAYROLL     011     2 10     0      0930318
3896003181007DBAMIKE      32120 67260201            0040000010000000000000000930318
3896103181137DBAMIKE      32120 67260201            0070000010001000000000000930318
3896303190808DBAMIKE      32120 67260201            0040000010000000000000000930319
3896403190953DBAMIKE      32120 67260201            0070000010001000000000000930319
3896603210000NTRACKDATA   21477 14371229            0050000040000000000000000930321
3896603210000NTRACKDATA   21477 14371229            0040000010000000000000000930321
3896803211307PAYROLL          4  4072  2MIS/  PAYROL0050049770000000000000000930321
3896903220000JMS              34311162382105        01001   0      760      1930322
3896903220000JMS              34311162382105        011     1 10     0      0930322
3897003221409PAYROLL          4  4072  2X6415       01001   0   452430      3930322
3897003221409PAYROLL          4  4072  2X6415       011   191 10     0      0930322
3897403240921BURNS1           1161424  0STORE       0040000050000000000000000930324
3897403240921BURNS1           1161424  0STORE       0050000310000000000000000930324
3897503241841OPER        000001000021  0CDC         0 9     2     1200      0930324
3897203231807PAYROLL          4  4072  2PAYROLL     01001   0     1845      1930324
3897203231807PAYROLL          4  4072  2PAYROLL     011     2 10     0      0930324
3897603242225PAYROLL          4  4072  2PAYROLL     01001   0     1845      1930324
3897603242225PAYROLL          4  4072  2PAYROLL     011     2 10     0      0930324
3897303240831NETSTAT      21477205635201TAP33B.DIR  0040000140000000000000000930325
3897303240831NETSTAT      21477205635201TAP33B.DIR  0050000550000000000000014930325
3897903261551UIS              4125553  2VERTEX MAGCO0070000010001000000000000930326
3897703251347FRANK            4111413  2MAGCON      0070000070003000000000000930327
3898103280000NTRACKDATA   21477 14371229            0050000040000000000000000930328
3898103280000NTRACKDATA   21477 14371229            0040000010000000000000000930328
3898303281224PAYROLL          4  4072  2MIS/  PAYROL0050049770000000000000000930328
3898503291408PAYROLL          4  4072  2X6415       01001   0   453865      3930329
3898503291408PAYROLL          4  4072  2X6415       011   191 10     0      0930329
3898403290845FRANK            4111413  2MAGCON      0070000040002000000000000930329
3898703300802DBAMIKE      32120 67260201            0070000010001000000000000930330
3898803301246WAR         011346217757238CDC         0 9     1     1398      0930330
3899003310313DANIELSR         1142734  0FILE SAVE   0050003040000000000000000930331
3899103311309FRANK       000004111413  2L           0 9     1      287      0930331
3873102281413PAYROLL          4  4072  2X6415       01001   0   181050      3940301
3873102281413PAYROLL          4  4072  2X6415       011    83 10     0      0940301
3873303010000MSNTRACK     21477454763201            0040000020000000000000000940301
3873303010000MSNTRACK     21477454763201            0050000010000000000000000940301
3872502241037NTRACKDATA   21477 14371229            0040000170000000000000000940301
3873403011330BILLING10        1 44355  0BSATFR.FEB  0040000010000000000000000940301
3873403011330BILLING10        1 44355  0BSATFR.FEB  0050000870000000000000000940301
3873803030000DANIELSR         1142734  0FILE SAVE   0040003930000000000000000940303
3873803030000DANIELSR         1142734  0FILE SAVE   0050003930000000000000000940303
3873603021057BILLING10        1 44355  0TAP42C.DIR  0040000010000000000000000940303
3873603021057BILLING10        1 44355  0TAP42C.DIR  0050000440000000000000011940303
3874203060000NTRACKDATA   21477 14371229            0040000020000000000000000940306
3874203060000NTRACKDATA   21477 14371229            0050000020000000000000000940306
3874403061229PAYROLL          4  4072  2MIS/  PAYROL0050052350000000000000000940306
3874403061229PAYROLL          4  4072  2MIS/  PAYROL0040000010000000000000000940306
3874503071410PAYROLL          4  4072  2X6415       01001   0   173430      3940307
3874503071410PAYROLL          4  4072  2X6415       011    80 10     0      0940307
3874703081333SULLIVAN     21475174505229NONE        0040000010000000000000000940308
3875103110703SPOOLRM      11016165320  2NONE        01001   0     2140      1940311
3875103110703SPOOLRM      11016165320  2NONE        011     1 10     0      0940311
3875203110838SPOOLRM      11016165320  2NONE        01001   0     1520      1940311
3875203110838SPOOLRM      11016165320  2NONE        011     1 10     0      0940311
3875403130000NTRACKDATA   21477 14371229            0040000060000000000000000940314
3875403130000NTRACKDATA   21477 14371229            0050000060000000000000000940314
3875603131232PAYROLL          4  4072  2MIS/  PAYROL0050052350000000000000000940313
3875603131232PAYROLL          4  4072  2MIS/  PAYROL0040000010000000000000000940313
3875703140835SPOOLRM      11016165320  2NONE        01001   0     3585      1940314
3875703140835SPOOLRM      11016165320  2NONE        011     1 10     0      0940314
3875803140838SPOOLRM      11016165320  2NONE        01001   0     3585      1940314
3875803140838SPOOLRM      11016165320  2NONE        011     1 10     0      0940314
3876003141405PAYROLL          4  4072  2X6415       01001   0   171355      3940314
3876003141405PAYROLL          4  4072  2X6415       011    81 10     0      0940314
3876203151220SPOOLRM      11016165320  2NONE        01001   0     4280      1940315
3876203151220SPOOLRM      11016165320  2NONE        011     2 10     0      0940315
3876303151221SPOOLRM      11016165320  2NONE        01001   0     4280      1940315
3876303151221SPOOLRM      11016165320  2NONE        011     2 10     0      0940315
3875903141136OPER             1    21  0TAP43A.DIR  0040000010000000000000000940316
3875903141136OPER             1    21  0TAP43A.DIR  0050000560000000000000014940316
3876803200000NTRACKDATA   21477 14371229            0040000010000000000000000940320
3876803200000NTRACKDATA   21477 14371229            0050000040000000000000000940320
3877003201239PAYROLL          4  4072  2MIS/  PAYROL0050052350000000000000000940320
3877003201239PAYROLL          4  4072  2MIS/  PAYROL0040000010000000000000000940320
3877303211315PAYROLL          4  4072  2X6415       01001   0   169950      3940321
3877303211315PAYROLL          4  4072  2X6415       011    80 10     0      0940321
3877403220622ATTEND.DEV       4454260  2            0050052360000000000000000940322
3877503220624ATTEND.DEV       4454260  2            0050001780000000000000000940322
3877603221244ATTEND.DEV       4454260  2            0040000010000000000000000940322
0177103210726OPER        000000000000  0TAP43B.DIR  0040000520000000000000000940322
0177103210726OPER        000000000000  0TAP43B.DIR  0050000520000000000000000940322
3877103210726OPER             1    21  0TAP43B.DIR  0040000010000000000000000940322
3877103210726OPER             1    21  0TAP43B.DIR  0050000520000000000000000940322
3877703270000NTRACKDATA   21477 14371229            0040000010000000000000000940327
3877703270000NTRACKDATA   21477 14371229            0050000040000000000000000940327
3877803281623JJOELS       11334474103200            0040000060000000000000000940329
3877903281647JCLMIN       11447271412  0GNSD        0040000140000000000000000940329
3878003291346JCLMIN       11447271412  0GNSD        0040000090000000000000000940329
0178103310000DANIELSR    000000000000  0FILE SAVE   0050003940000000000000000940331
3878103310000DANIELSR         1142734  0FILE SAVE   0040000010000000000000000940331
3878103310000DANIELSR         1142734  0FILE SAVE   0050003940000000000000000940331
K0VO)