3861010311129DANIELSR         1142734  0FILE SAVE   0050003080000000000000000901101
3861311010816RJK              4   130  2ACTG        01001   0    20355     18901101
3861311010816RJK              4   130  2ACTG        011    23 10     0      0901101
3860910301949PAYROLL          4  4072  2PAYROLL     01001   0     1995      1901101
3860910301949PAYROLL          4  4072  2PAYROLL     011     2 10     0      0901101
3861110311949PAYROLL          4  4072  2PAYROLL     01001   0     1845      1901101
3861110311949PAYROLL          4  4072  2PAYROLL     011     2 10     0      0901101
3861211010144MSNTRACK     21477454763201            0050000020000000000000000901101
3861211010144MSNTRACK     21477454763201            0040000020000000000000000901101
3861711012031FRANK            4111413  2ORDERS      01001   0   146500      1901101
3861711012031FRANK            4111413  2ORDERS      011   114 10     0      0901101
3861411011310BILLING10        1 44355  0BSATFR.OCT  0040000010000000000000000901101
3861411011310BILLING10        1 44355  0BSATFR.OCT  0050003160000000000000003901101
3861611011941FRANK            4111413  2ORDERS      01001   0    31250      1901101
3861611011941FRANK            4111413  2ORDERS      011    24 10     0      0901101
3861811012052FRANK            4111413  2ACTG        01001   0  1078770      1901101
3861811012052FRANK            4111413  2ACTG        011   267 10     0      0901101
3861911012307BILLING10        1 44355  0ORDERS      01001   0   348320      1901101
3861911012307BILLING10        1 44355  0ORDERS      011   198 10     0      0901101
3862011020116ACCG1        21477215544201Y           1070000010001000000000000901102
3861511011924PAYROLL          4  4072  2PAYROLL     01001   0    15945      1901102
3861511011924PAYROLL          4  4072  2PAYROLL     011     5 10     0      0901102
3862111021146PGRADE       21477372774201OCT90 BACKUP0050000930000000000000000901101
3862111021146PGRADE       21477372774201OCT90 BACKUP0040000010000000000000000901101
3862211021410FRANK            4111413  2SSTAT RPT   01001   0   456463      1901102
3862211021410FRANK            4111413  2SSTAT RPT   011   453 10     0      0901102
3862611041513PAYROLL          4  4072  2PAYROLL     01001   0     1845      1901105
3862611041513PAYROLL          4  4072  2PAYROLL     011     2 10     0      0901105
3862411021820PAYROLL          4  4072  2PAYROLL     01001   0     7425      1901105
3862411021820PAYROLL          4  4072  2PAYROLL     011     3 10     0      0901105
3862511021830BILLING10        1 44355  0NETWORK PROF01001   0   348460      3901105
3862511021830BILLING10        1 44355  0NETWORK PROF011    88 10     0      0901105
3862511021830BILLING10        1 44355  0NETWORK PROF01001   0   348460      3901105
3862511021830BILLING10        1 44355  0NETWORK PROF011    88 10     0      0901105
3862811050905FRANK            4111413  2TYM 4       01001   0    38278      1901105
3862811050905FRANK            4111413  2TYM 4       011   511 10     0      0901105
3863011051317PAYROLL          4  4072  2PAYROLL     01001   0   372380      3901105
3863011051317PAYROLL          4  4072  2PAYROLL     011   157 10     0      0901105
3863111051320PAYROLL          4  4072  2MIS/ NEW PAY0050046380000000000000001901105
3863111051320PAYROLL          4  4072  2MIS/ NEW PAY0040000010000000000000000901105
3863211051522FRANK            4111413  2ORDERS      01001   0    50990      1901105
3863211051522FRANK            4111413  2ORDERS      011    34 10     0      0901105
3863511051731BUELNAJ          4 27104  2ORDERS      01001   0    45450      1901105
3863511051731BUELNAJ          4 27104  2ORDERS      011    34 10     0      0901105
3863611051808BUELNAJ          4 27104  2ORDERS      01001   0   375440      1901105
3863611051808BUELNAJ          4 27104  2ORDERS      011   251 10     0      0901105
3863711051835BUELNAJ          4 27104  2ORDERS      01001   0   270745      1901105
3863711051835BUELNAJ          4 27104  2ORDERS      011   162 10     0      0901105
3863811051917BUELNAJ          4 27104  2ORDERS      01001   0   303115      1901105
3863811051917BUELNAJ          4 27104  2ORDERS      011   225 10     0      0901105
3863311051709FRANK            4111413  2ORDERS      01001   0  1044360      1901105
3863311051709FRANK            4111413  2ORDERS      011   767 10     0      0901105
3862911051002FRANK            4111413  2TAP10C.DIR  0040000010000000000000000901106
3862911051002FRANK            4111413  2TAP10C.DIR  0050000480000000000000008901106
3863411051729PAYROLL          4  4072  2PAYROLL     01001   0     1845      1901106
3863411051729PAYROLL          4  4072  2PAYROLL     011     2 10     0      0901106
3864111060641MISDOC           4222076  2ACTG        01001   0    55400      1901106
3864111060641MISDOC           4222076  2ACTG        011   120 10     0      0901106
3863911060620BUELNAJ          4 27104  2STAT RPT    01001   0   482883      1901106
3863911060620BUELNAJ          4 27104  2STAT RPT    011   459 10     0      0901106
3864011060622BUELNAJ          4 27104  2ORDERS      01001   0   215471      1901106
3864011060622BUELNAJ          4 27104  2ORDERS      011  2431 10     0      0901106
3864311061715PAYROLL          4  4072  2PAYROLL     01001   0     3555      1901107
3864311061715PAYROLL          4  4072  2PAYROLL     011     2 10     0      0901107
3864511071345JJOELS       11334474103200RECOVER     0040000020000000000000000901107
3864711071856BUELNAJ          4 27104  2ORDERS      01001   0   207670      1901107
3864711071856BUELNAJ          4 27104  2ORDERS      011   136 10     0      0901107
3864611071723PAYROLL          4  4072  2PAYROLL     01001   0     8335      1901107
3864611071723PAYROLL          4  4072  2PAYROLL     011     3 10     0      0901107
3864811072004BUELNAJ          4 27104  2ORDERS      01001   0   697515      1901107
3864811072004BUELNAJ          4 27104  2ORDERS      011   444 10     0      0901107
3865011072108BUELNAJ          4 27104  2AUDIT MISSDU01001   0   132900      2901107
3865011072108BUELNAJ          4 27104  2AUDIT MISSDU011    51 10     0      0901107
3864911072033BUELNAJ          4 27104  2ORDERS      01001   0  1130600      1901107
3864911072033BUELNAJ          4 27104  2ORDERS      011   717 10     0      0901107
3865211072134BUELNAJ          4 27104  2ORDERS      01001   0   265535      1901107
3865211072134BUELNAJ          4 27104  2ORDERS      011   204 10     0      0901107
3865111072133BUELNAJ          4 27104  2ORDERS      01001   0   360360      1901107
3865111072133BUELNAJ          4 27104  2ORDERS      011   275 10     0      0901107
3865411081726BUELNAJ          4 27104  2ORDERS      01001   0    50205      1901108
3865411081726BUELNAJ          4 27104  2ORDERS      011    35 10     0      0901108
3865611081749BUELNAJ          4 27104  2ORDERS      01001   0    31465      1901108
3865611081749BUELNAJ          4 27104  2ORDERS      011    25 10     0      0901108
3865311081724PAYROLL          4  4072  2PAYROLL     01001   0    16695      1901108
3865311081724PAYROLL          4  4072  2PAYROLL     011     6 10     0      0901108
3865511081736BUELNAJ          4 27104  2ORDERS      01001   0   200910      1901108
3865511081736BUELNAJ          4 27104  2ORDERS      011   145 10     0      0901108
3865711081818BUELNAJ          4 27104  2ORDERS      01001   0   190565      1901108
3865711081818BUELNAJ          4 27104  2ORDERS      011   121 10     0      0901108
3865811082113BUELNAJ          4 27104  2ORDERS      01001   0   781285      1901108
3865811082113BUELNAJ          4 27104  2ORDERS      011   502 10     0      0901108
3865911082115BUELNAJ          4 27104  2ORDERS      01001   0  1557935      1901108
3865911082115BUELNAJ          4 27104  2ORDERS      011   890 10     0      0901108
3866111082300BUELNAJ          4 27104  2COMMITED INV01001   0  1097970      1901108
3866111082300BUELNAJ          4 27104  2COMMITED INV011   273 10     0      0901108
3864411070946NETENG       21477235561201            0040000050000000000000000901109
3866411091802BUELNAJ          4 27104  2ORDERS      01001   0   130385      1901109
3866411091802BUELNAJ          4 27104  2ORDERS      011    95 10     0      0901109
3866511091909BUELNAJ          4 27104  2ORDERS      01001   0  1317845      1901109
3866511091909BUELNAJ          4 27104  2ORDERS      011   770 10     0      0901109
3866611092139BUELNAJ          4 27104  2ORDERS      01001   0  1688670      1901109
3866611092139BUELNAJ          4 27104  2ORDERS      011  1120 10     0      0901109
3866911120000JMS              34311162382105        01001   0     1325      1901112
3866911120000JMS              34311162382105        011     1 10     0      0901112
3866811111307PAYROLL          4  4072  2PAYROLL     01001   0     2755      1901112
3866811111307PAYROLL          4  4072  2PAYROLL     011     2 10     0      0901112
3866311091716PAYROLL          4  4072  2PAYROLL     01001   0     8855      1901112
3866311091716PAYROLL          4  4072  2PAYROLL     011     3 10     0      0901112
3866711111210BILLING10        1 44355  0ACTG        01001   0    74218      1901112
3866711111210BILLING10        1 44355  0ACTG        011   541 10     0      0901112
3867011120940BILLING10        1 44355  0ORDERS      01001   0  1297530      1901112
3867011120940BILLING10        1 44355  0ORDERS      011   858 10     0      0901112
3867111121335PAYROLL          4  4072  2PAYROLL     01001   0   381375      3901112
3867111121335PAYROLL          4  4072  2PAYROLL     011   160 10     0      0901112
3867211121339PAYROLL          4  4072  2MIS/ NEW PAY0050046630000000000000001901112
3867411121812BUELNAJ          4 27104  2ORDERS      01001   0   310055      1901112
3867411121812BUELNAJ          4 27104  2ORDERS      011   198 10     0      0901112
3867511121909BILLING10        1 44355  0ORDERS      01001   0   759565      1901112
3867511121909BILLING10        1 44355  0ORDERS      011   545 10     0      0901112
3867711122134BILLING10        1 44355  0ORDERS      01001   0   503878      1901112
3867711122134BILLING10        1 44355  0ORDERS      011  1503 10     0      0901112
3867311121726PAYROLL          4  4072  2PAYROLL     01001   0     3035      1901113
3867311121726PAYROLL          4  4072  2PAYROLL     011     2 10     0      0901113
3867611122131BUELNAJ          4 27104  2ORDERS      01001   0   559585      1901113
3867611122131BUELNAJ          4 27104  2ORDERS      011   393 10     0      0901113
3868011131753BUELNAJ          4 27104  2ORDERS      01001   0    30475      1901113
3868011131753BUELNAJ          4 27104  2ORDERS      011    25 10     0      0901113
3868111131822BUELNAJ          4 27104  2ORDERS      01001   0   155890      1901113
3868111131822BUELNAJ          4 27104  2ORDERS      011   118 10     0      0901113
3867911131727PAYROLL          4  4072  2PAYROLL     01001   0    10775      1901113
3867911131727PAYROLL          4  4072  2PAYROLL     011     4 10     0      0901113
3868211131930BUELNAJ          4 27104  2ORDERS      01001   0   566695      1901113
3868211131930BUELNAJ          4 27104  2ORDERS      011   361 10     0      0901113
3868311131948BUELNAJ          4 27104  2ORDERS      01001   0   513130      1901113
3868311131948BUELNAJ          4 27104  2ORDERS      011   377 10     0      0901113
3868411132007BUELNAJ          4 27104  2ORDERS      01001   0   984535      1901113
3868411132007BUELNAJ          4 27104  2ORDERS      011   551 10     0      0901113
3868511132020BUELNAJ          4 27104  2COMMITED INV01001   0  1123770      1901113
3868511132020BUELNAJ          4 27104  2COMMITED INV011   279 10     0      0901113
3869011141828BUELNAJ          4 27104  2ORDERS      01001   0    32970      1901114
3869011141828BUELNAJ          4 27104  2ORDERS      011    26 10     0      0901114
3869111141840BUELNAJ          4 27104  2ORDERS      01001   0    90370      1901114
3869111141840BUELNAJ          4 27104  2ORDERS      011    62 10     0      0901114
3869211141904BUELNAJ          4 27104  2ORDERS      01001   0   274335      1901114
3869211141904BUELNAJ          4 27104  2ORDERS      011   198 10     0      0901114
3869311141930BUELNAJ          4 27104  2ORDERS      01001   0   205990      1901114
3869311141930BUELNAJ          4 27104  2ORDERS      011   157 10     0      0901114
3869411141953BUELNAJ          4 27104  2AUDIT ACTIVE01001   0   258000      1901114
3869411141953BUELNAJ          4 27104  2AUDIT ACTIVE011    69 10     0      0901114
3869511142016BUELNAJ          4 27104  2ORDERS      01001   0   513770      1901114
3869511142016BUELNAJ          4 27104  2ORDERS      011   341 10     0      0901114
3869611142017BUELNAJ          4 27104  2ORDERS      01001   0  1017505      1901114
3869611142017BUELNAJ          4 27104  2ORDERS      011   596 10     0      0901114
3869711142046BUELNAJ          4 27104  2ORDERS      01001   0   394930      1901114
3869711142046BUELNAJ          4 27104  2ORDERS      011   283 10     0      0901114
3869811142114BUELNAJ          4 27104  2AUDIT MISSDU01001   0   133860      2901114
3869811142114BUELNAJ          4 27104  2AUDIT MISSDU011    54 10     0      0901114
3868711141315FRANK            4111413  2TAP11A.DIR  0040000010000000000000000901115
3868711141315FRANK            4111413  2TAP11A.DIR  0050000450000000000000008901115
3868911141703PAYROLL          4  4072  2PAYROLL     01001   0     1845      1901115
3868911141703PAYROLL          4  4072  2PAYROLL     011     2 10     0      0901115
3869911151155JJOELS       11334474103200TAPE DIR    0040000010000000000000000901115
3870111151733BUELNAJ          4 27104  2ORDERS      01001   0    54170      1901115
3870111151733BUELNAJ          4 27104  2ORDERS      011    39 10     0      0901115
3870311151814BUELNAJ          4 27104  2ORDERS      01001   0   203075      1901115
3870311151814BUELNAJ          4 27104  2ORDERS      011   115 10     0      0901115
3870511151831BUELNAJ          4 27104  2ORDERS      01001   0   114120      1901115
3870511151831BUELNAJ          4 27104  2ORDERS      011    93 10     0      0901115
3870411151825BUELNAJ          4 27104  2ORDERS      01001   0   286255      1901115
3870411151825BUELNAJ          4 27104  2ORDERS      011   213 10     0      0901115
3870611151910BUELNAJ          4 27104  2ORDERS      01001   0   417110      1901115
3870611151910BUELNAJ          4 27104  2ORDERS      011   265 10     0      0901115
3870711152009BUELNAJ          4 27104  2COMMITED INV01001   0  1131450      1901115
3870711152009BUELNAJ          4 27104  2COMMITED INV011   279 10     0      0901115
3870811152013BUELNAJ          4 27104  2ORDERS      01001   0   602500      1901115
3870811152013BUELNAJ          4 27104  2ORDERS      011   416 10     0      0901115
3870911152020BUELNAJ          4 27104  2ORDERS      01001   0   666090      1901115
3870911152020BUELNAJ          4 27104  2ORDERS      011   439 10     0      0901115
3871011152022PAYROLL          4  4072  2PAYROLL     01001   0    10255      1901115
3871011152022PAYROLL          4  4072  2PAYROLL     011     4 10     0      0901115
3871111152305BUELNAJ          4 27104  2STAT RPT    01001   0   564108      1901115
3871111152305BUELNAJ          4 27104  2STAT RPT    011   473 10     0      0901115
3871311161332PAYROLL          4  4072  2PAYROLL     01001   0   360845      3901116
3871311161332PAYROLL          4  4072  2PAYROLL     011   153 10     0      0901116
3871411161334PAYROLL          4  4072  2MIS/ NEW PAY0050046400000000000000001901116
3871411161334PAYROLL          4  4072  2MIS/ NEW PAY0040000010000000000000000901116
3871211160956NETQC        21477304322229            0040000050000000000000000901116
3871911161724PAYROLL          4  4072  2PAYROLL     01001   0     4075      1901116
3871911161724PAYROLL          4  4072  2PAYROLL     011     2 10     0      0901116
3871511161615BUELNAJ          4 27104  2ORDERS      01001   0   103295      1901116
3871511161615BUELNAJ          4 27104  2ORDERS      011    65 10     0      0901116
3871811161634BUELNAJ          4 27104  2ORDERS      01001   0    95100      1901116
3871811161634BUELNAJ          4 27104  2ORDERS      011    84 10     0      0901116
3871611161617BUELNAJ          4 27104  2ORDERS      01001   0    24495      1901116
3871611161617BUELNAJ          4 27104  2ORDERS      011    20 10     0      0901116
3871711161628BUELNAJ          4 27104  2ORDERS      01001   0   205030      1901116
3871711161628BUELNAJ          4 27104  2ORDERS      011   153 10     0      0901116
3872011161804BUELNAJ          4 27104  2ORDERS      01001   0  1483995      1901116
3872011161804BUELNAJ          4 27104  2ORDERS      011   913 10     0      0901116
3872111161838BUELNAJ          4 27104  2ORDERS      01001   0  1770760      1901116
3872111161838BUELNAJ          4 27104  2ORDERS      011  1027 10     0      0901116
3872311161949BUELNAJ          4 27104  2ORDERS      01001   0   476945      1901116
3872311161949BUELNAJ          4 27104  2ORDERS      011   379 10     0      0901116
3872211161912BUELNAJ          4 27104  2ORDERS      01001   0   292010      1901116
3872211161912BUELNAJ          4 27104  2ORDERS      011   176 10     0      0901116
3872511172007BUELNAJ          4 27104  2COMMITED INV01001   0   186568      1901118
3872511172007BUELNAJ          4 27104  2COMMITED INV011   565 10     0      0901118
3872411171705BUELNAJ          4 27104  2STAT RPT    01001   0   563928      1901118
3872411171705BUELNAJ          4 27104  2STAT RPT    011   473 10     0      0901118
3872611181207PAYROLL          4  4072  2PAYROLL     01001   0     1845      1901119
3872611181207PAYROLL          4  4072  2PAYROLL     011     2 10     0      0901119
3873111191751BUELNAJ          4 27104  2ORDERS      01001   0    40020      1901119
3873111191751BUELNAJ          4 27104  2ORDERS      011    31 10     0      0901119
3873011191748BUELNAJ          4 27104  2ORDERS      01001   0    86295      1901119
3873011191748BUELNAJ          4 27104  2ORDERS      011    63 10     0      0901119
3873211191840BUELNAJ          4 27104  2ORDERS      01001   0   769630      1901119
3873211191ELNAJ          4 27104  2ORDERS      011   515 10     0      0901119
3873411191910BUELNAJ          4 27104  2ORDERS      01001   0   524015      1901119
3873411191910BUELNAJ          4 27104  2ORDERS      011   367 10     0      0901119
3873311191903BUELNAJ          4 27104  2ORDERS      01001   0  1405165      1901119
3873311191903BUELNAJ          4 27104  2ORDERS      011   845 10     0      0901119
3873511191944BUELNAJ          4 27104  2ORDERS      01001   0   611965      1901119
3873511191944BUELNAJ          4 27104  2ORDERS      011   446 10     0      0901119
3872911191732PAYROLL          4  4072  2PAYROLL     01001   0     2255      1901119
3872911191732PAYROLL          4  4072  2PAYROLL     011     2 10     0      0901119
3873611192348BUELNAJ          4 27104  2STAT RPT    01001   0   549103      1901120
3873611192348BUELNAJ          4 27104  2STAT RPT    011   469 10     0      0901120
3873811201840BUELNAJ          4 27104  2ORDERS      01001   0   571705      1901120
3873811201840BUELNAJ          4 27104  2ORDERS      011   335 10     0      0901120
3873711201745PAYROLL          4  4072  2PAYROLL     01001   0     4075      1901121
3873711201745PAYROLL          4  4072  2PAYROLL     011     2 10     0      0901121
3874111211702BUELNAJ          4 27104  2ORDERS      01001   0     3705      1901121
3874111211702BUELNAJ          4 27104  2ORDERS      011     5 10     0      0901121
3874211211714PAYROLL          4  4072  2PAYROLL     01001   0    27815      1901121
3874211211714PAYROLL          4  4072  2PAYROLL     011     8 10     0      0901121
3873911211649BUELNAJ          4 27104  2ORDERS      01001   0    58835      1901121
3873911211649BUELNAJ          4 27104  2ORDERS      011    41 10     0      0901121
3874011211700BUELNAJ          4 27104  2ORDERS      01001   0   204890      1901121
3874011211700BUELNAJ          4 27104  2ORDERS      011   140 10     0      0901121
3874311211731BUELNAJ          4 27104  2ORDERS      01001   0   268480      1901121
3874311211731BUELNAJ          4 27104  2ORDERS      011   205 10     0      0901121
3874411211906BUELNAJ          4 27104  2ORDERS      01001   0   344820      1901121
3874411211906BUELNAJ          4 27104  2ORDERS      011   269 10     0      0901121
3874511211939BUELNAJ          4 27104  2ORDERS      01001   0  1338025      1901121
3874511211939BUELNAJ          4 27104  2ORDERS      011   804 10     0      0901121
3874611212030BUELNAJ          4 27104  2AUDIT ACTIVE01001   0   257310      1901121
3874611212030BUELNAJ          4 27104  2AUDIT ACTIVE011    69 10     0      0901121
3874811212132BUELNAJ          4 27104  2AUDIT MISSDU01001   0   131505      2901121
3874811212132BUELNAJ          4 27104  2AUDIT MISSDU011    51 10     0      0901121
3875011231301PAYROLL          4  4072  2PAYROLL     01001   0     1845      1901125
3875011231301PAYROLL          4  4072  2PAYROLL     011     2 10     0      0901125
3874911212231BUELNAJ          4 27104  2STATUS REPOR01001   0   567153      1901125
3874911212231BUELNAJ          4 27104  2STATUS REPOR011   473 10     0      0901125
3875111251022BUELNAJ          4 27104  2COMMITED INV01001   0   213388      1901125
3875111251022BUELNAJ          4 27104  2COMMITED INV011   571 10     0      0901125
3874711212105BUELNAJ          4 27104  2ORDERS      01001   0  1400883      1901125
3874711212105BUELNAJ          4 27104  2ORDERS      011  1967 10     0      0901125
3875211251254PAYROLL          4  4072  2PAYROLL     01001   0     1845      1901126
3875211251254PAYROLL          4  4072  2PAYROLL     011     2 10     0      0901126
3875311261315PAYROLL          4  4072  2PAYROLL     01001   0   426195      3901126
3875311261315PAYROLL          4  4072  2PAYROLL     011   168 10     0      0901126
0175411261322PAYROLL     000000000000  2MIS/ NEW PAY0050046500000000000000001901126
0175411261322PAYROLL     000000000000  2MIS/ NEW PAY0050046500000000000000001901126
0175411261322PAYROLL     000000000000  2MIS/ NEW PAY0040046500000000000000000901126
3875411261322PAYROLL          4  4072  2MIS/ NEW PAY0050046500000000000000001901126
3875411261322PAYROLL          4  4072  2MIS/ NEW PAY0040000010000000000000000901126
3875611261725BUELNAJ          4 27104  2ORDERS      01001   0   167650      1901126
3875611261725BUELNAJ          4 27104  2ORDERS      011   112 10     0      0901126
3875711261748BUELNAJ          4 27104  2ORDERS      01001   0   475090      1901126
3875711261748BUELNAJ          4 27104  2ORDERS      011   291 10     0      0901126
3875811261910BUELNAJ          4 27104  2ORDERS      01001   0   416145      1901126
3875811261910BUELNAJ          4 27104  2ORDERS      011   330 10     0      0901126
3876011262022BUELNAJ          4 27104  2            01001   0    55400      1901126
3876011262022BUELNAJ          4 27104  2            011   120 10     0      0901126
3875511261718PAYROLL          4  4072  2PAYROLL     01001   0     2255      1901126
3875511261718PAYROLL          4  4072  2PAYROLL     011     2 10     0      0901126
3875911262013BUELNAJ          4 27104  2ORDERS      01001   0  1952585      1901126
3875911262013BUELNAJ          4 27104  2ORDERS      011  1295 10     0      0901126
3876111262153BUELNAJ          4 27104  2ORDERS      01001   0  1166415      1901126
3876111262153BUELNAJ          4 27104  2ORDERS      011   665 10     0      0901126
3876211262355BUELNAJ          4 27104  2STATUS REPOR01001   0   560738      1901127
3876211262355BUELNAJ          4 27104  2STATUS REPOR011   472 10     0      0901127
3876311270728BILLING10        1 44355  0ACTG        0040000010000000000000000901127
3876311270728BILLING10        1 44355  0ACTG        0050000010000000000000000901127
3876611271723PAYROLL          4  4072  2PAYROLL     01001   0    10515      1901127
3876611271723PAYROLL          4  4072  2PAYROLL     011     4 10     0      0901127
3876811281019EDPROD           4641450  2ACTG        01001   0    21045     18901128
3876811281019EDPROD           4641450  2ACTG        011    25 10     0      0901128
3877211281829BUELNAJ          4 27104  2ORDERS      01001   0    62855      1901128
3877211281829BUELNAJ          4 27104  2ORDERS      011    49 10     0      0901128
3877111281828BUELNAJ          4 27104  2ORDERS      01001   0   234315      1901128
3877111281828BUELNAJ          4 27104  2ORDERS      011   175 10     0      0901128
3877011281809BUELNAJ          4 27104  2ORDERS      01001   0   374490      1901128
3877011281809BUELNAJ          4 27104  2ORDERS      011   248 10     0      0901128
3877311281851BUELNAJ          4 27104  2ORDERS      01001   0   318500      1901128
3877311281851BUELNAJ          4 27104  2ORDERS      011   243 10     0      0901128
3877411282005BUELNAJ          4 27104  2AUDIT ACTIVE01001   0   257235      1901128
3877411282005BUELNAJ          4 27104  2AUDIT ACTIVE011    69 10     0      0901128
3876911281714PAYROLL          4  4072  2PAYROLL     01001   0    12465      1901128
3876911281714PAYROLL          4  4072  2PAYROLL     011     4 10     0      0901128
3877611282017BUELNAJ          4 27104  2ORDERS      01001   0  1359860      1901128
3877611282017BUELNAJ          4 27104  2ORDERS      011   839 10     0      0901128
3877711282130BUELNAJ          4 27104  2AUDIT MISSDU01001   0   139890      2901128
3877711282130BUELNAJ          4 27104  2AUDIT MISSDU011    54 10     0      0901128
3876511271352UIS              4125553  2VERTEX MAGCO0070000010001000000000000901128
3876411271256FRANK            4111413  2TAP11B.DIR  0050000470000000000000008901129
3877911291747BUELNAJ          4 27104  2ORDERS      01001   0     4275      1901129
3877911291747BUELNAJ          4 27104  2ORDERS      011     6 10     0      0901129
3877811291706PAYROLL          4  4072  2PAYROLL     01001   0     1845      1901129
3877811291706PAYROLL          4  4072  2PAYROLL     011     2 10     0      0901129
3878411292130BUELNAJ          4 27104  2ORDERS      01001   0   226095      1901129
3878411292130BUELNAJ          4 27104  2ORDERS      011   167 10     0      0901129
3878011291811BUELNAJ          4 27104  2ORDERS      01001   0   251910      1901129
3878011291811BUELNAJ          4 27104  2ORDERS      011   145 10     0      0901129
3878111291833BUELNAJ          4 27104  2ORDERS      01001   0   339005      1901129
3878111291833BUELNAJ          4 27104  2ORDERS      011   240 10     0      0901129
3878211292127BUELNAJ          4 27104  2ORDERS      01001   0  1168485      1901129
3878211292127BUELNAJ          4 27104  2ORDERS      011   741 10     0      0901129
3878611292234BUELNAJ          4 27104  2ORDERS      01001   0  1034865      1901129
3878611292234BUELNAJ          4 27104  2ORDERS      011   600 10     0      0901129
3878511292233BUELNAJ          4 27104  2ORDERS      01001   0   549580      1901130
3878511292233BUELNAJ          4 27104  2ORDERS      011   415 10     0      0901130
3878711292254BUELNAJ          4 27104  2COMMITED INV01001   0  1159860      1901130
3878711292254BUELNAJ          4 27104  2COMMITED INV011   288 10     0      0901130
3878911301903BUELNAJ          4 27104  2ORDERS      01001   0   290545      1901130
3878911301903BUELNAJ          4 27104  2ORDERS      011   176 10     0      0901130
3879111302002BUELNAJ          4 27104  2ORDERS      01001   0   416100      1901130
3879111302002BUELNAJ          4 27104  2ORDERS      011   298 10     0      0901130
3879011301959BUELNAJ          4 27104  2ORDERS      01001   0   472355      1901130
3879011301959BUELNAJ          4 27104  2ORDERS      011   346 10     0      0901130
3815210311433NETSTAT      21477205635201FILE RECOVER0040000050000000000000000911031
3815811010000MSNTRACK     21477454763201            0040000010000000000000000911101
3815811010000MSNTRACK     21477454763201            0050000020000000000000000911101
3815911010648BUELNAJ          4 27104  2ORDERS      01001   0    83280      1911101
3815911010648BUELNAJ          4 27104  2ORDERS      011    64 10     0      0911101
3816111011001PGRADE       21477372774201OCT91 BACKUP0040000010000000000000000911101
3816111011001PGRADE       21477372774201OCT91 BACKUP0050000930000000000000000911101
3816511011734BUELNAJ          4 27104  2ORDERS      01001   0   106070      1911101
3816511011734BUELNAJ          4 27104  2ORDERS      011    85 10     0      0911101
3816211011650BUELNAJ          4 27104  2ORDERS      01001   0   197410      1911101
3816211011650BUELNAJ          4 27104  2ORDERS      011   125 10     0      0911101
3816311011705BUELNAJ          4 27104  2ORDERS      01001   0   232350      1911101
3816311011705BUELNAJ          4 27104  2ORDERS      011   162 10     0      0911101
3816611011744BUELNAJ          4 27104  2ORDERS      01001   0   693705      1911101
3816611011744BUELNAJ          4 27104  2ORDERS      011   441 10     0      0911101
3816711011856BILLING10        1 44355  0            01001   0   359960      3911101
3816711011856BILLING10        1 44355  0            011    90 10     0      0911101
3816011010947BILLING10        1 44355  0BSATFR.OCT  0040000010000000000000000911102
3816011010947BILLING10        1 44355  0BSATFR.OCT  0050002220000000000000002911102
3816811021251BUELNAJ          4 27104  2NODEZ       0070000010001000000000000911102
0117011030001NTRACKDATA  000000000000229            0050000020000000000000000911103
3817011030001NTRACKDATA   21477 14371229            0050000020000000000000000911103
3817011030001NTRACKDATA   21477 14371229            0040000010000000000000000911103
3817111030803BUELNAJ          4 27104  2ORDERS      01001   0    86005      1911103
3817111030803BUELNAJ          4 27104  2ORDERS      011    65 10     0      0911103
3817311040000JMS              34311162382105        01001   0      730      1911104
3817311040000JMS              34311162382105        011     1 10     0      0911104
3816911021405BILLING10        1 44355  0TAP1OC.DIR  0040000100000000000000000911103
3816911021405BILLING10        1 44355  0TAP1OC.DIR  0050000520000000000000009911103
3817411041040DBAMIKE      32120 67260201            0040000010000000000000000911104
0117611041309PAYROLL     000000000000  2MIS/ NEW PAY0050000010000000000000001911104
3817611041309PAYROLL          4  4072  2MIS/ NEW PAY0050049660000000000000001911104
3817511041306PAYROLL          4  4072  2X6415       01001   0   417760      3911104
3817511041306PAYROLL          4  4072  2X6415       011   176 10     0      0911104
3817911041737BUELNAJ          4 27104  2ORDERS      01001   0    18625      1911104
3817911041737BUELNAJ          4 27104  2ORDERS      011    16 10     0      0911104
3818011041741BUELNAJ          4 27104  2ORDERS      01001   0    67695      1911104
3818011041741BUELNAJ          4 27104  2ORDERS      011    46 10     0      0911104
3817811041734BUELNAJ          4 27104  2ORDERS      01001   0    76080      1911104
3817811041734BUELNAJ          4 27104  2ORDERS      011    54 10     0      0911104
3818211041858BUELNAJ          4 27104  2ORDERS      01001   0   751955      1911104
3818211041858BUELNAJ          4 27104  2ORDERS      011   474 10     0      0911104
3818111041807BUELNAJ          4 27104  2ORDERS      01001   0   372630      1911104
3818111041807BUELNAJ          4 27104  2ORDERS      011   229 10     0      0911104
3818311041946BUELNAJ          4 27104  2ORDERS      01001   0   797400      1911104
3818311041946BUELNAJ          4 27104  2ORDERS      011   561 10     0      0911104
3815310311716PAYROLL          4  4072  2PAYROLL     01001   0     1845      1911105
3815310311716PAYROLL          4  4072  2PAYROLL     011     2 10     0      0911105
3816411011708PAYROLL          4  4072  2PAYROLL     01001   0    12595      1911105
3816411011708PAYROLL          4  4072  2PAYROLL     011     4 10     0      0911105
3817711041716PAYROLL          4  4072  2PAYROLL     01001   0     1845      1911105
3817711041716PAYROLL          4  4072  2PAYROLL     011     2 10     0      0911105
3817211031321PAYROLL          4  4072  2PAYROLL     01001   0     1845      1911105
3817211031321PAYROLL          4  4072  2PAYROLL     011     2 10     0      0911105
3818411051738NETSTAT      21477205635201FILE RECOVER0040000040000000000000000911106
3818711061810BUELNAJ          4 27104  2ORDERS      01001   0     6115      1911106
3818711061810BUELNAJ          4 27104  2ORDERS      011     7 10     0      0911106
3818811061856BUELNAJ          4 27104  2ORDERS      01001   0   287630      1911106
3818811061856BUELNAJ          4 27104  2ORDERS      011   165 10     0      0911106
3818911062004BUELNAJ          4 27104  2ORDERS      01001   0  1034395      1911106
3818911062004BUELNAJ          4 27104  2ORDERS      011   676 10     0      0911106
3819011062026BUELNAJ          4 27104  2ORDERS      01001   0   255645      1911106
3819011062026BUELNAJ          4 27104  2ORDERS      011   176 10     0      0911106
3819111062101BUELNAJ          4 27104  2ORDERS      01001   0   444715      1911106
3819111062101BUELNAJ          4 27104  2ORDERS      011   291 10     0      0911106
3819211062213BUELNAJ          4 27104  2ORDERS      01001   0  1144065      1911106
3819211062213BUELNAJ          4 27104  2ORDERS      011   721 10     0      0911106
3819411071727BUELNAJ          4 27104  2ORDERS      01001   0    25305      1911107
3819411071727BUELNAJ          4 27104  2ORDERS      011    19 10     0      0911107
3819311071727BUELNAJ          4 27104  2ORDERS      01001   0    25305      1911107
3819311071727BUELNAJ          4 27104  2ORDERS      011    19 10     0      0911107
3819511071750BUELNAJ          4 27104  2ORDERS      01001   0    49470      1911107
3819511071750BUELNAJ          4 27104  2ORDERS      011    39 10     0      0911107
3819611071758BUELNAJ          4 27104  2ORDERS      01001   0    21620      1911107
3819611071758BUELNAJ          4 27104  2ORDERS      011    18 10     0      0911107
3819811071812BUELNAJ          4 27104  2ORDERS      01001   0   214300      1911107
3819811071812BUELNAJ          4 27104  2ORDERS      011   147 10     0      0911107
3819911071835BUELNAJ          4 27104  2ORDERS      01001   0   348330      1911107
3819911071835BUELNAJ          4 27104  2ORDERS      011   236 10     0      0911107
3820011071946BUELNAJ          4 27104  2ORDERS      01001   0  1058920      1911107
3820011071946BUELNAJ          4 27104  2ORDERS      011   679 10     0      0911107
3820111080616BUELNAJ          4 27104  2ORDERS      01001   0    76405      1911108
3820111080616BUELNAJ          4 27104  2ORDERS      011    64 10     0      0911108
3820211080909EDPROD           4641450  2ORDERS      01001   0  1237225      1911108
3820211080909EDPROD           4641450  2ORDERS      011   770 10     0      0911108
3819711071804PAYROLL          4  4072  2PAYROLL     01001   0    12205      1911108
3819711071804PAYROLL          4  4072  2PAYROLL     011     4 10     0      0911108
3818611061715PAYROLL          4  4072  2PAYROLL     01001   0     2255      1911108
3818611061715PAYROLL          4  4072  2PAYROLL     011     2 10     0      0911108
3818511051852PAYROLL          4  4072  2PAYROLL     01001   0     2775      1911108
3818511051852PAYROLL          4  4072  2PAYROLL     011     2 10     0      0911108
3820311081655BUELNAJ          4 27104  2ORDERS      01001   0    84315      1911108
3820311081655BUELNAJ          4 27104  2ORDERS      011    56 10     0      0911108
3820511081728BUELNAJ          4 27104  2ORDERS      01001   0   343530      1911108
3820511081728BUELNAJ          4 27104  2ORDERS      011   243 10     0      0911108
3820711081806BUELNAJ          4 27104  2ORDERS      01001   0   545135      1911108
3820711081806BUELNAJ          4 27104  2ORDERS      011   362 10     0      0911108
3820811100000NTRACKDATA   21477 14371229            0050000020000000000000000911110
3820811100000NTRACKDATA   21477 14371229            0040000020000000000000000911110
3821011110630EDPROD           4641450  2ACTG        01001   0    82555      1911111
3821011110630EDPROD           4641450  2ACTG        011    75 10     0      0911111
3820411081721PAYROLL          4  4072  2PAYROLL     01001   0    28465      1911111
3820411081721PAYROLL          4  4072  2PAYROLL     011     8 10     0      0911111
3820911101314PAYROLL          4  4072  2PAYROLL     01001   0     1845      1911111
3820911101314PAYROLL          4  4072  2PAYROLL     011     2 10     0      0911111
3821111111334PAYROLL          4  4072  2X6415       01001   0   421035      3911111
3821111111334PAYROLL          4  4072  2X6415       011   178 10     0      0911111
3821211111340PAYROLL          4  4072  2MIS/ NEW PAY0050049690000000000000001911111
3821211111340PAYROLL          4  4072  2MIS/ NEW PAY0010000300100000000000000911111
3821411111807BUELNAJ          4 27104  2ORDERS      01001   0   445395      1911111
3821411111807BUELNAJ          4 27104  2ORDERS      011   295 10     0      0911111
3821511111909BUELNAJ          4 27104  2ORDERS      01001   0   749535      1911111
3821511111909BUELNAJ          4 27104  2ORDERS      011   495 10     0      0911111
3821311111730PAYROLL          4  4072  2PAYROLL     01001   0     2255      1911112
3821311111730PAYROLL          4  4072  2PAYROLL     011     2 10     0      0911112
3821611121741BUELNAJ          4 27104  2ORDERS      01001   0   599690      1911112
3821611121741BUELNAJ          4 27104  2ORDERS      011   377 10     0      0911112
3821811121755BUELNAJ          4 27104  2ORDERS      01001   0   145515      1911112
3821811121755BUELNAJ          4 27104  2ORDERS      011   116 10     0      0911112
3822011131709BUELNAJ          4 27104  2ORDERS      01001   0    12895      1911113
3822011131709BUELNAJ          4 27104  2ORDERS      011    13 10     0      0911113
3822111131714BUELNAJ          4 27104  2ORDERS      01001   0    67510      1911113
3822111131714BUELNAJ          4 27104  2ORDERS      011    53 10     0      0911113
3822311131748BUELNAJ          4 27104  2ORDERS      01001   0   595360      1911113
3822311131748BUELNAJ          4 27104  2ORDERS      011   387 10     0      0911113
3822411131835BUELNAJ          4 27104  2ORDERS      01001   0   310645      1911113
3822411131835BUELNAJ          4 27104  2ORDERS      011   216 10     0      0911113
3822511131836BUELNAJ          4 27104  2ORDERS      01001   0   260535      1911113
3822511131836BUELNAJ          4 27104  2ORDERS      011   180 10     0      0911113
3821911131311FRANK            4111413  2TAP1NA.DIR  0040000010000000000000000911114
3821911131311FRANK            4111413  2TAP1NA.DIR  0050000440000000000000000911114
3822711141844BUELNAJ          4 27104  2ORDERS      01001   0   543800      1911114
3822711141844BUELNAJ          4 27104  2ORDERS      011   355 10     0      0911114
3822911142242BUELNAJ          4 27104  2ORDERS      01001   0   334290      1911114
3822911142242BUELNAJ          4 27104  2ORDERS      011   216 10     0      0911114
3822811142221BUELNAJ          4 27104  2ORDERS      01001   0   443760      1911114
3822811142221BUELNAJ          4 27104  2ORDERS      011   294 10     0      0911114
3823011142325BUELNAJ          4 27104  2ORDERS      01001   0   759025      1911115
3823011142325BUELNAJ          4 27104  2ORDERS      011   503 10     0      0911115
3823111150008BUELNAJ          4 27104  2ORDERS      01001   0   760550      1911115
3823111150008BUELNAJ          4 27104  2ORDERS      011   544 10     0      0911115
3823211150547BUELNAJ          4 27104  2ORDERS      01001   0    84205      1911115
3823211150547BUELNAJ          4 27104  2ORDERS      011    68 10     0      0911115
3821711121742PAYROLL          4  4072  2PAYROLL     01001   0     2255      1911115
3821711121742PAYROLL          4  4072  2PAYROLL     011     2 10     0      0911115
3822211131724PAYROLL          4  4072  2PAYROLL     01001   0     6385      1911115
3822211131724PAYROLL          4  4072  2PAYROLL     011     3 10     0      0911115
3822611141728PAYROLL          4  4072  2PAYROLL     01001   0     1845      1911115
3822611141728PAYROLL          4  4072  2PAYROLL     011     2 10     0      0911115
3823311150858FRANK            4111413  2ORDERS      01001   0   760550      1911115
3823311150858FRANK            4111413  2ORDERS      011   544 10     0      0911115
3823411151051DBSCHED      32120305225229            0040000010000000000000000911115
3823511151739BUELNAJ          4 27104  2ORDERS      01001   0     9125      1911115
3823511151739BUELNAJ          4 27104  2ORDERS      011    10 10     0      0911115
3823711151753BUELNAJ          4 27104  2ORDERS      01001   0   174185      1911115
3823711151753BUELNAJ          4 27104  2ORDERS      011   115 10     0      0911115
3823811151801BUELNAJ          4 27104  2ORDERS      01001   0   158635      1911115
3823811151801BUELNAJ          4 27104  2ORDERS      011    98 10     0      0911115
3823911151823BUELNAJ          4 27104  2ORDERS      01001   0   345875      1911115
3823911151823BUELNAJ          4 27104  2ORDERS      011   221 10     0      0911115
3824011151844BUELNAJ          4 27104  2ORDERS      01001   0   407535      1911115
3824011151844BUELNAJ          4 27104  2ORDERS      011   278 10     0      0911115
3824111170001NTRACKDATA   21477 14371229            0050000040000000000000000911117
3824111170001NTRACKDATA   21477 14371229            0040000010000000000000000911117
3824311171421BUELNAJ          4 27104  2ORDERS      01001   0    84990      1911117
3824311171421BUELNAJ          4 27104  2ORDERS      011    67 10     0      0911117
3824211171308PAYROLL          4  4072  2PAYROLL     01001   0     1845      1911118
3824211171308PAYROLL          4  4072  2PAYROLL     011     2 10     0      0911118
3823611151748PAYROLL          4  4072  2PAYROLL     01001   0    26045      1911118
3823611151748PAYROLL          4  4072  2PAYROLL     011     7 10     0      0911118
3824411180920ATTEND.DEV       4454260  2PAYROLL     01001   0     1845      1911118
3824411180920ATTEND.DEV       4454260  2PAYROLL     011     2 10     0      0911118
3824611181417PAYROLL          4  4072  2MIS/ NEW PAY0050049770000000000000001911118
3824811181752BUELNAJ          4 27104  2ORDERS      01001   0   496245      1911118
3824811181752BUELNAJ          4 27104  2ORDERS      011   322 10     0      0911118
3825011181830BUELNAJ          4 27104  2ORDERS      01001   0   226125      1911118
3825011181830BUELNAJ          4 27104  2ORDERS      011   163 10     0      0911118
3824911181811BUELNAJ          4 27104  2ORDERS      01001   0   258825      1911118
3824911181811BUELNAJ          4 27104  2ORDERS      011   174 10     0      0911118
3824511181414PAYROLL          4  4072  2X6415       01001   0   421560      3911119
3824511181414PAYROLL          4  4072  2X6415       011   178 10     0      0911119
3824711181737PAYROLL          4  4072  2PAYROLL     01001   0     5755      1911119
3824711181737PAYROLL          4  4072  2PAYROLL     011     3 10     0      0911119
3825411201823BUELNAJ          4 27104  2ORDERS      01001   0   222925      1911120
3825411201823BUELNAJ          4 27104  2ORDERS      011   130 10     0      0911120
3825611201947BUELNAJ          4 27104  2ORDERS      01001   0   161920      1911120
3825611201947BUELNAJ          4 27104  2ORDERS      011   121 10     0      0911120
3825511201932BUELNAJ          4 27104  2ORDERS      01001   0   693680      1911120
3825511201932BUELNAJ          4 27104  2ORDERS      011   433 10     0      0911120
3825711202045BUELNAJ          4 27104  2ORDERS      01001   0   517010      1911120
3825711202045BUELNAJ          4 27104  2ORDERS      011   389 10     0      0911120
3825811202238BUELNAJ          4 27104  2ORDERS      01001   0    59403      1911121
3825811202238BUELNAJ          4 27104  2ORDERS      011  1367 10     0      0911121
0125211201524JJOELS      000000000000200            0040000200000000000000000911121
3826111211802BUELNAJ          4 27104  2ORDERS      01001   0    24695      1911121
3826111211802BUELNAJ          4 27104  2ORDERS      011    17 10     0      0911121
3826011211714BUELNAJ          4 27104  2ORDERS      01001   0  1260520      1911121
3826011211714BUELNAJ          4 27104  2ORDERS      011   796 10     0      0911121
3826311211913BUELNAJ          4 27104  2ORDERS      01001   0   773795      1911121
3826311211913BUELNAJ          4 27104  2ORDERS      011   490 10     0      0911121
3826411212011BUELNAJ          4 27104  2ORDERS      01001   0   704160      1911121
3826411212011BUELNAJ          4 27104  2ORDERS      011   459 10     0      0911121
3826511212052BUELNAJ          4 27104  2ORDERS      01001   0   603730      1911121
3826511212052BUELNAJ          4 27104  2ORDERS      011   428 10     0      0911121
3825211201524JJOELS       11334474103200            0040000240000000000000000911121
3826611220555BUELNAJ          4 27104  2ORDERS      01001   0    79900      1911122
3826611220555BUELNAJ          4 27104  2ORDERS      011    68 10     0      0911122
3826811221156EDPROD           4641450  2ACTG        01001   0    83100      1911122
3826811221156EDPROD           4641450  2ACTG        011   180 10     0      0911122
3826911221310PAYROLL          4  4072  2X6415       01001   0   417050      3911122
3826911221310PAYROLL          4  4072  2X6415       011   177 10     0      0911122
3827011221312PAYROLL          4  4072  2MIS/ NEW PAY0050049710000000000000001911122
3827211221725BUELNAJ          4 27104  2ORDERS      01001   0   247090      1911122
3827211221725BUELNAJ          4 27104  2ORDERS      011   160 10     0      0911122
3827311221740BUELNAJ          4 27104  2ORDERS      01001   0   195255      1911122
3827311221740BUELNAJ          4 27104  2ORDERS      011   138 10     0      0911122
3826711220915JCLMIN       11447271412  0JULIAN      0040000100000000000000000911122
3827411240000NTRACKDATA   21477 14371229            0050000020000000000000000911124
3827411240000NTRACKDATA   21477 14371229            0040000010000000000000000911124
3827611250000JMS              34311162382105        01001   0      730      1911125
3827611250000JMS              34311162382105        011     1 10     0      0911125
3827711250942CTS         044054664024229            0 9    82   105388      0911125
3827811251343RJK              4   130  2ACTG        01001   0    27390     21911125
3827811251343RJK              4   130  2ACTG        011    32 10     0      0911125
3825111191732PAYROLL          4  4072  2PAYROLL     01001   0     2775      1911125
3825111191732PAYROLL          4  4072  2PAYROLL     011     2 10     0      0911125
3825311201733PAYROLL          4  4072  2PAYROLL     01001   0     3035      1911125
3825311201733PAYROLL          4  4072  2PAYROLL     011     2 10     0      0911125
3826211211818PAYROLL          4  4072  2PAYROLL     01001   0     4335      1911125
3826211211818PAYROLL          4  4072  2PAYROLL     011     2 10     0      0911125
3827111221710PAYROLL          4  4072  2PAYROLL     01001   0     3685      1911125
3827111221710PAYROLL          4  4072  2PAYROLL     011     2 10     0      0911125
3827511241235PAYROLL          4  4072  2PAYROLL     01001   0     1845      1911125
3827511241235PAYROLL          4  4072  2PAYROLL     011     2 10     0      0911125
3828111251443BUELNAJ          4 27104  2ORDERS      01001   0    51670      1911125
3828111251443BUELNAJ          4 27104  2ORDERS      011    44 10     0      0911125
3828211251535BUELNAJ          4 27104  2ORDERS      01001   0   268020      1911125
3828211251535BUELNAJ          4 27104  2ORDERS      011   175 10     0      0911125
3828411251958BUELNAJ          4 27104  2ORDERS      01001   0   788465      1911125
3828411251958BUELNAJ          4 27104  2ORDERS      011   552 10     0      0911125
3827911251355BUELNAJ          4 27104  2TAP1NB.DIR  0040000010000000000000000911126
3827911251355BUELNAJ          4 27104  2TAP1NB.DIR  0050000470000000000000000911126
3828611261701BUELNAJ          4 27104  2ORDERS      01001   0     7375      1911126
3828611261701BUELNAJ          4 27104  2ORDERS      011     8 10     0      0911126
3828811261726BUELNAJ          4 27104  2ORDERS      01001   0    13390      1911126
3828811261726BUELNAJ          4 27104  2ORDERS      011    13 10     0      0911126
3828511261316UIS              4125553  2VERTEX MAGCO0070000010001000000000000911127
3864311010000NTRACKDATA   21477 14371229            0050000040000000000000000921101
3864311010000NTRACKDATA   21477 14371229            0040000010000000000000000921101
3864511011412PAYROLL          4  4072  2MIS/  PAYROL0050049330000000000000000921101
3864611020047OPER        000001000021  0CDC         0 9    83   349823      0921102
3864711021152FRANK       000004111413  2            0 9     1      717      0921102
3864711021152FRANK       000004111413  2            0 9     1     2899      0921102
3864711021152FRANK       000004111413  2            0 9     1      729      0921102
3864711021152FRANK       000004111413  2            0 9     1      646      0921102
3864711021152FRANK       000004111413  2            0 9     1      568      0921102
3864711021152FRANK       000004111413  2            0 9     1      691      0921102
3864711021152FRANK       000004111413  2            0 9     1      698      0921102
3864711021153FRANK       000004111413  2            0 9     3     2727      0921102
3864711021153FRANK       000004111413  2            0 9     3     2587      0921102
3864711021153FRANK       000004111413  2            0 9     1      571      0921102
3864711021153FRANK       000004111413  2            0 9     1     1330      0921102
3864711021153FRANK       000004111413  2            0 9     1     1205      0921102
0164811021205MSNTRACK    000000000000201            0050000010000000000000000921102
3864110301949PAYROLL          4  4072  2PAYROLL     01001   0    22415      1921102
3864110301949PAYROLL          4  4072  2PAYROLL     011     6 10     0      0921102
3864411011359PAYROLL          4  4072  2PAYROLL     01001   0     1845      1921102
3864411011359PAYROLL          4  4072  2PAYROLL     011     2 10     0      0921102
3864811021205MSNTRACK     21477454763201            0040000010000000000000000921102
3864911021406PAYROLL          4  4072  2X6415       01001   0   449485      3921102
3864911021406PAYROLL          4  4072  2X6415       011   190 10     0      0921102
3865111030737BUELNAJ          4 27104  2NONE        01001   0   676895      1921103
3865111030737BUELNAJ          4 27104  2NONE        011   430 10     0      0921103
3865211030815BUELNAJ          4 27104  2NONE        01001   0   501640      1921103
3865211030815BUELNAJ          4 27104  2NONE        011   325 10     0      0921103
3865311031012BILLING10        1 44355  0BSATFR.OCT  0050000980000000000000000921103
3865611051414OPER        000001000021  0CDC         0 9     1       32      0921105
3865811052047FRANK            4111413  2ORDERS      01001   0    35775      1921106
3865811052047FRANK            4111413  2ORDERS      011    31 10     0      0921106
3862610261637NEWSALES     21472575545229NETSTAT WEEK0040000220000000000000000921106
3866011080000NTRACKDATA   21477 14371229            0050000040000000000000000921108
3866211081224PAYROLL          4  4072  2MIS/  PAYROL0050049350000000000000000921108
3865011021809PAYROLL          4  4072  2PAYROLL     01001   0     1845      1921109
3865011021809PAYROLL          4  4072  2PAYROLL     011     2 10     0      0921109
3865411031804PAYROLL          4  4072  2PAYROLL     01001   0     1845      1921109
3865411031804PAYROLL          4  4072  2PAYROLL     011     2 10     0      0921109
3865511041806PAYROLL          4  4072  2PAYROLL     01001   0     1845      1921109
3865511041806PAYROLL          4  4072  2PAYROLL     011     2 10     0      0921109
3865711051830PAYROLL          4  4072  2PAYROLL     01001   0     1845      1921109
3865711051830PAYROLL          4  4072  2PAYROLL     011     2 10     0      0921109
3865911061812PAYROLL          4  4072  2PAYROLL     01001   0    21395      1921109
3865911061812PAYROLL          4  4072  2PAYROLL     011     6 10     0      0921109
3866111081222PAYROLL          4  4072  2PAYROLL     01001   0     1845      1921109
3866111081222PAYROLL          4  4072  2PAYROLL     011     2 10     0      0921109
3866411091407PAYROLL          4  4072  2X6415       01001   0   446675      3921109
3866411091407PAYROLL          4  4072  2X6415       011   188 10     0      0921109
3866311091545JJOELS       11334474103200            0040000010000000000000000921109
3866711092003BUELNAJ          4 27104  2ORDERS      01001   0    32955      1921109
3866711092003BUELNAJ          4 27104  2ORDERS      011    23 10     0      0921109
3866811092009BUELNAJ          4 27104  2ORDERS      01001   0   116540      1921109
3866811092009BUELNAJ          4 27104  2ORDERS      011    74 10     0      0921109
3866611092000BUELNAJ          4 27104  2ORDERS      01001   0   116540      1921109
3866611092000BUELNAJ          4 27104  2ORDERS      011    74 10     0      0921109
3867411122201BUELNAJ          4 27104  2ORDERS      01001   0  1469300      1921113
3867411122201BUELNAJ          4 27104  2ORDERS      011   946 10     0      0921113
3867111111039FRANK            4111413  2TAP2OC.DIR  0040000140000000000000000921113
3867111111039FRANK            4111413  2TAP2OC.DIR  0050000500000000000000000921113
3867511130116BUELNAJ          4 27104  2ORDERS      01001   0    58460      1921114
3867511130116BUELNAJ          4 27104  2ORDERS      011    39 10     0      0921114
3867611130118BUELNAJ          4 27104  2ORDERS      01001   0    42885      1921114
3867611130118BUELNAJ          4 27104  2ORDERS      011    30 10     0      0921114
3867711131120NEWSALES     21472575545229XEROX       0040000100000000000000000921114
3868011150000NTRACKDATA   21477 14371229            0050000040000000000000000921115
3868011150000NTRACKDATA   21477 14371229            0040000010000000000000000921115
3868211151249PAYROLL          4  4072  2MIS/  PAYROL0050049350000000000000000921115
3868311151452BUELNAJ          4 27104  2ORDERS      01001   0    34505      1921115
3868311151452BUELNAJ          4 27104  2ORDERS      011    29 10     0      0921115
3866911092140PAYROLL          4  4072  2PAYROLL     01001   0     1845      1921116
3866911092140PAYROLL          4  4072  2PAYROLL     011     2 10     0      0921116
3867011101733PAYROLL          4  4072  2PAYROLL     01001   0     1845      1921116
3867011101733PAYROLL          4  4072  2PAYROLL     011     2 10     0      0921116
3867211111721PAYROLL          4  4072  2PAYROLL     01001   0     1845      1921116
3867211111721PAYROLL          4  4072  2PAYROLL     011     2 10     0      0921116
3867311122039PAYROLL          4  4072  2PAYROLL     01001   0     1845      1921116
3867311122039PAYROLL          4  4072  2PAYROLL     011     2 10     0      0921116
3867811131723PAYROLL          4  4072  2PAYROLL     01001   0    18025      1921116
3867811131723PAYROLL          4  4072  2PAYROLL     011     5 10     0      0921116
3867911131913PAYROLL          4  4072  2PAYROLL     01001   0     1845      1921116
3867911131913PAYROLL          4  4072  2PAYROLL     011     2 10     0      0921116
3868111151239PAYROLL          4  4072  2PAYROLL     01001   0     1845      1921116
3868111151239PAYROLL          4  4072  2PAYROLL     011     2 10     0      0921116
3868611161410PAYROLL          4  4072  2X6415       01001   0   443275      3921116
3868611161410PAYROLL          4  4072  2X6415       011   188 10     0      0921116
3868411160000JMS              34311162382105        0 1     1 10000000       921116
3868811171239JJOELS       11334474103200            0040000010000000000000000921117
3869211181858PAYROLL          4  4072  2MIS/  PAYROL0050049450000000000000000921119
3869211181858PAYROLL          4  4072  2MIS/  PAYROL0040000010000000000000000921119
3868711161759PAYROLL          4  4072  2PAYROLL     01001   0     1845      1921119
3868711161759PAYROLL          4  4072  2PAYROLL     011     2 10     0      0921119
3868911171725PAYROLL          4  4072  2PAYROLL     01001   0     1845      1921119
3868911171725PAYROLL          4  4072  2PAYROLL     011     2 10     0      0921119
3869111181855PAYROLL          4  4072  2PAYROLL     01001   0    10515      1921119
3869111181855PAYROLL          4  4072  2PAYROLL     011     4 10     0      0921119
3869311191415PAYROLL          4  4072  2X6415       01001   0   440005      3921119
3869311191415PAYROLL          4  4072  2X6415       011   187 10     0      0921119
3869511191728BUELNAJ          4 27104  2ORDERS      01001   0    74960      1921119
3869511191728BUELNAJ          4 27104  2ORDERS      011    59 10     0      0921119
3869611192030FRANK            4111413  2ORDERS      01001   0    34465      1921119
3869611192030FRANK            4111413  2ORDERS      011    29 10     0      0921119
0169011181418FRANK       000000000000  2TAP2NA.DIR  0050000470000000000000000921120
0169011181418FRANK       000000000000  2TAP2NA.DIR  0040000010000000000000000921120
3869011181418FRANK            4111413  2TAP2NA.DIR  0040000120000000000000000921120
3869011181418FRANK            4111413  2TAP2NA.DIR  0050000470000000000000000921120
3869811220000NTRACKDATA   21477 14371229            0050000040000000000000000921122
3869811220000NTRACKDATA   21477 14371229            0040000010000000000000000921122
3870011221259PAYROLL          4  4072  2MIS/  PAYROL0050049460000000000000000921122
3870111221520OPER        000001000021  0            0 9    83   351153      0921122
3870311232159OPER             1    21  0TAP2NB.DIR  0040000010000000000000000921124
3870311232159OPER             1    21  0TAP2NB.DIR  0050000360000000000000000921124
3870711290000NTRACKDATA   21477 14371229            0050000040000000000000000921129
3870711290000NTRACKDATA   21477 14371229            0040000010000000000000000921129
3870911291245PAYROLL          4  4072  2MIS/  PAYROL0050049460000000000000000921129
3871011291500OPER        000001000021  0            0 9    83   351153      0921129
3869411191721PAYROLL          4  4072  2PAYROLL     01001   0     4985      1921130
3869411191721PAYROLL          4  4072  2PAYROLL     011     2 10     0      0921130
3869711201724PAYROLL          4  4072  2PAYROLL     01001   0     1845      1921130
3869711201724PAYROLL          4  4072  2PAYROLL     011     2 10     0      0921130
3869911221253PAYROLL          4  4072  2PAYROLL     01001   0     1845      1921130
3869911221253PAYROLL          4  4072  2PAYROLL     011     2 10     0      0921130
3870211231853PAYROLL          4  4072  2PAYROLL     01001   0     1845      1921130
3870211231853PAYROLL          4  4072  2PAYROLL     011     2 10     0      0921130
3870411241837PAYROLL          4  4072  2PAYROLL     01001   0     1845      1921130
3870411241837PAYROLL          4  4072  2PAYROLL     011     2 10     0      0921130
3870611251744PAYROLL          4  4072  2PAYROLL     01001   0     4595      1921130
3870611251744PAYROLL          4  4072  2PAYROLL     011     2 10     0      0921130
3870811291242PAYROLL          4  4072  2PAYROLL     01001   0     1845      1921130
3870811291242PAYROLL          4  4072  2PAYROLL     011     2 10     0      0921130
3871111301417PAYROLL          4  4072  2X6415       01001   0   497730      3921130
3871111301417PAYROLL          4  4072  2X6415       011   200 10     0      0921130
3871211301525FRANK       000004111413  2            0 9     1      743      0921130
3871211301526FRANK       000004111413  2            0 9     1     2898      0921130
3871211301526FRANK       000004111413  2            0 9     1      729      0921130
3871211301526FRANK       000004111413  2            0 9     1      650      0921130
3871211301526FRANK       000004111413  2            0 9     1      568      0921130
3871211301526FRANK       000004111413  2            0 9     1      691      0921130
3871211301526FRANK       000004111413  2            0 9     1      698      0921130
3871211301527FRANK       000004111413  2            0 9     3     2727      0921130
3871211301527FRANK       000004111413  2            0 9     3     2587      0921130
3871211301527FRANK       000004111413  2            0 9     1      571      0921130
3871211301527FRANK       000004111413  2            0 9     1     1330      0921130
3871211301527FRANK       000004111413  2            0 9     1     1205      0921130
3870511250845UIS              4125553  2VERTEX MAGCO0070000010001000000000000921130
3850511010000MSNTRACK     21477454763201            0050000040000000000000000931101
3850511010000MSNTRACK     21477454763201            0040000010000000000000000931101
3850210310844BILLING10        1 44355  0MAGCON      0070000040002000000000000931101
3850611010833NETSTAT2     21477145146201A FILE FROM 0040000010000000000000000931101
3850611010833NETSTAT2     21477145146201A FILE FROM 0050000010000000000000000931101
3851011011408PAYROLL          4  4072  2X6415       01001   0   487780      3931101
3851011011408PAYROLL          4  4072  2X6415       011   206 10     0      0931101
3850911011239BILLING10        1 44355  0BSATFR.OCT  0040000010000000000000000931101
3850911011239BILLING10        1 44355  0BSATFR.OCT  0050001210000000000000000931101
3850711011223FRANK            4111413  2MAGCON      0070000040002000000000000931102
3851211020641SPOOLRM      11016165320  2NONE        01001   0     1960      1931102
3851211020641SPOOLRM      11016165320  2NONE        011     1 10     0      0931102
3851411021027NETSTAT2     21477145146201FILE FROM 380040000010000000000000000931102
3851411021027NETSTAT2     21477145146201FILE FROM 380050000010000000000000000931102
3851311021026BILLING10        1 44355  0TAP3OC.DIR  0040000140000000000000000931103
3851311021026BILLING10        1 44355  0TAP3OC.DIR  0050000510000000000000013931103
3851611031327FRANK            4111413  2MAGCON      0070000070003000000000000931105
3852011070000NTRACKDATA   21477 14371229            0050000040000000000000000931107
3852011070000NTRACKDATA   21477 14371229            0040000010000000000000000931107
3852211071321PAYROLL          4  4072  2MIS/  PAYROL0050052270000000000000000931107
3852311081405PAYROLL          4  4072  2X6415       01001   0   484015      3931108
3852311081405PAYROLL          4  4072  2X6415       011   204 10     0      0931108
3852411081811PAYROLL          4  4072  2PAYROLL     01001   0     1845      1931108
3852411081811PAYROLL          4  4072  2PAYROLL     011     2 10     0      0931108
3852711101111WATECH       44047251216229RECOVERY    0040000060000000000000000931111
3852511090920FRANK            4111413  2MAGCON      0070000070003000000000000931111
3852811101237FRANK            4111413  2MAGCON      0070000070004000000000000931112
3853311140000NTRACKDATA   21477 14371229            0050000040000000000000000931114
3853311140000NTRACKDATA   21477 14371229            0040000010000000000000000931114
3853611141332PAYROLL          4  4072  2MIS/  PAYROL0050052270000000000000000931114
3853411141146BILLING10        1 44355  0MAGCON      0070000040002000000000000931115
3853811151405PAYROLL          4  4072  2X6415       01001   0   488255      3931116
3853811151405PAYROLL          4  4072  2X6415       011   207 10     0      0931116
3853211131408BILLING10        1 44355  0TAP3NA.DIR  0050000540000000000000014931117
3853211131408BILLING10        1 44355  0TAP3NA.DIR  0040000140000000000000000931117
3854011161428FRANK            4111413  2MAGCON      0070000070003000000000000931118
3854311181044CTSFORD      44054762674229            0040000010000000000000000931118
3854411181408CTSFORD      44054762674229            0040000010000000000000000931118
3854511181408PAYROLL          4  4072  2X6415       01001   0   478350      3931118
3854511181408PAYROLL          4  4072  2X6415       011   204 10     0      0931118
3854711191528FRANK            4111413  2MAGCON      0070000060003000000000000931121
3854911210000NTRACKDATA   21477 14371229            0050000040000000000000000931121
3854911210000NTRACKDATA   21477 14371229            0040000010000000000000000931121
3855511231229UIS              4125553  2VERTEX MAGCO0070000010001000000000000931123
3855211220938FRANK            4111413  2TAP3NB.DIR  0050000470000000000000000931123
3855311221542FRANK            4111413  2MAGCON      0070000070003000000000000931123
3855811250941OPER             1    21  0MAGCON      0070000040002000000000000931126
3856111280000NTRACKDATA   21477 14371229            0040000010000000000000000931128
3856111280000NTRACKDATA   21477 14371229            0050000010000000000000000931128
3856311281226PAYROLL          4  4072  2MIS/  PAYROL0040000010000000000000000931128
3856311281226PAYROLL          4  4072  2MIS/  PAYROL0050052290000000000000000931128
3856411291407PAYROLL          4  4072  2X6415       01001   0   532585      3931129
3856411291407PAYROLL          4  4072  2X6415       011   216 10     0      0931129
3856511291931JJOELS       11334474103200            0040000060000000000000000931130
3856711301122DANIELSR         1142734  0FILE RESTORE0040000020000000000000000931130
3856711301122DANIELSR         1142734  0FILE RESTORE0050000020000000000000000931130
3884310271259NETSTAT      21477205635201FILE RESTORE0040000190000000000000000941031
QAo&'