3855005301616UIS              4125553  2VERTEX MAGCO0070000010001000000000000900531
3857406011211CTS         04405466402422969          0 9    26    54572      0900601
3857806011814BUELNAJ          4 27104  2ORDERS      01001   0    36045      1900601
3857806011814BUELNAJ          4 27104  2ORDERS      011    28 10     0      0900601
3857706011808PAYROLL          4  4072  2PAYROLL     01001   0    43325      1900601
3857706011808PAYROLL          4  4072  2PAYROLL     011    11 10     0      0900601
3857606011808BUELNAJ          4 27104  2ORDERS      01001   0    45390      1900601
3857606011808BUELNAJ          4 27104  2ORDERS      011    30 10     0      0900601
3857506011625BUELNAJ          4 27104  2            01001   0   341180      3900601
3857506011625BUELNAJ          4 27104  2            011    88 10     0      0900601
3857906011824BUELNAJ          4 27104  2ORDERS      01001   0   253065      1900601
3857906011824BUELNAJ          4 27104  2ORDERS      011   184 10     0      0900601
3858106011926BUELNAJ          4 27104  2ORDERS      01001   0   222455      1900601
3858106011926BUELNAJ          4 27104  2ORDERS      011   176 10     0      0900601
3858006011907BUELNAJ          4 27104  2ORDERS      01001   0   886900      1900601
3858006011907BUELNAJ          4 27104  2ORDERS      011   526 10     0      0900601
3858206012017BUELNAJ          4 27104  2ORDERS      01001   0   713715      1900601
3858206012017BUELNAJ          4 27104  2ORDERS      011   455 10     0      0900601
3857306011006BILLING10        1 44355  0BSATFR.MAY  0050002510000000000000002900601
3857306011006BILLING10        1 44355  0BSATFR.MAY  0040002510000000000000000900601
3858306012108BUELNAJ          4 27104  2ORDERS      01001   0   532035      1900601
3858306012108BUELNAJ          4 27104  2ORDERS      011   407 10     0      0900601
3858506012311BUELNAJ          4 27104  2STAT RPT    01001   0  1551970      1900601
3858506012311BUELNAJ          4 27104  2STAT RPT    011   280 10     0      0900601
3858406012230BUELNAJ          4 27104  2NODEZ       0070000010001000000000000900601
3858606020112SILVAM           1230617  0WK0521      0 1    30 10000000      0900602
3858706020112SILVAM           1230617  0WK0528      0 1     8 10000000      0900602
3858806020150SILVAM           1230617  0MTHMAY      0 1    33 10000000      0900602
3858906030945BUELNAJ          4 27104  2STORE       0050000930000000000000001900603
3858906030945BUELNAJ          4 27104  2STORE       0040000010000000000000000900603
3859006031048BUELNAJ          4 27104  2            01001   0   646770      1900603
3859006031048BUELNAJ          4 27104  2            011   165 10     0      0900603
3859106031255PAYROLL          4  4072  2PAYROLL     01001   0   126845      1900604
3859106031255PAYROLL          4  4072  2PAYROLL     011    35 10     0      0900604
3859206041100CTS         044054664024229            0 9    56    66538      0900604
3859306041028LMORRIS          1162775  0            0040000070000000000000000900604
3859306041028LMORRIS          1162775  0            0050000070000000000000000900604
3859506041321PAYROLL          4  4072  2MIS/ NEW PAY0050045630000000000000001900604
3859406041319PAYROLL          4  4072  2PAYROLL     01001   0   438410      3900604
3859406041319PAYROLL          4  4072  2PAYROLL     011   174 10     0      0900604
3860106041724SILVAM           1230617  0WK0528      01001   0   125460      3900604
3860106041724SILVAM           1230617  0WK0528      011    33 10     0      0900604
3860306041824PAYROLL          4  4072  2PAYROLL     01001   0     1845      1900604
3860306041824PAYROLL          4  4072  2PAYROLL     011     2 10     0      0900604
3859906041711BUELNAJ          4 27104  2ORDERS      01001   0    87805      1900604
3859906041711BUELNAJ          4 27104  2ORDERS      011    60 10     0      0900604
3860006041717BUELNAJ          4 27104  2ORDERS      01001   0    82290      1900604
3860006041717BUELNAJ          4 27104  2ORDERS      011    65 10     0      0900604
3859806041704BUELNAJ          4 27104  2ORDERS      01001   0   473880      1900604
3859806041704BUELNAJ          4 27104  2ORDERS      011   313 10     0      0900604
3860206041813BUELNAJ          4 27104  2ORDERS      01001   0   622245      1900604
3860206041813BUELNAJ          4 27104  2ORDERS      011   416 10     0      0900604
3860506041914BUELNAJ          4 27104  2ORDERS      01001   0   438255      1900604
3860506041914BUELNAJ          4 27104  2ORDERS      011   285 10     0      0900604
3860406041838BUELNAJ          4 27104  2ORDERS      01001   0   400600      1900604
3860406041838BUELNAJ          4 27104  2ORDERS      011   309 10     0      0900604
3860606042008BUELNAJ          4 27104  2ORDERS      01001   0   975385      1900604
3860606042008BUELNAJ          4 27104  2ORDERS      011   679 10     0      0900604
3860706042250BUELNAJ          4 27104  2STAT RPT    01001   0  1541870      1900604
3860706042250BUELNAJ          4 27104  2STAT RPT    011   278 10     0      0900604
3859606041442BUELNAJ          4 27104  2TAP05C.DIR  0050000410000000000000008900605
3860806051339NSSC        021477147773229            0 9    64   100958      0900605
3860906051705BUELNAJ          4 27104  2ORDERS      01001   0    36165      1900605
3860906051705BUELNAJ          4 27104  2ORDERS      011    24 10     0      0900605
3861106051713BUELNAJ          4 27104  2ORDERS      01001   0   144480      1900605
3861106051713BUELNAJ          4 27104  2ORDERS      011    89 10     0      0900605
3861006051707PAYROLL          4  4072  2PAYROLL     01001   0     1845      1900605
3861006051707PAYROLL          4  4072  2PAYROLL     011     2 10     0      0900605
3861306051836BUELNAJ          4 27104  2ORDERS      01001   0    69540      1900605
3861306051836BUELNAJ          4 27104  2ORDERS      011    63 10     0      0900605
3861206051828BUELNAJ          4 27104  2ORDERS      01001   0   554690      1900605
3861206051828BUELNAJ          4 27104  2ORDERS      011   353 10     0      0900605
3861406051848BUELNAJ          4 27104  2ORDERS      01001   0   391390      1900605
3861406051848BUELNAJ          4 27104  2ORDERS      011   260 10     0      0900605
3861506051916BUELNAJ          4 27104  2ORDERS      01001   0   463075      1900605
3861506051916BUELNAJ          4 27104  2ORDERS      011   294 10     0      0900605
3861606051923BUELNAJ          4 27104  2ORDERS      01001   0   932855      1900605
3861606051923BUELNAJ          4 27104  2ORDERS      011   627 10     0      0900605
3861706060934RJK              4   130  2ACTG        01001   0    18215     16900606
3861706060934RJK              4   130  2ACTG        011    21 10     0      0900606
3861806061001RJK              4   130  2ACTG        01001   0   374190      1900606
3861806061001RJK              4   130  2ACTG        011   282 10     0      0900606
3862106061442CTS         044054664024229            0 9    57    66548      0900606
3862306061708BUELNAJ          4 27104  2ORDERS      01001   0     3695      1900606
3862306061708BUELNAJ          4 27104  2ORDERS      011     5 10     0      0900606
3862406061713BUELNAJ          4 27104  2ORDERS      01001   0    83110      1900606
3862406061713BUELNAJ          4 27104  2ORDERS      011    62 10     0      0900606
3862506061725BUELNAJ          4 27104  2ORDERS      01001   0   238880      1900606
3862506061725BUELNAJ          4 27104  2ORDERS      011   165 10     0      0900606
3862606061833BUELNAJ          4 27104  2ORDERS      01001   0   406465      1900606
3862606061833BUELNAJ          4 27104  2ORDERS      011   244 10     0      0900606
3862706061837BUELNAJ          4 27104  2ORDERS      01001   0   475230      1900606
3862706061837BUELNAJ          4 27104  2ORDERS      011   329 10     0      0900606
3862806061910BUELNAJ          4 27104  2ORDERS      01001   0   535295      1900606
3862806061910BUELNAJ          4 27104  2ORDERS      011   321 10     0      0900606
3862906061950BUELNAJ          4 27104  2ORDERS      01001   0   701375      1900606
3862906061950BUELNAJ          4 27104  2ORDERS      011   433 10     0      0900606
3863006062031BUELNAJ          4 27104  2ORDERS      01001   0   626980      1900606
3863006062031BUELNAJ          4 27104  2ORDERS      011   452 10     0      0900606
3863106062109BUELNAJ          4 27104  2            01001   0   160740      1900606
3863106062109BUELNAJ          4 27104  2            011    75 10     0      0900606
3863306062156BUELNAJ          4 27104  2AUDIT MISSDU01001   0    59595      2900606
3863306062156BUELNAJ          4 27104  2AUDIT MISSDU011    30 10     0      0900606
3862206061704PAYROLL          4  4072  2PAYROLL     01001   0     2775      1900607
3862206061704PAYROLL          4  4072  2PAYROLL     011     2 10     0      0900607
3863406070007BUELNAJ          4 27104  2STAT RPT    01001   0  1567660      1900607
3863406070007BUELNAJ          4 27104  2STAT RPT    011   283 10     0      0900607
3863706071657BUELNAJ          4 27104  2ORDERS      01001   0    15265      1900607
3863706071657BUELNAJ          4 27104  2ORDERS      011    13 10     0      0900607
3863606071654BUELNAJ          4 27104  2ORDERS      01001   0   113255      1900607
3863606071654BUELNAJ          4 27104  2ORDERS      011    75 10     0      0900607
3863806071703BUELNAJ          4 27104  2ORDERS      01001   0   133245      1900607
3863806071703BUELNAJ          4 27104  2ORDERS      011    88 10     0      0900607
3863906071710BUELNAJ          4 27104  2ORDERS      01001   0    93320      1900607
3863906071710BUELNAJ          4 27104  2ORDERS      011    72 10     0      0900607
3864106071831BUELNAJ          4 27104  2ORDERS      01001   0   817455      1900607
3864106071831BUELNAJ          4 27104  2ORDERS      011   500 10     0      0900607
3864206071856BUELNAJ          4 27104  2ORDERS      01001   0   430600      1900607
3864206071856BUELNAJ          4 27104  2ORDERS      011   289 10     0      0900607
3864006071713PAYROLL          4  4072  2PAYROLL     01001   0     1845      1900607
3864006071713PAYROLL          4  4072  2PAYROLL     011     2 10     0      0900607
3864306071915BUELNAJ          4 27104  2ORDERS      01001   0   625500      1900607
3864306071915BUELNAJ          4 27104  2ORDERS      011   466 10     0      0900607
3864406072257BUELNAJ          4 27104  2STAT RPT    01001   0  1575085      1900607
3864406072257BUELNAJ          4 27104  2STAT RPT    011   284 10     0      0900607
3864506081351CTS         044054664024229            0 9    57    66548      0900608
3864606081413BUELNAJ          4 27104  2            01001   0   160215      1900608
3864606081413BUELNAJ          4 27104  2            011   146 10     0      0900608
3864706081654BUELNAJ          4 27104  2ORDERS      01001   0    37390      1900608
3864706081654BUELNAJ          4 27104  2ORDERS      011    33 10     0      0900608
3864806081659BUELNAJ          4 27104  2ORDERS      01001   0    99980      1900608
3864806081659BUELNAJ          4 27104  2ORDERS      011    66 10     0      0900608
3865006081734BUELNAJ          4 27104  2ORDERS      01001   0   810515      1900608
3865006081734BUELNAJ          4 27104  2ORDERS      011   524 10     0      0900608
3865306081908BUELNAJ          4 27104  2ORDERS      01001   0   283610      1900608
3865306081908BUELNAJ          4 27104  2ORDERS      011   187 10     0      0900608
3865106081850BUELNAJ          4 27104  2ORDERS      01001   0   785570      1900608
3865106081850BUELNAJ          4 27104  2ORDERS      011   493 10     0      0900608
3865406081946BUELNAJ          4 27104  2ORDERS      01001   0   529795      1900608
3865406081946BUELNAJ          4 27104  2ORDERS      011   384 10     0      0900608
3864906081706PAYROLL          4  4072  2PAYROLL     01001   0    22645      1900608
3864906081706PAYROLL          4  4072  2PAYROLL     011     7 10     0      0900608
3865206081908BUELNAJ          4 27104  2ORDERS      01001   0   226940      1900608
3865206081908BUELNAJ          4 27104  2ORDERS      011   164 10     0      0900608
3865506082229BUELNAJ          4 27104  2STAT RPT    01001   0  1556025      1900608
3865506082229BUELNAJ          4 27104  2STAT RPT    011   281 10     0      0900608
3865706101149BUELNAJ          4 27104  2            01001   0   658380      1900610
3865706101149BUELNAJ          4 27104  2            011   168 10     0      0900610
3865806101227PAYROLL          4  4072  2PAYROLL     01001   0     1845      1900611
3865806101227PAYROLL          4  4072  2PAYROLL     011     2 10     0      0900611
3865906111309PAYROLL          4  4072  2PAYROLL     01001   0   394150      3900611
3865906111309PAYROLL          4  4072  2PAYROLL     011   167 10     0      0900611
3866006111313PAYROLL          4  4072  2MIS/ NEW PAY0050045630000000000000001900611
3866206111732BUELNAJ          4 27104  2ORDERS      01001   0    34785      1900611
3866206111732BUELNAJ          4 27104  2ORDERS      011    27 10     0      0900611
3866106111705PAYROLL          4  4072  2PAYROLL     01001   0    13865      1900611
3866106111705PAYROLL          4  4072  2PAYROLL     011     5 10     0      0900611
3866306111736BUELNAJ          4 27104  2ORDERS      01001   0    59460      1900611
3866306111736BUELNAJ          4 27104  2ORDERS      011    53 10     0      0900611
3866406111742BUELNAJ          4 27104  2ORDERS      01001   0   162825      1900611
3866406111742BUELNAJ          4 27104  2ORDERS      011   106 10     0      0900611
3866506111812BUELNAJ          4 27104  2ORDERS      01001   0   369065      1900611
3866506111812BUELNAJ          4 27104  2ORDERS      011   225 10     0      0900611
3866606111814BUELNAJ          4 27104  2ORDERS      01001   0   351240      1900611
3866606111814BUELNAJ          4 27104  2ORDERS      011   256 10     0      0900611
3866706111838BUELNAJ          4 27104  2ORDERS      01001   0   441135      1900611
3866706111838BUELNAJ          4 27104  2ORDERS      011   317 10     0      0900611
3866806111905BUELNAJ          4 27104  2ORDERS      01001   0   316985      1900611
3866806111905BUELNAJ          4 27104  2ORDERS      011   229 10     0      0900611
3866906112239BUELNAJ          4 27104  2STAT RPT    01001   0  1546545      1900611
3866906112239BUELNAJ          4 27104  2STAT RPT    011   279 10     0      0900611
3867306121647SILVAM           1230617  0WK0604      0 1    33 10000000      0900612
3867206121509DANIELSR         1142734  0            01001   0  1149090      2900612
3867206121509DANIELSR         1142734  0            011   639 10     0      0900612
3867006112356BUELNAJ          4 27104  2TAP06A.DIR  0040000070000000000000000900612
3867006112356BUELNAJ          4 27104  2TAP06A.DIR  0050000320000000000000000900612
3867506121755BUELNAJ          4 27104  2ORDERS      01001   0    23120      1900612
3867506121755BUELNAJ          4 27104  2ORDERS      011    18 10     0      0900612
3867406121730PAYROLL          4  4072  2PAYROLL     01001   0     6125      1900612
3867406121730PAYROLL          4  4072  2PAYROLL     011     3 10     0      0900612
3867706121923BUELNAJ          4 27104  2ORDERS      01001   0    44155      1900612
3867706121923BUELNAJ          4 27104  2ORDERS      011    39 10     0      0900612
3867606121917BUELNAJ          4 27104  2ORDERS      01001   0   163215      1900612
3867606121917BUELNAJ          4 27104  2ORDERS      011    96 10     0      0900612
3867806121932BUELNAJ          4 27104  2ORDERS      01001   0   171070      1900612
3867806121932BUELNAJ          4 27104  2ORDERS      011   124 10     0      0900612
3867906121951BUELNAJ          4 27104  2ORDERS      01001   0   382325      1900612
3867906121951BUELNAJ          4 27104  2ORDERS      011   252 10     0      0900612
3868006122001BUELNAJ          4 27104  2ORDERS      01001   0   437205      1900612
3868006122001BUELNAJ          4 27104  2ORDERS      011   276 10     0      0900612
3868106122017BUELNAJ          4 27104  2ORDERS      01001   0   343685      1900612
3868106122017BUELNAJ          4 27104  2ORDERS      011   244 10     0      0900612
3868206131747PAYROLL          4  4072  2PAYROLL     01001   0     1845      1900613
3868206131747PAYROLL          4  4072  2PAYROLL     011     2 10     0      0900613
3868306131848BUELNAJ          4 27104  2ORDERS      01001   0    89815      1900613
3868306131848BUELNAJ          4 27104  2ORDERS      011    64 10     0      0900613
3868406131918BUELNAJ          4 27104  2ORDERS      01001   0   408045      1900613
3868406131918BUELNAJ          4 27104  2ORDERS      011   336 10     0      0900613
3868506131918BUELNAJ          4 27104  2ORDERS      01001   0   383235      1900613
3868506131918BUELNAJ          4 27104  2ORDERS      011   238 10     0      0900613
3868606131951BUELNAJ          4 27104  2ORDERS      01001   0   274280      1900613
3868606131951BUELNAJ          4 27104  2ORDERS      011   204 10     0      0900613
3868806132047BUELNAJ          4 27104  2ORDERS      01001   0   637820      1900613
3868806132047BUELNAJ          4 27104  2ORDERS      011   452 10     0      0900613
3868706132020BUELNAJ          4 27104  2ORDERS      01001   0  1045520      1900613
3868706132020BUELNAJ          4 27104  2ORDERS      011   675 10     0      0900613
3868906132111BUELNAJ          4 27104  2            01001   0   161670      1900613
3868906132111BUELNAJ          4 27104  2            011    81 10     0      0900613
3869006132149BUELNAJ          4 27104  2AUDIT MISSDU01001   0    66480      2900613
3869006132149BUELNAJ          4 27104  2AUDIT MISSDU011    33 10     0      0900613
3869106132304BUELNAJ          4 27104  2STAT RPT    01001   0  1579470      1900613
3869106132304BUELNAJ          4 27104  2STAT RPT    011   285 10     0      0900613
3869306141755BUELNAJ          4 27104  2ORDERS      01001   0   149845      1900614
3869306141755BUELNAJ          4 27104  2ORDERS      011   120 10     0      0900614
3869406141806BUELNAJ          4 27104  2ORDERS      01001   0   297215      1900614
3869406141806BUELNAJ          4 27104  2ORDERS      011   214 10     0      0900614
3869606141ELNAJ          4 27104  2ORDERS      01001   0   211365      1900614
3869606141831BUELNAJ          4 27104  2ORDERS      011   152 10     0      0900614
3869706141904BUELNAJ          4 27104  2ORDERS      01001   0   291065      1900614
3869706141904BUELNAJ          4 27104  2ORDERS      011   172 10     0      0900614
3869806141904BUELNAJ          4 27104  2ORDERS      01001   0   879705      1900614
3869806141904BUELNAJ          4 27104  2ORDERS      011   556 10     0      0900614
3869906141905BUELNAJ          4 27104  2ORDERS      01001   0   858000      1900614
3869906141905BUELNAJ          4 27104  2ORDERS      011   559 10     0      0900614
3869206141725PAYROLL          4  4072  2PAYROLL     01001   0     6125      1900614
3869206141725PAYROLL          4  4072  2PAYROLL     011     3 10     0      0900614
3870006142350BUELNAJ          4 27104  2STAT RPT    01001   0  1596875      1900615
3870006142350BUELNAJ          4 27104  2STAT RPT    011   288 10     0      0900615
3870106151717PAYROLL          4  4072  2PAYROLL     01001   0     1845      1900615
3870106151717PAYROLL          4  4072  2PAYROLL     011     2 10     0      0900615
3870306151818BUELNAJ          4 27104  2ORDERS      01001   0   150405      1900615
3870306151818BUELNAJ          4 27104  2ORDERS      011    87 10     0      0900615
3870406151826BUELNAJ          4 27104  2ORDERS      01001   0    77765      1900615
3870406151826BUELNAJ          4 27104  2ORDERS      011    55 10     0      0900615
3870506151847BUELNAJ          4 27104  2ORDERS      01001   0   283905      1900615
3870506151847BUELNAJ          4 27104  2ORDERS      011   215 10     0      0900615
3870706151858BUELNAJ          4 27104  2ORDERS      01001   0   127490      1900615
3870706151858BUELNAJ          4 27104  2ORDERS      011   104 10     0      0900615
3870606151847BUELNAJ          4 27104  2ORDERS      01001   0   380600      1900615
3870606151847BUELNAJ          4 27104  2ORDERS      011   244 10     0      0900615
3870806152003BUELNAJ          4 27104  2ORDERS      01001   0   833235      1900615
3870806152003BUELNAJ          4 27104  2ORDERS      011   545 10     0      0900615
3870906152003BUELNAJ          4 27104  2ORDERS      01001   0   849065      1900615
3870906152003BUELNAJ          4 27104  2ORDERS      011   590 10     0      0900615
3871006152325BUELNAJ          4 27104  2STAT RPT    01001   0  1604230      1900615
3871006152325BUELNAJ          4 27104  2STAT RPT    011   289 10     0      0900615
3871306180000JMS              34311162382105        01001   0     1325      1900618
3871306180000JMS              34311162382105        011     1 10     0      0900618
3871206171251PAYROLL          4  4072  2PAYROLL     01001   0    15425      1900618
3871206171251PAYROLL          4  4072  2PAYROLL     011     5 10     0      0900618
3871106171149FRANK            4111413  2TYM 17      01001   0   679770      1900618
3871106171149FRANK            4111413  2TYM 17      011   174 10     0      0900618
3871406181120RJK              4   130  2ACTG        01001   0    52400      1900618
3871406181120RJK              4   130  2ACTG        011   120 10     0      0900618
3871506181145RJK              4   130  2ACTG        01001   0   706920      1900618
3871506181145RJK              4   130  2ACTG        011   542 10     0      0900618
3871606181315PAYROLL          4  4072  2PAYROLL     01001   0   399890      3900618
3871606181315PAYROLL          4  4072  2PAYROLL     011   169 10     0      0900618
3871706181321PAYROLL          4  4072  2MIS/ NEW PAY0050000010000000000000000900618
3871906181719BUELNAJ          4 27104  2ORDERS      01001   0    65090      1900618
3871906181719BUELNAJ          4 27104  2ORDERS      011    45 10     0      0900618
3872006181725BUELNAJ          4 27104  2ORDERS      01001   0   105225      1900618
3872006181725BUELNAJ          4 27104  2ORDERS      011    65 10     0      0900618
3872106181752BUELNAJ          4 27104  2ORDERS      01001   0   100725      1900618
3872106181752BUELNAJ          4 27104  2ORDERS      011    67 10     0      0900618
3872206181811BUELNAJ          4 27104  2ORDERS      01001   0   178240      1900618
3872206181811BUELNAJ          4 27104  2ORDERS      011   118 10     0      0900618
3872306181812BUELNAJ          4 27104  2ORDERS      01001   0   118400      1900618
3872306181812BUELNAJ          4 27104  2ORDERS      011    92 10     0      0900618
3871806181709PAYROLL          4  4072  2PAYROLL     01001   0     1845      1900618
3871806181709PAYROLL          4  4072  2PAYROLL     011     2 10     0      0900618
3872506181911BUELNAJ          4 27104  2ORDERS      01001   0   817300      1900618
3872506181911BUELNAJ          4 27104  2ORDERS      011   601 10     0      0900618
3872406181910BUELNAJ          4 27104  2ORDERS      01001   0   950935      1900618
3872406181910BUELNAJ          4 27104  2ORDERS      011   621 10     0      0900618
3872606182305BUELNAJ          4 27104  2STAT RPT    01001   0  1614990      1900618
3872606182305BUELNAJ          4 27104  2STAT RPT    011   291 10     0      0900618
3872806191713PAYROLL          4  4072  2PAYROLL     01001   0     1845      1900619
3872806191713PAYROLL          4  4072  2PAYROLL     011     2 10     0      0900619
3872706191610BUSPLAN      21477 42773201            01001   0  1050080      1900620
3872706191610BUSPLAN      21477 42773201            011   484 10     0      0900620
3873006201331NSSC        021477147773229            0 9    38    52976      0900620
3872906201401CTS         044054664024229            0 9   230   251571      0900620
3873206201427CORPAYROLL   14130151217  2CORPAYROLL  01001   0   303020      1900620
3873206201427CORPAYROLL   14130151217  2CORPAYROLL  011    76 10     0      0900620
3873506201814BUELNAJ          4 27104  2ORDERS      01001   0    18355      1900620
3873506201814BUELNAJ          4 27104  2ORDERS      011    15 10     0      0900620
3873306201804PAYROLL          4  4072  2PAYROLL     01001   0     1845      1900620
3873306201804PAYROLL          4  4072  2PAYROLL     011     2 10     0      0900620
3873606201828BUELNAJ          4 27104  2ORDERS      01001   0   118615      1900620
3873606201828BUELNAJ          4 27104  2ORDERS      011    79 10     0      0900620
3873806201837BUELNAJ          4 27104  2ORDERS      01001   0   104725      1900620
3873806201837BUELNAJ          4 27104  2ORDERS      011    92 10     0      0900620
3873706201836BUELNAJ          4 27104  2ORDERS      01001   0   403030      1900620
3873706201836BUELNAJ          4 27104  2ORDERS      011   314 10     0      0900620
3873906201917BUELNAJ          4 27104  2ORDERS      01001   0   759985      1900620
3873906201917BUELNAJ          4 27104  2ORDERS      011   470 10     0      0900620
3874006202013BUELNAJ          4 27104  2ORDERS      01001   0  1056170      1900620
3874006202013BUELNAJ          4 27104  2ORDERS      011   664 10     0      0900620
3874206202121BUELNAJ          4 27104  2            01001   0   181545      1900620
3874206202121BUELNAJ          4 27104  2            011    93 10     0      0900620
3874306202128BUELNAJ          4 27104  2AUDIT MISSDU01001   0    74745      2900620
3874306202128BUELNAJ          4 27104  2AUDIT MISSDU011    36 10     0      0900620
3874106202045BUELNAJ          4 27104  2ORDERS      01001   0  1708930      1900620
3874106202045BUELNAJ          4 27104  2ORDERS      011  1186 10     0      0900620
3874406202312BUELNAJ          4 27104  2STAT RPT    01001   0  1613625      1900620
3874406202312BUELNAJ          4 27104  2STAT RPT    011   291 10     0      0900620
3874506210940JJOELS       11334474103200            0040000010000000000000000900621
3874606211538CTS         044054664024229            0 9    57    66439      0900621
3874806211814BUELNAJ          4 27104  2ORDERS      01001   0   348170      1900621
3874806211814BUELNAJ          4 27104  2ORDERS      011   248 10     0      0900621
3874706211701PAYROLL          4  4072  2PAYROLL     01001   0     1845      1900621
3874706211701PAYROLL          4  4072  2PAYROLL     011     2 10     0      0900621
3874906211831BUELNAJ          4 27104  2ORDERS      01001   0   139055      1900621
3874906211831BUELNAJ          4 27104  2ORDERS      011    81 10     0      0900621
3875006211906BUELNAJ          4 27104  2ORDERS      01001   0   285975      1900621
3875006211906BUELNAJ          4 27104  2ORDERS      011   165 10     0      0900621
3875306212003BUELNAJ          4 27104  2ORDERS      01001   0   505370      1900621
3875306212003BUELNAJ          4 27104  2ORDERS      011   339 10     0      0900621
3875406212010BUELNAJ          4 27104  2ORDERS      01001   0   712910      1900621
3875406212010BUELNAJ          4 27104  2ORDERS      011   502 10     0      0900621
3875206211927BUELNAJ          4 27104  2ORDERS      01001   0   230780      1900621
3875206211927BUELNAJ          4 27104  2ORDERS      011   189 10     0      0900621
3875606212106BUELNAJ          4 27104  2ORDERS      01001   0   563500      1900621
3875606212106BUELNAJ          4 27104  2ORDERS      011   429 10     0      0900621
3875706212257BUELNAJ          4 27104  2STAT RPT    01001   0  1623505      1900621
3875706212257BUELNAJ          4 27104  2STAT RPT    011   292 10     0      0900621
3875906221929BUELNAJ          4 27104  2ORDERS      01001   0    38925      1900622
3875906221929BUELNAJ          4 27104  2ORDERS      011    37 10     0      0900622
3876106221939BUELNAJ          4 27104  2ORDERS      01001   0   140725      1900622
3876106221939BUELNAJ          4 27104  2ORDERS      011    91 10     0      0900622
3876306221955BUELNAJ          4 27104  2ORDERS      01001   0   152925      1900622
3876306221955BUELNAJ          4 27104  2ORDERS      011   112 10     0      0900622
3876206221952BUELNAJ          4 27104  2ORDERS      01001   0   253700      1900622
3876206221952BUELNAJ          4 27104  2ORDERS      011   169 10     0      0900622
3876406222008BUELNAJ          4 27104  2ORDERS      01001   0   269000      1900622
3876406222008BUELNAJ          4 27104  2ORDERS      011   168 10     0      0900622
3876506222115BUELNAJ          4 27104  2ORDERS      01001   0  1157540      1900622
3876506222115BUELNAJ          4 27104  2ORDERS      011   730 10     0      0900622
3876606222127BUELNAJ          4 27104  2ORDERS      01001   0  1260400      1900622
3876606222127BUELNAJ          4 27104  2ORDERS      011   857 10     0      0900622
3875806221703PAYROLL          4  4072  2PAYROLL     01001   0    19555      1900623
3875806221703PAYROLL          4  4072  2PAYROLL     011     6 10     0      0900623
3876706222321BUELNAJ          4 27104  2STAT RPT    01001   0  1633995      1900623
3876706222321BUELNAJ          4 27104  2STAT RPT    011   294 10     0      0900623
3876906251140NSSC        021477147773229            0 9    92   135298      0900625
3877006251146NSSC        021477147773229            0 9    42    26427      0900625
3876806241229PAYROLL          4  4072  2PAYROLL     01001   0     1845      1900625
3876806241229PAYROLL          4  4072  2PAYROLL     011     2 10     0      0900625
3877206251316PAYROLL          4  4072  2PAYROLL     01001   0   398640      3900625
3877206251316PAYROLL          4  4072  2PAYROLL     011   169 10     0      0900625
3877306251320PAYROLL          4  4072  2MIS/ NEW PAY0050043650000000000000001900625
3877506251938BUELNAJ          4 27104  2ORDERS      01001   0   148820      1900625
3877506251938BUELNAJ          4 27104  2ORDERS      011    96 10     0      0900625
3877806252023BUELNAJ          4 27104  2ORDERS      01001   0   120585      1900625
3877806252023BUELNAJ          4 27104  2ORDERS      011    87 10     0      0900625
3877706252004BUELNAJ          4 27104  2ORDERS      01001   0   350565      1900625
3877706252004BUELNAJ          4 27104  2ORDERS      011   235 10     0      0900625
3878006252046BUELNAJ          4 27104  2ORDERS      01001   0    53645      1900625
3878006252046BUELNAJ          4 27104  2ORDERS      011    40 10     0      0900625
3877906252042BUELNAJ          4 27104  2ORDERS      01001   0   399700      1900625
3877906252042BUELNAJ          4 27104  2ORDERS      011   254 10     0      0900625
3878206252135BUELNAJ          4 27104  2ORDERS      01001   0   613430      1900625
3878206252135BUELNAJ          4 27104  2ORDERS      011   453 10     0      0900625
3878306252154BUELNAJ          4 27104  2ORDERS      01001   0  1030510      1900625
3878306252154BUELNAJ          4 27104  2ORDERS      011   770 10     0      0900625
3877406251707PAYROLL          4  4072  2PAYROLL     01001   0     1845      1900625
3877406251707PAYROLL          4  4072  2PAYROLL     011     2 10     0      0900625
3878506260021BUELNAJ          4 27104  2STAT RPT    01001   0  1640075      1900626
3878506260021BUELNAJ          4 27104  2STAT RPT    011   295 10     0      0900626
3878406252347BUELNAJ          4 27104  2ORDERS      01001   0  1330535      1900626
3878406252347BUELNAJ          4 27104  2ORDERS      011   764 10     0      0900626
3878606261239NSSC        021477147773229            0 9    13    24476      0900626
3878806261157CORPAYROLL   14130151217  2CORPAYROLL  01001   0   909600      1900626
3878806261157CORPAYROLL   14130151217  2CORPAYROLL  011   228 10     0      0900626
3878706261148NETSTAT      21477205635201FILE RECOVER0040000010000000000000000900626
3873106201221MSNTRACK     21477454763201            0050000020000000000000001900626
3873106201221MSNTRACK     21477454763201            0040000020000000000000000900626
3879006261734PAYROLL          4  4072  2PAYROLL     01001   0     1845      1900626
3879006261734PAYROLL          4  4072  2PAYROLL     011     2 10     0      0900626
3877106251009NETSTAT      21477205635201TAP06B.DIR  0040000080000000000000000900626
3877106251009NETSTAT      21477205635201TAP06B.DIR  0050000380000000000000000900626
3879106270825RJK              4   130  2ACTG        01001   0    18345     16900627
3879106270825RJK              4   130  2ACTG        011    21 10     0      0900627
3879206271042BOBH             4   127  2TAPE CONVERS0070000010001000000000001900627
3879606271831BUELNAJ          4 27104  2ORDERS      01001   0    89495      1900627
3879606271831BUELNAJ          4 27104  2ORDERS      011    78 10     0      0900627
3879506271754PAYROLL          4  4072  2PAYROLL     01001   0     1845      1900627
3879506271754PAYROLL          4  4072  2PAYROLL     011     2 10     0      0900627
3879706271840BUELNAJ          4 27104  2ORDERS      01001   0    86110      1900627
3879706271840BUELNAJ          4 27104  2ORDERS      011    62 10     0      0900627
3879906271849BUELNAJ          4 27104  2ORDERS      01001   0   243610      1900627
3879906271849BUELNAJ          4 27104  2ORDERS      011   179 10     0      0900627
3880006271907BUELNAJ          4 27104  2ORDERS      01001   0   200870      1900627
3880006271907BUELNAJ          4 27104  2ORDERS      011   160 10     0      0900627
3880106271928BUELNAJ          4 27104  2ORDERS      01001   0   944250      1900627
3880106271928BUELNAJ          4 27104  2ORDERS      011   611 10     0      0900627
3880306272027BUELNAJ          4 27104  2            01001   0   175905      1900627
3880306272027BUELNAJ          4 27104  2            011    51 10     0      0900627
3880406272107BUELNAJ          4 27104  2AUDIT MISSDU01001   0    77670      2900627
3880406272107BUELNAJ          4 27104  2AUDIT MISSDU011    39 10     0      0900627
3880206272013BUELNAJ          4 27104  2ORDERS      01001   0  1099975      1900627
3880206272013BUELNAJ          4 27104  2ORDERS      011   747 10     0      0900627
3880506272329BUELNAJ          4 27104  2STAT RPT    01001   0  1673235      1900627
3880506272329BUELNAJ          4 27104  2STAT RPT    011   301 10     0      0900627
3879406271623FRANK            4111413  2ORDERS      01001   0   674465      1900628
3879406271623FRANK            4111413  2ORDERS      011   434 10     0      0900628
3880606280317NSSC        021477147773229            0 9    56    74019      0900628
3878906261629NETSTAT      21477205635201FILES TO BE 0040000030000000000000000900627
3879306271313UIS              4125553  2VERTEX MAGCO0070000010001000000000000900628
3880806281815BUELNAJ          4 27104  2ORDERS      01001   0    39310      1900628
3880806281815BUELNAJ          4 27104  2ORDERS      011    28 10     0      0900628
3880706281811BUELNAJ          4 27104  2ORDERS      01001   0   119205      1900628
3880706281811BUELNAJ          4 27104  2ORDERS      011    91 10     0      0900628
3880906281823BUELNAJ          4 27104  2ORDERS      01001   0   127440      1900628
3880906281823BUELNAJ          4 27104  2ORDERS      011   108 10     0      0900628
3881006281849BUELNAJ          4 27104  2ORDERS      01001   0   312675      1900628
3881006281849BUELNAJ          4 27104  2ORDERS      011   207 10     0      0900628
3881106281850BUELNAJ          4 27104  2ORDERS      01001   0   419960      1900628
3881106281850BUELNAJ          4 27104  2ORDERS      011   253 10     0      0900628
3881206281901BUELNAJ          4 27104  2ORDERS      01001   0   158825      1900628
3881206281901BUELNAJ          4 27104  2ORDERS      011   104 10     0      0900628
3881406281958BUELNAJ          4 27104  2ORDERS      01001   0   693310      1900628
3881406281958BUELNAJ          4 27104  2ORDERS      011   508 10     0      0900628
3881306281955PAYROLL          4  4072  2PAYROLL     01001   0    18275      1900628
3881306281955PAYROLL          4  4072  2PAYROLL     011     6 10     0      0900628
3881506282242BUELNAJ          4 27104  2STAT RPT    01001   0  1678905      1900628
3881506282242BUELNAJ          4 27104  2STAT RPT    011   302 10     0      0900628
3881606291307PAYROLL          4  4072  2PAYROLL     01001   0   378965      3900629
3881606291307PAYROLL          4  4072  2PAYROLL     011   160 10     0      0900629
3881706291319PAYROLL          4  4072  2MIS/ NEW PAY0050045430000000000000000900629
3881906291714BUELNAJ          4 27104  2ORDERS      01001   0    34505      1900629
3881906291714BUELNAJ          4 27104  2ORDERS      011    32 10     0      0900629
3882306291746PAYROLL          4  4072  2PAYROLL     01001   0     1845      1900629
3882306291746PAYROLL          4  4072  2PAYROLL     011     2 10     0      0900629
3882206291731BUELNAJ          4 27104  2ORDERS      01001   0   106310      1900629
3882206291731BUELNAJ          4 27104  2ORDERS      011    68 10     0      0900629
3882006291720BUELNAJ          4 27104  2ORDERS      01001   0   107135      1900629
3882006291720BUELNAJ          4 27104  2ORDERS      011    91 10     0      0900629
3882106291725BUELNAJ          4 27104  2ORDERS      01001   0    97720      1900629
3882106291725BUELNAJ          4 27104  2ORDERS      011    70 10     0      0900629
3882406291757BUELNAJ          4 27104  2ORDERS      01001   0   435520      1900629
3882406291757BUELNAJ          4 27104  2ORDERS      011   276 10     0      0900629
3882606291825BUELNAJ          4 27104  2ORDERS      01001   0   529985      1900629
3882606291825BUELNAJ          4 27104  2ORDERS      011   370 10     0      0900629
3882506291807BUELNAJ          4 27104  2ORDERS      01001   0   602830      1900629
3882506291807BUELNAJ          4 27104  2ORDERS      011   430 10     0      0900629
3882706292241BUELNAJ          4 27104  2STAT RPT    01001   0  1680965      1900629
3882706292241BUELNAJ          4 27104  2STAT RPT    011   302 10     0      0900629
3818605311516NETSTAT      21477205635201FILE RECOVER0040000010000000000000000910531
3819406021438FRANK            4111413  2NODEZ       0070000010001000000000000910602
3819506021500BILLING10        1 44355  0BSATFR.MAY  0040000010000000000000000910603
3819506021500BILLING10        1 44355  0BSATFR.MAY  0050003010000000000000002910603
3819306021317PAYROLL          4  4072  2PAYROLL     01001   0     1845      1910603
3819306021317PAYROLL          4  4072  2PAYROLL     011     2 10     0      0910603
3819706031108RJK              4   130  2ACTG        01001   0    69250      1910603
3819706031108RJK              4   130  2ACTG        011   150 10     0      0910603
3819606030939PGRADE       21477372774201MAY91 BACKUP0050000930000000000000001910603
3819906031314PAYROLL          4  4072  2PAYROLL     01001   0   454360      3910603
3819906031314PAYROLL          4  4072  2PAYROLL     011   179 10     0      0910603
3820106031323NETSTAT      21477205635201FILE RECOVER0040000010000000000000000910603
3820106031323NETSTAT      21477205635201FILE RECOVER0050000010000000000000000910603
3820006031317PAYROLL          4  4072  2MIS/ NEW PAY0050049100000000000000001910603
3820406031946BUELNAJ          4 27104  2ORDERS      01001   0    41800      1910603
3820406031946BUELNAJ          4 27104  2ORDERS      011    29 10     0      0910603
3820306031724PAYROLL          4  4072  2PAYROLL     01001   0     1845      1910603
3820306031724PAYROLL          4  4072  2PAYROLL     011     2 10     0      0910603
3820606032104BUELNAJ          4 27104  2ORDERS      01001   0  1044615      1910603
3820606032104BUELNAJ          4 27104  2ORDERS      011   689 10     0      0910603
3820706032155BUELNAJ          4 27104  2ORDERS      01001   0   190800      1910603
3820706032155BUELNAJ          4 27104  2ORDERS      011   153 10     0      0910603
3820506032004BUELNAJ          4 27104  2ORDERS      01001   0   329075      1910603
3820506032004BUELNAJ          4 27104  2ORDERS      011   232 10     0      0910603
3820806032236BUELNAJ          4 27104  2ORDERS      01001   0   548205      1910603
3820806032236BUELNAJ          4 27104  2ORDERS      011   382 10     0      0910603
3821006040054BUELNAJ          4 27104  2ORDERS      01001   0    77150      1910604
3821006040054BUELNAJ          4 27104  2ORDERS      011    76 10     0      0910604
3820906040028BUELNAJ          4 27104  2STATUS REPOR01001   0   219698      1910604
3820906040028BUELNAJ          4 27104  2STATUS REPOR011   411 10     0      0910604
3821106040910NETSTAT      21477205635201FILE RECOVER0040000010000000000000000910604
3821306041344CTS         044054664024229            0 9     3     3477      0910604
3821406041345CTS         044054664024229            0 9     3     4230      0910604
3821506041345CTS         044054664024229            0 9     3     4230      0910604
3821606041346CTS         044054664024229            0 9     3     4703      0910604
3821706041346CTS         044054664024229            0 9     3     4703      0910604
3821806041347CTS         044054664024229            0 9     3     3442      0910604
3821906041347CTS         044054664024229            0 9     3     4218      0910604
3822006041347CTS         044054664024229            0 9     3     4218      0910604
3822106041735PAYROLL          4  4072  2PAYROLL     01001   0     3555      1910604
3822106041735PAYROLL          4  4072  2PAYROLL     011     2 10     0      0910604
3819806031155NETSTAT      21477205635201TAP15C.DIR  0040000110000000000000000910605
3819806031155NETSTAT      21477205635201TAP15C.DIR  0050000550000000000000000910605
3822306051814BUELNAJ          4 27104  2ORDERS      01001   0   317505      1910605
3822306051814BUELNAJ          4 27104  2ORDERS      011   242 10     0      0910605
3822506051847BUELNAJ          4 27104  2ORDERS      01001   0   450720      1910605
3822506051847BUELNAJ          4 27104  2ORDERS      011   341 10     0      0910605
3822406051818BUELNAJ          4 27104  2ORDERS      01001   0   695190      1910605
3822406051818BUELNAJ          4 27104  2ORDERS      011   497 10     0      0910605
3822706052041BUELNAJ          4 27104  2AUDIT MISSDU01001   0   153930      2910605
3822706052041BUELNAJ          4 27104  2AUDIT MISSDU011    57 10     0      0910605
3822806052042BUELNAJ          4 27104  2AUDIT ACTIVE01001   0   303915      1910605
3822806052042BUELNAJ          4 27104  2AUDIT ACTIVE011    78 10     0      0910605
3822206051708PAYROLL          4  4072  2PAYROLL     01001   0     1995      1910605
3822206051708PAYROLL          4  4072  2PAYROLL     011     2 10     0      0910605
3822606051911BUELNAJ          4 27104  2ORDERS      01001   0   964905      1910605
3822606051911BUELNAJ          4 27104  2ORDERS      011   658 10     0      0910605
3821206041122MLEE         21477771434201            0040000080000000000000000910605
3822906052332BUELNAJ          4 27104  2ORDERS      01001   0    74875      1910605
3822906052332BUELNAJ          4 27104  2ORDERS      011    74 10     0      0910605
3823106061449CTS         044054664024229            0 9     3     3947      0910606
3823206061449CTS         044054664024229            0 9     3     3947      0910606
3823306061450CTS         044054664024229            0 9     3     4379      0910606
3823406061450CTS         044054664024229            0 9     3     4379      0910606
3823506061450CTS         044054664024229            0 9     3     4070      0910606
3823606061451CTS         044054664024229            0 9     3     4070      0910606
3823706061451CTS         044054664024229            0 9     3     4170      0910606
3823806061452CTS         044054664024229            0 9     3     4170      0910606
3823906061452CTS         044054664024229            0 9     3     2989      0910606
3824006061453CTS         044054664024229            0 9     3     3155      0910606
3823006060939NETENG       21477235561201            0040000050000000000000000910606
3824206061912BUELNAJ          4 27104  2ORDERS      01001   0     3845      1910606
3824206061912BUELNAJ          4 27104  2ORDERS      011     5 10     0      0910606
3824306061917BUELNAJ          4 27104  2ORDERS      01001   0    81435      1910606
3824306061917BUELNAJ          4 27104  2ORDERS      011    53 10     0      0910606
3824406061945BUELNAJ          4 27104  2ORDERS      01001   0   175960      1910606
3824406061945BUELNAJ          4 27104  2ORDERS      011   121 10     0      0910606
3824606062022BUELNAJ          4 27104  2ORDERS      01001   0   338675      1910606
3824606062022BUELNAJ          4 27104  2ORDERS      011   247 10     0      0910606
3824506062014BUELNAJ          4 27104  2ORDERS      01001   0   479540      1910606
3824506062014BUELNAJ          4 27104  2ORDERS      011   349 10     0      0910606
3824106061718PAYROLL          4  4072  2PAYROLL     01001   0     2255      1910606
3824106061718PAYROLL          4  4072  2PAYROLL     011     2 10     0      0910606
3824906062121BUELNAJ          4 27104  2ORDERS      01001   0   289320      1910606
3824906062121BUELNAJ          4 27104  2ORDERS      011   217 10     0      0910606
3824806062112FRANK            4111413  2STATUS REPOR01001   0   281898      1910606
3824806062112FRANK            4111413  2STATUS REPOR011   422 10     0      0910606
3825106062129BUELNAJ          4 27104  2ORDERS      01001   0   712540      1910606
3825106062129BUELNAJ          4 27104  2ORDERS      011   482 10     0      0910606
3824706062111BUELNAJ          4 27104  2COMMITED INV01001   0   771928      1910606
3824706062111BUELNAJ          4 27104  2COMMITED INV011   708 10     0      0910606
3825206070743BUELNAJ          4 27104  2ORDERS      01001   0    81535      1910607
3825206070743BUELNAJ          4 27104  2ORDERS      011    79 10     0      0910607
3825306070956CTS         044054664024229            0 9     4     6113      0910607
3825406070956CTS         044054664024229            0 9     3     4174      0910607
3825506070957CTS         044054664024229            0 9     3     4043      0910607
3825606070831NETENG       21477235561201            0040000050000000000000000910607
3825806071827BILLING10        1 44355  0            01001   0   359960      3910607
3825806071827BILLING10        1 44355  0            011    90 10     0      0910607
3825706071708PAYROLL          4  4072  2PAYROLL     01001   0    31815      1910607
3825706071708PAYROLL          4  4072  2PAYROLL     011     9 10     0      0910607
3813205261838FERRISK      21477241564201            0040000060000000000000000910609
3825906091225PAYROLL          4  4072  2PAYROLL     01001   0     1845      1910609
3825906091225PAYROLL          4  4072  2PAYROLL     011     2 10     0      0910609
3826006091312BUELNAJ          4 27104  2COMMITED INV01001   0  1799568      1910609
3826006091312BUELNAJ          4 27104  2COMMITED INV011   960 10     0      0910609
3826106100000JMS              34311162382105        01001   0     1325      1910610
3826106100000JMS              34311162382105        011     1 10     0      0910610
3826206101437CTS         044054664024229            0 9     4     6113      0910610
3826306101438CTS         044054664024229            0 9     3     4174      0910610
3826406101439CTS         044054664024229            0 9     3     4043      0910610
3826506101439CTS         044054664024229            0 9     3     2888      0910610
3826606101440CTS         044054664024229            0 9     3     3046      0910610
3826706101441CTS         044054664024229            0 9     3     3506      0910610
3826806101317PAYROLL          4  4072  2PAYROLL     01001   0   403810      3910610
3826806101317PAYROLL          4  4072  2PAYROLL     011   171 10     0      0910610
3826906101322PAYROLL          4  4072  2MIS/ NEW PAY0050049150000000000000001910610
3827106101805PAYROLL          4  4072  2PAYROLL     01001   0     6255      1910610
3827106101805PAYROLL          4  4072  2PAYROLL     011     3 10     0      0910610
3827006101759BUELNAJ          4 27104  2ORDERS      01001   0   628255      1910610
3827006101759BUELNAJ          4 27104  2ORDERS      011   492 10     0      0910610
3827206101835BUELNAJ          4 27104  2ORDERS      01001   0   576775      1910610
3827206101835BUELNAJ          4 27104  2ORDERS      011   436 10     0      0910610
3827306101938BUELNAJ          4 27104  2ORDERS      01001   0  1170540      1910610
3827306101938BUELNAJ          4 27104  2ORDERS      011   789 10     0      0910610
3827406102354BUELNAJ          4 27104  2ORDERS      01001   0    79420      1910610
3827406102354BUELNAJ          4 27104  2ORDERS      011    77 10     0      0910610
3827506110036BUELNAJ          4 27104  2STATUS REPOR01001   0   350288      1910611
3827506110036BUELNAJ          4 27104  2STATUS REPOR011   435 10     0      0910611
3827606111656BUELNAJ          4 27104  2ORDERS      01001   0    14045      1910611
3827606111656BUELNAJ          4 27104  2ORDERS      011    12 10     0      0910611
3827806111801BUELNAJ          4 27104  2ORDERS      01001   0   818605      1910611
3827806111801BUELNAJ          4 27104  2ORDERS      011   563 10     0      0910611
3827706111717PAYROLL          4  4072  2PAYROLL     01001   0     6775      1910611
3827706111717PAYROLL          4  4072  2PAYROLL     011     3 10     0      0910611
3828206121747PAYROLL          4  4072  2PAYROLL     01001   0     3815      1910612
3828206121747PAYROLL          4  4072  2PAYROLL     011     2 10     0      0910612
3827906121706BUELNAJ          4 27104  2ORDERS      01001   0    23550      1910612
3827906121706BUELNAJ          4 27104  2ORDERS      011    18 10     0      0910612
3828106121721BUELNAJ          4 27104  2ORDERS      01001   0   132505      1910612
3828106121721BUELNAJ          4 27104  2ORDERS      011    82 10     0      0910612
3828406122013BUELNAJ          4 27104  2ORDERS      01001   0   361480      1910612
3828406122013BUELNAJ          4 27104  2ORDERS      011   299 10     0      0910612
3828506122041BUELNAJ          4 27104  2AUDIT ACTIVE01001   0   314670      1910612
3828506122041BUELNAJ          4 27104  2AUDIT ACTIVE011    81 10     0      0910612
3828606122053BUELNAJ          4 27104  2ORDERS      01001   0   556540      1910612
3828606122053BUELNAJ          4 27104  2ORDERS      011   383 10     0      0910612
3828306121934BUELNAJ          4 27104  2ORDERS      01001   0   100373      1910612
3828306121934BUELNAJ          4 27104  2ORDERS      011  1352 10     0      0910612
3829006122133BUELNAJ          4 27104  2ORDERS      01001   0   534630      1910612
3829006122133BUELNAJ          4 27104  2ORDERS      011   398 10     0      0910612
3829106122212BUELNAJ          4 27104  2AUDIT MISSDU01001   0   157500      2910612
3829106122212BUELNAJ          4 27104  2AUDIT MISSDU011    60 10     0      0910612
3828906122131BUELNAJ          4 27104  2ORDERS      01001   0   647910      1910612
3828906122131BUELNAJ          4 27104  2ORDERS      011   438 10     0      0910612
3828806122126BUELNAJ          4 27104  2ORDERS      01001   0   639890      1910612
3828806122126BUELNAJ          4 27104  2ORDERS      011   443 10     0      0910612
3829206122313BUELNAJ          4 27104  2ORDERS      01001   0    80375      1910612
3829206122313BUELNAJ          4 27104  2ORDERS      011    80 10     0      0910612
3829406130955CTS         044054664024229            0 9     3     3057      0910613
3829506130956CTS         044054664024229            0 9     3     2866      0910613
0129306122327BUELNAJ     000000000000  2TAP16A.DIR  0040000070000000000000000910613
0129306122327BUELNAJ     000000000000  2TAP16A.DIR  0050000420000000000000000910613
3829706131804BUELNAJ          4 27104  2ORDERS      01001   0    38985      1910613
3829706131804BUELNAJ          4 27104  2ORDERS      011    26 10     0      0910613
3829806131809PAYROLL          4  4072  2PAYROLL     01001   0    45605      1910613
3829806131809PAYROLL          4  4072  2PAYROLL     011    13 10     0      0910613
3829906131820BUELNAJ          4 27104  2ORDERS      01001   0   133810      1910613
3829906131820BUELNAJ          4 27104  2ORDERS      011   101 10     0      0910613
3829606131756BUELNAJ          4 27104  2ORDERS      01001   0   449905      1910613
3829606131756BUELNAJ          4 27104  2ORDERS      011   311 10     0      0910613
3830006131910BUELNAJ          4 27104  2ORDERS      01001   0   450980      1910613
3830006131910BUELNAJ          4 27104  2ORDERS      011   307 10     0      0910613
3830106131938BUELNAJ          4 27104  2ORDERS      01001   0   171365      1910613
3830106131938BUELNAJ          4 27104  2ORDERS      011   146 10     0      0910613
3830306132118BUELNAJ          4 27104  2ORDERS      01001   0   343495      1910613
3830306132118BUELNAJ          4 27104  2ORDERS      011   263 10     0      0910613
3830206132117BUELNAJ          4 27104  2ORDERS      01001   0  1045430      1910613
3830206132117BUELNAJ          4 27104  2ORDERS      011   720 10     0      0910613
3830406132143FRANK            4111413  2STATUS REPOR01001   0   373368      1910613
3830406132143FRANK            4111413  2STATUS REPOR011   439 10     0      0910613
3830506132344OPER        000001000021  0CDC         0 9     7     6356      0910613
3829306122327BUELNAJ          4 27104  2TAP16A.DIR  0040000080000000000000000910613
3829306122327BUELNAJ          4 27104  2TAP16A.DIR  0050000420000000000000000910613
3830606140703BUELNAJ          4 27104  2ORDERS      01001   0    82485      1910614
3830606140703BUELNAJ          4 27104  2ORDERS      011    83 10     0      0910614
3830906141744BUELNAJ          4 27104  2ORDERS      01001   0   148865      1910614
3830906141744BUELNAJ          4 27104  2ORDERS      011   113 10     0      0910614
3830806141735BUELNAJ          4 27104  2ORDERS      01001   0     7340      1910614
3830806141735BUELNAJ          4 27104  2ORDERS      011     8 10     0      0910614
3830706141713PAYROLL          4  4072  2PAYROLL     01001   0    33285      1910617
3830706141713PAYROLL          4  4072  2PAYROLL     011     9 10     0      0910617
3831106171316CTS         044054664024229            0 9     2     2445      0910617
3831206171316CTS         044054664024229            0 9     2     1933      0910617
3831306171317CTS         044054664024229            0 9     3     3365      0910617
3831406171317CTS         044054664024229            0 9     3     4060      0910617
3831506171318CTS         044054664024229            0 9     3     3214      0910617
3831606171318CTS         044054664024229            0 9     3     3464      0910617
3831006161342PAYROLL          4  4072  2PAYROLL     01001   0     1995      1910617
3831006161342PAYROLL          4  4072  2PAYROLL     011     2 10     0      0910617
3831706171322PAYROLL          4  4072  2PAYROLL     01001   0   407905      3910617
3831706171322PAYROLL          4  4072  2PAYROLL     011   171 10     0      0910617
3831806171325PAYROLL          4  4072  2MIS/ NEW PAY0050049050000000000000001910617
3831906171843PAYROLL          4  4072  2PAYROLL     01001   0     6905      1910618
3831906171843PAYROLL          4  4072  2PAYROLL     011     3 10     0      0910618
3832106181705PAYROLL          4  4072  2PAYROLL     01001   0     2255      1910618
3832106181705PAYROLL          4  4072  2PAYROLL     011     2 10     0      0910618
3832206191050CTS         044054664024229            0 9     4     6813      0910619
3832306191050CTS         044054664024229            0 9     4     6813      0910619
3832406191051CTS         044054664024229            0 9     3     4060      0910619
3832506191052CTS         044054664024229            0 9     3     4060      0910619
3832606191052CTS         044054664024229            0 9     3     3497      0910619
3832706191052CTS         044054664024229            0 9     3     2910      0910619
3832806191053CTS         044054664024229            0 9     3     2910      0910619
3832906191053CTS         044054664024229            0 9     3     2685      0910619
3833006191054CTS         044054664024229            0 9     2     1941      0910619
3833106191055CTS         044054664024229            0 9     3     3085      0910619
3833206191055CTS         044054664024229            0 9     3     3121      0910619
3833506191753PAYROLL          4  4072  2PAYROLL     01001   0     4465      1910619
3833506191753PAYROLL          4  4072  2PAYROLL     011     2 10     0      0910619
3833406191748BUELNAJ          4 27104  2ORDERS      01001   0   125930      1910619
3833406191748BUELNAJ          4 27104  2ORDERS      011    83 10     0      0910619
3833306191736BUELNAJ          4 27104  2ORDERS      01001   0   324400      1910619
3833306191736BUELNAJ          4 27104  2ORDERS      011   210 10     0      0910619
3833606191817BUELNAJ          4 27104  2ORDERS      01001   0   407460      1910619
3833606191817BUELNAJ          4 27104  2ORDERS      011   279 10     0      0910619
3833706191917BUELNAJ          4 27104  2ORDERS      01001   0   909050      1910619
3833706191917BUELNAJ          4 27104  2ORDERS      011   591 10     0      0910619
3833906192010BUELNAJ          4 27104  2ORDERS      01001   0   165420      1910619
3833906192010BUELNAJ          4 27104  2ORDERS      011   127 10     0      0910619
3833806191958BUELNAJ          4 27104  2ORDERS      01001   0   891990      1910619
3833806191958BUELNAJ          4 27104  2ORDERS      011   608 10     0      0910619
3834206192101BUELNAJ          4 27104  2ORDERS      01001   0   717795      1910619
3834206192101BUELNAJ          4 27104  2ORDERS      011   519 10     0      0910619
3834306192131BUELNAJ          4 27104  2AUDIT ACTIVE01001   0   322545      1910619
3834306192131BUELNAJ          4 27104  2AUDIT ACTIVE011    81 10     0      0910619
3834406192244BUELNAJ          4 27104  2AUDIT MISSDU01001   0   154305      2910619
3834406192244BUELNAJ          4 27104  2AUDIT MISSDU011    57 10     0      0910619
3834506200025BUELNAJ          4 27104  2ORDERS      01001   0    78520      1910620
3834506200025BUELNAJ          4 27104  2ORDERS      011    80 10     0      0910620
3834806201807BUELNAJ          4 27104  2ORDERS      01001   0    10150      1910620
3834806201807BUELNAJ          4 27104  2ORDERS      011    10 10     0      0910620
3834706201804BUELNAJ          4 27104  2ORDERS      01001   0   158315      1910620
3834706201804BUELNAJ          4 27104  2ORDERS      011    99 10     0      0910620
3834906201852BUELNAJ          4 27104  2ORDERS      01001   0   570205      1910620
3834906201852BUELNAJ          4 27104  2ORDERS      011   356 10     0      0910620
3835006201928BUELNAJ          4 27104  2ORDERS      01001   0   536455      1910620
3835006201928BUELNAJ          4 27104  2ORDERS      011   347 10     0      0910620
3834606201728PAYROLL          4  4072  2PAYROLL     01001   0     6295      1910620
3834606201728PAYROLL          4  4072  2PAYROLL     011     3 10     0      0910620
3835106202021BUELNAJ          4 27104  2ORDERS      01001   0   706605      1910620
3835106202021BUELNAJ          4 27104  2ORDERS      011   468 10     0      0910620
3835306202135BUELNAJ          4 27104  2ORDERS      01001   0   570770      1910620
3835306202135BUELNAJ          4 27104  2ORDERS      011   403 10     0      0910620
3835506202157BUELNAJ          4 27104  2ORDERS      01001   0   437590      1910620
3835506202157BUELNAJ          4 27104  2ORDERS      011   306 10     0      0910620
3835406202148BUELNAJ          4 27104  2STATUS REPOR01001   0   384093      1910620
3835406202148BUELNAJ          4 27104  2STATUS REPOR011   440 10     0      0910620
3835206202052BUELNAJ          4 27104  2COMMITED INV01001   0  1002388      1910620
3835206202052BUELNAJ          4 27104  2COMMITED INV011   756 10     0      0910620
3835606210645RJK              4   130  2ORDERS      01001   0    79875      1910621
3835606210645RJK              4   130  2ORDERS      011    82 10     0      0910621
3835706210928CTS         044054664024229            0 9     3     2957      0910621
3835806210928CTS         044054664024229            0 9     3     2723      0910621
3835906210929CTS         044054664024229            0 9     3     3005      0910621
3836006211740PAYROLL          4  4072  2PAYROLL     01001   0    34935      1910621
3836006211740PAYROLL          4  4072  2PAYROLL     011     9 10     0      0910621
3836106231032BUELNAJ          4 27104  2COMMITED INV01001   0  2051368      1910623
3836106231032BUELNAJ          4 27104  2COMMITED INV011  1016 10     0      0910623
3836206231255PAYROLL          4  4072  2PAYROLL     01001   0     1845      1910624
3836206231255PAYROLL          4  4072  2PAYROLL     011     2 10     0      0910624
3836406241359PAYROLL          4  4072  2PAYROLL     01001   0   408650      3910624
3836406241359PAYROLL          4  4072  2PAYROLL     011   172 10     0      0910624
3836506241408PAYROLL          4  4072  2MIS/ NEW PAY0040049170000000000000000910624
3836606241756BUELNAJ          4 27104  2ORDERS      01001   0    42740      1910624
3836606241756BUELNAJ          4 27104  2ORDERS      011    31 10     0      0910624
3836706241811PAYROLL          4  4072  2PAYROLL     01001   0     2255      1910624
3836706241811PAYROLL          4  4072  2PAYROLL     011     2 10     0      0910624
3836806241841BUELNAJ          4 27104  2ORDERS      01001   0   558325      1910624
3836806241841BUELNAJ          4 27104  2ORDERS      011   369 10     0      0910624
3837006241948BUELNAJ          4 27104  2ORDERS      01001   0   574660      1910624
3837006241948BUELNAJ          4 27104  2ORDERS      011   379 10     0      0910624
3836906241906BUELNAJ          4 27104  2ORDERS      01001   0   185350      1910624
3836906241906BUELNAJ          4 27104  2ORDERS      011   131 10     0      0910624
3837306242126BUELNAJ          4 27104  2ORDERS      01001   0   646785      1910624
3837306242126BUELNAJ          4 27104  2ORDERS      011   420 10     0      0910624
3837106242036BUELNAJ          4 27104  2ORDERS      01001   0   707230      1910624
3837106242036BUELNAJ          4 27104  2ORDERS      011   485 10     0      0910624
3837206242049BUELNAJ          4 27104  2ORDERS      01001   0   661090      1910624
3837206242049BUELNAJ          4 27104  2ORDERS      011   486 10     0      0910624
3837406250848RJK              4   130  2ACTG        01001   0    26640     20910625
3837406250848RJK              4   130  2ACTG        011    30 10     0      0910625
3836306231535BUELNAJ          4 27104  2TAP16B.DIR  0040000090000000000000000910625
3836306231535BUELNAJ          4 27104  2TAP16B.DIR  0050000470000000000000000910625
3837506251717PAYROLL          4  4072  2PAYROLL     01001   0     1995      1910625
3837506251717PAYROLL          4  4072  2PAYROLL     011     2 10     0      0910625
3837606261720PAYROLL          4  4072  2PAYROLL     01001   0     1845      1910626
3837606261720PAYROLL          4  4072  2PAYROLL     011     2 10     0      0910626
3837906261933BUELNAJ          4 27104  2ORDERS      01001   0    38750      1910626
3837906261933BUELNAJ          4 27104  2ORDERS      011    25 10     0      0910626
3838106261954BUELNAJ          4 27104  2ORDERS      01001   0    79240      1910626
3838106261954BUELNAJ          4 27104  2ORDERS      011    63 10     0      0910626
3837806261926BUELNAJ          4 27104  2ORDERS      01001   0   387865      1910626
3837806261926BUELNAJ          4 27104  2ORDERS      011   247 10     0      0910626
3838006261944BUELNAJ          4 27104  2ORDERS      01001   0   149930      1910626
3838006261944BUELNAJ          4 27104  2ORDERS      011   110 10     0      0910626
3838206262108BUELNAJ          4 27104  2ORDERS      01001   0   487945      1910626
3838206262108BUELNAJ          4 27104  2ORDERS      011   323 10     0      0910626
3838306262110BUELNAJ          4 27104  2ORDERS      01001   0   981180      1910626
3838306262110BUELNAJ          4 27104  2ORDERS      011   667 10     0      0910626
3838406262145BUELNAJ          4 27104  2ORDERS      01001   0   357665      1910626
3838406262145BUELNAJ          4 27104  2ORDERS      011   249 10     0      0910626
3838806270908UIS              4125553  2VERTEX MAGCO0070000010001000000000000910627
3839806271836BUELNAJ          4 27104  2ORDERS      01001   0    85265      1910627
3839806271836BUELNAJ          4 27104  2ORDERS      011    55 10     0      0910627
3839906271843PAYROLL          4  4072  2PAYROLL     01001   0     1845      1910627
3839906271843PAYROLL          4  4072  2PAYROLL     011     2 10     0      0910627
3840006272001BUELNAJ          4 27104  2ORDERS      01001   0   463055      1910627
3840006272001BUELNAJ          4 27104  2ORDERS      011   303 10     0      0910627
3840306272112BUELNAJ          4 27104  2ORDERS      01001   0   618780      1910627
3840306272112BUELNAJ          4 27104  2ORDERS      011   512 10     0      0910627
3840406272114BUELNAJ          4 27104  2ORDERS      01001   0   841275      1910627
3840406272114BUELNAJ          4 27104  2ORDERS      011   536 10     0      0910627
3840206272112BUELNAJ          4 27104  2ORDERS      01001   0  1027125      1910627
3840206272112BUELNAJ          4 27104  2ORDERS      011   686 10     0      0910627
3840606272200BUELNAJ          4 27104  2ORDERS      01001   0   948015      1910627
3840606272200BUELNAJ          4 27104  2ORDERS      011   693 10     0      0910627
3840506272156BUELNAJ          4 27104  2COMMITED INV01001   0   999388      1910627
3840506272156BUELNAJ          4 27104  2COMMITED INV011   756 10     0      0910627
3840706280840BUELNAJ          4 27104  2ORDERS      01001   0    83690      1910628
3840706280840BUELNAJ          4 27104  2ORDERS      011    85 10     0      0910628
3840806281307PAYROLL          4  4072  2PAYROLL     01001   0   399670      3910628
3840806281307PAYROLL          4  4072  2PAYROLL     011   170 10     0      0910628
3840906281312PAYROLL          4  4072  2MIS/ NEW PAY0050049110000000000000001910627
3841006281544OPER        000001000021  0CDC         0 9    83   348697      0910628
3841206281733BUELNAJ          4 27104  2ORDERS      01001   0    13460      1910628
3841206281733BUELNAJ          4 27104  2ORDERS      011    13 10     0      0910628
3841106281719PAYROLL          4  4072  2PAYROLL     01001   0    40435      1910628
3841106281719PAYROLL          4  4072  2PAYROLL     011    12 10     0      0910628
3841306281741BUELNAJ          4 27104  2ORDERS      01001   0   108565      1910628
3841306281741BUELNAJ          4 27104  2ORDERS      011    86 10     0      0910628
3841406281802BUELNAJ          4 27104  2ORDERS      01001   0   243190      1910628
3841406281802BUELNAJ          4 27104  2ORDERS      011   183 10     0      0910628
3841506281821BUELNAJ          4 27104  2ORDERS      01001   0   384960      1910628
3841506281821BUELNAJ          4 27104  2ORDERS      011   245 10     0      0910628
3841606281824BUELNAJ          4 27104  2ORDERS      01001   0   471170      1910628
3841606281824BUELNAJ          4 27104  2ORDERS      011   333 10     0      0910628
3841706281858BUELNAJ          4 27104  2ORDERS      01001   0   928475      1910628
3841706281858BUELNAJ          4 27104  2ORDERS      011   567 10     0      0910628
3812606010000JMS              34311162382105        01001   0      760      1920601
3812606010000JMS              34311162382105        011     1 10     0      0920601
3812706010001MSNTRACK     21477454763201            0040000010000000000000000920601
3812706010001MSNTRACK     21477454763201            0050000020000000000000000920601
3812806010640BUELNAJ          4 27104  2ORDERS      01001   0    50925      1920601
3812806010640BUELNAJ          4 27104  2ORDERS      011    41 10     0      0920601
3812906011317PAYROLL          4  4072  2X6415       01001   0   483030      3920601
3812906011317PAYROLL          4  4072  2X6415       011   195 10     0      0920601
3809005221748PAYROLL          4  4072  2PAYROLL     01001   0     1845      1920601
3809005221748PAYROLL          4  4072  2PAYROLL     011     2 10     0      0920601
3809505241232PAYROLL          4  4072  2PAYROLL     01001   0     1845      1920601
3809505241232PAYROLL          4  4072  2PAYROLL     011     2 10     0      0920601
3809805261730PAYROLL          4  4072  2PAYROLL     01001   0     1845      1920601
3809805261730PAYROLL          4  4072  2PAYROLL     011     2 10     0      0920601
3810005271801PAYROLL          4  4072  2PAYROLL     01001   0     1845      1920601
3810005271801PAYROLL          4  4072  2PAYROLL     011     2 10     0      0920601
3810805281731PAYROLL          4  4072  2PAYROLL     01001   0    37665      1920601
3810805281731PAYROLL          4  4072  2PAYROLL     011     9 10     0      0920601
3811405291734PAYROLL          4  4072  2PAYROLL     01001   0     4465      1920601
3811405291734PAYROLL          4  4072  2PAYROLL     011     2 10     0      0920601
3812005311226PAYROLL          4  4072  2PAYROLL     01001   0     1845      1920601
3812005311226PAYROLL          4  4072  2PAYROLL     011     2 10     0      0920601
3813006011320PAYROLL          4  4072  2MIS/ NEW PAY0040000010000000000000000920601
3813006011320PAYROLL          4  4072  2MIS/ NEW PAY0050051690000000000000001920601
3813106011529OPER        000001000021  0            0 9    87   367037      0920601
3813306012218BUELNAJ          4 27104  2ORDERS      01001   0    41910      1920601
3813306012218BUELNAJ          4 27104  2ORDERS      011    33 10     0      0920601
3813606012331BUELNAJ          4 27104  2ORDERS      01001   0   489290      1920602
3813606012331BUELNAJ          4 27104  2ORDERS      011   323 10     0      0920602
3813706020040BUELNAJ          4 27104  2ORDERS      01001   0   418820      1920602
3813706020040BUELNAJ          4 27104  2ORDERS      011   306 10     0      0920602
3813806020043BUELNAJ          4 27104  2NODEZ       0070000010001000000000000920602
3813406012240EDPROD           4641450  2PGRADE      0040000010000000000000000920602
3813406012240EDPROD           4641450  2PGRADE      0050000930000000000000000920602
3814006020820EDPROD      000004641450  2            0 9     2     6706      0920602
3814106020822EDPROD      000004641450  2            0 9     2     6706      0920602
3814306021104OPER        000001000021  0            0 9     1     2581      0920602
3814206020848BILLING10        1 44355  0BSATFR.MAY  0040000010000000000000000920602
3814206020848BILLING10        1 44355  0BSATFR.MAY  0050001580000000000000000920602
3814506022030BUELNAJ          4 27104  2ORDERS      01001   0   265160      1920602
3814506022030BUELNAJ          4 27104  2ORDERS      011   192 10     0      0920602
3814706031059SPOOLRM     011016165320  2DO          0 9     1     1343      0920603
3814706031108SPOOLRM     011016165320  2DO          0 9   161   147261      0920603
3814706031111SPOOLRM     011016165320  2DO          0 9     1    79636      0920603
3813906020114BILLING10        1 44355  0TAP25C.DIR  0040000470000000000000000920603
3813906020114BILLING10        1 44355  0TAP25C.DIR  0050000470000000000000000920603
3814606030955NETENG       21477235561201            0040000050000000000000000920604
3815006040239MSNTRACK    021477454763201            0 9     8    12450      0920604
3815106041846SILVAM           1230617  0ORDERS      01001   0     9600      1920604
3815106041846SILVAM           1230617  0ORDERS      011    10 10     0      0920604
3815306041904SILVAM           1230617  0ORDERS      01001   0   174640      1920604
3815306041904SILVAM           1230617  0ORDERS      011   144 10     0      0920604
3815406050003SILVAM           1230617  0ORDERS      01001   0   505385      1920605
3815406050003SILVAM           1230617  0ORDERS      011   349 10     0      0920605
3815506050229FRANK            4111413  2ORDERS      01001   0    44190      1920605
3815506050229FRANK            4111413  2ORDERS      011    34 10     0      0920605
3815706052043BILLING10        1 44355  0LIST        01001   0   359960      3920605
3815706052043BILLING10        1 44355  0LIST        011    82 10     0      0920605
3815806070000NTRACKDATA   21477 14371229            0050000020000000000000000920607
3815906070819OPER        000001000021  0CDC         0 9     3     3856      0920607
3816106081318PAYROLL          4  4072  2X6415       01001   0   441775      3920608
3816106081318PAYROLL          4  4072  2X6415       011   185 10     0      0920608
3813206011736PAYROLL          4  4072  2PAYROLL     01001   0     1845      1920608
3813206011736PAYROLL          4  4072  2PAYROLL     011     2 10     0      0920608
3814406021839PAYROLL          4  4072  2PAYROLL     01001   0     1845      1920608
3814406021839PAYROLL          4  4072  2PAYROLL     011     2 10     0      0920608
3814806031809PAYROLL          4  4072  2PAYROLL     01001   0     1845      1920608
3814806031809PAYROLL          4  4072  2PAYROLL     011     2 10     0      0920608
3815206041858PAYROLL          4  4072  2PAYROLL     01001   0    21635      1920608
3815206041858PAYROLL          4  4072  2PAYROLL     011     6 10     0      0920608
3815606051744PAYROLL          4  4072  2PAYROLL     01001   0    32385      1920608
3815606051744PAYROLL          4  4072  2PAYROLL     011     8 10     0      0920608
3816006071233PAYROLL          4  4072  2PAYROLL     01001   0    11555      1920608
3816006071233PAYROLL          4  4072  2PAYROLL     011     4 10     0      0920608
3816206081323PAYROLL          4  4072  2MIS/ NEW PAY0050051740000000000000000920608
3816306081552OPER        000001000021  0            0 9    87   367392      0920608
3816706101733BUELNAJ          4 27104  2ORDERS      01001   0    40775      1920610
3816706101733BUELNAJ          4 27104  2ORDERS      011    27 10     0      0920610
3817006101905BUELNAJ          4 27104  2ORDERS      01001   0   611545      1920610
3817006101905BUELNAJ          4 27104  2ORDERS      011   405 10     0      0920610
3816906101815BUELNAJ          4 27104  2ORDERS      01001   0   383595      1920610
3816906101815BUELNAJ          4 27104  2ORDERS      011   257 10     0      0920610
3817106102156BUELNAJ          4 27104  2ORDERS      01001   0   464700      1920610
3817106102156BUELNAJ          4 27104  2ORDERS      011   331 10     0      0920610
3817206110749MISDOC           4222076  2ACTG        01001   0    55400      1920611
3817206110749MISDOC           4222076  2ACTG        011   120 10     0      0920611
3816606101307JCLMIN       11447271412  0ABC         0040000150000000000000000920611
3817406111757BUELNAJ          4 27104  2ORDERS      01001   0   140220      1920611
3817406111757BUELNAJ          4 27104  2ORDERS      011   104 10     0      0920611
3817506111837BUELNAJ          4 27104  2ORDERS      01001   0   500050      1920611
3817506111837BUELNAJ          4 27104  2ORDERS      011   323 10     0      0920611
3817606111931BUELNAJ          4 27104  2ORDERS      01001   0   171975      1920611
3817606111931BUELNAJ          4 27104  2ORDERS      011   134 10     0      0920611
3817706120641BUELNAJ          4 27104  2ORDERS      01001   0    48175      1920612
3817706120641BUELNAJ          4 27104  2ORDERS      011    38 10     0      0920612
3818006140000NTRACKDATA   21477 14371229            0040000010000000000000000920614
3818006140000NTRACKDATA   21477 14371229            0050000020000000000000000920614
3818206141209BUELNAJ          4 27104  2ORDERS      01001   0    21380      1920614
3818206141209BUELNAJ          4 27104  2ORDERS      011    15 10     0      0920614
3818306141246BUELNAJ          4 27104  2ORDERS      01001   0   283335      1920614
3818306141246BUELNAJ          4 27104  2ORDERS      011   202 10     0      0920614
3818106141147BUELNAJ          4 27104  2ORDERS      01001   0   302195      1920614
3818106141147BUELNAJ          4 27104  2ORDERS      011   209 10     0      0920614
3818406141336BUELNAJ          4 27104  2ORDERS      01001   0   522245      1920614
3818406141336BUELNAJ          4 27104  2ORDERS      011   386 10     0      0920614
3817906131550BUELNAJ          4 27104  2TAP26A.DIR  0040000130000000000000000920614
3817906131550BUELNAJ          4 27104  2TAP26A.DIR  0050000490000000000000013920614
3816406081808PAYROLL          4  4072  2PAYROLL     01001   0     1845      1920615
3816406081808PAYROLL          4  4072  2PAYROLL     011     2 10     0      0920615
3816506091754PAYROLL          4  4072  2PAYROLL     01001   0     2255      1920615
3816506091754PAYROLL          4  4072  2PAYROLL     011     2 10     0      0920615
3816806101736PAYROLL          4  4072  2PAYROLL     01001   0     1845      1920615
3816806101736PAYROLL          4  4072  2PAYROLL     011     2 10     0      0920615
3817306111733PAYROLL          4  4072  2PAYROLL     01001   0     1845      1920615
3817306111733PAYROLL          4  4072  2PAYROLL     011     2 10     0      0920615
3817806121708PAYROLL          4  4072  2PAYROLL     01001   0    18045      1920615
3817806121708PAYROLL          4  4072  2PAYROLL     011     5 10     0      0920615
3818506141402PAYROLL          4  4072  2PAYROLL     01001   0     1845      1920615
3818506141402PAYROLL          4  4072  2PAYROLL     011     2 10     0      0920615
3818606151425PAYROLL          4  4072  2X6415       01001   0   447360      3920615
3818606151425PAYROLL          4  4072  2X6415       011   190 10     0      0920615
3818706151428PAYROLL          4  4072  2MIS/ NEW PAY0050052070000000000000000920615
3818806151754OPER        000001000021  0CDC         0 9    88   369746      0920615
3819106151752BUELNAJ          4 27104  2ORDERS      01001   0   241165      1920615
3819106151752BUELNAJ          4 27104  2ORDERS      011   163 10     0      0920615
3819306161536NCSALES      10056220435229            1040000090000000000000000920616
3819206161036NETSTAT      21477205635201NEED FILE RE0040000100000000000000000920616
3819506171119NETSTAT      21477205635201RECOVER FILE0040000100000000000000000920617
3819706171825BUELNAJ          4 27104  2ORDERS      01001   0   110045      1920617
3819706171825BUELNAJ          4 27104  2ORDERS      011    84 10     0      0920617
3819906171928BUELNAJ          4 27104  2ORDERS      01001   0   263630      1920617
3819906171928BUELNAJ          4 27104  2ORDERS      011   203 10     0      0920617
3819806171848BUELNAJ          4 27104  2ORDERS      01001   0   318775      1920617
3819806171848BUELNAJ          4 27104  2ORDERS      011   212 10     0      0920617
3820106182058BUELNAJ          4 27104  2ORDERS      01001   0   355680      1920618
3820106182058BUELNAJ          4 27104  2ORDERS      011   245 10     0      0920618
3820206182205BUELNAJ          4 27104  2ORDERS      01001   0   514315      1920618
3820206182205BUELNAJ          4 27104  2ORDERS      011   363 10     0      0920618
3820306190049BUELNAJ          4 27104  2ORDERS      01001   0   294830      1920619
3820306190049BUELNAJ          4 27104  2ORDERS      011   227 10     0      0920619
3820406190225BUELNAJ          4 27104  2ORDERS      01001   0   680290      1920619
3820406190225BUELNAJ          4 27104  2ORDERS      011   394 10     0      0920619
3820706222341JMS              34311162382105        01001   0      760      1920623
3820706222341JMS              34311162382105        011     1 10     0      0920623
3820606222234NTRACKDATA   21477 14371229            0040000010000000000000000920623
3820606222234NTRACKDATA   21477 14371229            0050000020000000000000000920623
3820806230452NTRACKDATA  021477014371229            0 9     4     5544      0920623
3820906231525SRA              1215254  0DUMP TO TAPE0050002560000000000000000920624
3821106241033OPER        000001000021  0CDC         0 9     9    35160      0920624
3821206241046NETENG       21477235561201            0050000060000000000000000920624
3821206241046NETENG       21477235561201            0040000060000000000000000920624
3821406241756BUELNAJ          4 27104  2ORDERS      01001   0   325885      1920624
3821406241756BUELNAJ          4 27104  2ORDERS      011   212 10     0      0920624
3821506241823BUELNAJ          4 27104  2ORDERS      01001   0   347675      1920624
3821506241823BUELNAJ          4 27104  2ORDERS      011   234 10     0      0920624
3821606241906BUELNAJ          4 27104  2ORDERS      01001   0   312975      1920624
3821606241906BUELNAJ          4 27104  2ORDERS      011   227 10     0      0920624
3821006240848FRANK            4111413  2TAP26B.DIR  0050000440000000000000011920625
3821706251753BUELNAJ          4 27104  2ORDERS      01001   0   143930      1920625
3821706251753BUELNAJ          4 27104  2ORDERS      011   105 10     0      0920625
3821906252013BUELNAJ          4 27104  2ORDERS      01001   0   249270      1920625
3821906252013BUELNAJ          4 27104  2ORDERS      011   166 10     0      0920625
3822006252044BUELNAJ          4 27104  2ORDERS      01001   0   218905      1920625
3822006252044BUELNAJ          4 27104  2ORDERS      011   170 10     0      0920625
3821306241257NETSTAT      21477205635201FILE RECOVER0040000080000000000000000920626
3821806251812PAYROLL          4  4072  2PAYROLL     01001   0     7945      1920626
3821806251812PAYROLL          4  4072  2PAYROLL     011     3 10     0      0920626
3822206261409PAYROLL          4  4072  2X6415       01001   0   427000      3920626
3822206261409PAYROLL          4  4072  2X6415       011   182 10     0      0920626
3822306261411PAYROLL          4  4072  2MIS/ NEW PAY0050028570000000000000001920626
3822406261517OPER        000001000021  0CDC         0 9    10    38400      0920626
3822506261540OPER        000001000021  0CDC         0 9    48   202573      0920626
3822106260944NETSTAT      21477205635201FILE RECOVER0040000100000000000000000920626
3822906291312RJK              4   130  2ACTG        01001   0    23915     18920629
3822906291312RJK              4   130  2ACTG        011    25 10     0      0920629
3822806291222UIS              4125553  2VERTEX MAGCO0070000010001000000000000920629
3823106291835BUELNAJ          4 27104  2ORDERS      01001   0     9830      1920629
3823106291835BUELNAJ          4 27104  2ORDERS      011    10 10     0      0920629
3823206291851BUELNAJ          4 27104  2ORDERS      01001   0   182320      1920629
3823206291851BUELNAJ          4 27104  2ORDERS      011   133 10     0      0920629
3823306291927BUELNAJ          4 27104  2ORDERS      01001   0   321585      1920629
3823306291927BUELNAJ          4 27104  2ORDERS      011   242 10     0      0920629
3823406292030BUELNAJ          4 27104  2ORDERS      01001   0   409950      1920629
3823406292030BUELNAJ          4 27104  2ORDERS      011   274 10     0      0920629
3822706291054NTRACKDATA   21477 14371229            0040000010000000000000000920629
3822706291054NTRACKDATA   21477 14371229            0050000020000000000000000920629
3823506300202BUELNAJ          4 27104  2ORDERS      01001   0   898015      1920630
3823506300202BUELNAJ          4 27104  2ORDERS      011   575 10     0      0920630
3823706301429NTRACKDATA   21477 14371229            0040000040000000000000000920630
3823606301035DBAMIKE      32120 67260201            0040000010000000000000000920630
3813306010001MSNTRACK     21477454763201            0050000040000000000000000930601
3813306010001MSNTRACK     21477454763201            0040000010000000000000000930601
3813406011010BILLING10        1 44355  0BSATFR.MAY  0040000010000000000000000930601
3813406011010BILLING10        1 44355  0BSATFR.MAY  0050001880000000000000002930601
0113606020819FRANK       000000000000  2TAP35C.DIR  0040000130000000000000000930603
0113606020819FRANK       000000000000  2TAP35C.DIR  0050000300000000000000013930603
3813606020819FRANK            4111413  2TAP35C.DIR  0040000140000000000000000930603
3813606020819FRANK            4111413  2TAP35C.DIR  0050000510000000000000000930603
3814206061306PAYROLL          4  4072  2MIS/  PAYROL0040000010000000000000000930606
3814206061306PAYROLL          4  4072  2MIS/  PAYROL0050051420000000000000000930606
3814306071409PAYROLL          4  4072  2X6415       01001   0   518540      3930607
3814306071409PAYROLL          4  4072  2X6415       011   208 10     0      0930607
3814006060000NTRACKDATA   21477 14371229            0050000020000000000000000930608
3814006060000NTRACKDATA   21477 14371229            0040000020000000000000000930608
3814906130000NTRACKDATA   21477 14371229            0040000020000000000000000930613
3814906130000NTRACKDATA   21477 14371229            0050000020000000000000000930613
3815106131531PAYROLL          4  4072  2MIS/  PAYROL0050051490000000000000000930613
3815206140000JMS              34311162382105        01001   0      730      1930614
3815206140000JMS              34311162382105        011     1 10     0      0930614
3815406141410PAYROLL          4  4072  2X6415       01001   0   476000      3930614
3815406141410PAYROLL          4  4072  2X6415       011   201 10     0      0930614
3815606142050BUELNAJ          4 27104  2ORDERS      01001   0   855175      1930614
3815606142050BUELNAJ          4 27104  2ORDERS      011   537 10     0      0930614
0115306140847FRANK       000000000000  2TAP36A.DIR  0040000010000000000000000930615
0115306140847FRANK       000000000000  2TAP36A.DIR  0050000550000000000000000930615
3815306140847FRANK            4111413  2TAP36A.DIR  0040000010000000000000000930615
3815306140847FRANK            4111413  2TAP36A.DIR  0050000550000000000000014930615
3815906160812SRA              1215254  0CORPAYROLL  0040000960000000000000000930616
3815906160812SRA              1215254  0CORPAYROLL  0050000960000000000000000930616
3816006160842DDREW        11020165226  32158        0040000060000000000000000930616
3816106161156NETSTAT      21477205635201FILE RECOVER0040000050000000000000000930616
3815706151341FRANK            4111413  2MAGCON      0070000060003000000000000930617
3816306171411DDREW        11020165226  32158        0040000050000000000000000930617
3816406171614JMS              3431116238            0050022820000000000000000930617
3816606180906SRA              1215254  0NCSALES     0050003290000000000000000930618
3816806181104SRA              1215254  0NCSALES     0040003290000000000000000930618
3816706180954BURNS1           1161424  0STORE       0050010680000000000000000930618
3816706180954BURNS1           1161424  0STORE       0040000010000000000000000930618
3817006200000NTRACKDATA   21477 14371229            0040000020000000000000000930620
3817006200000NTRACKDATA   21477 14371229            0050000020000000000000000930620
3817206201400PAYROLL          4  4072  2MIS/  PAYROL0050051570000000000000000930620
3817306211416PAYROLL          4  4072  2X6415       01001   0   476230      3930621
3817306211416PAYROLL          4  4072  2X6415       011   201 10     0      0930621
0117606230927FRANK       000000000000  2TAP36B.DIR  0040000440000000000000000930624
0117606230927FRANK       000000000000  2TAP36B.DIR  0050000440000000000000000930624
3817606230927FRANK            4111413  2TAP36B.DIR  0040000010000000000000000930624
3817606230927FRANK            4111413  2TAP36B.DIR  0050000440000000000000000930624
3818006251453UIS              4125553  2VERTEX MAGCO0070000010001000000000000930625
3817906251423JCLMIN       11447271412  0GNSD        0040000030000000000000000930625
3818206270000NTRACKDATA   21477 14371229            0040000020000000000000000930627
3818206270000NTRACKDATA   21477 14371229            0050000020000000000000000930627
3818506271448OPER        000001000021  0CDC         0 9     1     1200      0930627
3818406271341PAYROLL          4  4072  2MIS/  PAYROL0050051650000000000000000930627
3818606271831BILLING10        1 44355  0MAGCON      0070000040002000000000000930627
3818706281118DDREW        11020165226  32158        0040000030000000000000000930628
3819106281832PAYROLL          4  4072  2PAYROLL     01001   0     1845      1930629
3819106281832PAYROLL          4  4072  2PAYROLL     011     2 10     0      0930629
3818806281407PAYROLL          4  4072  2X6415       01001   0   475470      3930629
3818806281407PAYROLL          4  4072  2X6415       011   200 10     0      0930629
3818906281436NCSALES      10056113412  0            0040000060000000000000000930629
3819006281440FRANK            4111413  2MAGCON      0070000060003000000000000930630
3881006010000MSNTRACK     21477454763201            0050000010000000000000000940601
3881006010000MSNTRACK     21477454763201            0040000020000000000000000940601
3880905311600OPER             1    21  0TAP45C.DIR  0040000010000000000000000940602
3880905311600OPER             1    21  0TAP45C.DIR  0050000530000000000000015940602
3881106031902SULLIVAN     21475174505229NONE        0040000060000000000000000940604
0181206071727JCLMIN      000000000000  0JULIAN      0040000180000000000000000940608
3881206071727JCLMIN       11447271412  0JULIAN      0040000180000000000000000940608
3881406130845OPER             1    21  0TAP46A.DIR  0040000010000000000000000940613
3881406130845OPER             1    21  0TAP46A.DIR  0050000540000000000000014940613
3881506201005OPER             1    21  0TAP46B.DIR  0040000010000000000000000940623
3881506201005OPER             1    21  0TAP46B.DIR  0050000500000000000000013940623
#X9=g