3879603171359NETENG      HIGHTOWER   201            0000000000000000000000000000000
3883203250713NETENG      HIGHTOWER   201            0000000000000000000000000000000
3884903300958NETENG      CAMARA      201            0000000000000000000000000000000
