3845406231055PGRADE      ZACHARYE    201            0000000000000000000000000000000
3875707271420SRAVAL      ZACHARYE      0            0000000000000000000000000000000
3896607191811DBSCHED     TERRYB      229            0000000000000000000000000000000
3898507231139DBSCHED     SILVAM      229            0000000000000000000000000000000
3805507311037CTS         ZACHARYE    229            0000000000000000000000000000000
3825007021523NETENG      JONESJ      201            0000000000000000000000000000000
3826707081257ATTEND.DEV  CAMARA        2MIS/  PAYROL0000000000000000000000000000000
3827907130829PAYROLL     CAMARA        2MIS/  PAYROL0000000000000000000000000000000
3821207071412NCSALES     JONESJ        0            0000000000000000000000000000000
3827407300807NETENG      HIGHTOWER   201            0000000000000000000000000000000
