3882504251622FERRISK     HIGHTOWER   201            0000000000000000000000000000000
3898404271306NTS         JONESJ        3            0000000000000000000000000000000
3805305141553DBSCHED     CAMARA      229            0000000000000000000000000000000
3809605261420NETSTAT     JONESJ      201FILE RECOVER0000000000000000000000000000000
3807705061733NETSTAT     ZACHARYE    201FILE RESTORE0000000000000000000000000000000
3810505201355NETENG      CAMARA      201            0000000000000000000000000000000
3880405051415NETSTAT     MMARTIN     201FILE RESTORE0000000000000000000000000000000
