3871402271506NETQC       ZACHARYE    2292114        0000000000000000000000000000000
3871302271444NETQC       ZACHARYE    2292114        0000000000000000000000000000000
3888402160812FRANK       JONESJ        2TAP32A.DIR  0000000000000000000000000000000
3888602171021NETENG      HIGHTOWER   201            0000000000000000000000000000000
