3858010181600ROY         HIGHTOWER   201NONE        0000000000000000000000000000000
3867811131303FRANK       HIGHTOWER     2RELEASE TAPE0000000000000000000000000000000
3868811141622ACHASE      HIGHTOWER   2294253        0000000000000000000000000000000
3868611141220ACHASE      HIGHTOWER   2294253        0000000000000000000000000000000
3872711191434FRANK       JONESJ        2RELEASE TAPE0000000000000000000000000000000
3825911210748NETENG      WILKEC      201            0000000000000000000000000000000
3868511161011NETENG      ZACHARYE    201            0000000000000000000000000000000
3862510261153NETSTAT     CAMARA      201FILE RECOVER0000000000000000000000000000000
3850811011237BILLING10   JONESJ        0BSATFR.OCT  0000000000000000000000000000000
3855111220753CTSFORD     CAMARA      229            0000000000000000000000000000000
