3804808251750MKTGINFO    ZACHARYE    229INFO        0000000000000000000000000000000
3842809251304SRAVAL      ZACHARYE      0            0000000000000000000000000000000
3886209061427NETSTAT     HIGHTOWER   201FILE RECOVER0000000000000000000000000000000
3889209120746NETENG      WILKEC      201            0000000000000000000000000000000
3896309261349JCLMIN      HIGHTOWER     0JCLMIN      0000000000000000000000000000000
3897009301020BWELSH      WILKEC      229            1000000000000000000000000000000
3852409150011BUELNAJ     CHAMPOUXG     2TAP29A.DIR  0000000000000000000000000000000
3837609081752TYMRES      THROWERM    201            0000000000000000000000000000000
3837709081801NADM        THROWERM    229            0000000000000000000000000000000
3837809081824NADM        THROWERM    229            0000000000000000000000000000000
3839509151839JCLMIN      MERLOSJ       0JCLMIN      0000000000000000000000000000000
3840709210815FRANK       HIGHTOWER     2MAGCON      0000000000000000000000000000000
