3879708010734DBSCHED     SMITH       229            0000000000000000000000000000000
3878207311500DBSCHED     SMITH       229            0000000000000000000000000000000
3883708042032TNSM        ZACHARYE    228            0000000000000000000000000000000
3810208061523CTSFORD     HIGHTOWER   2294258        0000000000000000000000000000000
3866808111622FERRISK     WILKEC      201            0000000000000000000000000000000
3868008131330NETENG      JONESJ      201            0000000000000000000000000000000
3876908221608DDREW       MERLOSJ       3            0000000000000000000000000000000
