3801210041351PGRADE      JONESJ      201PGRADE      0000000000000000000000000000000
3861610191309NCSALES     JONESJ      229            1000000000000000000000000000000
3862810270606NEWSALES    MMARTIN     229            0000000000000000000000000000000
3842809291521FRANK       THROWERM      2MAGCON      0000000000000000000000000000000
3843910040920NETENG      CAMARA      201            0000000000000000000000000000000
3884210240959OPER        PALS          0NETSTATE    0000000000000000000000000000000
