3843612261416ARICHARDSON ZACHARYE      3            0000000000000000000000000000000
3875312170747NETENG      HIGHTOWER   201            0000000000000000000000000000000
3876212210749NETENG      CAMARA      201            0000000000000000000000000000000
3861012221247OPER        JONESJ        0TAP3DA.DIR  0000000000000000000000000000000
