3868504121253FERRISK     HIGHTOWER   201            0000000000000000000000000000000
3887404021426NETENG      CAMARA      201            0000000000000000000000000000000
3890104071326FRANK       CAMARA        2RELEASE TAPE0000000000000000000000000000000
3890204071355FRANK       CAMARA        2RELEASE TAPE0000000000000000000000000000000
3892404140909EDPROD      HIGHTOWER     2            0000000000000000000000000000000
3895904221105DBSCHED     HIGHTOWER   22961567       0000000000000000000000000000000
3878704111815TKOCHMANN   MERLOSJ       3            0000000000000000000000000000000
3878804121028SULLIVAN    JONESJ      229NONE        0000000000000000000000000000000
