3833906061745SESALES     ZACHARYE    229MAIL TAPE   1000000000000000000000000000000
3840106190938FRANK       ZACHARYE      2            0000000000000000000000000000000
3845306231041PGRADE      ZACHARYE    201            0000000000000000000000000000000
3861906061030RJK         HIGHTOWER     2ACTG        0000000000000000000000000000000
3820206031603MLEE        CHUO        201            0000000000000000000000000000000
3813105261814FERRISK     WILKEC      201            0000000000000000000000000000000
3832006180842CAROTHERS   JONESJ      229RESTORE     0000000000000000000000000000000
3881306091400JJOELS      HIGHTOWER   200            0000000000000000000000000000000
