3853402232021DUVALLC          4 57166  2ORDERS      01001   0   535515      1890223
3853402232021DUVALLC          4 57166  2ORDERS      011   350 10     0      0890223
3851702230912SRAVAL           1101723  0            0040000010000000000000000890223
3852902231852DUVALLC          4 57166  2ORDERS      01001   0     8140      1890223
3852902231852DUVALLC          4 57166  2ORDERS      011     9 10     0      0890223
3853002231901DUVALLC          4 57166  2ORDERS      01001   0    64350      1890223
3853002231901DUVALLC          4 57166  2ORDERS      011    44 10     0      0890223
3853202231914DUVALLC          4 57166  2ORDERS      01001   0    72005      1890223
3853202231914DUVALLC          4 57166  2ORDERS      011    53 10     0      0890223
3853102231910DUVALLC          4 57166  2ORDERS      01001   0   119930      1890223
3853102231910DUVALLC          4 57166  2ORDERS      011    91 10     0      0890223
3852402231737PAYROLL          4  4072  2PAYROLL     01001   0     4955      1890223
3852402231737PAYROLL          4  4072  2PAYROLL     011     3 10     0      0890223
3852502231744DUVALLC          4 57166  2ORDERS      01001   0   290840      1890223
3852502231744DUVALLC          4 57166  2ORDERS      011   205 10     0      0890223
3853302231934DUVALLC          4 57166  2STAT RPT    01001   0   961530      1890224
3853302231934DUVALLC          4 57166  2STAT RPT    011   180 10     0      0890224
3852702231834DUVALLC          4 57166  2ORDERS      01001   0   199355      1890224
3852702231834DUVALLC          4 57166  2ORDERS      011   165 10     0      0890224
3852602231831DUVALLC          4 57166  2ORDERS      01001   0   718745      1890224
3852602231831DUVALLC          4 57166  2ORDERS      011   490 10     0      0890224
3852802231834DUVALLC          4 57166  2ORDERS      01001   0   783370      1890224
3852802231834DUVALLC          4 57166  2ORDERS      011   551 10     0      0890224
3853502240653DUVALLC          4 57166  2ACTG        01001   0    62395     17890224
3853502240653DUVALLC          4 57166  2ACTG        011    66 10     0      0890224
3853602240853RJK              4   130  2ACTG        01001   0    46930      2890224
3853602240853RJK              4   130  2ACTG        011    52 10     0      0890224
3853702240925NTS         011020171731  3            0 9    11    17200      0890224
3853802240929NTS         011020171731  3            0 9    37    50664      0890224
3853802240935NTS         011020171731  3            0 9    38    72780      0890224
3853802240942NTS         011020171731  3            0 9    42    76927      0890224
3854002241810BUELNAJ          4 27104  2ORDERS      01001   0     4630      1890224
3854002241810BUELNAJ          4 27104  2ORDERS      011     6 10     0      0890224
3853902241742PAYROLL          4  4072  2PAYROLL     01001   0    19705      1890224
3853902241742PAYROLL          4  4072  2PAYROLL     011     6 10     0      0890224
3854102241819BUELNAJ          4 27104  2ORDERS      01001   0    94530      1890224
3854102241819BUELNAJ          4 27104  2ORDERS      011    61 10     0      0890224
3854202241948BUELNAJ          4 27104  2ORDERS      01001   0   627515      1890224
3854202241948BUELNAJ          4 27104  2ORDERS      011   412 10     0      0890224
3854602242028BUELNAJ          4 27104  2ORDERS      01001   0   244865      1890224
3854602242028BUELNAJ          4 27104  2ORDERS      011   169 10     0      0890224
3854502242027BUELNAJ          4 27104  2ORDERS      01001   0   221400      1890224
3854502242027BUELNAJ          4 27104  2ORDERS      011   174 10     0      0890224
3854702242059BUELNAJ          4 27104  2ORDERS      01001   0   383665      1890224
3854702242059BUELNAJ          4 27104  2ORDERS      011   277 10     0      0890224
3854802242151BUELNAJ          4 27104  2STAT RPT    01001   0   961850      1890224
3854802242151BUELNAJ          4 27104  2STAT RPT    011   180 10     0      0890224
3854902242151BUELNAJ          4 27104  2ORDERS      01001   0   523630      1890224
3854902242151BUELNAJ          4 27104  2ORDERS      011   353 10     0      0890224
3855002242200BUELNAJ          4 27104  2ORDERS      01001   0   725445      1890224
3855002242200BUELNAJ          4 27104  2ORDERS      011   576 10     0      0890224
3854402241959BUELNAJ          4 27104  2ORDERS      01001   0   865670      1890224
3854402241959BUELNAJ          4 27104  2ORDERS      011   558 10     0      0890224
3855102261230PAYROLL          4  4072  2PAYROLL     01001   0     1845      1890227
3855102261230PAYROLL          4  4072  2PAYROLL     011     2 10     0      0890227
3855402271313PAYROLL          4  4072  2MIS/ NEW PAY0070000010001000000000000890227
3855602271313PAYROLL          4  4072  2            01001   0       10      1890227
3855602271313PAYROLL          4  4072  2            011     2 10     0      0890227
3855302271307PAYROLL          4  4072  2PAYROLL     01001   0   617370      3890227
3855302271307PAYROLL          4  4072  2PAYROLL     011   235 10     0      0890227
3855502271313PAYROLL          4  4072  2MIS/ NEW PAY0050042810000000000000001890227
3855702271521OPER        000001000021  0CDC         0 9    66   303567      0890227
3855802271734PAYROLL          4  4072  2PAYROLL     01001   0     5345      1890228
3855802271734PAYROLL          4  4072  2PAYROLL     011     3 10     0      0890228
3856002281100PAYROLL          4  4072  2GL PAY 06   01001   0   195675      5890228
3856002281100PAYROLL          4  4072  2GL PAY 06   011    48 10     0      0890228
3855902281059PAYROLL          4  4072  2GL PAY 06   01001   0   195675      5890228
3855902281059PAYROLL          4  4072  2GL PAY 06   011    48 10     0      0890228
3855202271014UIS              4125553  2VERTEX MAGCO0070000010001000000000000890228
3856102281737PAYROLL          4  4072  2PAYROLL     01001   0     6645      1890301
3856102281737PAYROLL          4  4072  2PAYROLL     011     3 10     0      0890301
3856203011008CORPAYROLL   14130151217  2PAYROLL     01001   0   870960      1890301
3856203011008CORPAYROLL   14130151217  2PAYROLL     011   216 10     0      0890301
3856303011010BILLING10        1 44355  0BSATFR.FEB  0040000010000000000000000890301
3856303011010BILLING10        1 44355  0BSATFR.FEB  0050001970000000000000000890301
3856603012036PORTSDLY         4541326  2NODEZ       0070000010001000000000000890301
3856503012001MSNTRACK     21477454763201            0050000020000000000000000890301
3856503012001MSNTRACK     21477454763201            0040000010000000000000000890301
3856403011735PAYROLL          4  4072  2PAYROLL     01001   0     2515      1890302
3856403011735PAYROLL          4  4072  2PAYROLL     011     2 10     0      0890302
3856703021035JOLEARY     044060703370229            0 9   176   309572      0890302
3857103021022PAYROLL          4  4072  2GL PAY 08   01001   0   111895      3890302
3857103021022PAYROLL          4  4072  2GL PAY 08   011    29 10     0      0890302
3857003021021PAYROLL          4  4072  2GL PAY 08   01001   0   111895      3890302
3857003021021PAYROLL          4  4072  2GL PAY 08   011    29 10     0      0890302
3856803020945PGRADE       21477372774201FEB89 BACKUP0050000840000000000000001890302
3857603030000DANIELSR         1142734  0FILE SAVE   0050003540000000000000000890303
3857503021748PAYROLL          4  4072  2PAYROLL     01001   0    34045      1890303
3857503021748PAYROLL          4  4072  2PAYROLL     011     9 10     0      0890303
3857703031604AUTODIST     21477415677229            0040000010000000000000000890303
3858003032010PGRADE       21477372774201APPEND TO 130050000030000000000000000890303
3856903021014LMORRIS          1162775  0            0040000070000000000000000890304
3856903021014LMORRIS          1162775  0            0050000070000000000000000890304
3858103041906NETSTAT      21477205635201TAP92C.DIR  0040000050000000000000000890305
3858103041906NETSTAT      21477205635201TAP92C.DIR  0050000310000000000000005890305
3858203051228PAYROLL          4  4072  2PAYROLL     01001   0     1845      1890306
3858203051228PAYROLL          4  4072  2PAYROLL     011     2 10     0      0890306
3857903031748PAYROLL          4  4072  2PAYROLL     01001   0     9655      1890306
3857903031748PAYROLL          4  4072  2PAYROLL     011     3 10     0      0890306
3857803031624MKTGINFO     10056167145229NETWORK PROF01001   0   380340      3890306
3857803031624MKTGINFO     10056167145229NETWORK PROF011    98 10     0      0890306
3858303061005AUTODIST    021477415677229            0 9   491   732344      0890306
3858503061315PAYROLL          4  4072  2MIS/ NEW PAY0070000030001000000000000890306
3858703061316PAYROLL          4  4072  2            01001   0       10      1890306
3858703061316PAYROLL          4  4072  2            011     2 10     0      0890306
3858603061316PAYROLL          4  4072  2MIS/ NEW PAY0050042950000000000000001890306
3858403061311PAYROLL          4  4072  2PAYROLL     01001   0   522830      3890306
3858403061311PAYROLL          4  4072  2PAYROLL     011   214 10     0      0890306
3859003061507OPER        000001000021  0CDC         0 9    66   304558      0890306
3859103061727PAYROLL          4  4072  2PAYROLL     01001   0     7685      1890307
3859103061727PAYROLL          4  4072  2PAYROLL     011     3 10     0      0890307
3859203071045CTS         044054664024229            0 9   129   190154      0890307
3859403071712OPER             1    21  0WK0227      0 1    27 10000000      0890307
3859503071910PAYROLL          4  4072  2PAYROLL     01001   0    10535      1890308
3859503071910PAYROLL          4  4072  2PAYROLL     011     4 10     0      0890308
3859603080850DANIELSR         1142734  0MONITOR TAPE0050000040000000000000000890308
3859803081749PAYROLL          4  4072  2PAYROLL     01001   0     1845      1890308
3859803081749PAYROLL          4  4072  2PAYROLL     011     2 10     0      0890308
3860603091758DUVALLC          4 57166  2ORDERS      01001   0   339105      1890309
3860603091758DUVALLC          4 57166  2ORDERS      011   229 10     0      0890309
3860903091831DUVALLC          4 57166  2ORDERS      01001   0   102650      1890309
3860903091831DUVALLC          4 57166  2ORDERS      011    65 10     0      0890309
3860303091733DUVALLC          4 57166  2ORDERS      01001   0    10360      1890309
3860303091733DUVALLC          4 57166  2ORDERS      011    11 10     0      0890309
3860403091737DUVALLC          4 57166  2ORDERS      01001   0    23865      1890309
3860403091737DUVALLC          4 57166  2ORDERS      011    21 10     0      0890309
3860203091716PAYROLL          4  4072  2PAYROLL     01001   0     6905      1890309
3860203091716PAYROLL          4  4072  2PAYROLL     011     3 10     0      0890309
3860503091748DUVALLC          4 57166  2ORDERS      01001   0   231360      1890309
3860503091748DUVALLC          4 57166  2ORDERS      011   157 10     0      0890309
3861003091926DUVALLC          4 57166  2STAT RPT    01001   0   940635      1890309
3861003091926DUVALLC          4 57166  2STAT RPT    011   176 10     0      0890309
3861103091930DUVALLC          4 57166  2ORDERS      01001   0   386815      1890309
3861103091930DUVALLC          4 57166  2ORDERS      011   275 10     0      0890309
3860803091821DUVALLC          4 57166  2ORDERS      01001   0   475365      1890309
3860803091821DUVALLC          4 57166  2ORDERS      011   362 10     0      0890309
3860703091821DUVALLC          4 57166  2ORDERS      01001   0   775245      1890309
3860703091821DUVALLC          4 57166  2ORDERS      011   547 10     0      0890309
3861303101011NSSC        021477147773229L           0 9   176   310070      0890310
3861203101051AUTODIST    021477415677229            0 9   491   732378      0890310
3861403101056NSSC        021477147773229L           0 9    17    12974      0890310
3861503101057NSSC        021477147773229L           0 9    17    12974      0890310
3861603101059NSSC        021477147773229L           0 9    25    32447      0890310
3861703101117NSSC        021477147773229L           0 9   173   265939      0890310
3861803101051CTS         044054664024229            0 9    33    66572      0890310
3861903101352NSSC        021477147773229L           0 9    19    33200      0890310
3862003101409NSSC        021477147773229L           0 9   173   265939      0890310
3862103101427NSSC        021477147773229L           0 9   173   265939      0890310
3862603121241PAYROLL          4  4072  2PAYROLL     01001   0     1845      1890313
3862603121241PAYROLL          4  4072  2PAYROLL     011     2 10     0      0890313
3862503101831PAYROLL          4  4072  2PAYROLL     01001   0    37525      1890313
3862503101831PAYROLL          4  4072  2PAYROLL     011    10 10     0      0890313
3862403101318PAYROLL          4  4072  2GL PAY 09   01001   0   106555      3890313
3862403101318PAYROLL          4  4072  2GL PAY 09   011    28 10     0      0890313
3862303101318PAYROLL          4  4072  2GL PAY 09   01001   0   106555      3890313
3862303101318PAYROLL          4  4072  2GL PAY 09   011    28 10     0      0890313
3862903131335PAYROLL          4  4072  2MIS/ NEW PAY0070000030001000000000000890313
3863103131336PAYROLL          4  4072  2            01001   0       10      1890313
3863103131336PAYROLL          4  4072  2            011     2 10     0      0890313
3862803131318PAYROLL          4  4072  2PAYROLL     01001   0   524305      3890313
3862803131318PAYROLL          4  4072  2PAYROLL     011   215 10     0      0890313
3863003131335PAYROLL          4  4072  2MIS/ NEW PAY0050043020000000000000001890313
3863303131718CTS         044054664024229            0 9    36    45497      0890313
3863203131519OPER        000001000021  0CDC         0 9    66   305054      0890313
3863403131725CTS         044054664024229            0 9    36    45497      0890313
3863503131710MKTGINFO     10056167145229RESTORE     0040000010000000000000000890313
3862703130923NETSTAT      214772056352011ST 10 DAYS 0040000070000000000000000890313
3862703130923NETSTAT      214772056352011ST 10 DAYS 0050000410000000000000000890313
3863703132230OPER        000001000021  0CDC         0 9     6     6574      0890313
3863603131734PAYROLL          4  4072  2PAYROLL     01001   0     1845      1890314
3863603131734PAYROLL          4  4072  2PAYROLL     011     2 10     0      0890314
3858903061331TYMRES       10056160405201FILES TO BE 0040000200000000000000000890314
3863803141737PAYROLL          4  4072  2PAYROLL     01001   0     1845      1890315
3863803141737PAYROLL          4  4072  2PAYROLL     011     2 10     0      0890315
3864003151545AUTODIST    021477415677229            0 9   130   189885      0890315
3864103151552CTS         044054664024229            0 9   173   266623      0890315
3864203151737AUTODIST    021477415677229            0 9   323   394636      0890315
3864403151742PAYROLL          4  4072  2PAYROLL     01001   0     4075      1890316
3864403151742PAYROLL          4  4072  2PAYROLL     011     2 10     0      0890316
3864703160931PAYROLL          4  4072  2GL PAY 10   01001   0   104805      3890316
3864703160931PAYROLL          4  4072  2GL PAY 10   011    28 10     0      0890316
3864603160931PAYROLL          4  4072  2GL PAY 10   01001   0   104805      3890316
3864603160931PAYROLL          4  4072  2GL PAY 10   011    28 10     0      0890316
3864503160828FRANK            4111413  2            0070000040002000000000000890316
3864903161913DUVALLC          4 57166  2ORDERS      01001   0   577210      1890316
3864903161913DUVALLC          4 57166  2ORDERS      011   429 10     0      0890316
3865103161921DUVALLC          4 57166  2ORDERS      01001   0    10405      1890316
3865103161921DUVALLC          4 57166  2ORDERS      011    10 10     0      0890316
3865503161953PAYROLL          4  4072  2PAYROLL     01001   0    25345      1890316
3865503161953PAYROLL          4  4072  2PAYROLL     011     8 10     0      0890316
3865003161919DUVALLC          4 57166  2ORDERS      01001   0    67930      1890316
3865003161919DUVALLC          4 57166  2ORDERS      011    46 10     0      0890316
3865203161927DUVALLC          4 57166  2ORDERS      01001   0    99865      1890316
3865203161927DUVALLC          4 57166  2ORDERS      011    68 10     0      0890316
3865803162145DUVALLC          4 57166  2STAT RPT    01001   0   926375      1890316
3865803162145DUVALLC          4 57166  2STAT RPT    011   174 10     0      0890316
3864803161912DUVALLC          4 57166  2ORDERS      01001   0   162555      1890316
3864803161912DUVALLC          4 57166  2ORDERS      011   114 10     0      0890316
3865403161937DUVALLC          4 57166  2ORDERS      01001   0   155285      1890316
3865403161937DUVALLC          4 57166  2ORDERS      011   120 10     0      0890316
3865703162131DUVALLC          4 57166  2ORDERS      01001   0   205740      1890316
3865703162131DUVALLC          4 57166  2ORDERS      011   150 10     0      0890316
3865303161937DUVALLC          4 57166  2ORDERS      01001   0   360270      1890317
3865303161937DUVALLC          4 57166  2ORDERS      011   247 10     0      0890317
3865603162000DUVALLC          4 57166  2ORDERS      01001   0   451065      1890317
3865603162000DUVALLC          4 57166  2ORDERS      011   311 10     0      0890317
3865903171210CTS         044054664024229            0 9   236   331337      0890317
3865903171213CTS         044054664024229            0 9    26    31652      0890317
3866003171240CTS         044054664024229            0 9    33    51492      0890317
3866003171248CTS         044054664024229            0 9    52    86171      0890317
3866003171257CTS         044054664024229            0 9    74   105192      0890317
3866203191237PAYROLL          4  4072  2PAYROLL     01001   0     9735      1890320
3866203191237PAYROLL          4  4072  2PAYROLL     011     4 10     0      0890320
3866103171752PAYROLL          4  4072  2PAYROLL     01001   0     2515      1890320
3866103171752PAYROLL          4  4072  2PAYROLL     011     2 10     0      0890320
3866303200755MISDOC           4222076  2ACTG        01001   0    63500      1890320
3866303200SDOC           4222076  2ACTG        011   140 10     0      0890320
3866403201519CTS         044054664024229            0 9    13    14000      0890320
3866803201317PAYROLL          4  4072  2            01001   0       10      1890320
3866803201317PAYROLL          4  4072  2            011     2 10     0      0890320
3866903201529CTS         044054664024229            0 9    14    15200      0890320
3866603201316PAYROLL          4  4072  2MIS/ NEW PAY0070000030001000000000000890320
3866503201311PAYROLL          4  4072  2PAYROLL     01001   0   526405      3890320
3866503201311PAYROLL          4  4072  2PAYROLL     011   217 10     0      0890320
3867003201610CTS         044054664024229            0 9   230   251571      0890320
3866703201317PAYROLL          4  4072  2MIS/ NEW PAY0050043080000000000000001890320
3867103201702CTS         044054664024229            0 9   236   331337      0890320
3867203201736CTS         044054664024229            0 9   180   293619      0890320
3867303201542OPER        000001000021  0CDC         0 9    66   305479      0890320
3867403201755PAYROLL          4  4072  2PAYROLL     01001   0     3705      1890321
3867403201755PAYROLL          4  4072  2PAYROLL     011     2 10     0      0890321
3867503211204RKLUTE      011011264245144NDS         0 9   945   963605      0890321
3864303151412TYMRES       10056160405201FILE RESTORE0040000030000000000000000890321
3867603211506RKLUTE      011011264245144NDS         0 9   945   963605      0890321
3867703211749PAYROLL          4  4072  2PAYROLL     01001   0     3185      1890322
3867703211749PAYROLL          4  4072  2PAYROLL     011     2 10     0      0890322
3867803221151CTS         044054664024229            0 9   230   251369      0890322
3867903221359CTS         044054664024229            0 9   230   251369      0890322
3868003221436CTS         044054664024229            0 9   230   251369      0890322
3868203222033NETSTAT      21477205635201TAP93B.DIR  0040000010000000000000000890323
3868203222033NETSTAT      21477205635201TAP93B.DIR  0050000320000000000000005890323
3868403231131RKRUL       021477421552229            0 9    91   158983      0890323
3868103221742PAYROLL          4  4072  2PAYROLL     01001   0     3295      1890323
3868103221742PAYROLL          4  4072  2PAYROLL     011     2 10     0      0890323
3868603231001PAYROLL          4  4072  2GL PAY 11   01001   0   111875      3890323
3868603231001PAYROLL          4  4072  2GL PAY 11   011    29 10     0      0890323
3868503231001PAYROLL          4  4072  2GL PAY 11   01001   0   111875      3890323
3868503231001PAYROLL          4  4072  2GL PAY 11   011    29 10     0      0890323
3868703231126AFAIRB       21476436723229            0040000010000000000000000890323
3868803231846CTS         044054664024229            0 9    78   116651      0890323
3868903231858CTS         044054664024229            0 9    74   105192      0890323
3869103231731DUVALLC          4 57166  2ORDERS      01001   0   637165      1890323
3869103231731DUVALLC          4 57166  2ORDERS      011   491 10     0      0890323
3869303231758DUVALLC          4 57166  2ORDERS      01001   0   557990      1890323
3869303231758DUVALLC          4 57166  2ORDERS      011   380 10     0      0890323
3869703231826PAYROLL          4  4072  2PAYROLL     01001   0    28975      1890323
3869703231826PAYROLL          4  4072  2PAYROLL     011     9 10     0      0890323
3869903232159DUVALLC          4 57166  2ORDERS      01001   0   260815      1890323
3869903232159DUVALLC          4 57166  2ORDERS      011   178 10     0      0890323
3870003232203DUVALLC          4 57166  2STAT RPT    01001   0   918495      1890323
3870003232203DUVALLC          4 57166  2STAT RPT    011   172 10     0      0890323
3869803231834DUVALLC          4 57166  2ORDERS      01001   0   277755      1890323
3869803231834DUVALLC          4 57166  2ORDERS      011   165 10     0      0890323
3869603231816DUVALLC          4 57166  2ORDERS      01001   0   129530      1890323
3869603231816DUVALLC          4 57166  2ORDERS      011   102 10     0      0890323
3869503231816DUVALLC          4 57166  2ORDERS      01001   0   188495      1890324
3869503231816DUVALLC          4 57166  2ORDERS      011   137 10     0      0890324
3869403231759DUVALLC          4 57166  2ORDERS      01001   0   161990      1890324
3869403231759DUVALLC          4 57166  2ORDERS      011   116 10     0      0890324
3869003231714DUVALLC          4 57166  2ORDERS      01001   0   403250      1890324
3869003231714DUVALLC          4 57166  2ORDERS      011   257 10     0      0890324
3869203231748DUVALLC          4 57166  2ORDERS      01001   0   747105      1890324
3869203231748DUVALLC          4 57166  2ORDERS      011   455 10     0      0890324
3870203261337PAYROLL          4  4072  2PAYROLL     01001   0     1845      1890327
3870203261337PAYROLL          4  4072  2PAYROLL     011     2 10     0      0890327
3870103241715PAYROLL          4  4072  2PAYROLL     01001   0    15315      1890327
3870103241715PAYROLL          4  4072  2PAYROLL     011     5 10     0      0890327
3870303271009TECHREF     021476540121229            0 9    15    49264      0890327
3870303271044TECHREF     021476540121229            0 9   296   466945      0890327
3870603271320PAYROLL          4  4072  2MIS/ NEW PAY0070000030001000000000000890327
3870403271132CORPAYROLL   14130151217  2PAYROLL     01001   0   888960      1890327
3870403271132CORPAYROLL   14130151217  2PAYROLL     011   222 10     0      0890327
3870803271321PAYROLL          4  4072  2            01001   0       10      1890327
3870803271321PAYROLL          4  4072  2            011     2 10     0      0890327
3870503271315PAYROLL          4  4072  2PAYROLL     01001   0   530515      3890327
3870503271315PAYROLL          4  4072  2PAYROLL     011   218 10     0      0890327
3870903271711DUVALLC          4 57166  2ORDERS      01001   0   572495      1890327
3870903271711DUVALLC          4 57166  2ORDERS      011   418 10     0      0890327
3870703271321PAYROLL          4  4072  2MIS/ NEW PAY0050043150000000000000001890327
3871303271744PAYROLL          4  4072  2PAYROLL     01001   0     7575      1890327
3871303271744PAYROLL          4  4072  2PAYROLL     011     3 10     0      0890327
3871803271908DUVALLC          4 57166  2ORDERS      01001   0   159045      1890327
3871803271908DUVALLC          4 57166  2ORDERS      011   116 10     0      0890327
3871203271720DUVALLC          4 57166  2ORDERS      01001   0     4925      1890327
3871203271720DUVALLC          4 57166  2ORDERS      011     6 10     0      0890327
3871003271715DUVALLC          4 57166  2ORDERS      01001   0    28790      1890327
3871003271715DUVALLC          4 57166  2ORDERS      011    20 10     0      0890327
3871903271935DUVALLC          4 57166  2STAT RPT    01001   0   892625      1890327
3871903271935DUVALLC          4 57166  2STAT RPT    011   167 10     0      0890327
3871503271807DUVALLC          4 57166  2ORDERS      01001   0   195315      1890327
3871503271807DUVALLC          4 57166  2ORDERS      011   130 10     0      0890327
3871703271810DUVALLC          4 57166  2ORDERS      01001   0   342665      1890327
3871703271810DUVALLC          4 57166  2ORDERS      011   255 10     0      0890327
3871103271717DUVALLC          4 57166  2ORDERS      01001   0   211895      1890327
3871103271717DUVALLC          4 57166  2ORDERS      011   172 10     0      0890327
3871403271752DUVALLC          4 57166  2ORDERS      01001   0   422280      1890328
3871403271752DUVALLC          4 57166  2ORDERS      011   275 10     0      0890328
3871603271809DUVALLC          4 57166  2ORDERS      01001   0   681440      1890328
3871603271809DUVALLC          4 57166  2ORDERS      011   446 10     0      0890328
3872003280838CTS         044054664024229            0 9     5     7264      0890328
3872103280844CTS         044054664024229            0 9    56    74112      0890328
3872203280845RJK              4   130  2ACTG        01001   0    52300     16890328
3872203280845RJK              4   130  2ACTG        011    55 10     0      0890328
3872303281448APOLLACK    044054451714229            0 9    41    39241      0890328
3872403281450APOLLACK    044054451714229            0 9     8    16767      0890328
3872503281453APOLLACK    044054451714229            0 9     4     3179      0890328
3872603281455APOLLACK    044054451714229            0 9     4     2803      0890328
3872703281456APOLLACK    044054451714229            0 9     2     2776      0890328
3872803281546CTS         044054664024229            0 9   126   156360      0890328
3872903281334EDPROD           4641450  2ORDERS      01001   0   572495      1890328
3872903281334EDPROD           4641450  2ORDERS      011   418 10     0      0890328
3873503290903CTS         044054664024229            0 9    41    39270      0890329
3873603290923CTS         044054664024229            0 9    86   122128      0890329
3873403281741PAYROLL          4  4072  2PAYROLL     01001   0     2925      1890329
3873403281741PAYROLL          4  4072  2PAYROLL     011     2 10     0      0890329
3873103281508PAYROLL          4  4072  2GL PAY 10   01001   0   190075      5890329
3873103281508PAYROLL          4  4072  2GL PAY 10   011    46 10     0      0890329
3873003281508PAYROLL          4  4072  2GL PAY 10   01001   0   190075      5890329
3873003281508PAYROLL          4  4072  2GL PAY 10   011    46 10     0      0890329
3873803291328EDPROD           4641450  2LIST        01001   0    17760      1890329
3873803291328EDPROD           4641450  2LIST        011    16 10     0      0890329
3873703291158UIS              4125553  2VERTEX MAGCO0070000010001000000000000890329
3874103300730CTS         044054664024229            0 9    78   116651      0890330
3874203300802CTS         044054664024229            0 9    78   116651      0890330
3874303300817CTS         044054664024229            0 9    74   105192      0890330
3874403300833CTS         044054664024229            0 9    74   105192      0890330
3873903291940PAYROLL          4  4072  2PAYROLL     01001   0     3555      1890330
3873903291940PAYROLL          4  4072  2PAYROLL     011     2 10     0      0890330
3874703301028PAYROLL          4  4072  2GL PAY 12   01001   0   113155      3890330
3874703301028PAYROLL          4  4072  2GL PAY 12   011    30 10     0      0890330
3874603301027PAYROLL          4  4072  2GL PAY 12   01001   0   113155      3890330
3874603301027PAYROLL          4  4072  2GL PAY 12   011    30 10     0      0890330
3874503301020PGRADE       21477372774201            0040000100000000000000000890330
oh$8k