0111211231313OPER             1    21  0            0000000000000000000000000000000
0211311231730DBSCHED      32120305225229BACKUP 38 TO0000000000000000000000000000000
0213511241506UIS              4125553  2VERTEX MAGCO0000000000000000000000000000000
0213611241604TYMNET       21477175251201            0000000000000000000000000000000
0213711241731DBSCHED      32120305225229BACKUP 38 TO0000000000000000000000000000000
0213911251031YOUNGS       21477153236229FILE RECOVER0000000000000000000000000000000
0214011251730DBSCHED      32120305225229BACKUP 38 TO0000000000000000000000000000000
0215111260055BUELNAJ          4 27104  2ACTG        0000000000000000000000000000000
0215311261730DBSCHED      32120305225229BACKUP 38 TO0000000000000000000000000000000
0215611271730DBSCHED      32120305225229BACKUP 38 TO0000000000000000000000000000000
0215711281730DBSCHED      32120305225229BACKUP 38 TO0000000000000000000000000000000
0215911291730DBSCHED      32120305225229BACKUP 38 TO0000000000000000000000000000000
0216111301333PAYROLL          4  4072  2MIS/ NEW PAY0000000000000000000000000000000
0216211301334PAYROLL          4  4072  2MIS/ NEW PAY0000000000000000000000000000000
0216411301730DBSCHED      32120305225229BACKUP 38 TO0000000000000000000000000000000
0216611302100DANIELSR         1142734  0FILE SAVE   0000000000000000000000000000000
0217912011045BILLING10        1 44355  0BSATFR.NOV  0000000000000000000000000000000
0118112011730DBSCHED      32120305225229BACKUP 38 TO0000000000000000000000000000000
0218412020746MSNTRACK     21477454763201            0000000000000000000000000000000
0218512020810RJK              4   130  2ACTG        0000000000000000000000000000000
0218612021107DANIELSR         1142734  0            0000000000000000000000000000000
0218712021329NETSTAT      21477205635201DMS FILES TO0000000000000000000000000000000
0218812021724ACCG1        21477215544201Y           1000000000000000000000000000000
0219012021731DBSCHED      32120305225229BACKUP 38 TO0000000000000000000000000000000
0219612032006JJOELS       11334474103200            0000000000000000000000000000000
0219712031730DBSCHED      32120305225229BACKUP 38 TO0000000000000000000000000000000
0221012041405FRANK            4111413  2G/L PAY     0000000000000000000000000000000
0221112041405FRANK            4111413  2G/L PAY     0000000000000000000000000000000
0221412041730DBSCHED      32120305225229BACKUP 38 TO0000000000000000000000000000000
0222312051730DBSCHED      32120305225229BACKUP 38 TO0000000000000000000000000000000
0222512061730DBSCHED      32120305225229BACKUP 38 TO0000000000000000000000000000000
0222912071344PAYROLL          4  4072  2MIS/ NEW PAY0000000000000000000000000000000
0223012071347PAYROLL          4  4072  2MIS/ NEW PAY0000000000000000000000000000000
0223412071730DBSCHED      32120305225229BACKUP 38 TO0000000000000000000000000000000
0224412090738ACCG1        21477215544201BILLING     1000000000000000000000000000000
0218212011736MSS          21476555371229            0 1    72 10000000      0871209
0230612111146FRANK            4111413  2            0000000000000000000000000000000
0232012131026BUELNAJ          4 27104  2ACTG        0000000000000000000000000000000
0232312141315PAYROLL          4  4072  2MIS/ NEW PAY0000000000000000000000000000000
0232512141316PAYROLL          4  4072  2MIS/ NEW PAY0000000000000000000000000000000
0232912141435DDD          21476545177229            0000000000000000000000000000000
0232512141316PAYROLL          4  4072  2MIS/ NEW PAY0050031680000000000000001871214
0237912181311PAYROLL          4  4072  2MIS/ NEW PAY0000000000000000000000000000000
0238012181312PAYROLL          4  4072  2MIS/ NEW PAY0000000000000000000000000000000
0237912181311PAYROLL          4  4072  2MIS/ NEW PAY0070000030001000000000001871218
0241012220338BUELNAJ          4 27104  2ACTG        0000000000000000000000000000000
0241612220934FRANK            4111413  2G/L PAY     0000000000000000000000000000000
0241712221206NEEDLEDATA   21476555365229            0000000000000000000000000000000
0242712231315PAYROLL          4  4072  2MIS/ NEW PAY0000000000000000000000000000000
0242812231316PAYROLL          4  4072  2MIS/ NEW PAY0000000000000000000000000000000
0246112290919FRANK            4111413  2G/L PAY     0000000000000000000000000000000
0246212291310UIS              4125553  2VERTEX MAGCO0000000000000000000000000000000
0248012302100DANIELSR         1142734  0FILE SAVE   0000000000000000000000000000000
0248712311221FRANK            4111413  2G/L PAY     0000000000000000000000000000000
0248812311225FRANK            4111413  2G/L PAY     0000000000000000000000000000000
0249112311823MSNTRACK     21477454763201            0000000000000000000000000000000
0249501020845BILLING10        1 44355  0BSATFR.DEC  0000000000000000000000000000000
0249601020910EDPROD           4641450  2ACTG        0000000000000000000000000000000
0250601021836DUVALLC          4 57166  2NODEZ       0000000000000000000000000000000
0250801030114BUELNAJ          4 27104  2ACTG        0000000000000000000000000000000
0251601041007LMORRIS          1162775  0            0000000000000000000000000000000
0252101041335PAYROLL          4  4072  2MIS/ NEW PAY0000000000000000000000000000000
0252201041337PAYROLL          4  4072  2MIS/ NEW PAY0000000000000000000000000000000
0252401041614DDD          21476545177229            0000000000000000000000000000000
0255601051105DDD          21476545177229            0000000000000000000000000000000
0257101061343SRA              1215254  0USER DIRECTO0000000000000000000000000000000
0258501071656CRABBS       13107 61012240STORE       0000000000000000000000000000000
0259901110744ACCG1        21477215544201BILLING     1000000000000000000000000000000
0260001110748ACCG1        21477215544201BILLING     1000000000000000000000000000000
0260401110920FRANK            4111413  2G/L PAY     0000000000000000000000000000000
0260701111328PAYROLL          4  4072  2MIS/ NEW PAY0000000000000000000000000000000
0260801111329PAYROLL          4  4072  2MIS/ NEW PAY0000000000000000000000000000000
0261401111958DUVALLC          4 57166  2TAPDIR.87   0000000000000000000000000000000
0261501112011DUVALLC          4 57166  2MAGCON      0000000000000000000000000000000
0261801120411BUELNAJ          4 27104  2ACTG        0000000000000000000000000000000
0264301130959WADES            4 63311  2*.SNG       0000000000000000000000000000000
0265201131901AUTODIST     21477415677229            0000000000000000000000000000000
0265401131821DDD          21476545177229            0000000000000000000000000000000
0268401151452FRANK            4111413  2            0000000000000000000000000000000
0169501160040NETCON       21477175306201CODE REGEN  0000000000000000000000000000000
0270101181406PAYROLL          4  4072  2MIS/ NEW PAY0000000000000000000000000000000
0270201181408PAYROLL          4  4072  2MIS/ NEW PAY0000000000000000000000000000000
0170401181510NLAU         21477707636201            0000000000000000000000000000000
0270501181512NLAU         21477707636201            0000000000000000000000000000000
0271201191157JJOELS       11334474103200800 ANALYSIS0000000000000000000000000000000
0271301191043NLAU         21477707636201            0000000000000000000000000000000
0172301191717AUTODIST     214774156772294DDD        0000000000000000000000000000000
0272401191503NLAU         21477707636201            0000000000000000000000000000000
0173201200830NLAU         21477707636201            0000000000000000000000000000000
0277201250751NLAU         21477707636201            0000000000000000000000000000000
0277501251339PAYROLL          4  4072  2MIS/ NEW PAY0000000000000000000000000000000
0277601251341PAYROLL          4  4072  2MIS/ NEW PAY0000000000000000000000000000000
0279801281107UIS              4125553  2VERTEX MAGCO0000000000000000000000000000000
0279901281422SRAMOV           1257377  0USER FILES D0000000000000000000000000000000
0282601291811JMS              3431116  34011        0000000000000000000000000000000
0282701302100DANIELSR         1142734  0FILE SAVE   0000000000000000000000000000000
0282901311816MSNTRACK     21477454763201            0000000000000000000000000000000
0283002010915FRANK            4111413  2G/L PAY     0000000000000000000000000000000
0283102010931BILLING10        1 44355  0BSATFR.JAN  0000000000000000000000000000000
0184302011324DDD          21476545177229            0000000000000000000000000000000
0284402011332PAYROLL          4  4072  2MIS/ NEW PAY0000000000000000000000000000000
0284502011332FRANK            4111413  2G/L PAY     0000000000000000000000000000000
0284602011333PAYROLL          4  4072  2MIS/ NEW PAY0000000000000000000000000000000
0285202020022NETSTAT      21477205635201ACTG        0000000000000000000000000000000
0285302020023NETSTAT      21477205635201ACTG        0000000000000000000000000000000
0286202021411ACCG1        21477215544201Y           1000000000000000000000000000000
0286902031035PGRADE       21477372774201JAN88 BACKUP0000000000000000000000000000000
0287502041154FRANK            4111413  2G/L PAY     0000000000000000000000000000000
0287602041205LMORRIS          1162775  0            0000000000000000000000000000000
0288802051009DBIBS        32120306670229            0000000000000000000000000000000
0289302080835FRANK            4111413  2G/L PAY     0000000000000000000000000000000
0289402080837FRANK            4111413  2G/L PAY     0000000000000000000000000000000
0290102081326PAYROLL          4  4072  2MIS/ NEW PAY0000000000000000000000000000000
0290202081327PAYROLL          4  4072  2MIS/ NEW PAY0000000000000000000000000000000
0295502150900FRANK            4111413  2G/L PAY     0000000000000000000000000000000
0296102151339PAYROLL          4  4072  2MIS/ NEW PAY0000000000000000000000000000000
0296202151341PAYROLL          4  4072  2MIS/ NEW PAY0000000000000000000000000000000
0296502151513SRAMOV           1257377  0ACTG FILES  0000000000000000000000000000000
0297802160915DDD          21476545177229            0000000000000000000000000000000
0299202180816ACCG1        21477215544201BILLING     1000000000000000000000000000000
0299302180931FRANK            4111413  2            0000000000000000000000000000000
0201302221328PAYROLL          4  4072  2MIS/ NEW PAY0000000000000000000000000000000
0201402221329PAYROLL          4  4072  2MIS/ NEW PAY0000000000000000000000000000000
0201602221401FRANK            4111413  2G/L PAY     0000000000000000000000000000000
0201802230302BUELNAJ          4 27104  2ACTG        0000000000000000000000000000000
0202202231426JJOELS       11334474103200FTS2000     0000000000000000000000000000000
0203602251830PGRADE       21477372774201            0000000000000000000000000000000
0204902260932DANIELSR         1142734  0FILE MOVE   0000000000000000000000000000000
0205002261113UIS              4125553  2VERTEX MAGCO0000000000000000000000000000000
0207102291058FRANK            4111413  2G/L PAY     0000000000000000000000000000000
0207302291405PAYROLL          4  4072  2MIS/ NEW PAY0000000000000000000000000000000
0207402291407PAYROLL          4  4072  2MIS/ NEW PAY0000000000000000000000000000000
0209103011040BILLING10        1 44355  0BSATFR.FEB  0000000000000000000000000000000
0209503011654JUNEHO       21477 33062229            0000000000000000000000000000000
0209803012050ACCG1        21477215544201Y           1000000000000000000000000000000
0210003021046DANIELSR         1142734  0FILE SAVE   0000000000000000000000000000000
0210203021103MKHELLAF     21477700233201            0000000000000000000000000000000
0210303021651JJOELS       11334474103200            0000000000000000000000000000000
0210903022019NETSTAT      21477205635201TAP28C.DIR  0000000000000000000000000000000
0212003030836LMORRIS          1162775  0            0000000000000000000000000000000
0212203030912PGRADE       21477372774201FEB88 BACKUP0000000000000000000000000000000
0212403031228NETSTAT      21477205635201APPEND TO TA0000000000000000000000000000000
0212503031426MSNTRACK     21477454763201            0000000000000000000000000000000
0214603041646JUNEHO       21477 33062229            0000000000000000000000000000000
0216903071411PAYROLL          4  4072  2MIS/ NEW PAY0000000000000000000000000000000
0217003071411PAYROLL          4  4072  2MIS/ NEW PAY0000000000000000000000000000000
0218203081447FRANK            4111413  2G/L PAY     0000000000000000000000000000000
0219503100756DANIELSR         1142734  0PAKCP3.SAV  0000000000000000000000000000000
0119603100838AFAIRB       21476436723229            0000000000000000000000000000000
0220203102300BTHOMSON     21476314715229            0000000000000000000000000000000
0221103111005MKTGTOOLS    21476443132229RESTORE     0000000000000000000000000000000
0223103130933NETSTAT      21477205635201TAP38A.DIR  0000000000000000000000000000000
0225003141608JJOELS       11334474103200FTS2000     0000000000000000000000000000000
0225203141323PAYROLL          4  4072  2MIS/ NEW PAY0000000000000000000000000000000
0225303141324PAYROLL          4  4072  2MIS/ NEW PAY0000000000000000000000000000000
0226303150947FRANK            4111413  2G/L PAY     0000000000000000000000000000000
0228303171021JJOELS       11334474103200FTS2000     0000000000000000000000000000000
0228803171148JJOELS       11334474103200FTS2000     0000000000000000000000000000000
0228903171316JJOELS       11334474103200FTS2000     0000000000000000000000000000000
0229003171024FRANK            4111413  2            0000000000000000000000000000000
0229103171510JJOELS       11334474103200FTS2000     0000000000000000000000000000000
0231703181458ACCG1        21477215544201SHIP ALTERAT1000000000000000000000000000000
0232903211330PAYROLL          4  4072  2MIS/ NEW PAY0000000000000000000000000000000
0233003211331PAYROLL          4  4072  2MIS/ NEW PAY0000000000000000000000000000000
0233903211534FRANK            4111413  2G/L PAY     0000000000000000000000000000000
0234203220528BUELNAJ          4 27104  2TAP38B.DIR  0000000000000000000000000000000
0235303231034MSS          21476555371229RESTORE     0000000000000000000000000000000
0235603231749BTHOMSON     21476314715229            0000000000000000000000000000000
0235903241125GL.DATA          4 53204  2USER'S FILES0000000000000000000000000000000
0236103241522BTHOMSON     21476314715229            0000000000000000000000000000000
0236603271639BTHOMSON     21476314715229            0000000000000000000000000000000
0237603280809MKTGTOOLS    21476443132229STORE       0000000000000000000000000000000
0238203281412PAYROLL          4  4072  2MIS/ NEW PAY0000000000000000000000000000000
0238303281413PAYROLL          4  4072  2MIS/ NEW PAY0000000000000000000000000000000
0238503281458PERSTATS     21476 14441229            0000000000000000000000000000000
0238903290935FRANK            4111413  2G/L PAY     0000000000000000000000000000000
0240403301113UIS              4125553  2VERTEX MAGCO0000000000000000000000000000000
0241804010000DANIELSR         1142734  0FILE SAVE   0000000000000000000000000000000
0241904010800BILLING10        1 44355  0BSATFR.MAR  0000000000000000000000000000000
0242304011831ACCG1        21477215544201Y           1000000000000000000000000000000
0242404012001MSNTRACK     21477454763201            0000000000000000000000000000000
0242504020856PGRADE       21477372774201MAR88 BACKUP0000000000000000000000000000000
0242604021710NETSTAT      21477205635201TAP38C.DIR  0000000000000000000000000000000
0243104041117LMORRIS          1162775  0            0000000000000000000000000000000
0243304041325PAYROLL          4  4072  2MIS/ NEW PAY0000000000000000000000000000000
0243404041326PAYROLL          4  4072  2MIS/ NEW PAY0000000000000000000000000000000
0243704051420FRANK            4111413  2G/L PAY     0000000000000000000000000000000
0246804111321PAYROLL          4  4072  2MIS/ NEW PAY0000000000000000000000000000000
0246904111321PAYROLL          4  4072  2MIS/ NEW PAY0000000000000000000000000000000
0247904121249VALIDATA     26442371434240            0000000000000000000000000000000
0248004121258NETSTAT      214772056352011 THRU 10 TO0000000000000000000000000000000
0248204121442FRANK            4111413  2G/L PAY     0000000000000000000000000000000
0248504121653PNETS        11334356424200            0000000000000000000000000000000
0251104180956MSS          21476555371229RESTORE     0000000000000000000000000000000
0251204181039ACCG1        21477215544201            1000000000000000000000000000000
0251304181225FRANK            4111413  2G/L PAY     0000000000000000000000000000000
0251604181315PAYROLL          4  4072  2MIS/ NEW PAY0000000000000000000000000000000
0251704181315PAYROLL          4  4072  2MIS/ NEW PAY0000000000000000000000000000000
0251904181323OPER             1    21  0            0000000000000000000000000000000
0252304181458VALIDATA     26442371434240            0000000000000000000000000000000
0252304181458VALIDATA     26442371434240            0070000040001000000000000880418
0254104201313FRANK            4111413  2            0000000000000000000000000000000
0255704221431FRANK            4111413  2G/L PAY     0000000000000000000000000000000
0255804221726NETSTAT      21477205635201TAP48B.DIR  0000000000000000000000000000000
0259304251329PAYROLL          4  4072  2MIS/ NEW PAY0000000000000000000000000000000
0259404251330PAYROLL          4  4072  2MIS/ NEW PAY0000000000000000000000000000000
0259904260946TYMRES       10056160405201            0000000000000000000000000000000
0160604271043TYMRES       10056160405201            0000000000000000000000000000000
0260804281043TYMRES       10056160405201            0000000000000000000000000000000
0260904281317UIS              4125553  2VERTEX MAGCO0000000000000000000000000000000
0262904291452FRANK            4111413  2G/L PAY     0000000000000000000000000000000
0263205012001MSNTRACK     21477454763201            0000000000000000000000000000000
0263305020621BILLING10        1 44355  0BSATFR.APR  0000000000000000000000000000000
0263405020742RJK              4   130  2NODEZ       0000000000000000000000000000000
0263505021027LMORRIS          1162775  0            0000000000000000000000000000000
0263705021317PAYROLL          4  4072  2MIS/ NEW PAY0000000000000000000000000000000
0263805021YROLL          4  4072  2MIS/ NEW PAY0000000000000000000000000000000
0164105021441ROY          21477321033201NONE        0000000000000000000000000000000
0264505021733NETSTAT      21477205635201TAP48C.DIR  0000000000000000000000000000000
0264605022327EDPROD           4641450  2PGRADE.APR  0000000000000000000000000000000
0165505041506FRANK            4111413  2RELEASE TAPE0000000000000000000000000000000
0266005051300VALIDATA     26442371434240            0000000000000000000000000000000
0266605081145EDPROD           4641450  2RRESTORE    0000000000000000000000000000000
0267105091138CRABBS       13107 61012240STORE       0000000000000000000000000000000
0267305091329PAYROLL          4  4072  2MIS/ NEW PAY0000000000000000000000000000000
0267405091330PAYROLL          4  4072  2MIS/ NEW PAY0000000000000000000000000000000
0167605091331OSMAN            3156346  3TESTING     0000000000000000000000000000000
0268605111254FRANK            4111413  2            0000000000000000000000000000000
0269105121148FRANK            4111413  2G/L PAY     0000000000000000000000000000000
0269605122122NETSTAT      21477205635201TAP58A.DIR  0000000000000000000000000000000
0269705130830FRANK            4111413  2            0000000000000000000000000000000
0270305131123FRANK            4111413  2G/L PAY     0000000000000000000000000000000
0271205160901MSS          21476555371229STDORE      0000000000000000000000000000000
0271205160901MSS          21476555371229STDORE      0070000010001000000000001880516
0171505161303DDD          21476545177229NONE        0000000000000000000000000000000
0271805161334PAYROLL          4  4072  2MIS/ NEW PAY0000000000000000000000000000000
0272005161335PAYROLL          4  4072  2MIS/ NEW PAY0000000000000000000000000000000
0273405181524DDD          21476545177229DDD BACKUP  0000000000000000000000000000000
0274005191612FRANK            4111413  2            0000000000000000000000000000000
0274205201602ACSMKTSUP    11011610312144            0000000000000000000000000000000
0275805230803VALIDATA     26442371434240            0000000000000000000000000000000
0176105230851DDD          21476545177229DDD BACKUP  0000000000000000000000000000000
0276205231105ACSMKTSUP    11011610312144            0000000000000000000000000000000
0276405231323PAYROLL          4  4072  2MIS/ NEW PAY0000000000000000000000000000000
0276505231324PAYROLL          4  4072  2MIS/ NEW PAY0000000000000000000000000000000
0275805230803VALIDATA     26442371434240            0070000060001000000000000880523
0276805231620ACSMKTSUP    11011610312144            0000000000000000000000000000000
0278205241029ACSMKTSUP    11011610312144            0000000000000000000000000000000
0278405250934JUNEHO       21477 33062229            0000000000000000000000000000000
0279105260614BUELNAJ          4 27104  2ACTG        0000000000000000000000000000000
0279305261453UIS              4125553  2VERTEX MAGCO0000000000000000000000000000000
0279705271309ACSMKTSUP    11011610312144            0000000000000000000000000000000
0279905271341PAYROLL          4  4072  2MIS/ NEW PAY0000000000000000000000000000000
0280005271342PAYROLL          4  4072  2MIS/ NEW PAY0000000000000000000000000000000
0280905280132NETCON       214771753062014024 FILES  0000000000000000000000000000000
0281505310000DANIELSR         1142734  0FILE SAVE   0000000000000000000000000000000
0282305311214FRANK            4111413  2G/L PAY     0000000000000000000000000000000
0282906010843BILLING10        1 44355  0BSATFR.MAY  0000000000000000000000000000000
0283806012000MSNTRACK     21477454763201            0000000000000000000000000000000
0283906012111ACCG1        21477215544201Y           1000000000000000000000000000000
0284106020550BUELNAJ          4 27104  2ACTG        0000000000000000000000000000000
0284206020814LMORRIS          1162775  0            0000000000000000000000000000000
0284606021122FRANK            4111413  2G/L PAY     0000000000000000000000000000000
0284706021255JUNEHO       21477 33062229            0000000000000000000000000000000
0284806021325CRABBS       13107 61012240STORE       0000000000000000000000000000000
0286006031301PGRADE       21477372774201MAY88 EOM   0000000000000000000000000000000
0286606060843FRANK            4111413  2G/L PAY     0000000000000000000000000000000
0286906061320PAYROLL          4  4072  2MIS/ NEW PAY0000000000000000000000000000000
0287006061321PAYROLL          4  4072  2MIS/ NEW PAY0000000000000000000000000000000
0288506070915VALIDATA     26442371434240            0000000000000000000000000000000
0288906071505LHEINZEL     44266503172229            0 1   151 10000000      0880607
0289106081629JUNEHO       21477 33062229            0000000000000000000000000000000
0289706091427VALIDATA     26442371434240            0000000000000000000000000000000
0290106100812VALIDATA     26442371434240            0000000000000000000000000000000
0290306101101FRANK            4111413  2G/L PAY     0000000000000000000000000000000
0292106131144VALIDATA     26442371434240            0000000000000000000000000000000
0292306131312PAYROLL          4  4072  2MIS/ NEW PAY0000000000000000000000000000000
0292406131312PAYROLL          4  4072  2MIS/ NEW PAY0000000000000000000000000000000
0292906132139NETSTAT      21477205635201ACTG        0000000000000000000000000000000
0293206141115NETDATA      32120436541229            0000000000000000000000000000000
0294606171414FRANK            4111413  2            0000000000000000000000000000000
0296606200943FRANK            4111413  2G/L PAY     0000000000000000000000000000000
0297006201314PAYROLL          4  4072  2MIS/ NEW PAY0000000000000000000000000000000
0297106201314PAYROLL          4  4072  2MIS/ NEW PAY0000000000000000000000000000000
0197306201407LMORRIS          1162775  0            0000000000000000000000000000000
0298006211338CTS          44054664024229            0000000000000000000000000000000
0298306220734CTS          44054664024229            0000000000000000000000000000000
0298906230009BUELNAJ          4 27104  2ACTG        0000000000000000000000000000000
0299406270842FRANK            4111413  2G/L PAY     0000000000000000000000000000000
0299706271333PAYROLL          4  4072  2MIS/ NEW PAY0000000000000000000000000000000
0299806271333PAYROLL          4  4072  2MIS/ NEW PAY0000000000000000000000000000000
0100306271513LMORRIS          1162775  0            0000000000000000000000000000000
0200806281139UIS              4125553  2VERTEX MAGCO0000000000000000000000000000000
0202306301329SSINSTALL    11447142661  0BBLDUMP     0000000000000000000000000000000
0202607010000DANIELSR         1142734  0FILE SAVE   0000000000000000000000000000000
0202707010812BILLING10        1 44355  0BSATFR.JUN  0000000000000000000000000000000
0103107011131LMORRIS          1162775  0TAPE CLEAN-U0000000000000000000000000000000
0203307011329PAYROLL          4  4072  2MIS/ NEW PAY0000000000000000000000000000000
0203407011330PAYROLL          4  4072  2MIS/ NEW PAY0000000000000000000000000000000
0104307012001MSNTRACK     21477454763201            0000000000000000000000000000000
0204407012003DUVALLC          4 57166  2NODEZ       0000000000000000000000000000000
0204507020832PGRADE       21477372774201JUN88 BACKUP0000000000000000000000000000000
0204807021703NETSTAT      21477205635201TAP86C.DIR  0000000000000000000000000000000
0205707061438LMORRIS          1162775  0            0000000000000000000000000000000
0205807061452FRANK            4111413  2G/L PAY     0000000000000000000000000000000
0205907061503FRANK            4111413  2            0000000000000000000000000000000
0206107070656ATTEND.DEV       4454260  2BACKUP      0000000000000000000000000000000
0206407070958MSS          21476555371229STORE       0000000000000000000000000000000
0206507071114CRABBS       13107 61012240STORE       0000000000000000000000000000000
0207407071540NETQC        214773043222292114        0000000000000000000000000000000
0208407110913FRANK            4111413  2G/L PAY     0000000000000000000000000000000
0208607111316PAYROLL          4  4072  2MIS/ NEW PAY0000000000000000000000000000000
0208707111317PAYROLL          4  4072  2MIS/ NEW PAY0000000000000000000000000000000
0210707121001SRAVAL           1101723  0            0000000000000000000000000000000
0210807121544SRAVAL           1101723  0            0000000000000000000000000000000
0211007121826NETSTAT      21477205635201TAP87A.DIR  0000000000000000000000000000000
0211307130917FRANK            4111413  2            0000000000000000000000000000000
0211707131550JUNEHO       21477 33062229            0000000000000000000000000000000
0212607160956TOPS         43722231461229            0000000000000000000000000000000
0213007181334PAYROLL          4  4072  2MIS/ NEW PAY0000000000000000000000000000000
0213107181335PAYROLL          4  4072  2MIS/ NEW PAY0000000000000000000000000000000
0213607191411JUNEHO       21477 33062229            0000000000000000000000000000000
0113807201010CTS          44054664024229            0000000000000000000000000000000
0214407221147FRANK            4111413  2G/L PAY     0000000000000000000000000000000
0214607231500DUVALLC          4 57166  2TAP87B.DIR  0000000000000000000000000000000
0215607251120ATTEND.DEV       4454260  2RESTORE     0000000000000000000000000000000
0216107251321PAYROLL          4  4072  2MIS/ NEW PAY0000000000000000000000000000000
0216207251322PAYROLL          4  4072  2MIS/ NEW PAY0000000000000000000000000000000
0219107291354VALIDATA     26442371434240            0000000000000000000000000000000
0219207291500DUVALLC          4 57166  2RESTORE FROM0000000000000000000000000000000
0219407310000DANIELSR         1142734  0FILE SAVE   0000000000000000000000000000000
0220408011000BILLING10        1 44355  0BSATFR.JUL  0000000000000000000000000000000
0220608011323PAYROLL          4  4072  2MIS/ NEW PAY0000000000000000000000000000000
0220708011323PAYROLL          4  4072  2MIS/ NEW PAY0000000000000000000000000000000
0221008011423FRANK            4111413  2G/L PAY     0000000000000000000000000000000
0221108011425FRANK            4111413  2G/L PAY     0000000000000000000000000000000
0221508012001MSNTRACK     21477454763201            0000000000000000000000000000000
0221608012141PORTSDLY         4541326  2NODEZ       0000000000000000000000000000000
0222308021444PGRADE       21477372774201JUL88 EOM   0000000000000000000000000000000
0223108031348LMORRIS          1162775  0            0000000000000000000000000000000
0223308032140NETSTAT      21477205635201TAP87C.DIR  0000000000000000000000000000000
0223408040925CRABBS       13107 61012240STORE       0000000000000000000000000000000
0224708081311PAYROLL          4  4072  2MIS/ NEW PAY0000000000000000000000000000000
0224808081312PAYROLL          4  4072  2MIS/ NEW PAY0000000000000000000000000000000
0225308090841FRANK            4111413  2G/L PAY     0000000000000000000000000000000
0229608131242DUVALLC          4 57166  2TAP88A.DIR  0000000000000000000000000000000
0230008151109FRANK            4111413  2            0000000000000000000000000000000
0230208151329PAYROLL          4  4072  2MIS/ NEW PAY0000000000000000000000000000000
0230308151330PAYROLL          4  4072  2MIS/ NEW PAY0000000000000000000000000000000
0230808171021FRANK            4111413  2G/L PAY     0000000000000000000000000000000
0231108181054TDFTECH      11334103060240            0000000000000000000000000000000
0231508180958BARTLETW     21477750240229            0000000000000000000000000000000
0232708190746BARTLETW     21477750240229            0000000000000000000000000000000
0233108191429FRANK            4111413  2MAGCON OF SM0000000000000000000000000000000
0236408221341PAYROLL          4  4072  2MIS/ NEW PAY0000000000000000000000000000000
0236508221342PAYROLL          4  4072  2MIS/ NEW PAY0000000000000000000000000000000
0236708221437FRANK            4111413  2G/L PAY     0000000000000000000000000000000
0236908222357BUELNAJ          4 27104  2TAP88B.DIR  0000000000000000000000000000000
0137008230950BARTLETW     21477750240229            0000000000000000000000000000000
0237608241537MSS          21476555371229RESTORE     0000000000000000000000000000000
0238208260955VALIDATA     26442371434240            0000000000000000000000000000000
0238308261416FRANK            4111413  2G/L PAY     0000000000000000000000000000000
0239908291338PAYROLL          4  4072  2MIS/ NEW PAY0000000000000000000000000000000
0240008291338PAYROLL          4  4072  2MIS/ NEW PAY0000000000000000000000000000000
0140808301153TYMRES5      10056670610229RESTORE     0000000000000000000000000000000
0240908301420UIS              4125553  2VERTEX MAGCO0000000000000000000000000000000
0241108310309DANIELSR         1142734  0FILE SAVE   0000000000000000000000000000000
0242009011351CYOUNGER     27514436377228            0000000000000000000000000000000
0242109010901BILLING10        1 44355  0BSATFR.AUG  0000000000000000000000000000000
0142209010927CRABBS       13107 61012240PRINT       0000000000000000000000000000000
0242409012000MSNTRACK     21477454763201            0000000000000000000000000000000
0242509012254ACCG1        21477215544201Y           1000000000000000000000000000000
0242709020911PGRADE       21477372774201AUG88 EOM BA0000000000000000000000000000000
0242909021058NETSTAT      21477205635201AUG88 NETSTA0000000000000000000000000000000
0243109021311PAYROLL          4  4072  2MIS/ NEW PAY0000000000000000000000000000000
0243209021312PAYROLL          4  4072  2MIS/ NEW PAY0000000000000000000000000000000
0243809060856FRANK            4111413  2G/L PAY     0000000000000000000000000000000
0246309082357PGRADE       21477372774201            0000000000000000000000000000000
0247309121330PAYROLL          4  4072  2MIS/ NEW PAY0000000000000000000000000000000
0247409121331PAYROLL          4  4072  2MIS/ NEW PAY0000000000000000000000000000000
0248009140835FRANK            4111413  2G/L PAY     0000000000000000000000000000000
0248409142327BUELNAJ          4 27104  2TAP89A.DIR  0000000000000000000000000000000
0248709151306FRANK            4111413  2            0000000000000000000000000000000
0251409191333PAYROLL          4  4072  2MIS/ NEW PAY0000000000000000000000000000000
0251509191334PAYROLL          4  4072  2MIS/ NEW PAY0000000000000000000000000000000
0252209201041FRANK            4111413  2G/L PAY     0000000000000000000000000000000
0254509230648BUELNAJ          4 27104  2TAP89B.DIR  0000000000000000000000000000000
0154609231519FRANK            4111413  2G/L PAY     0000000000000000000000000000000
0255209261322PAYROLL          4  4072  2MIS/ NEW PAY0000000000000000000000000000000
0255309261322PAYROLL          4  4072  2MIS/ NEW PAY0000000000000000000000000000000
0158009291220NADMRES      10056341541201RESTORE     0000000000000000000000000000000
0259309300928FRANK            4111413  2            0000000000000000000000000000000
0259509301131UIS              4125553  2VERTEX MAGCO0000000000000000000000000000000
0259709301320FRANK            4111413  2G/L PAY     0000000000000000000000000000000
0259809301321FRANK            4111413  2G/L PAY     0000000000000000000000000000000
0259909301321FRANK            4111413  2G/L PAY     0000000000000000000000000000000
0260009301532LYNASK       21477 33041229            0000000000000000000000000000000
0260410010000DANIELSR         1142734  0FILE SAVE   0000000000000000000000000000000
0261310011751BILLING10        1 44355  0BSATFR.SEP  0000000000000000000000000000000
0261410012001MSNTRACK     21477454763201            0000000000000000000000000000000
0261510020922RJK              4   130  2NODEZ       0000000000000000000000000000000
0261710021136PGRADE       21477372774201SEP88 EOM   0000000000000000000000000000000
0262010022215BUELNAJ          4 27104  2TAP89B.DIR  0000000000000000000000000000000
0262210031336PAYROLL          4  4072  2MIS/ NEW PAY0000000000000000000000000000000
0262310031337PAYROLL          4  4072  2MIS/ NEW PAY0000000000000000000000000000000
0162610040820LYNASK       21477 33041229            0000000000000000000000000000000
0262710041017FRANK            4111413  2G/L PAY     0000000000000000000000000000000
0262810041220CRABBS       13107 61012240STORE       0000000000000000000000000000000
0263510061730MSS          21476555371229RESTORE     0000000000000000000000000000000
0263610070912CTS          44054664024229RECOVERY    0000000000000000000000000000000
0264310100856MSS          21476555371229RESTORE     0000000000000000000000000000000
0264510101153MARPLAN      21477414465229STORE MARPLA0000000000000000000000000000000
0264710101323PAYROLL          4  4072  2MIS/ NEW PAY0000000000000000000000000000000
0264810101324PAYROLL          4  4072  2MIS/ NEW PAY0000000000000000000000000000000
0266010111507LYNASK       21477 33041229RESTORE     0000000000000000000000000000000
0266310121410NETSTAT      21477205635201TAP8OA.DIR  0000000000000000000000000000000
0272410171143MSS          21476555371229RESTORE     0000000000000000000000000000000
0272510171201FRANK            4111413  2G/L PAY     0000000000000000000000000000000
0272710171324PAYROLL          4  4072  2MIS/ NEW PAY0000000000000000000000000000000
0272810171325PAYROLL          4  4072  2MIS/ NEW PAY0000000000000000000000000000000
0273510181223FRANK            4111413  2G/L PAY     0000000000000000000000000000000
0274110191006FRANK            4111413  2            0000000000000000000000000000000
0276610221208DUVALLC          4 57166  2TAP8OB.DIR  0000000000000000000000000000000
0277410241338PAYROLL          4  4072  2MIS/ NEW PAY0000000000000000000000000000000
0277510241338PAYROLL          4  4072  2MIS/ NEW PAY0000000000000000000000000000000
0279010271340UIS              4125553  2VERTEX MAGCO0000000000000000000000000000000
0280610310000DANIELSR         1142734  0FILE SAVE   0000000000000000000000000000000
0281410311402PAYROLL          4  4072  2MIS/ NEW PAY0000000000000000000000000000000
0281510311403PAYROLL          4  4072  2MIS/ NEW PAY0000000000000000000000000000000
0282011011509BILLING10        1 44355  0BSATFR.OCT  0000000000000000000000000000000
0282211011933PORTSDLY         4541326  2NODEZ       0000000000000000000000000000000
0282311012000MSNTRACK     21477454763201            0000000000000000000000000000000
0282711020939PGRADE       21477372774201OCT88 BACKUP0000000000000000000000000000000
0282811021019LMORRIS          1162775  0            0000000000000000000000000000000
0282911021103FRANK            4111413  2G/L PAY     0000000000000000000000000000000
0283011021103FRANK            4111413  2G/L PAY     0000000000000000000000000000000
0283911022000NETSTAT      21477205635201TAP8OC.DIR  0000000000000000000000000000000
0287211041319FRANK            4111413  2G/L PAY     0000000000000000000000000000000
0287511041536CRABBS       13107 61012240STORE       0000000000000000000000000000000
0288511071328PAYROLL          4  4072  2MIS/ NEW PAY0000000000000000000000000000000
0288611071329PAYROLL          4  4072  2MIS/ NEW PAY0000000000000000000000000000000
0289911101052MSS          21476555371229RESTORE     0000000000000000000000000000000
0291411140848NETSTAT      21477205635201DAYS 1 THRU 0000000000000000000000000000000
0291611141335PAYROLL          4  4072  2MIS/ NEW PAY0000000000000000000000000000000
0291711141336PAYROLL          4  4072  2MIS/ NEW PAY0000000000000000000000000000000
0292011150913FRANK            4111413  2            0000000000000000000000000000000
0294211181339PAYROLL          4  4072  2MIS/ NEW PAY0000000000000000000000000000000
0294311181340PAYROLL          4  4072  2MIS/ NEW PAY0000000000000000000000000000000
0195211281138MSS          21476555371229MAIL TAPE   0000000000000000000000000000000
0295511281334PAYROLL          4  4072  2MIS/ NEW PAY0000000000000000000000000000000
0295611281335PAYROLL          4  4072  2MIS/ NEW PAY0000000000000000000000000000000
0296211291006UIS              4125553  2VERTEX MAGCO0000000000000000000000000000000
0296311291408FRANK            4111413  2G/L PAY     0000000000000000000000000000000
0297512021201DANIELSR         1142734  0FILE SAVE   0000000000000000000000000000000
0297612021205MSNTRACK     21477454763201            0000000000000000000000000000000
0297712021226FRANK            4111413  2NODEZ       0000000000000000000000000000000
0298112040934PGRADE       21477372774201NOV88 EOM   0000000000000000000000000000000
0298312042300BILLING10        1 44355  0TAP8NC.DIR  0000000000000000000000000000000
0298912050956FRANK            4111413  2G/L PAY     0000000000000000000000000000000
0299112051230LMORRIS          1162775  0            0000000000000000000000000000000
0299312051319PAYROLL          4  4072  2MIS/ NEW PAY0000000000000000000000000000000
0299412051320PAYROLL          4  4072  2MIS/ NEW PAY0000000000000000000000000000000
0100412060923DBSCHED      32120305225229            0000000000000000000000000000000
0203212081703DDD          21476545177229STORE       0000000000000000000000000000000
0204112121317PAYROLL          4  4072  2MIS/ NEW PAY0000000000000000000000000000000
0204212121317PAYROLL          4  4072  2MIS/ NEW PAY0000000000000000000000000000000
0104712122338BUELNAJ          4 27104  2ACTG        0000000000000000000000000000000
0205512131148FRANK            4111413  2TAP8DA.DIR  0000000000000000000000000000000
0206312151409FRANK            4111413  2            0000000000000000000000000000000
0206412151506ROY          21477321033201NONE        0000000000000000000000000000000
0207812160836FRANK            4111413  2G/L PAY     0000000000000000000000000000000
0208412191548PAYROLL          4  4072  2MIS/ NEW PAY0000000000000000000000000000000
0208512191548PAYROLL          4  4072  2MIS/ NEW PAY0000000000000000000000000000000
0209012201500FRANK            4111413  2G/L PAY     0000000000000000000000000000000
0209812221417NETSTAT      21477205635201TAP8DB.DIR  0000000000000000000000000000000
0211412231325PAYROLL          4  4072  2MIS/ NEW PAY0000000000000000000000000000000
0211512231326PAYROLL          4  4072  2MIS/ NEW PAY0000000000000000000000000000000
0212112271128FRANK            4111413  2G/L PAY     0000000000000000000000000000000
0213212301415PAYROLL          4  4072  2MIS/ NEW PAY0000000000000000000000000000000
0213312301415PAYROLL          4  4072  2MIS/ NEW PAY0000000000000000000000000000000
0213812310000DANIELSR         1142734  0FILE SAVE   0000000000000000000000000000000
0214201011203ACCG1        21477215544201Y           1000000000000000000000000000000
0214301012001MSNTRACK     21477454763201            0000000000000000000000000000000
0214401020913BILLING10        1 44355  0BSATFR.DEC  0000000000000000000000000000000
0214501021553BUELNAJ          4 27104  2TAP8DC.DIR  0000000000000000000000000000000
0214701031059PGRADE       21477372774201DEC88 EOM   0000000000000000000000000000000
0214801031303FRANK            4111413  2G/L PAY     0000000000000000000000000000000
0215201040931LMORRIS          1162775  0            0000000000000000000000000000000
0215301041512UIS              4125553  2VERTEX MAGCO0000000000000000000000000000000
0217601061431TYMRES       10056160405201            0000000000000000000000000000000
0218601091325PAYROLL          4  4072  2MIS/ NEW PAY0000000000000000000000000000000
0218701091325PAYROLL          4  4072  2MIS/ NEW PAY0000000000000000000000000000000
0221201101258NETQC        214773043222292114        0000000000000000000000000000000
0221401101759MISTAPE          4 51660  2TAPDIR.88   0000000000000000000000000000000
0221501101803MISTAPE          4 51660  2TAPDIR.88   0000000000000000000000000000000
0222401111734DUVALLC          4 57166  2MAGCON      0000000000000000000000000000000
0224001121003FRANK            4111413  2            0000000000000000000000000000000
0225601131102FRANK            4111413  2            0000000000000000000000000000000
0226201140153BUELNAJ          4 27104  2TAP91A.DIR  0000000000000000000000000000000
0226801161322PAYROLL          4  4072  2MIS/ NEW PAY0000000000000000000000000000000
0226901161323PAYROLL          4  4072  2MIS/ NEW PAY0000000000000000000000000000000
0227101161502SRAVAL           1101723  0            0000000000000000000000000000000
0227201161504TYMRES       10056160405201RESTORE FILE0000000000000000000000000000000
0227701180940GBARLOW      21476435736229            0000000000000000000000000000000
0127801181026SRAMOV           1257377  0            0000000000000000000000000000000
0230001201151SRAVAL           1101723  0            0000000000000000000000000000000
0230701231321PAYROLL          4  4072  2MIS/ NEW PAY0000000000000000000000000000000
0230901231321PAYROLL          4  4072  2MIS/ NEW PAY0000000000000000000000000000000
0233301251131TYMRES       10056160405201            0000000000000000000000000000000
0235701271119UIS              4125553  2VERTEX MAGCO0000000000000000000000000000000
0236501301312PAYROLL          4  4072  2MIS/ NEW PAY0000000000000000000000000000000
0236601301312PAYROLL          4  4072  2MIS/ NEW PAY0000000000000000000000000000000
0236901301747FERRISK      21477241564201            0000000000000000000000000000000
0237001310000DANIELSR         1142734  0FILE SAVE   0000000000000000000000000000000
0237101311000ACCG1        21477215544201NARDAC      1000000000000000000000000000000
0138201311804FERRISK      21477241564201            0000000000000000000000000000000
0238502010723DANIELSR         1142734  0MONITOR TAPE0000000000000000000000000000000
0138602010848BILLING10        1 44355  0BSATFR.DEC  0000000000000000000000000000000
0238702010851BILLING10        1 44355  0BSATFR.JAN  0000000000000000000000000000000
0239302011751FERRISK      21477241564201            0000000000000000000000000000000
0239502012000MSNTRACK     21477454763201            0000000000000000000000000000000
0239602012225ACCG1        21477215544201Y           1000000000000000000000000000000
0239802021035LMORRIS          1162775  0            0000000000000000000000000000000
0240102021058PGRADE       21477372774201JAN89 BACKUP0000000000000000000000000000000
0240702022113NETSTAT      21477205635201TAP91C.DIR  0000000000000000000000000000000
0241302032351BUELNAJ          4 27104  2TAP91B.DIR  0000000000000000000000000000000
0242302061330PAYROLL          4  4072  2MIS/ NEW PAY0000000000000000000000000000000
0242402061330PAYROLL          4  4072  2MIS/ NEW PAY0000000000000000000000000000000
0243102071021FRANK            4111413  2RESTORE FILE0000000000000000000000000000000
0143802080754WATECH       44047251216229RECOVERY    0000000000000000000000000000000
0245502100837CRABBS       13107 61012240STORE       0000000000000000000000000000000
0245902130905NETSTAT      21477205635201FILES TO TAP0000000000000000000000000000000
0246102131325PAYROLL          4  4072  2MIS/ NEW PAY0000000000000000000000000000000
0246202131326PAYROLL          4  4072  2MIS/ NEW PAY0000000000000000000000000000000
0246602141325JJOELS       11334474103200BACKUP RKHUA0000000000000000000000000000000
0247002150823DANIELSR         1142734  0MONITOR TAPE0000000000000000000000000000000
0247502161554SRAVAL           1101723  0            0000000000000000000000000000000
0249902171315PAYROLL          4  4072  2MIS/ NEW PAY0000000000000000000000000000000
0250002171315PAYROLL          4  4072  2MIS/ NEW PAY0000000000000000000000000000000
0250602210852FRANK            4111413  2            0000000000000000000000000000000
0251402221511NETSTAT      21477205635201FILES TO TAP0000000000000000000000000000000
0251702230912SRAVAL           1101723  0            0000000000000000000000000000000
0255202271014UIS              4125553  2VERTEX MAGCO0000000000000000000000000000000
0255402271313PAYROLL          4  4072  2MIS/ NEW PAY0000000000000000000000000000000
0255502271313PAYROLL          4  4072  2MIS/ NEW PAY0000000000000000000000000000000
0256303011010BILLING10        1 44355  0BSATFR.FEB  0000000000000000000000000000000
0256503012001MSNTRACK     21477454763201            0000000000000000000000000000000
0256603012036PORTSDLY         4541326  2NODEZ       0000000000000000000000000000000
0256803020945PGRADE       21477372774201FEB89 BACKUP0000000000000000000000000000000
0256903021014LMORRIS          1162775  0            0000000000000000000000000000000
0157303021323NETSTAT      21477205635201FILES TO TAP0000000000000000000000000000000
0257603030000DANIELSR         1142734  0FILE SAVE   0000000000000000000000000000000
0257703031604AUTODIST     21477415677229            0000000000000000000000000000000
0258003032010PGRADE       21477372774201APPEND TO 130000000000000000000000000000000
0258103041906NETSTAT      21477205635201TAP92C.DIR  0000000000000000000000000000000
0258503061315PAYROLL          4  4072  2MIS/ NEW PAY0000000000000000000000000000000
0258603061316PAYROLL          4  4072  2MIS/ NEW PAY0000000000000000000000000000000
0158803061327TYMRES       10056160405201            0000000000000000000000000000000
0258903061331TYMRES       10056160405201FILES TO BE 0000000000000000000000000000000
0259603080850DANIELSR         1142734  0MONITOR TAPE0000000000000000000000000000000
0159703080920TYMRES       10056160405201FILE RESTORE0000000000000000000000000000000
0159903090717TYMRES       10056160405201FILES TO BE 0000000000000000000000000000000
0262703130923NETSTAT      214772056352011ST 10 DAYS 0000000000000000000000000000000
0262903131335PAYROLL          4  4072  2MIS/ NEW PAY0000000000000000000000000000000
0263003131335PAYROLL          4  4072  2MIS/ NEW PAY0000000000000000000000000000000
0263503131710MKTGINFO     10056167145229RESTORE     0000000000000000000000000000000
0264303151412TYMRES       10056160405201FILE RESTORE0000000000000000000000000000000
0264503160828FRANK            4111413  2            0000000000000000000000000000000
0266603201316PAYROLL          4  4072  2MIS/ NEW PAY0000000000000000000000000000000
0266703201317PAYROLL          4  4072  2MIS/ NEW PAY0000000000000000000000000000000
0268203222033NETSTAT      21477205635201TAP93B.DIR  0000000000000000000000000000000
0268703231126AFAIRB       21476436723229            0000000000000000000000000000000
0270603271320PAYROLL          4  4072  2MIS/ NEW PAY0000000000000000000000000000000
0270703271321PAYROLL          4  4072  2MIS/ NEW PAY0000000000000000000000000000000
0173203281601NETQC        21477304322229RESTORE     0000000000000000000000000000000
0173303281645NETQC        21477304322229RESTORE     0000000000000000000000000000000
0273703291158UIS              4125553  2VERTEX MAGCO0000000000000000000000000000000
0274503301020PGRADE       21477372774201            0000000000000000000000000000000
0276003310000DANIELSR         1142734  0FILE SAVE   0000000000000000000000000000000
0276604011337BILLING10        1 44355  0NODEZ       0000000000000000000000000000000
0276704012001MSNTRACK     21477454763201            0000000000000000000000000000000
0276804020837BILLING10        1 44355  0BSATFR.FEB  0000000000000000000000000000000
0277004021359PGRADE       21477372774201MAR89       0000000000000000000000000000000
0277204030928LMORRIS          1162775  0            0000000000000000000000000000000
0277604031316PAYROLL          4  4072  2MIS/ NEW PAY0000000000000000000000000000000
0277704031316PAYROLL          4  4072  2MIS/ NEW PAY0000000000000000000000000000000
0278004032107NETSTAT      21477205635201TAP93C.DIR  0000000000000000000000000000000
0278104040509BUELNAJ          4 27104  2NODEZ       0000000000000000000000000000000
0278304051336MSS          21476555371229LOAD TAPE   0000000000000000000000000000000
0279104071631TYMRES5      10056670610229RESTORE     0000000000000000000000000000000
0281204101315PAYROLL          4  4072  2MIS/ NEW PAY0000000000000000000000000000000
0281304101316PAYROLL          4  4072  2MIS/ NEW PAY0000000000000000000000000000000
0282304120849KROGERS      21477745025229            1000000000000000000000000000000
0182404121149KROGERS      21477745025229            1000000000000000000000000000000
0282704131415NETSTAT      214772056352011ST 10 DAYS 0000000000000000000000000000000
0284304140833TYMRES5      10056670610229            0000000000000000000000000000000
0284404140926FRANK            4111413  2            0000000000000000000000000000000
0285104171432PAYROLL          4  4072  2MIS/ NEW PAY0000000000000000000000000000000
0285204171434PAYROLL          4  4072  2MIS/ NEW PAY0000000000000000000000000000000
0286104200816TYMRES5      10056670610229RESTORE     0000000000000000000000000000000
0286404201521PERSTATS     21476 14441229NONE        0000000000000000000000000000000
0287604211339VALIDATA     26442371434240            0000000000000000000000000000000
0288604231125BUELNAJ          4 27104  2TAP94B.DIR  0000000000000000000000000000000
0289004241316PAYROLL          4  4072  2MIS/ NEW PAY0000000000000000000000000000000
0289104241316PAYROLL          4  4072  2MIS/ NEW PAY0000000000000000000000000000000
0290604251224UIS              4125553  2VERTEX MAGCO0000000000000000000000000000000
0192204271418LMORRIS          1162775  0            0000000000000000000000000000000
0293604280853VALIDATA     26442371434240            0000000000000000000000000000000
0295205010000DANIELSR         1142734  0FILE SAVE   0000000000000000000000000000000
0295305010840BILLING10        1 44355  0BSATFR.APR  0000000000000000000000000000000
0295505011312PAYROLL          4  4072  2MIS/ NEW PAY0000000000000000000000000000000
0295605011312PAYROLL          4  4072  2MIS/ NEW PAY0000000000000000000000000000000
0297405012000MSNTRACK     21477454763201            0000000000000000000000000000000
0297605020749RJK              4   130  2NODEZ       0000000000000000000000000000000
0297705020853PGRADE       21477372774201APR89 EOM   0000000000000000000000000000000
0297905031612NETSTAT      21477205635201FINAL 10 DAY0000000000000000000000000000000
0202505081312PAYROLL          4  4072  2MIS/ NEW PAY0000000000000000000000000000000
0202605081312PAYROLL          4  4072  2MIS/ NEW PAY0000000000000000000000000000000
0204105091614NETSTAT      21477205635201FILE RECOVER0000000000000000000000000000000
0204205091637SPOPPE       21477201764229            0000000000000000000000000000000
0206705110835SPOPPE       21477201764229            0000000000000000000000000000000
0211705141428NETSTAT      21477205635201FILES (1-10)0000000000000000000000000000000
0211905151321PAYROLL          4  4072  2MIS/ NEW PAY0000000000000000000000000000000
0212005151321PAYROLL          4  4072  2MIS/ NEW PAY0000000000000000000000000000000
0216005190956FRANK            4111413  2            0000000000000000000000000000000
0217405221330PAYROLL          4  4072  2MIS/ NEW PAY0000000000000000000000000000000
0217505221331PAYROLL          4  4072  2MIS/ NEW PAY0000000000000000000000000000000
0219205231032NETSTAT      21477205635201FILES DAY11 0000000000000000000000000000000
0221405251238CAPITAL      44101255771  1MAY89 BACKUP0000000000000000000000000000000
0123205260141NETCON       21477175306201DOC RESTORE 0000000000000000000000000000000
0223305260153NETCON       21477175306201DOC RESTORE 0000000000000000000000000000000
0223505261318PAYROLL          4  4072  2MIS/ NEW PAY0000000000000000000000000000000
0223605261318PAYROLL          4  4072  2MIS/ NEW PAY0000000000000000000000000000000
0225105300933UIS              4125553  2VERTEX MAGCO0000000000000000000000000000000
0225605310645DANIELSR         1142734  0FILE SAVE   0000000000000000000000000000000
0227006010847BILLING10        1 44355  0BSATFR.MAY  0000000000000000000000000000000
0229806012000MSNTRACK     21477454763201            0000000000000000000000000000000
0230006012127BUELNAJ          4 27104  2NODEZ       0000000000000000000000000000000
0230106020925MSS          21476555371229TAPE RESTORE0000000000000000000000000000000
0230206021316PGRADE       21477372774201MAY89 BACKUP0000000000000000000000000000000
0231206021909NETSTAT      21477205635201TAP95C.DIR  0000000000000000000000000000000
0231806051332SESALES      21472575566229LOAD TAPE   1000000000000000000000000000000
0232206051339PAYROLL          4  4072  2MIS/ NEW PAY0000000000000000000000000000000
0232306051339PAYROLL          4  4072  2MIS/ NEW PAY0000000000000000000000000000000
0133906061745SESALES      21472575566229MAIL TAPE   1000000000000000000000000000000
0234106061824TECHSERV     214762611672293581        0000000000000000000000000000000
0234206071133CRABBS       13107 61012240STORE       0000000000000000000000000000000
0235406080719PGRADE       21477372774201            0000000000000000000000000000000
0237206150958NLAU         21477707636201            0000000000000000000000000000000
0238706161245NETSTAT      21477205635201DAYS 1 THRU 0000000000000000000000000000000
0239806170944PGRADE       21477372774201            0000000000000000000000000000000
0240006190831ACCG1        21477215544201            1000000000000000000000000000000
0140106190938FRANK            4111413  2            0000000000000000000000000000000
0240306191123NETSTAT      21477205635201ACTG        0000000000000000000000000000000
0240506191329PAYROLL          4  4072  2MIS/ NEW PAY0000000000000000000000000000000
0240606191329PAYROLL          4  4072  2MIS/ NEW PAY0000000000000000000000000000000
0240806191634NETSTAT      21477205635201FILE RECOVER0000000000000000000000000000000
0242206201023DDD          21476545177229RESTORE     0000000000000000000000000000000
0242506210846DDD          21476545177229STORE       0000000000000000000000000000000
0243806221048PGRADE       21477372774201            0000000000000000000000000000000
0243906221550BUELNAJ          4 27104  2RESTOR      0000000000000000000000000000000
0145306231041PGRADE       21477372774201            0000000000000000000000000000000
0145406231055PGRADE       21477372774201            0000000000000000000000000000000
0247406261352PAYROLL          4  4072  2MIS/ NEW PAY0000000000000000000000000000000
0247506261353PAYROLL          4  4072  2MIS/ NEW PAY0000000000000000000000000000000
0249006271324NETSTAT      21477205635201RE-DO DAYS 10000000000000000000000000000000
0249606281230FRANK            4111413  2            0000000000000000000000000000000
0250206290853UIS              4125553  2VERTEX MAGCO0000000000000000000000000000000
0251006301357PAYROLL          4  4072  2MIS/ NEW PAY0000000000000000000000000000000
0251106301358PAYROLL          4  4072  2MIS/ NEW PAY0000000000000000000000000000000
0252507010000DANIELSR         1142734  0FILE SAVE   0000000000000000000000000000000
0252607011725BILLING10        1 44355  0BSATFR.JUN  0000000000000000000000000000000
0252807012001MSNTRACK     21477454763201            0000000000000000000000000000000
0253007030738ACCG1        21477215544201Y           1000000000000000000000000000000
0253107031010NETSTAT      21477205635201DAYS 11 THRU0000000000000000000000000000000
0253207031652PGRADE       21477372774201JUN89 BACKUP0000000000000000000000000000000
0253407040120NETSTAT      21477205635201TAP96C.DIR  0000000000000000000000000000000
0257107101337PAYROLL          4  4072  2MIS/ NEW PAY0000000000000000000000000000000
0257207101337PAYROLL          4  4072  2MIS/ NEW PAY0000000000000000000000000000000
0258607111317MSS          21476555371229TAPE LOAD   0000000000000000000000000000000
0262707140931FRANK            4111413  2            0000000000000000000000000000000
0262907141600DBSCHED      321203052252292104        0000000000000000000000000000000
0263007141619NETSTAT      21477205635201DAYS 1 THRU 0000000000000000000000000000000
0264707171309PAYROLL          4  4072  2MIS/ NEW PAY0000000000000000000000000000000
0264807171309PAYROLL          4  4072  2MIS/ NEW PAY0000000000000000000000000000000
0272107241310PAYROLL          4  4072  2MIS/ NEW PAY0000000000000000000000000000000
0272207241310PAYROLL          4  4072  2MIS/ NEW PAY0000000000000000000000000000000
0273807250845SRAVAL           1101723  0            0000000000000000000000000000000
0273907251459NETSTAT      21477205635201TAP97B.DIR  0000000000000000000000000000000
0275207270837UIS              4125553  2VERTEX MAGCO0000000000000000000000000000000
0175707271420SRAVAL           1101723  0            0000000000000000000000000000000
0278107310000DANIELSR         1142734  0FILE SAVE   0000000000000000000000000000000
0178207311500DBSCHED      32120305225229            0000000000000000000000000000000
0278407311537PAYROLL          4  4072  2MIS/ NEW PAY0000000000000000000000000000000
0278507311537PAYROLL          4  4072  2MIS/ NEW PAY0000000000000000000000000000000
0179708010734DBSCHED      32120305225229            0000000000000000000000000000000
0279908010852BILLING10        1 44355  0BSATFR.JUL  0000000000000000000000000000000
0280008011406SRAVAL           1101723  0            0000000000000000000000000000000
0280208012001MSNTRACK     21477454763201            0000000000000000000000000000000
0280308012053BILLING10        1 44355  0NODEZ       0000000000000000000000000000000
0280608020957PGRADE       21477372774201JUL89 BACKUP0000000000000000000000000000000
0281908021850NETSTAT      21477205635201TAP97C.DIR  0000000000000000000000000000000
0282808031642TYMRES5      10056670610229            0000000000000000000000000000000
0183708042032TNSM         27514745542228            0000000000000000000000000000000
0285408071322PAYROLL          4  4072  2MIS/ NEW PAY0000000000000000000000000000000
0285508071322PAYROLL          4  4072  2MIS/ NEW PAY0000000000000000000000000000000
0287608091557NETQC        21477304322229RESTRE      0000000000000000000000000000000
0287708091628FERRISK      21477241564201            0000000000000000000000000000000
0291708140853FRANK            4111413  2            0000000000000000000000000000000
0291908141312PAYROLL          4  4072  2MIS/ NEW PAY0000000000000000000000000000000
0292008141313PAYROLL          4  4072  2MIS/ NEW PAY0000000000000000000000000000000
0293408151110TYMRES       10056160405201RESTORE FILE0000000000000000000000000000000
0295908162002BUELNAJ          4 27104  2TAP98A.DIR  0000000000000000000000000000000
0296808171355TYMRES       10056160405201FILES RESTOR0000000000000000000000000000000
0200208211321PAYROLL          4  4072  2MIS/ NEW PAY0000000000000000000000000000000
0200308211321PAYROLL          4  4072  2MIS/ NEW PAY0000000000000000000000000000000
0201508221329TYMRES       10056160405201FILE RESTORE0000000000000000000000000000000
0201608221334TYMRES       10056160405201FILE RESTORE0000000000000000000000000000000
0104808251750MKTGINFO     10056167145229INFO        0000000000000000000000000000000
0205108281225MKTGINFO     10056167145229INFORMATION 0000000000000000000000000000000
0205308281321PAYROLL          4  4072  2MIS/ NEW PAY0000000000000000000000000000000
0205408281321PAYROLL          4  4072  2MIS/ NEW PAY0000000000000000000000000000000
0206308281741BUELNAJ          4 27104  2TAP98B.DIR  0000000000000000000000000000000
0207308290902UIS              4125553  2VERTEX MAGCO0000000000000000000000000000000
0209208310000DANIELSR         1142734  0FILE SAVE   0000000000000000000000000000000
0210509011101BILLING10        1 44355  0BSATFR.AUG  0000000000000000000000000000000
0210709011315PAYROLL          4  4072  2MIS/ NEW PAY0000000000000000000000000000000
0210809011315PAYROLL          4  4072  2MIS/ NEW PAY0000000000000000000000000000000
0211209012000MSNTRACK     21477454763201            0000000000000000000000000000000
0212109020204BUELNAJ          4 27104  2NODEZ       0000000000000000000000000000000
0212209031143PGRADE       21477372774201AUG89 BACKUP0000000000000000000000000000000
0212409040856PGRADE       21477372774201            0000000000000000000000000000000
0213809060135BUELNAJ          4 27104  2TAP98C.DIR  0000000000000000000000000000000
0214409061815FERRISK      21477241564201            0000000000000000000000000000000
0215309071416MKTGINFO     10056167145229INFORMATION 0000000000000000000000000000000
0215409071516FERRISK      21477241564201            0000000000000000000000000000000
0217509111320PAYROLL          4  4072  2MIS/ NEW PAY0000000000000000000000000000000
0217609111320PAYROLL          4  4072  2MIS/ NEW PAY0000000000000000000000000000000
0217809111704CTS          440546640242294257        0000000000000000000000000000000
0217909111704FERRISK      21477241564201            0000000000000000000000000000000
0218009111713MKTGINFO     10056167145229INFORMATION 0000000000000000000000000000000
0219809121747FERRISK      21477241564201            0000000000000000000000000000000
0219909131048CTSFORD      44054762674229FORD        0000000000000000000000000000000
0220609141259MKTGINFO     10056167145229INFORMATION 0000000000000000000000000000000
0222009151401BUELNAJ          4 27104  2            0000000000000000000000000000000
0223009160326BUELNAJ          4 27104  2TAP99A.DIR  0000000000000000000000000000000
0223309181024TYMRES       10056160405201FILES RESTOR0000000000000000000000000000000
0223409181031TYMRES       10056160405201RESTORE FILE0000000000000000000000000000000
0223509181346FULLERL      44251413444229COPY FILES  0000000000000000000000000000000
0223909181322PAYROLL          4  4072  2MIS/ NEW PAY0000000000000000000000000000000
0224009181323PAYROLL          4  4072  2MIS/ NEW PAY0000000000000000000000000000000
0226709211410MKTGINFO     10056167145229INFORMATION 0000000000000000000000000000000
0228009221447MKTGINFO     10056167145229INFORAMTION 0000000000000000000000000000000
0228509221806NETSTAT      21477205635201TAP99B.DIR  0000000000000000000000000000000
0230409251321PAYROLL          4  4072  2MIS/ NEW PAY0000000000000000000000000000000
0230509251321PAYROLL          4  4072  2MIS/ NEW PAY0000000000000000000000000000000
0230809251540FERRISK      21477241564201            0000000000000000000000000000000
0232809261519UIS              4125553  2VERTEX MAGCO0000000000000000000000000000000
0239210010000DANIELSR         1142734  0FILE SAVE   0000000000000000000000000000000
0239410011325BILLING10        1 44355  0BSATFR.SEP  0000000000000000000000000000000
0239510012001MSNTRACK     21477454763201            0000000000000000000000000000000
0239810020827FRANK            4111413  2NODEZ       0000000000000000000000000000000
0240010021337PAYROLL          4  4072  2MIS/ NEW PAY0000000000000000000000000000000
0240110021337PAYROLL          4  4072  2MIS/ NEW PAY0000000000000000000000000000000
0240310021449FERRISK      21477241564201            0000000000000000000000000000000
0241510031357CRABBS       13107 61012240STORE       0000000000000000000000000000000
0241610031402CRABBS       13107 61012240RECOVER     0000000000000000000000000000000
0241710031721JJOELS       11334474103200TREND       0000000000000000000000000000000
0242710041047JJOELS       11334474103200TREND       0000000000000000000000000000000
0242810040919LMORRIS          1162775  0            0000000000000000000000000000000
0142910041248PGRADE       21477372774201SEP89 BACKUP0000000000000000000000000000000
0243010041251PGRADE       21477372774201SEP89 BACKUP0000000000000000000000000000000
0244210051127JJOELS       11334474103200TREND       0000000000000000000000000000000
0244310051443FRANK            4111413  2TAP99C.DIR  0000000000000000000000000000000
0246810091313PAYROLL          4  4072  2MIS/ NEW PAY0000000000000000000000000000000
0246910091313PAYROLL          4  4072  2MIS/ NEW PAY0000000000000000000000000000000
0253010160938TYMRES       10056160405201RESTORE FILE0000000000000000000000000000000
0253210161322PAYROLL          4  4072  2MIS/ NEW PAY0000000000000000000000000000000
0253310161322PAYROLL          4  4072  2MIS/ NEW PAY0000000000000000000000000000000
0254710162254BUELNAJ          4 27104  2TAP9OA.DIR  0000000000000000000000000000000
0155010171808INTLINFO     44267753031229            0000000000000000000000000000000
0256210190903SRAVAL           1101723  0            0000000000000000000000000000000
0257710201439JJOELS       11334474103200            0000000000000000000000000000000
0257810201318TYMRES       10056160405201FILES TO BE 0000000000000000000000000000000
0259610231354PAYROLL          4  4072  2MIS/ NEW PAY0000000000000000000000000000000
0259710231355PAYROLL          4  4072  2MIS/ NEW PAY0000000000000000000000000000000
0259910231557LEONHARD     214776472102292201        0000000000000000000000000000000
0260010231717MSS          21476555371229STORE TO TAP0000000000000000000000000000000
0261610251018LEONHARD     214776472102292108        0000000000000000000000000000000
0262910260951LEONHARD     214776472102292108        0000000000000000000000000000000
0263210261639NETSTAT      21477205635201TAP9OB.DIR  0000000000000000000000000000000
0264310271133UIS              4125553  2VERTEX MAGCO0000000000000000000000000000000
0265510301041MSS          21476555371229STORE       0000000000000000000000000000000
0265710301410PAYROLL          4  4072  2MIS/ NEW PAY0000000000000000000000000000000
0265810301411PAYROLL          4  4072  2MIS/ NEW PAY0000000000000000000000000000000
0267110310000DANIELSR         1142734  0FILE SAVE   0000000000000000000000000000000
0267210311432KROGERS      21477745025229            1000000000000000000000000000000
0267811010954BILLING10        1 44355  0BSATFR.OCT  0000000000000000000000000000000
0268911012115ACCG1        21477215544201Y           1000000000000000000000000000000
0269011021004PGRADE       21477372774201OCT89 BACKUP0000000000000000000000000000000
0269111021013LMORRIS          1162775  0            0000000000000000000000000000000
0269211021144MSS          21476555371229STORE       0000000000000000000000000000000
0269711021622TYMRES       10056160405201RESTORE FILE0000000000000000000000000000000
0270911031504JMS              3431116  34011        0000000000000000000000000000000
0271011031702MSNTRACK     21477454763201            0000000000000000000000000000000
0272311032007DANIELSR         1142734  0FILE SAVE   0000000000000000000000000000000
0172411032007MSNTRACK     21477454763201            0000000000000000000000000000000
0272711051604BUELNAJ          4 27104  2TAP9OC.DIR  0000000000000000000000000000000
0272911061315PAYROLL          4  4072  2MIS/ NEW PAY0000000000000000000000000000000
0273011061315PAYROLL          4  4072  2MIS/ NEW PAY0000000000000000000000000000000
0273211061631TYMRES       10056160405201FILES RESTOR0000000000000000000000000000000
0274611081343RVIVIER      11020231230  3SUP UPGRADE 0000000000000000000000000000000
0278011131317PAYROLL          4  4072  2MIS/ NEW PAY0000000000000000000000000000000
0278111131318PAYROLL          4  4072  2MIS/ NEW PAY0000000000000000000000000000000
0278311131451NETSTAT      21477205635201TAP9NA.DIR  0000000000000000000000000000000
0278411131520MSS          21476555371229STORE       0000000000000000000000000000000
0279711151127SRA              1215254  0STORE TO TAP0000000000000000000000000000000
0282411171638PAYROLL          4  4072  2MIS/ NEW PAY0000000000000000000000000000000
0282511171651PAYROLL          4  4072  2MIS/ NEW PAY0000000000000000000000000000000
0283911201237FERRISK      21477241564201            0000000000000000000000000000000
0284011201428ATTEND.DEV       4454260  2            0000000000000000000000000000000
0286311221153SRAVAL           1101723  0            0000000000000000000000000000000
0286611221443ATTEND.DEV       4454260  2PAYROLTYM   0000000000000000000000000000000
0288511271055FERRISK      21477241564201            0000000000000000000000000000000
0288611271206SRA1             1225013  0            0000000000000000000000000000000
0288911271449PAYROLL          4  4072  2MIS/ NEW PAY0000000000000000000000000000000
0289211281347UIS              4125553  2VERTEX MAGCO0000000000000000000000000000000
0289811291404NETSTAT      21477205635201TAP9NB.DIR  0000000000000000000000000000000
0292712010000DANIELSR         1142734  0FILE SAVE   0000000000000000000000000000000
0292812010857BILLING10        1 44355  0BSATFR.NOV  0000000000000000000000000000000
0293312011749BUELNAJ          4 27104  2NODEZ       0000000000000000000000000000000
0293812012000MSNTRACK     21477454763201            0000000000000000000000000000000
0294412040931PGRADE       21477372774201NOV89 BACKUP0000000000000000000000000000000
0294712041307PAYROLL          4  4072  2MIS/ NEW PAY0000000000000000000000000000000
0296312050927LMORRIS          1162775  0            0000000000000000000000000000000
0201712111330PAYROLL          4  4072  2MIS/ NEW PAY0000000000000000000000000000000
0202012112005BUELNAJ          4 27104  2TAP9NC.DIR  0000000000000000000000000000000
0202612120743RJK              4   130  2ACTG        0000000000000000000000000000000
0202712121131SRA1             1225013  0            0000000000000000000000000000000
0202912131344FERRISK      21477241564201            0000000000000000000000000000000
0204412141316FRANK            4111413  2ACTG        0000000000000000000000000000000
0204512141316FRANK            4111413  2ACTG        0000000000000000000000000000000
0204612141524FRANK            4111413  2ACTG        0000000000000000000000000000000
0207012181311PAYROLL          4  4072  2MIS/ NEW PAY0000000000000000000000000000000
0208012190912NETSTAT      21477205635201TAP9NC.DIR  0000000000000000000000000000000
0208112191629FRANK            4111413  2ACTG        0000000000000000000000000000000
0211712211100LMORRIS          1162775  0            0000000000000000000000000000000
0213012221312PAYROLL          4  4072  2MIS/ NEW PAY0000000000000000000000000000000
0213112221501UIS              4125553  2VERTEX MAGCO0000000000000000000000000000000
0217212291316PAYROLL          4  4072  2MIS/ NEW PAY0000000000000000000000000000000
0218612310000DANIELSR         1142734  0FILE SAVE   0000000000000000000000000000000
0218801011401BILLING10        1 44355  0BSATFR.DEC  0000000000000000000000000000000
0218901012000MSNTRACK     21477454763201            0000000000000000000000000000000
0219001021337NETSTAT      21477205635201TAP9DB.DIR  0000000000000000000000000000000
0220001030917PGRADE       21477372774201DEC89 BACKUP0000000000000000000000000000000
0220101031203FRANK            4111413  2NODEZ       0000000000000000000000000000000
0221501041114FERRISK      21477241564201            0000000000000000000000000000000
0224401081317PAYROLL          4  4072  2MIS/ NEW PAY0000000000000000000000000000000
0224501081454FRANK            4111413  2ACTG        0000000000000000000000000000000
0225501082127BUELNAJ          4 27104  2TAP9DC.DIR  0000000000000000000000000000000
0230501111118JJOELS       11334474103200BACKUP      0000000000000000000000000000000
0233001151321PAYROLL          4  4072  2MIS/ NEW PAY0000000000000000000000000000000
0234601170957FRANK            4111413  2ACTG        0000000000000000000000000000000
0234701171138MSS          21476555371229STORE       0000000000000000000000000000000
0234801171513NETSTAT      21477205635201TAP00A.DIR  0000000000000000000000000000000
0239201221314PAYROLL          4  4072  2MIS/ NEW PAY0000000000000000000000000000000
0242001232020BUELNAJ          4 27104  2TAP01B.DIR  0000000000000000000000000000000
0242401241312FRANK            4111413  2RELEASE TAPE0000000000000000000000000000000
0244001251037FRANK            4111413  2RELEASE TAPE0000000000000000000000000000000
0244101251503FRANK            4111413  2RELEASE TAPE0000000000000000000000000000000
0244201251514MCAFFREY         4546623  2            0000000000000000000000000000000
0245701261405FRANK            4111413  2RELEASE TAPE0000000000000000000000000000000
0245901261655SCSALES      10056263666229LOAD TAPE   1000000000000000000000000000000
0247301291316PAYROLL          4  4072  2MIS/ NEW PAY0000000000000000000000000000000
0247401291344FRANK            4111413  2RELEASE TAPE0000000000000000000000000000000
0247501291352UIS              4125553  2VERTEX MAGCO0000000000000000000000000000000
0247601291457FRANK            4111413  2RELEASE TAPE0000000000000000000000000000000
0248901301259KROGERS      21477745025229            1000000000000000000000000000000
0250001310638DANIELSR         1142734  0FILE SAVE   0000000000000000000000000000000
0252702011030BILLING10        1 44355  0BSATFR.JAN  0000000000000000000000000000000
0252802011041PGRADE       21477372774201JAN90 BACKUP0000000000000000000000000000000
0253802012002MSNTRACK     21477454763201            0000000000000000000000000000000
0254002020848RJK              4   130  2NODEZ       0000000000000000000000000000000
0254102020953DDD          21476545177229RESTORE     0000000000000000000000000000000
0254202021030LMORRIS          1162775  0            0000000000000000000000000000000
0255202030204BUELNAJ          4 27104  2TAP01C.DIR  0000000000000000000000000000000
0256202051313PAYROLL          4  4072  2MIS/ NEW PAY0000000000000000000000000000000
0257402060710SRAMOV           1257377  0STORE/RESTOR0000000000000000000000000000000
0257502060714SRAMOV           1257377  0STORE /RESTO0000000000000000000000000000000
0257702060854FRANK            4111413  2ACTG        0000000000000000000000000000000
0260502081109MSS          21476555371229LOAD TAPE   0000000000000000000000000000000
0160602081116MSS          21476555371229            0000000000000000000000000000000
0260902081537LMORRIS          1162775  0            0000000000000000000000000000000
0262002091154MSS          21476555371229RESTORE     0000000000000000000000000000000
0263502121312PAYROLL          4  4072  2MIS/ NEW PAY0000000000000000000000000000000
0264802131603NETSTAT      21477205635201TAP02A.DIR  0000000000000000000000000000000
0269102201411PAYROLL          4  4072  2MIS/ NEW PAY0000000000000000000000000000000
0271702222138BUELNAJ          4 27104  2TAP02B.DIR  0000000000000000000000000000000
0273002260828MSS          21476555371229RESTORE     0000000000000000000000000000000
0273102261213UIS              4125553  2VERTEX MAGCO0000000000000000000000000000000
0273302261316PAYROLL          4  4072  2MIS/ NEW PAY0000000000000000000000000000000
0274702271633MSS          21476555371229RESTORE     0000000000000000000000000000000
0275702281651MSS          21476555371229RESTORE     0000000000000000000000000000000
0277003010944BILLING10        1 44355  0BSATFR.FEB  0000000000000000000000000000000
0277203011323MSS          21476555371229RESTORE     0000000000000000000000000000000
0278103012001MSNTRACK     21477454763201            0000000000000000000000000000000
0278303012324BUELNAJ          4 27104  2NODEZ       0000000000000000000000000000000
0279803030000DANIELSR         1142734  0FILE SAVE   0000000000000000000000000000000
0279903040926BUELNAJ          4 27104  2TAP02C.DIR  0000000000000000000000000000000
0280403051011LMORRIS          1162775  0            0000000000000000000000000000000
0280603051323PAYROLL          4  4072  2MIS/ NEW PAY0000000000000000000000000000000
0282003060824PGRADE       21477372774201JAN90 BACKUP0000000000000000000000000000000
0282203061330FRANK            4111413  2ACTG        0000000000000000000000000000000
0285703121321PAYROLL          4  4072  2MIS/ NEW PAY0000000000000000000000000000000
0286703122241BUELNAJ          4 27104  2TAP03C.DIR  0000000000000000000000000000000
0290903191315PAYROLL          4  4072  2MIS/ NEW PAY0000000000000000000000000000000
0291903200713TYMRES       10056160405201FILE RESTORE0000000000000000000000000000000
0294703221440NETSTAT      21477205635201TAP03B.DIR  0000000000000000000000000000000
0295903231330BURNS1           1161424  0STORE       0000000000000000000000000000000
0297403261316PAYROLL          4  4072  2MIS/ NEW PAY0000000000000000000000000000000
0299703281354UIS              4125553  2VERTEX MAGCO0000000000000000000000000000000
0202303310000DANIELSR         1142734  0FILE SAVE   0000000000000000000000000000000
0202604010922PRODNET      21477214623201Y           1000000000000000000000000000000
0202804011548BILLING10        1 44355  0BSATFR.MAR  0000000000000000000000000000000
0202904012001MSNTRACK     21477454763201            0000000000000000000000000000000
0203104021312PAYROLL          4  4072  2MIS/ NEW PAY0000000000000000000000000000000
0203204021654PGRADE       21477372774201MAR90 BACKUP0000000000000000000000000000000
0204304022357BUELNAJ          4 27104  2TAP03C.DIR  0000000000000000000000000000000
0205504051342FRANK            4111413  2ACTG        0000000000000000000000000000000
0208004091314PAYROLL          4  4072  2MIS/ NEW PAY0000000000000000000000000000000
0218304121111ACCG1        21477215544201Y           1000000000000000000000000000000
0220104131952BUELNAJ          4 27104  2TAP04A.DIR  0000000000000000000000000000000
0220904161311PAYROLL          4  4072  2MIS/ NEW PAY0000000000000000000000000000000
0222504181101NETQC        21477304322229            0000000000000000000000000000000
0225804231310PAYROLL          4  4072  2MIS/ NEW PAY0000000000000000000000000000000
0225904231319NETSTAT      21477205635201TAP04B.DIR  0000000000000000000000000000000
0229104261109UIS              4125553  2VERTEX MAGCO0000000000000000000000000000000
0230604301404PAYROLL          4  4072  2MIS/ NEW PAY0000000000000000000000000000000
0231705010000DANIELSR         1142734  0FILE SAVE   0000000000000000000000000000000
0231805011256BILLING10        1 44355  0BSATFR.APR  0000000000000000000000000000000
0232605012000MSNTRACK     21477454763201            0000000000000000000000000000000
0232705020932LMORRIS          1162775  0            0000000000000000000000000000000
0232805020936FRANK            4111413  2NODEZ       0000000000000000000000000000000
0232905021025NETSTAT      21477205635201TAP04C.DIR  0000000000000000000000000000000
0233005021224PGRADE       21477372774201APR90 BACKUP0000000000000000000000000000000
0237905071308PAYROLL          4  4072  2MIS/ NEW PAY0000000000000000000000000000000
0238005071533FRANK            4111413  2ACTG        0000000000000000000000000000000
0241405100903TYMRES       10056160405201FILES RESTOR0000000000000000000000000000000
0242405110209NETCON       21477175306201FILE RESTORA0000000000000000000000000000000
0242505110934TYMRES       10056160405201ONE MORE DAT0000000000000000000000000000000
0243405121652CTSFORD      44054762674229            0000000000000000000000000000000
0243705141317PAYROLL          4  4072  2MIS/ NEW PAY0000000000000000000000000000000
0243905141920NETSTAT      21477205635201TAP05A.DIR  0000000000000000000000000000000
0249005211313PAYROLL          4  4072  2MIS/ NEW PAY0000000000000000000000000000000
0251105231041NETSTAT      21477205635201TAP05B.DIR  0000000000000000000000000000000
0253305251310PAYROLL          4  4072  2MIS/ NEW PAY0000000000000000000000000000000
0253505252032MURTAUGH     21477353503229.           0000000000000000000000000000000
0253605252048MURTAUGH     21477353503229.           0000000000000000000000000000000
0255005301616UIS              4125553  2VERTEX MAGCO0000000000000000000000000000000
0256205310000DANIELSR         1142734  0FILE SAVE   0000000000000000000000000000000
0257306011006BILLING10        1 44355  0BSATFR.MAY  0000000000000000000000000000000
0258406012230BUELNAJ          4 27104  2NODEZ       0000000000000000000000000000000
0258906030945BUELNAJ          4 27104  2STORE       0000000000000000000000000000000
0259306041028LMORRIS          1162775  0            0000000000000000000000000000000
0259506041321PAYROLL          4  4072  2MIS/ NEW PAY0000000000000000000000000000000
0259606041442BUELNAJ          4 27104  2TAP05C.DIR  0000000000000000000000000000000
0161906061030RJK              4   130  2ACTG        0000000000000000000000000000000
0266006111313PAYROLL          4  4072  2MIS/ NEW PAY0000000000000000000000000000000
0267006112356BUELNAJ          4 27104  2TAP06A.DIR  0000000000000000000000000000000
0271706181321PAYROLL          4  4072  2MIS/ NEW PAY0000000000000000000000000000000
0273106201221MSNTRACK     21477454763201            0000000000000000000000000000000
0274506210940JJOELS       11334474103200            0000000000000000000000000000000
0277106251009NETSTAT      21477205635201TAP06B.DIR  0000000000000000000000000000000
0277306251320PAYROLL          4  4072  2MIS/ NEW PAY0000000000000000000000000000000
0278706261148NETSTAT      21477205635201FILE RECOVER0000000000000000000000000000000
0278906261629NETSTAT      21477205635201FILES TO BE 0000000000000000000000000000000
0279206271042BOBH             4   127  2TAPE CONVERS0000000000000000000000000000000
0279306271313UIS              4125553  2VERTEX MAGCO0000000000000000000000000000000
0281706291319PAYROLL          4  4072  2MIS/ NEW PAY0000000000000000000000000000000
0282807010000DANIELSR         1142734  0FILE SAVE   0000000000000000000000000000000
0283107011325BILLING10        1 44355  0BSATFR.JUN  0000000000000000000000000000000
0283207011437BUELNAJ          4 27104  2NODEZ       0000000000000000000000000000000
0283307021216PGRADE       21477372774201JUN90 BACKUP0000000000000000000000000000000
0285807052038NETSTAT      21477205635201TAP06C.DIR  0000000000000000000000000000000
0286007061012SRAVAL           1101723  0            0000000000000000000000000000000
0286107061023SRA1             1225013  0            0000000000000000000000000000000
0287607091309PAYROLL          4  4072  2MIS/ NEW PAY0000000000000000000000000000000
0291207122329BUELNAJ          4 27104  2TAP07A.DIR  0000000000000000000000000000000
0293107181729TYMRES       10056160405201FILE RESTORE0000000000000000000000000000000
0294907190758DBAMIKE      32120 67260201            0000000000000000000000000000000
0296207191132DBSCHED      32120305225229            0000000000000000000000000000000
0296307191518CTS          44054664024229            0000000000000000000000000000000
0296407191416DBAMIKE      32120 67260201            0000000000000000000000000000000
0196607191811DBSCHED      32120305225229            0000000000000000000000000000000
0297507200850PGRADE       21477372774201            0000000000000000000000000000000
0297607201639NETSTAT      21477205635201FILES RESTOR0000000000000000000000000000000
0298007230941DBSCHED      32120305225229            0000000000000000000000000000000
0198507231139DBSCHED      32120305225229            0000000000000000000000000000000
0298707231318PAYROLL          4  4072  2MIS/ NEW PAY0000000000000000000000000000000
0200107240943DBSCHED      32120305225229            0000000000000000000000000000000
0200507241833BUELNAJ          4 27104  2TAP07B.DIR  0000000000000000000000000000000
0201207251107DBSCHED      32120305225229            0000000000000000000000000000000
0203007261926SRA1             1225013  0            0000000000000000000000000000000
0203907271215UIS              4125553  2VERTEX MAGCO0000000000000000000000000000000
0204407301308PAYROLL          4  4072  2MIS/ NEW PAY0000000000000000000000000000000
0205307310000DANIELSR         1142734  0FILE SAVE   0000000000000000000000000000000
0105507311037CTS          44054664024229            0000000000000000000000000000000
0206308010904BILLING10        1 44355  0BSATFR.JUL  0000000000000000000000000000000
0207608021234PGRADE       21477372774201JUL90 BACKUP0000000000000000000000000000000
0208608031605FERRISK      21477241564201            0000000000000000000000000000000
0209508032104BUELNAJ          4 27104  2TAP07C.DIR  0000000000000000000000000000000
0209608032109BUELNAJ          4 27104  2NODEZ       0000000000000000000000000000000
0110208061523CTSFORD      440547626742294258        0000000000000000000000000000000
0210408061408PAYROLL          4  4072  2MIS/ NEW PAY0000000000000000000000000000000
0212208091305BOBH             4   127  2TAPE CONVERS0000000000000000000000000000000
0213108101155MSS          21476555371229STORE       0000000000000000000000000000000
0213808131138JJOELS       11334474103200BACKUP      0000000000000000000000000000000
0214008131323PAYROLL          4  4072  2MIS/ NEW PAY0000000000000000000000000000000
0215008150949NETSTAT      21477205635201TAP08A.DIR  0000000000000000000000000000000
0215508161113MSS          21476555371229STORE       0000000000000000000000000000000
0216808171504BURNS1           1161424  0STORE DIRECT0000000000000000000000000000000
0217808171828DANIELSR         1142734  0PAKCP5.SAV  0000000000000000000000000000000
0218608201313PAYROLL          4  4072  2MIS/ NEW PAY0000000000000000000000000000000
0223508271110NETSTAT      21477205635201GET THEM BAC0000000000000000000000000000000
0223808271314PAYROLL          4  4072  2MIS/ NEW PAY0000000000000000000000000000000
0224208290927UIS              4125553  2VERTEX MAGCO0000000000000000000000000000000
0226508310000DANIELSR         1142734  0FILE SAVE   0000000000000000000000000000000
0226808311312PAYROLL          4  4072  2MIS/ NEW PAY0000000000000000000000000000000
0227008311816BUELNAJ          4 27104  2TAP08B.DIR  0000000000000000000000000000000
0228209021421BUELNAJ          4 27104  2NODEZ       0000000000000000000000000000000
0228409030939BILLING10        1 44355  0BSATFR.AUG  0000000000000000000000000000000
0228509030941PGRADE       21477372774201JUL90 BACKUP0000000000000000000000000000000
0228709041140LMORRIS          1162775  0            0000000000000000000000000000000
0230609060843NEWPRT       21477533624201FILE RECOVER1000000000000000000000000000000
0233009101323PAYROLL          4  4072  2MIS/ NEW PAY0000000000000000000000000000000
0233809110837CTSFORD      44054762674229            0000000000000000000000000000000
0233909110848NETSTAT      21477205635201FILE RECOVER0000000000000000000000000000000
0234109121403FERRISK      21477241564201            0000000000000000000000000000000
0235409131030NETSTAT      21477205635201TAP08C.DIR  0000000000000000000000000000000
0237809171326PAYROLL          4  4072  2MIS/ NEW PAY0000000000000000000000000000000
0241309231507BUELNAJ          4 27104  2TAP09A.DIR  0000000000000000000000000000000
0241509241346PAYROLL          4  4072  2MIS/ NEW PAY0000000000000000000000000000000
0242709251125SRA1             1225013  0            0000000000000000000000000000000
0142809251304SRAVAL           1101723  0            0000000000000000000000000000000
0243809261151UIS              4125553  2VERTEX MAGCO0000000000000000000000000000000
0246910010000DANIELSR         1142734  0FILE SAVE   0000000000000000000000000000000
0247110010928BILLING10        1 44355  0BSATFR.SEP  0000000000000000000000000000000
0247310011342PAYROLL          4  4072  2MIS/ NEW PAY0000000000000000000000000000000
0247410011429PGRADE       21477372774201SEP90 BACKUP0000000000000000000000000000000
0248210012143BUELNAJ          4 27104  2NODEZ       0000000000000000000000000000000
0250610032042BUELNAJ          4 27104  2TAP09B.DIR  0000000000000000000000000000000
0253310081328PAYROLL          4  4072  2MIS/ NEW PAY0000000000000000000000000000000
0255110120842SRAVAL           1101723  0            0000000000000000000000000000000
0256010122208BUELNAJ          4 27104  2TAP09C.DIR  0000000000000000000000000000000
0256610151333PAYROLL          4  4072  2MIS/ NEW PAY0000000000000000000000000000000
0257510161420TYMRES       10056160405201FILES RESTOR0000000000000000000000000000000
0257910180936ROY          21477321033201NONE        0000000000000000000000000000000
0158010181600ROY          21477321033201NONE        0000000000000000000000000000000
0259210221327PAYROLL          4  4072  2MIS/ NEW PAY0000000000000000000000000000000
0259810251531CTS          44054664024229            0000000000000000000000000000000
0260310290704EDPROD           4641450  2ACTG        0000000000000000000000000000000
0260510291349PAYROLL          4  4072  2MIS/ NEW PAY0000000000000000000000000000000
0260610291405UIS              4125553  2VERTEX MAGCO0000000000000000000000000000000
0260810301228FERRISK      21477241564201            0000000000000000000000000000000
0261010311129DANIELSR         1142734  0FILE SAVE   0000000000000000000000000000000
0261211010144MSNTRACK     21477454763201            0000000000000000000000000000000
0261411011310BILLING10        1 44355  0BSATFR.OCT  0000000000000000000000000000000
0262011020116ACCG1        21477215544201Y           1000000000000000000000000000000
0262111021146PGRADE       21477372774201OCT90 BACKUP0000000000000000000000000000000
0262911051002FRANK            4111413  2TAP10C.DIR  0000000000000000000000000000000
0263111051320PAYROLL          4  4072  2MIS/ NEW PAY0000000000000000000000000000000
0264411070946NETENG       21477235561201            0000000000000000000000000000000
0264511071345JJOELS       11334474103200RECOVER     0000000000000000000000000000000
0267211121339PAYROLL          4  4072  2MIS/ NEW PAY0000000000000000000000000000000
0167811131303FRANK            4111413  2RELEASE TAPE0000000000000000000000000000000
0168611141220ACHASE       440474512622294253        0000000000000000000000000000000
0268711141315FRANK            4111413  2TAP11A.DIR  0000000000000000000000000000000
0168811141622ACHASE       440474512622294253        0000000000000000000000000000000
0269911151155JJOELS       11334474103200TAPE DIR    0000000000000000000000000000000
0271211160956NETQC        21477304322229            0000000000000000000000000000000
0271411161334PAYROLL          4  4072  2MIS/ NEW PAY0000000000000000000000000000000
0172711191434FRANK            4111413  2RELEASE TAPE0000000000000000000000000000000
0272811191434FRANK            4111413  2RELEASE TAPE0000000000000000000000000000000
0275411261322PAYROLL          4  4072  2MIS/ NEW PAY0000000000000000000000000000000
0276311270728BILLING10        1 44355  0ACTG        0000000000000000000000000000000
0276411271256FRANK            4111413  2TAP11B.DIR  0000000000000000000000000000000
0276511271352UIS              4125553  2VERTEX MAGCO0000000000000000000000000000000
0279412010000DANIELSR         1142734  0FILE SAVE   0000000000000000000000000000000
0279512010000MSNTRACK     21477454763201            0000000000000000000000000000000
0279712021429FRANK            4111413  2NODEZ       0000000000000000000000000000000
0279912030841BILLING10        1 44355  0BSATFR.NOV  0000000000000000000000000000000
0280412031346PAYROLL          4  4072  2MIS/ NEW PAY0000000000000000000000000000000
0281112041151PGRADE       21477372774201NOV90 BACKUP0000000000000000000000000000000
0282012051948BUELNAJ          4 27104  2TAP11C.DIR  0000000000000000000000000000000
0282412061253DANIELSR         1142734  0RESTORE     0000000000000000000000000000000
0282712061839FERRISK      21477241564201            0000000000000000000000000000000
0283712071516DBSCHED      32120305225229            0000000000000000000000000000000
0284812101326PAYROLL          4  4072  2MIS/ NEW PAY0000000000000000000000000000000
0285812111018SKIM         21477 71350201            0000000000000000000000000000000
0286212121757SKIM         21477 71350201            0000000000000000000000000000000
0187912141723TECHREF      21476540121229            0000000000000000000000000000000
0288712142258BUELNAJ          4 27104  2TAP12A.DIR  0000000000000000000000000000000
0289312171315PAYROLL          4  4072  2MIS/ NEW PAY0000000000000000000000000000000
0290712201327PAYROLL          4  4072  2MIS/ NEW PAY0000000000000000000000000000000
0292712231511BUELNAJ          4 27104  2TAP12B.DIR  0000000000000000000000000000000
0293012261513FERRISK      21477241564201            0000000000000000000000000000000
0293812271335UIS              4125553  2VERTEX MAGCO0000000000000000000000000000000
0295112281317PAYROLL          4  4072  2MIS/ NEW PAY0000000000000000000000000000000
0296012310000DANIELSR         1142734  0FILE SAVE   0000000000000000000000000000000
0296112311502TYMRES5      10056670610229RESTORE     0000000000000000000000000000000
0296212311529TYMRES5      10056670610229RESTORE     0000000000000000000000000000000
0296901010000MSNTRACK     21477454763201            0000000000000000000000000000000
0297001020954JJOELS       11334474103200            0000000000000000000000000000000
0297101020853BILLING10        1 44355  0BSATFR.DEC  0000000000000000000000000000000
0297201020900PGRADE       21477372774201DEC90 BACKUP0000000000000000000000000000000
0297301021010FRANK            4111413  2NODEZ       0000000000000000000000000000000
0298301031120TYMRES5      10056670610229RESTORE     0000000000000000000000000000000
0200201051137TYMRES5      10056670610229RESTORE     0000000000000000000000000000000
0100801070814TYMRES5      10056670610229RESTORE     0000000000000000000000000000000
0200901071027FRANK            4111413  2TAP12C.DIR  0000000000000000000000000000000
0201101071534PAYROLL          4  4072  2MIS/ NEW PAY0000000000000000000000000000000
0201501081709TYMRES5      10056670610229RESTORE     0000000000000000000000000000000
0203001091311FERRISK      21477241564201            0000000000000000000000000000000
0105301111653TYMRES5      10056670610229RESTORE (PPR0000000000000000000000000000000
0206001141317PAYROLL          4  4072  2MIS/ NEW PAY0000000000000000000000000000000
0206101141525FRANK            4111413  2TAP01A.DIR  0000000000000000000000000000000
0206601151009ATTEND.DEV       4454260  2RESTORE PAYR0000000000000000000000000000000
0206701151405ATTEND.DEV       4454260  2RESTORE     0000000000000000000000000000000
0206901160559NTRACKDATA   21477 14371229BACKUP      0000000000000000000000000000000
0107001160841ATTEND.DEV       4454260  2RESTORE     0000000000000000000000000000000
0207801171316NETQC        21477304322229NETQC       0000000000000000000000000000000
0210601211321PAYROLL          4  4072  2MIS/ NEW PAY0000000000000000000000000000000
0213001232307BUELNAJ          4 27104  2TAP01B.DIR  0000000000000000000000000000000
0213701251110FRANK            4111413  2RELEASE TAPE0000000000000000000000000000000
0213801251255FRANK            4111413  2RELEASE TAPE0000000000000000000000000000000
0115001271113OPER             1    21  0TEST        0000000000000000000000000000000
0115101271114OPER             1    21  0TEST        0000000000000000000000000000000
0115301281259ACCG1        21477215544201            1000000000000000000000000000000
0215501281328PAYROLL          4  4072  2MIS/ NEW PAY0000000000000000000000000000000
0217801310000DANIELSR         1142734  0FILE SAVE   0000000000000000000000000000000
0219202010000NTRACKDATA   21477 14371229            0000000000000000000000000000000
0219302010001MSNTRACK     21477454763201            0000000000000000000000000000000
0220702012228BUELNAJ          4 27104  2NODEZ       0000000000000000000000000000000
0221102031457BUELNAJ          4 27104  2TAP01C.DIR  0000000000000000000000000000000
0221302041041JJOELS       11334474103200            0000000000000000000000000000000
0221402041043JJOELS       11334474103200            0000000000000000000000000000000
0221502040851BILLING10        1 44355  0BSATFR.JAN  0000000000000000000000000000000
0221602040904PGRADE       21477372774201JAN91 BACKUP0000000000000000000000000000000
0221802041321PAYROLL          4  4072  2MIS/ NEW PAY0000000000000000000000000000000
0221902041738JJOELS       11334474103200            0000000000000000000000000000000
0225902111323PAYROLL          4  4072  2MIS/ NEW PAY0000000000000000000000000000000
0226802131236NETSTAT      21477205635201TAP02A.DIR  0000000000000000000000000000000
0228602151310PAYROLL          4  4072  2MIS/ NEW PAY0000000000000000000000000000000
0231502221647NETSTAT      21477205635201TAP02B.DIR  0000000000000000000000000000000
0233102251321PAYROLL          4  4072  2MIS/ NEW PAY0000000000000000000000000000000
0234002261007UIS              4125553  2VERTEX MAGCO0000000000000000000000000000000
0236803010000NTRACKDATA   21477 14371229            0000000000000000000000000000000
0236903010001MSNTRACK     21477454763201            0000000000000000000000000000000
0237203010853PGRADE       21477372774201JAN91 BACKUP0000000000000000000000000000000
0237303010915BILLING10        1 44355  0BSATFR.FEB  0000000000000000000000000000000
0237403010941FRANK            4111413  2ACTG        0000000000000000000000000000000
0238603012322BUELNAJ          4 27104  2NODEZ       0000000000000000000000000000000
0238703030000DANIELSR         1142734  0FILE SAVE   0000000000000000000000000000000
0238803031142NETCON       21477175306201CLASS RESTOR0000000000000000000000000000000
0239003031419BILLING10        1 44355  0TAP02C.DIR  0000000000000000000000000000000
0239303041346PAYROLL          4  4072  2MIS/ NEW PAY0000000000000000000000000000000
0244603081459TYMRES5      10056670610229SEC_V10     0000000000000000000000000000000
0245803111321PAYROLL          4  4072  2MIS/ NEW PAY0000000000000000000000000000000
0147403141508DBSCHED      32120305225229            0000000000000000000000000000000
0148403150858DBSCHED      32120305225229            0000000000000000000000000000000
0148503150920DBSCHED      32120305225229            0000000000000000000000000000000
0249803171614NETSTAT      21477205635201TAP03A.DIR  0000000000000000000000000000000
0250003180822NETQC        21477304322229NETQC       0000000000000000000000000000000
0250203181325PAYROLL          4  4072  2MIS/ NEW PAY0000000000000000000000000000000
0250403182007TYMRES5      10056670610229RESTORE     0000000000000000000000000000000
0251203191039DANIELSR         1142734  0MONITOR.TAPE0000000000000000000000000000000
