0256003010442CAIS             4146225  2ACTG        0000000000000000000000000000000
0256203010612RICKANL          4125551  2SAVE BRCH TR0000000000000000000000000000000
0256803010959BILLING10        1 44355  2BSATFR.FEB  0000000000000000000000000000000
0256903011001RJK              4   130  2PUH038.FEB  0000000000000000000000000000000
0257703011330STRONACHJ        4225251  2REVRPTS JAN 0000000000000000000000000000000
0257803011333STRONACHJ        4225251  2REVRPTS TITO0000000000000000000000000000000
0258003011448WESTRN29         4   626  2WESTERN29 DE0000000000000000000000000000000
0258103011449WESTRN29         4   626  2W29EOM.FEB  0000000000000000000000000000000
0259603020404CAISIX           4216364  2PRE940.FEB  0000000000000000000000000000000
0260703020941FRANK            4111413  2G/L PAYROLL 0000000000000000000000000000000
0261503021531RODRIGUESP       4163706  2PREPDP.FEB  0000000000000000000000000000000
0261703021825CAIS             4146225  2PRE370.FEB  0000000000000000000000000000000
0261803022155STRONACHJ        4225251  2MAGCON      0000000000000000000000000000000
0261803022155STRONACHJ        4225251  2MAGCON      0070000280001000000000001830303
0262903030924RICKANL          4125551  2TYMUSE UPDAT0000000000000000000000000000000
0163703031307JMURPHY          4 15015  2FILE RECOVER0000000000000000000000000000000
0264203031750RICKANL          4125551  2SAVE BRCH TR0000000000000000000000000000000
0264603040022CARRELLA         4162621  2MAGCON      0000000000000000000000000000000
0264703040150CARRELLA         4162621  2MAGCON      0000000000000000000000000000000
0264703040150CARRELLA         4162621  2MAGCON      0070000120001000000000001830304
0264603040022CARRELLA         4162621  2MAGCON      0070000220002000000000002830304
0266403040953RJK              4   130  2ACTG        0000000000000000000000000000000
0266803041449RJK              4   130  2ACTG        0000000000000000000000000000000
0266903041453STRONACHJ        4225251  2MAGCON      0000000000000000000000000000000
0268203042137RODRIGUESP       4163706  2MAGCON      0000000000000000000000000000000
0266903041453STRONACHJ        4225251  2MAGCON      0070000240002000000000002830304
0268203042137RODRIGUESP       4163706  2MAGCON      0070000210002000000000002830304
0269403050506CARRELLA         4162621  2MAGCON      0000000000000000000000000000000
0269403050506CARRELLA         4162621  2MAGCON      0070000250001000000000001830305
0271003051306RJK              4   130  2ACTG        0000000000000000000000000000000
0272403052254OLD940           4167655  2PST940.FEB  0000000000000000000000000000000
0272503052317OLD370           4167654  2TSPISH.DET  0000000000000000000000000000000
0273303052331OLD370           4167654  2STORE       0000000000000000000000000000000
0273603052345OLD940           4167655  2PST940.FEB  0000000000000000000000000000000
0272503052317OLD370           4167654  2TSPISH.DET  0070000030001000000000001830305
0273303052331OLD370           4167654  2STORE       0070000010001000000000001830306
0275303060642CARRELLA         4162621  2MAGCON      0000000000000000000000000000000
0275303060642CARRELLA         4162621  2MAGCON      0070000360001000000000001830306
0275503060842FRANK            4111413  2MAGCON      0000000000000000000000000000000
0275703060851FRANK            4111413  2MAGCON      0000000000000000000000000000000
0276003061119OLDPDP           4167653  2ACTG        0000000000000000000000000000000
0276103061121OLDPDP           4167653  2ACTG        0000000000000000000000000000000
0276003061119OLDPDP           4167653  2ACTG        0070000030001000000000001830306
0279203070246OLD370           4167654  2ARMISH.DET  0000000000000000000000000000000
0279203070246OLD370           4167654  2ARMISH.DET  0070000020001000000000001830307
0279903070914TNE01SUP     21512174646129WECO BILLING0000000000000000000000000000000
0280003070918TNE01SUP     21512174646129WECO BILLING0000000000000000000000000000000
0279903070914TNE01SUP     21512174646129WECO BILLING0070000010001000000000001830307
0280003070918TNE01SUP     21512174646129WECO BILLING0070000010001000000000001830307
0280803071253TNE01SUP     21512174646129FABS        0000000000000000000000000000000
0281103071326TNE01SUP     21512174646129NONE        0000000000000000000000000000000
0281503071220PAYROLL          4  4072  2MIS/ NEW PAY0000000000000000000000000000000
0281603071221PAYROLL          4  4072  2MIS/ NEW PAY0000000000000000000000000000000
0281803071303RICKANL          4125551  2TYMUSE EOM  0000000000000000000000000000000
0283903080827RJK              4   130  2ACTG        0000000000000000000000000000000
0285203080957OLDPDP           4167653  2IRCS DETAIL 0000000000000000000000000000000
0285603081027RICKANL          4125551  2RESTORE BRCT0000000000000000000000000000000
0285203080957OLDPDP           4167653  2IRCS DETAIL 0070000010001000000000001830308
0286303081549LARUE            7315475  3MAGNUM      0000000000000000000000000000000
0287003082303OLDPDP           4167653  2USPS DETAIL 0000000000000000000000000000000
0287003082303OLDPDP           4167653  2USPS DETAIL 0070000020001000000000001830309
0189503090158OPER             1    21  0MAGNUM      0000000000000000000000000000000
0291403090428OLD370           4167654  2PST370.FEB  0000000000000000000000000000000
0291503090429OLD370           4167654  2PST370.FEB  0000000000000000000000000000000
0291603090607RICKANL          4125551  2RESTORE BRC.0000000000000000000000000000000
0292703091235PAYROLTYM    32173305551  2MIS/ NEW PAY0000000000000000000000000000000
0292803091236PAYROLTYM    32173305551  2MIS/ NEW PAY0000000000000000000000000000000
0293403091746PAYROLL          4  4072  2PAYROL DUMP 0000000000000000000000000000000
0294703101024AR.REP           4155047  2TAX RPTS    0000000000000000000000000000000
0294803101032STRAUSSH     17514161135202A/R FEBRUARY0000000000000000000000000000000
0295903101752CARRELLA         4162621  2PAYROLL     0000000000000000000000000000000
0296903110924RICKANL          4125551  2MOVE TYMUSE 0000000000000000000000000000000
0297503111715CARRELLA         4162621  2PAYROLL     0000000000000000000000000000000
0297703111827CARRELLA         4162621  2PSTPDP.FEB  0000000000000000000000000000000
0297803111827CARRELLA         4162621  2PDP EOM-CENT0000000000000000000000000000000
0298303120703RICKANL          4125551  2TYMUSE UPDAT0000000000000000000000000000000
0298503121140CAISIX           4216364  2ACTG        0000000000000000000000000000000
0298703121726RICKANL          4125551  2SAVE BRCH TR0000000000000000000000000000000
0298803130805PAYROLL          4  4072  2PAYROLL     0000000000000000000000000000000
0200203141203PAYROLL          4  4072  2MIS/ NEW PAY0000000000000000000000000000000
0200203141203PAYROLL          4  4072  2MIS/ NEW PAY0070000010001000000000001830314
0200403141235PAYROLL          4  4072  2MIS/ NEW PAY0000000000000000000000000000000
0200503141236PAYROLL          4  4072  2MIS/ NEW PAY0000000000000000000000000000000
0200703141248PAYROLL          4  4072  2MIS/ NEW PAY0000000000000000000000000000000
0201203141506SBILL1           4112057  2LIST        0000000000000000000000000000000
0201703141720CARRELLA         4162621  2PAYROLL     0000000000000000000000000000000
0201903141909CAISX            4156533  2ACTG        0000000000000000000000000000000
0202303150000DANIELSR         1142734  0FILE SAVE   0000000000000000000000000000000
0204803151723CARRELLA         4162621  2RELEASE     0000000000000000000000000000000
0205403152010CAIS             4146225  2ACTG        0000000000000000000000000000000
0205703160944DEV940           4167660  2FILE RECOVER0000000000000000000000000000000
0206003161057FRANK            4111413  2RELEASE TAPE0000000000000000000000000000000
0208003171548STRONACHJ        4225251  2RESTORE     0000000000000000000000000000000
0208103171613CAISIX           4216364  2ACTG        0000000000000000000000000000000
0209703181741NASON        10551105673141            0000000000000000000000000000000
0210103190032CAISX            4156533  2ACTG        0000000000000000000000000000000
0210303191317RICKANL          4125551  2TYMUSE UPDAT0000000000000000000000000000000
0210803201826CAIS             4146225  2ACTG        0000000000000000000000000000000
0211103201843RICKANL          4125551  2SAVE BRCH TR0000000000000000000000000000000
0212003210907CORP.REP         4202051  2A MAGCON    0000000000000000000000000000000
0212603211213PAYROLL          4  4072  2MIS/ NEW PAY0000000000000000000000000000000
0112703211214PAYROLL          4  4072  2MIS/ NEW PAY0000000000000000000000000000000
0213203211447PAYROLL          4  4072  2MIS/ NEW PAY0000000000000000000000000000000
0213303211448PAYROLL          4  4072  2MIS/ NEW PAY0000000000000000000000000000000
0214403220505CAISIX           4216364  2ACTG        0000000000000000000000000000000
0214703221054STRONACHJ        4225251  2RESTORE     0000000000000000000000000000000
0215203221629CAISX            4156533  2ACTG        0000000000000000000000000000000
0216203230354CAIS             4146225  2ACTG        0000000000000000000000000000000
0117103231220WUPETERL         4104652  2MIS/ NEW PAY0000000000000000000000000000000
0117203231221WUPETERL         4104652  2MIS/ NEW PAY0000000000000000000000000000000
0217703231620RICKANL          4125551  2TYMUSE UPDAT0000000000000000000000000000000
0218603240941RICKANL          4125551  2SAVE BRCH TR0000000000000000000000000000000
0220903251253KIMBER           7354721  3MAGNUM      0000000000000000000000000000000
0222203261615CARRELLA         4162621  2*.MR1       0000000000000000000000000000000
0222303261720RICKANL          4125551  2TYMUSE UPDAT0000000000000000000000000000000
0222403261811CAISX            4156533  2*.MR1       0000000000000000000000000000000
0222603262115CAIS             4146225  2ACTG        0000000000000000000000000000000
0222803270938RICKANL          4125551  2SAVE BRCH TR0000000000000000000000000000000
0123503271411CAISIX           4216364  2ACTG        0000000000000000000000000000000
0123603271437CAISX            4156533  2ACTG        0000000000000000000000000000000
0224403281149PAYROLL          4  4072  2MIS/ NEW PAY0000000000000000000000000000000
0224603281154PAYROLL          4  4072  2MIS/ NEW PAY0000000000000000000000000000000
0224903281217PAYROLL          4  4072  2MIS/ NEW PAY0000000000000000000000000000000
0225003281218PAYROLL          4  4072  2MIS/ NEW PAY0000000000000000000000000000000
0226203291208TNE01SUP     21512174646129NONE        0000000000000000000000000000000
0227703291431RJK              4   130  2ACTG        0000000000000000000000000000000
0128203291701WUPETERL         4104652  2MIS/ NEW PAY0000000000000000000000000000000
0128303291701WUPETERL         4104652  2MIS/ NEW PAY0000000000000000000000000000000
0128703291722WUPETERL         4104652  2MIS/ NEW PAY0000000000000000000000000000000
0128803291725WUPETERL         4104652  2MIS/ NEW PAY0000000000000000000000000000000
0129603301004WUPETERL         4104652  2MIS/ NEW PAY0000000000000000000000000000000
0129703301005WUPETERL         4104652  2MIS/ NEW PAY0000000000000000000000000000000
0132403311040UIS              4125553  2VERTEX MAGCO0000000000000000000000000000000
0232503311051UIS              4125553  2VERTEX MAGCO0000000000000000000000000000000
0232803311346RJK              4   130  2CRPEOM.MAR  0000000000000000000000000000000
0233003311600RICKANL          4125551  2TYMUSE UPDAT0000000000000000000000000000000
0233203311800MDELANEY         7266445  3            0000000000000000000000000000000
0233804010104WESTRN29         4   626  2WESTERN29 DE0000000000000000000000000000000
0233904010105WESTRN29         4   626  2W29EOM.FEB  0000000000000000000000000000000
0234904010626RICKANL          4125551  2SAVE BRCH TR0000000000000000000000000000000
0235204010915RJK              4   130  2PUH038.MAR  0000000000000000000000000000000
0235404010924BILLING10        1 44355  2BSATFR.MAR  0000000000000000000000000000000
0235704011051RJK              4   130  2ACTG        0000000000000000000000000000000
0237204020516CAISIX           4216364  2PRE940.MAR  0000000000000000000000000000000
0237204020516CAISIX           4216364  2PRE940.MAR  0050012480000000000000002830402
0237604021258CAIS             4146225  2PRE370.MAR  0000000000000000000000000000000
0238004022334CARRELLA         4162621  2MAGCON      0000000000000000000000000000000
0238204030329CAISX            4156533  2PREPDP.MAR  0000000000000000000000000000000
0238004022334CARRELLA         4162621  2MAGCON      0070000270001000000000001830403
0238404031012RICKANL          4125551  2TYMUSE UPDAT0000000000000000000000000000000
0239104032221RODRIGUESP       4163706  2MAGCON      0000000000000000000000000000000
0239404032232RICKANL          4125551  2SAVE BRCH TR0000000000000000000000000000000
0239504040209OLD940           4167655  2MAGCON      0000000000000000000000000000000
0239104032221RODRIGUESP       4163706  2MAGCON      0070000220002000000000002830404
0239504040209OLD940           4167655  2MAGCON      0070000120001000000000001830404
0241104040810RJK              4   130  2TYMEOM.MAR  0000000000000000000000000000000
0241404040922RJK              4   130  2ACTG        0000000000000000000000000000000
0241604041147FRANK            4111413  2MAGCON      0000000000000000000000000000000
0241704041148RICKANL          4125551  2MOVE CST ALL0000000000000000000000000000000
0241804041238PAYROLL          4  4072  2MIS/ NEW PAY0000000000000000000000000000000
0241904041239PAYROLL          4  4072  2MIS/ NEW PAY0000000000000000000000000000000
0241604041147FRANK            4111413  2MAGCON      0070000240002000000000002830404
0244004042050STRONACHJ        4225251  2MAGCON      0000000000000000000000000000000
0244004042050STRONACHJ        4225251  2MAGCON      0070000250001000000000001830405
0245904050719OLDPDP           4167653  2MAGCON      0000000000000000000000000000000
0245904050719OLDPDP           4167653  2MAGCON      0070000190002000000000002830405
0249004051647OLDPDP           4167653  2A MAGCON    0000000000000000000000000000000
0249004051647OLDPDP           4167653  2A MAGCON    0070000020002000000000002830405
0251304061213PAYROLTYM    32173305551  2MAGCONS     0000000000000000000000000000000
0251404061343RODRIGUESP       4163706  2MAGCON      0000000000000000000000000000000
0252204061448CAISX            4156533  2WECO DETAIL 0000000000000000000000000000000
0252304061449CAISX            4156533  2WECEOM.MAR  0000000000000000000000000000000
0252604061742OLDPDP           4167653  2A MAGCON    0000000000000000000000000000000
0253104061922RICKANL          4125551  2XFER TYMUSE 0000000000000000000000000000000
0252604061742OLDPDP           4167653  2A MAGCON    0070000020002000000000002830406
0253804070418OLD940           4167655  2PST940.MAR  0000000000000000000000000000000
0254004070418OLD940           4167655  2940 EOM-CENT0000000000000000000000000000000
0254404070428OLDPDP           4167653  2TSPISH.DET  0000000000000000000000000000000
0255404070447OLDPDP           4167653  2TSPMOC.SGL  0000000000000000000000000000000
0254404070428OLDPDP           4167653  2TSPISH.DET  0070000030001000000000001830407
0256504070808RJK              4   130  2MAGCON      0000000000000000000000000000000
0256604070810RJK              4   130  2MAGCON      0000000000000000000000000000000
0156904070927RODRIGUESP       4163706  2MAGCON      0000000000000000000000000000000
0257004070928RODRIGUESP       4163706  2MAGCON      0000000000000000000000000000000
0257104070925MAGNUMDB         7227132  3MAGNUM MOVE 0000000000000000000000000000000
0257204071559TNE01SUP     21512174646129WECO BILLING0000000000000000000000000000000
0257304071600TNE01SUP     21512174646129WECO BILLING0000000000000000000000000000000
0257504071337OLDPDP           4167653  2USPS DETAIL 0000000000000000000000000000000
0257704071342OLDPDP           4167653  2            0000000000000000000000000000000
0257204071559TNE01SUP     21512174646129WECO BILLING0070000010001000000000001830407
0257804071651TNE01SUP     21512174646129FABS        0000000000000000000000000000000
0257304071600TNE01SUP     21512174646129WECO BILLING0070000010001000000000001830407
0258204071601STRAUSSH     17514161135202RECLASS     0000000000000000000000000000000
0258404071702TSPPOTS          4300312  2PURCHASE ORD0000000000000000000000000000000
0259904080750TYMUSEA          4216505  2XFER ACCT D/0000000000000000000000000000000
0260004080815TYMUSEA          4216505  2XFER P30JAM.0000000000000000000000000000000
0260204080858OLDPDP           4167653  2PSTPDP.MAR  0000000000000000000000000000000
0260304080859OLDPDP           4167653  2PDP EOM-CENT0000000000000000000000000000000
0260804081512OLD370           4167654  2ARMISH.DET  0000000000000000000000000000000
0260904081649STRAUSSH     17514161135202A/R         0000000000000000000000000000000
0261104081717UAS              4125552  2PST370.MAR  0000000000000000000000000000000
0261204081718UAS              4125552  2370 EOM-CENT0000000000000000000000000000000
0260804081512OLD370           4167654  2ARMISH.DET  0070000020002000000000002830408
0262704090905STRONACHJ        4225251  2IRCS DETAIL 0000000000000000000000000000000
0263104090935STRONACHJ        4225251  2IRCEOM.MAR  0000000000000000000000000000000
0163404101104SBILL3           4  5211  2STD940.MAR  0000000000000000000000000000000
0268704111158PAYROLL          4  4072  2MIS/ NEW PAY0000000000000000000000000000000
0268904111208PAYROLL          4  4072  2MIS/ NEW PAY0000000000000000000000000000000
0269104111252PAYROLL          4  4072  2MIS/ NEW PAY0000000000000000000000000000000
0269204111305PAYROLL          4  4072  2MIS/ NEW PAY0000000000000000000000000000000
0269404111548PAYROLL          4  4072  2GL-PAYROLL-M0000000000000000000000000000000
0169504111552FSIEGEL          7314234  3            0000000000000000000000000000000
0270804121042CAISIX           4216364  2ACTG        0000000000000000000000000000000
0170904121054WUPETERL         4104652  2MIS/ NEW PAY0000000000000000000000000000000
0171004121055WUPETERL         4104652  2MIS/ NEW PAY0000000000000000000000000000000
0271204121059STRONACHJ        4225251  2RESTORE     0000000000000000000000000000000
0271304121ANK            4111413  2A MAGCON    0000000000000000000000000000000
0171904121236WUPETERL         4104652  2MIS/ NEW PAY0000000000000000000000000000000
0172004121236WUPETERL         4104652  2MIS/ NEW PAY0000000000000000000000000000000
0272304121443AR.REP           4155047  2TAX RPTS    0000000000000000000000000000000
0172504121634TADDEO           7357207  3MAGNUM      0000000000000000000000000000000
0272604121638TADDEO           7357207  3FTP20       0000000000000000000000000000000
0273704130931SDERRY           7204374  3MAGNUM      0000000000000000000000000000000
0173804131035WUPETERL         4104652  2MIS/ NEW PAY0000000000000000000000000000000
0173904131036WUPETERL         4104652  2MIS/ NEW PAY0000000000000000000000000000000
0174304131337RODRIGUESP       4163706  2RESTORE     0000000000000000000000000000000
0274904131551STRONACHJ        4225251  2RESTORE     0000000000000000000000000000000
0276104140813STRAUSSH     17514161135202            0000000000000000000000000000000
0276204140825RODRIGUESP       4163706  2RESTORE     0000000000000000000000000000000
0276304140837SBILL1           4112057  2LIST        0000000000000000000000000000000
0276704141041RODRIGUESP       4163706  2ACTG        0000000000000000000000000000000
0176804141054RJK              4   130  2ACTG        0000000000000000000000000000000
0277504141425TJB              3346701  3F40         0000000000000000000000000000000
0278704150002DANIELSR         1142734  0FILE SAVE   0000000000000000000000000000000
0278904150245CAISX            4156533  2ACTG        0000000000000000000000000000000
0279104150502CAIS             4146225  2ACTG        0000000000000000000000000000000
0279204150500RICKANL          4125551  2XFER CUS D/B0000000000000000000000000000000
0279604150832RODRIGUESP       4163706  2RESTORE     0000000000000000000000000000000
0280004151133TJB              3346701  3F40 V. 73   0000000000000000000000000000000
0281304171650CAISIX           4216364  2ACTG        0000000000000000000000000000000
0283304181226PAYROLL          4  4072  2MIS/ NEW PAY0000000000000000000000000000000
0283404181227PAYROLL          4  4072  2MIS/ NEW PAY0000000000000000000000000000000
0183704181320STRONACHJ        4225251  2RESTORE     0000000000000000000000000000000
0285004190755POTS         22013247541146SAR         0000000000000000000000000000000
0286004191607RICKANL          4125551  2XFER        0000000000000000000000000000000
0286704200135CAISX            4156533  2ACTG        0000000000000000000000000000000
0288004202257CAIS             4146225  2ACTG        0000000000000000000000000000000
0288504210913RODRIGUESP       4163706  2MAGCON      0000000000000000000000000000000
0288704211017RODRIGUESP       4163706  2RESTORE     0000000000000000000000000000000
0289104211128STRONACHJ        4225251  2RESTORE     0000000000000000000000000000000
0189504211435FRANK            4111413  2RELEASE TAPE0000000000000000000000000000000
0189604211445FRANK            4111413  2RELEASE TAPE0000000000000000000000000000000
0292504221321RODRIGUESP       4163706  2RESTORE     0000000000000000000000000000000
0293704221707MAGNUMDB         7227132  3MAGNUM MOVE 0000000000000000000000000000000
0294204230655CAISIX           4216364  2ACTG        0000000000000000000000000000000
0294404231922CAISX            4156533  2ACTG        0000000000000000000000000000000
0295104250037CAIS             4146225  2ACTG        0000000000000000000000000000000
0295304251006RODRIGUESP       4163706  2RESTORE     0000000000000000000000000000000
0295604251200PAYROLL          4  4072  2MIS/ NEW PAY0000000000000000000000000000000
0295804251207PAYROLL          4  4072  2MIS/ NEW PAY0000000000000000000000000000000
0296104251236RODRIGUESP       4163706  2RESTORE     0000000000000000000000000000000
0296204251244PAYROLL          4  4072  2MIS/ NEW PAY0000000000000000000000000000000
0296304251245PAYROLL          4  4072  2MIS/ NEW PAY0000000000000000000000000000000
0296704251434WUPETERL         4104652  2RECOVER FILE0000000000000000000000000000000
0299904261608STRONACHJ        4225251  2RESTORE     0000000000000000000000000000000
0200504261831LARUE            7315475  3MAGNUM      0000000000000000000000000000000
0200804262310CAIS             4146225  2ACTG        0000000000000000000000000000000
0201004270530RICKANL          4125551  2TYMUSE C/B'S0000000000000000000000000000000
0202104271246CAISX            4156533  2ACTG        0000000000000000000000000000000
0202204271546TNE01SUP     21512174646129NONE        0000000000000000000000000000000
0203804271626CAISIX           4216364  2ACTG        0000000000000000000000000000000
0203904271648MAGNUMDB         7227132  3NASON MOVE  0000000000000000000000000000000
0204804281038RJK              4   130  2ACTG        0000000000000000000000000000000
0206904290826UIS              4125553  2VERTEX MAGCO0000000000000000000000000000000
0207604291223MAGNUMDB         7227132  3NASON MOVE  0000000000000000000000000000000
0209804300518RICKANL          4125551  2TYMUSE C/B'S0000000000000000000000000000000
0210605011004BILLING10        1 44355  2BSATFR.APR  0000000000000000000000000000000
0210705011033OLD940           4167655  2FILE RECOVER0000000000000000000000000000000
0211005011257RJK              4   130  2PUH038.APR  0000000000000000000000000000000
0211105011258RJK              4   130  2CRPEOM.APR  0000000000000000000000000000000
0211605011513TYMUSEA          4216505  2TYMUSE C/B'S0000000000000000000000000000000
0212305020529CAIS             4146225  2PRE370.APR  0000000000000000000000000000000
0212405020607CAISIX           4216364  2PRE940.APR  0000000000000000000000000000000
0213405021239PAYROLL          4  4072  2MIS/ NEW PAY0000000000000000000000000000000
0213505021239PAYROLL          4  4072  2MIS/ NEW PAY0000000000000000000000000000000
0213705021332CAISX            4156533  2PREPDP.APR  0000000000000000000000000000000
0214005021422MAGNUMDB         7227132  3SEAMAN MOVE 0000000000000000000000000000000
0214305021515STRONACHJ        4225251  2MAGCON      0000000000000000000000000000000
0114505021516STRONACHJ        4225251  2MAGCON      0000000000000000000000000000000
0214905021646RJK              4   130  2TYMEOM.APR  0000000000000000000000000000000
0214305021515STRONACHJ        4225251  2MAGCON      0070000260001000000000001830502
0215505030456CAIS             4146225  2MAGCON      0000000000000000000000000000000
0215605030458CAIS             4146225  2MAGCON      0000000000000000000000000000000
0215905030805UAS              4125552  2FILE TO V30 0000000000000000000000000000000
0215605030458CAIS             4146225  2MAGCON      0070000280002000000000002830503
0216605031049FRANK            4111413  2FILE RECOVER0000000000000000000000000000000
0217405031623STRONACHJ        4225251  2MAGCON      0000000000000000000000000000000
0218305031806RODRIGUESP       4163706  2MAGCON      0000000000000000000000000000000
0217405031623STRONACHJ        4225251  2MAGCON      0070000180001000000000001830503
0218305031806RODRIGUESP       4163706  2MAGCON      0070000120001000000000001830503
0220105040226CARRELLA         4162621  2MAGCON      0000000000000000000000000000000
0220205040228CARRELLA         4162621  2MAGCON      0000000000000000000000000000000
0220305040231CARRELLA         4162621  2MAGCON      0000000000000000000000000000000
0220305040231CARRELLA         4162621  2MAGCON      0070000010001000000000001830504
0220105040226CARRELLA         4162621  2MAGCON      0070000200001000000000001830504
0220205040228CARRELLA         4162621  2MAGCON      0070000010001000000000001830504
0222005040839FRANK            4111413  2MAGCON      0000000000000000000000000000000
0222105040843FRANK            4111413  2MAGCON      0000000000000000000000000000000
0222205040846FRANK            4111413  2MAGCON      0000000000000000000000000000000
0222905041019RJK              4   130  2ACTG        0000000000000000000000000000000
0223905041321MAGNUMDB         7227132  3NASON MOVE  0000000000000000000000000000000
0224705041551MAGNUMDB         7227132  3INFOTYM-DEV 0000000000000000000000000000000
0228105050403STRONACHJ        4225251  2MAGCON      0000000000000000000000000000000
0228105050403STRONACHJ        4225251  2MAGCON      0070000020001000000000001830505
0228705050559MISTAPE          4 51660  2TSPISH.DET  0000000000000000000000000000000
0228905050608OLD940           4167655  2PST940.APR  0000000000000000000000000000000
0229005050608OLD940           4167655  2940 EOM-CENT0000000000000000000000000000000
0228705050559MISTAPE          4 51660  2TSPISH.DET  0070000030001000000000001830505
0229605050630OLD370           4167654  2TSPMOC.SGL  0000000000000000000000000000000
0129705050655OLD940           4167655  2MAGCON      0000000000000000000000000000000
0230605050840ACSENTRY     22171201346  2ACTG        0000000000000000000000000000000
0230705050844ACSENTRY     22171201346  2ACTG        0000000000000000000000000000000
0230605050840ACSENTRY     22171201346  2ACTG        0050000030000000000000001830505
0230705050844ACSENTRY     22171201346  2ACTG        0050001710000000000000001830505
0231905051534TNE01SUP     21512174646129WECO BILLING0000000000000000000000000000000
0232005051535TNE01SUP     21512174646129WECO BILLING0000000000000000000000000000000
0230505050817CAISX            4156533  2WECO        0 1    11 10000000      0830505
0231905051534TNE01SUP     21512174646129WECO BILLING0070000010001000000000001830505
0232005051535TNE01SUP     21512174646129WECO BILLING0070000010001000000000001830505
0232305051734TNE01SUP     21512174646129FABS        0000000000000000000000000000000
0232705051552MAGNUMDB         7227132  3NASON MOVE  0000000000000000000000000000000
0233805060130OLD370           4167654  2ARMISH.DET  0000000000000000000000000000000
0233805060130OLD370           4167654  2ARMISH.DET  0070000020001000000000001830506
0235605060934RJK              4   130  2ACTG        0000000000000000000000000000000
0236105061033RODRIGUESP       4163706  2RESTORE     0000000000000000000000000000000
0136805061520OLD370           4167654  2370 USPS DET0000000000000000000000000000000
0237705061612CAISX            4156533  2IRCS DETAIL 0000000000000000000000000000000
0238905061931TYMCSTACT    41674123661  2COST ALL. EO0000000000000000000000000000000
0239005062138OLDPDP           4167653  2USPS DETAIL 0000000000000000000000000000000
0239405062208OLDPDP           4167653  2PSTPDP.APR  0000000000000000000000000000000
0239505062208OLDPDP           4167653  2PDP EOM-CENT0000000000000000000000000000000
0239005062138OLDPDP           4167653  2USPS DETAIL 0070000020001000000000001830506
0239905062327OLD370           4167654  2PST370.APR  0000000000000000000000000000000
0240005062328OLD370           4167654  2370 EOM-CENT0000000000000000000000000000000
0240105062343CARRELLA         4162621  2STORE       0000000000000000000000000000000
0241105071705TYMUSEA          4216505  2TYMUSE C/B'S0000000000000000000000000000000
0243805091151PAYROLL          4  4072  2MIS/ NEW PAY0000000000000000000000000000000
0244005091210PAYROLL          4  4072  2MIS/ NEW PAY0000000000000000000000000000000
0244705091253PAYROLL          4  4072  2MIS/ NEW PAY0000000000000000000000000000000
0244805091254PAYROLL          4  4072  2MIS/ NEW PAY0000000000000000000000000000000
0245505091649STRAUSSH     17514161135202APRIL A/R   0000000000000000000000000000000
0248005101107DANIELSR         1142734  0RESTORE     0000000000000000000000000000000
0249005101417STRONACHJ        4225251  2RESTORE     0000000000000000000000000000000
0250605111109SBILL1           4112057  2LIST        0000000000000000000000000000000
0250605111109SBILL1           4112057  2LIST        0050007180000000000000001830511
0252605120412CAISIX           4216364  2ACTG        0000000000000000000000000000000
0152705120416CAISIX           4216364  2ACTG        0000000000000000000000000000000
0152805120421CAISIX           4216364  2ACTG        0000000000000000000000000000000
0152905120423CAISIX           4216364  2ACTG        0000000000000000000000000000000
0153005120427CAISIX           4216364  2ACTG        0000000000000000000000000000000
0153105120429CAISIX           4216364  2ACTG        0000000000000000000000000000000
0153205120433CAISIX           4216364  2ACTG        0000000000000000000000000000000
0153305120439CAISIX           4216364  2ACTG        0000000000000000000000000000000
0153405120442CAISIX           4216364  2ACTG        0000000000000000000000000000000
0153505120446CAISIX           4216364  2ACTG        0000000000000000000000000000000
0153605120449CAISIX           4216364  2ACTG        0000000000000000000000000000000
0254305121213TYMCSTACT    41674123661  2XFER COST AL0000000000000000000000000000000
0255905130540CAISIX           4216364  2ACTG        0000000000000000000000000000000
0256305131047TYMUSEA          4216505  2TYMUSE C/B'S0000000000000000000000000000000
0258405132051CAIS             4146225  2ACTG        0000000000000000000000000000000
0258705141026CAISX            4156533  2ACTG        0000000000000000000000000000000
0259105150406DANIELSR         1142734  0FILE SAVE   0000000000000000000000000000000
0260705161034RODRIGUESP       4163706  2RESTORE     0000000000000000000000000000000
0261305161234PAYROLL          4  4072  2MIS/ NEW PAY0000000000000000000000000000000
0261405161235PAYROLL          4  4072  2MIS/ NEW PAY0000000000000000000000000000000
0261605161401RJK              4   130  2REVRPT      0000000000000000000000000000000
0262705162125CAISIX           4216364  2940 MID-MONT0000000000000000000000000000000
0263205170735TYMUSEA          4216505  2TYMUSE C/B'S0000000000000000000000000000000
0163505171251CAISIX           4216364  2ACTG        0000000000000000000000000000000
0263605171557TNE01SUP     21512174646129            0000000000000000000000000000000
0263805171339CAIS             4146225  2ACTG        0000000000000000000000000000000
0264705180415CAISX            4156533  2ACTG        0000000000000000000000000000000
0269705201725TYMUSEA          4216505  2TYMUSE C/B'S0000000000000000000000000000000
0270105210837CAIS             4146225  2MR1 DUMP    0000000000000000000000000000000
0270405211455CAISIX           4216364  2*.MR1 DUMP  0000000000000000000000000000000
0270505211536CAISX            4156533  2*.MR1 DUMP  0000000000000000000000000000000
0270905221432CAISIX           4216364  2ACTG        0000000000000000000000000000000
0271205221637CAIS             4146225  2ACTG        0000000000000000000000000000000
0271305221709CAISX            4156533  2ACTG        0000000000000000000000000000000
0272005231246PAYROLL          4  4072  2MIS/ NEW PAY0000000000000000000000000000000
0272105231247PAYROLL          4  4072  2MIS/ NEW PAY0000000000000000000000000000000
0272305231258PAYROLL          4  4072  2MIS/ NEW PAY0000000000000000000000000000000
0272505231305PAYROLL          4  4072  2MIS/ NEW PAY0000000000000000000000000000000
0275705241710TNE01SUP     21512174646129FABS        0000000000000000000000000000000
0276905250744TYMUSEA          4216505  2TYMUSE C/B'S0000000000000000000000000000000
0179105251955OPER             1    21  0TRAINING    0000000000000000000000000000000
0281905271323TNE01SUP     21512174646129            0000000000000000000000000000000
0282105271102CAIS             4146225  2ACTG        0000000000000000000000000000000
0282705271225PAYROLL          4  4072  2MIS/ NEW PAY0000000000000000000000000000000
0282805271226PAYROLL          4  4072  2MIS/ NEW PAY0000000000000000000000000000000
0283105271337CAISX            4156533  2ACTG        0000000000000000000000000000000
0283705271454CAISIX           4216364  2ACTG        0000000000000000000000000000000
0284305280727TYMUSEA          4216505  2TYMUSE C/B'S0000000000000000000000000000000
0285305301527FBATCH           1 77340  0RESTORE     0000000000000000000000000000000
0285405301118RJK              4   130  2SSREOM.MAY  0000000000000000000000000000000
0286505310842UIS              4125553  2VERTEX MAGCO0000000000000000000000000000000
0287105311123RJK              4   130  2CRPEOM.MAY  0000000000000000000000000000000
0288106010519TYMUSEA          4216505  2TYMUSE C/B'S0000000000000000000000000000000
0288506011005BILLING10        1 44355  2BSATFR.MAY  0000000000000000000000000000000
0288706011040RJK              4   130  2PUH038.MAY  0000000000000000000000000000000
0292506020909RJK              4   130  2ACTG        0000000000000000000000000000000
0292906021103CAIS             4146225  2PRE370.MAY  0000000000000000000000000000000
0293106021121FRANK            4111413  2MAGCON MAY830000000000000000000000000000000
0293306021302RODRIGUESP       4163706  2MOVE        0000000000000000000000000000000
0293506021339CAISIX           4216364  2PRE940.MAY  0000000000000000000000000000000
0293606021344RJK              4   130  2ACTG        0000000000000000000000000000000
0293806021525RICKANL          4125551  2FILE RECOVER0000000000000000000000000000000
0293906021533MAGNUMDB         7227132  3INFOTYM.DEV.0000000000000000000000000000000
0295106022104CAISX            4156533  2PREPDP.MAY  0000000000000000000000000000000
0295206022207RODRIGUESP       4163706  2MAGCON      0000000000000000000000000000000
0295206022207RODRIGUESP       4163706  2MAGCON      0070000210001000000000001830602
0295306031030FBATCH           1 77340  0RESTORE     0000000000000000000000000000000
0295506030746MISTAPE          4 51660  2MAGCON      0000000000000000000000000000000
0295806031029MAGNUMDB         7227132  3BETA TEST VE0000000000000000000000000000000
0295906031343MAGNUMDB         7227132  394 => 145 MA0000000000000000000000000000000
0296006031434INTEOM       11010 40425206RECOVERY    0000000000000000000000000000000
0296206031620FRANK            4111413  2MAGCON      0000000000000000000000000000000
0296606031758RODRIGUESP       4163706  2MAGCON      0000000000000000000000000000000
0296206031620FRANK            4111413  2MAGCON      0070000250002000000000002830603
0296606031758RODRIGUESP       4163706  2MAGCON      0070000170001000000000001830603
0298106040014CAISIX           4216364  2MAGCON      0000000000000000000000000000000
0298106040014CAISIX           4216364  2MAGCON      0070000160001000000000001830604
0101406041358STRONACHJ        4225251  2PDP10 AREA 10000000000000000000000000000000
0202306041421CAISX            4156533  2MAGCON      0000000000000000000000000000000
0203706041706OLD370           4167654  2FILES TO TAP0000000000000000000000000000000
0203806041714OLDPDP           4167653  2FILES TO TAP0000000000000000000000000000000
0203906041721OLD940           4167655  2FILES TO TAP0000000000000000000000000000000
0202306041421CAISX            4156533  2MAGCON      0070000200002000000000002830604
0204906050605CARRELLA         4162621  2TSPISH.DET  0000000000000000000000000000000
0205506050620CARRELLA         4162621  2TSPMOC.SGL  0000000000000000000000000000000
0205906050625OLD940           4167655  2PST940.MAY  0000000000000000000000000000000
0206006050626OLD940           4167655  2940 EOM-CENT0000000000000000000000000000000
0204906050605CARRELLA         4162621  2TSPISH.DET  0070000030001000000000001830605
0206506050735OLD370           4167654  2USPS MOVE   0000000000000000000000000000000
0206706050912FRANK            4111413  2MAGCON      0000000000000000000000000000000
0206806050918FRANK            4111413  2MAGCON      0000000000000000000000000000000
0207506051459OLDPDP           4167653  2MOVE        0000000000000000000000000000000
0208206051543FRANK            4111413  2USPS DETAIL 0000000000000000000000000000000
0208306051546FRANK            4111413  2MAGCON      0000000000000000000000000000000
0208206051543FRANK            4111413  2USPS DETAIL 0070000020001000000000001830605
0208806052031OLDPDP           4167653  2ACTG        0000000000000000000000000000000
0209606060227OLD370           4167654  2ARMISH.DET  0000000000000000000000000000000
0209606060227OLD370           4167654  2ARMISH.DET  0070000020001000000000001830606
0210706060401UAS              4125552  2PST370.MAY  0000000000000000000000000000000
0210806060402UAS              4125552  2370 EOM-CENT0000000000000000000000000000000
0212706061021FRANK            4111413  2FILES TO TAP0000000000000000000000000000000
0212806061023FRANK            4111413  2FILES TO TAP0000000000000000000000000000000
0212906061024FRANK            4111413  2FILES TO TAP0000000000000000000000000000000
0213106061040PAYROLL          4  4072  2MAGCON      0000000000000000000000000000000
0213506061122RODRIGUESP       4163706  2WECO DETAIL 0000000000000000000000000000000
0213606061122RODRIGUESP       4163706  2WECEOM.MAY  0000000000000000000000000000000
0213906061209PAYROLL          4  4072  2MIS/ NEW PAY0000000000000000000000000000000
0214306061218PAYROLL          4  4072  2MIS/ NEW PAY0000000000000000000000000000000
0214506061251PAYROLL          4  4072  2MIS/ NEW PAY0000000000000000000000000000000
0214606061253PAYROLL          4  4072  2MIS/ NEW PAY0000000000000000000000000000000
0215006061705TNE01SUP     21512174646129WECO BILLING0000000000000000000000000000000
0215206061706TNE01SUP     21512174646129WECO BILLING0000000000000000000000000000000
0219006070846FBATCH           1 77340  0RESTORE     0000000000000000000000000000000
0215206061706TNE01SUP     21512174646129WECO BILLING0070000010001000000000001830607
0215006061705TNE01SUP     21512174646129WECO BILLING0070000010001000000000001830607
0220306071116TNE01SUP     21512174646129FABS        0000000000000000000000000000000
0220606070837STRONACHJ        4225251  2IRCS DETAIL 0000000000000000000000000000000
0221306070921FRANK            4111413  2FILES TO TAP0000000000000000000000000000000
0221906071127AR.REP           4155047  2PSTPDP.MAY  0000000000000000000000000000000
0222206071138TYMUSEA          4216505  2TYMUSE C/B'S0000000000000000000000000000000
0222306071137DMOULTON         4220667  2            0000000000000000000000000000000
0222406071142OLDPDP           4167653  2MAGCON      0000000000000000000000000000000
0224606080941AR.REP           4155047  2TAX RPTS APR0000000000000000000000000000000
0224906081304STRAUSSH     17514161135202MAY A/R     0000000000000000000000000000000
0225206081816ACSDATA      37456 61051 46PAX         0000000000000000000000000000000
0225306081558DMOULTON         4220667  2            0000000000000000000000000000000
0225206081816ACSDATA      37456 61051 46PAX         0070000010001000000000001830609
0228206091930ACSDATA      37456 61051 46PAX         0000000000000000000000000000000
0228206091930ACSDATA      37456 61051 46PAX         0070000010001000000000001830610
0229306101124FRANK            4111413  2ARMISH.DET  0000000000000000000000000000000
0229306101124FRANK            4111413  2ARMISH.DET  0070000020001000000000001830610
0229806101447SBILL1           4112057  2LIST        0000000000000000000000000000000
0230806111958CAISIX           4216364  2ACTG        0000000000000000000000000000000
0131406130302CARL             3352477  3FILE DUMPING0000000000000000000000000000000
0232106131010STRONACHJ        4225251  2ACTG        0000000000000000000000000000000
0232406131232PAYROLL          4  4072  2MIS/ NEW PAY0000000000000000000000000000000
0232506131233PAYROLL          4  4072  2MIS/ NEW PAY0000000000000000000000000000000
0233006131656TADDEO           7357207  3MAGNUM RELEA0000000000000000000000000000000
0233806132305CAIS             4146225  2ACTG        0000000000000000000000000000000
0233906132331CAISX            4156533  2ACTG        0000000000000000000000000000000
0235706150002DANIELSR         1142734  0FILE SAVE   0000000000000000000000000000000
0235906150610TYMUSEA          4216505  2TYMUSE C/B'S0000000000000000000000000000000
0236606151405LARUE            7315475  3MAGNUM      0000000000000000000000000000000
0237106151727DMOULTON         4220667  2            0000000000000000000000000000000
0238706161141STRONACHJ        4225251  2ACTG        0000000000000000000000000000000
0239406170104CAISIX           4216364  2ACTG        0000000000000000000000000000000
0239706170625CAIS             4146225  2ACTG        0000000000000000000000000000000
0240306171455FRANK            4111413  2RELEASE TAPE0000000000000000000000000000000
0241206180442CAISX            4156533  2ACTG        0000000000000000000000000000000
0241506181119TYMUSEA          4216505  2TYMUSE C/B'S0000000000000000000000000000000
0141606181120TYMUSEA          4216505  2TYMUSE C/B'S0000000000000000000000000000000
0243806201056FBATCH           1 77340  0STORE       0000000000000000000000000000000
0244206201151PAYROLL          4  4072  2MIS/ NEW PAY0000000000000000000000000000000
0244506201208PAYROLL          4  4072  2MIS/ NEW PAY0000000000000000000000000000000
0244706201237PAYROLL          4  4072  2MIS/ NEW PAY0000000000000000000000000000000
0244806201238PAYROLL          4  4072  2MIS/ NEW PAY0000000000000000000000000000000
0245006201305DMOULTON         4220667  2            0000000000000000000000000000000
0245306201514OPER             1    21  0            0000000000000000000000000000000
0248706220725CAIS             4146225  2ACTG        0000000000000000000000000000000
0249306221145CAISX            4156533  2ACTG        0000000000000000000000000000000
0249406221158CAISIX           4216364  2ACTG        0000000000000000000000000000000
0249906230708TYMUSEA          4216505  2TYMUSE C/B'S0000000000000000000000000000000
0253906241501MAGNUMDB         7227132  3BETA TEST PR0000000000000000000000000000000
0154306242044ACSDATA      37456 61051 46PAX         0000000000000000000000000000000
0255306261252LARUE            7315475  3MAGNUM      0000000000000000000000000000000
0256006270118CAIS             4146225  2ACTG        0000000000000000000000000000000
0256806271046RODRIGUESP       4163706  2MAGCON      0000000000000000000000000000000
0257006271221PAYROLL          4  4072  2MIS/ NEW PAY0000000000000000000000000000000
0257106271221PAYROLL          4  4072  2MIS/ NEW PAY0000000000000000000000000000000
0257506271359CAISIX           4216364  2ACTG        0000000000000000000000000000000
0258706272208CAISX            4156533  2ACTG        0000000000000000000000000000000
0258906280901RJK              4   130  2CRPEOM.JUN  0000000000000000000000000000000
0259006281309TNE01SUP     21512174646129NONE        0000000000000000000000000000000
0259106281139RJK              4   130  2SSREOM.JUN  0000000000000000000000000000000
0259706281551UIS              4125553  2VERTEX MAGCO0000000000000000000000000000000
0160306281816CARRELLA         4162621  2MAGCON      0000000000000000000000000000000
0260506290635TYMUSEA          4216505  2TYMUSE C/B'S0000000000000000000000000000000
0261806291937PAYROLL          4  4072  2RESTORE     0000000000000000000000000000000
0262606300608TYMCSTACT    41674123661  2RESTORE CST/0000000000000000000000000000000
0265207010637TYMCSTACT    41674123661  2RESTORE CST 0000000000000000000000000000000
0265307010926RJK              4   130  2ACTG        0000000000000000000000000000000
0265507011007RJK              4   130  2PUH038.JUN  0000000000000000000000000000000
0265807011127PAYROLL          4  4072  2MIS/ NEW PAY0000000000000000000000000000000
0266007011131TYMUSEA          4216505  2TYMUSE C/B'S0000000000000000000000000000000
0266107011501ACSDATA      37456 61051 46PAX         0000000000000000000000000000000
0266207011202PAYROLL          4  4072  2MIS/ NEW PAY0000000000000000000000000000000
0266407011301PAYROLL          4  4072  2MIS/ NEW PAY0000000000000000000000000000000
0266507011302PAYROLL          4  4072  2MIS/ NEW PAY0000000000000000000000000000000
0266107011501ACSDATA      37456 61051 46PAX         0070000010001000000000001830701
0267507011732BILLING10        1 44355  2BSATFR.JUN  0000000000000000000000000000000
0268007011757MAGNUMDB         7227132  3BETA TEST TR0000000000000000000000000000000
0268407020631TYMCSTACT    41674123661  2SAVE BACKUP 0000000000000000000000000000000
0268507021104CAISIX           4216364  2PRE940.JUN  0000000000000000000000000000000
0169107021751FRANK            4111413  2MAGCON      0000000000000000000000000000000
0169207021755FRANK            4111413  2MAGCON      0000000000000000000000000000000
0269407021812FRANK            4111413  2MAGCON      0000000000000000000000000000000
0269507021852CAIS             4146225  2PRE370.JUN  0000000000000000000000000000000
0269707022033CAISX            4156533  2PREPDP.JUN  0000000000000000000000000000000
0269407021812FRANK            4111413  2MAGCON      0070000210001000000000001830702
0270007030838RJK              4   130  2ACTG        0000000000000000000000000000000
0270107031112FRANK            4111413  2MAGCON      0000000000000000000000000000000
0270107031112FRANK            4111413  2MAGCON      0070000250002000000000002830703
0270507031629FRANK            4111413  2MAGCON      0000000000000000000000000000000
0270607031758STRONACHJ        4225251  2MAGCON      0000000000000000000000000000000
0271007031812OLD940           4167655  2MAGCON      0000000000000000000000000000000
0270507031629FRANK            4111413  2MAGCON      0070000290002000000000002830703
0270607031758STRONACHJ        4225251  2MAGCON      0070000160001000000000001830703
0272707040333OLD370           4167654  2MAGCON      0000000000000000000000000000000
0273107040400CARRELLA         4162621  2MAGCON      0000000000000000000000000000000
0273207040404CARRELLA         4162621  2MAGCON      0000000000000000000000000000000
0273307040413OLDPDP           4167653  2MAGCON      0000000000000000000000000000000
0273107040400CARRELLA         4162621  2MAGCON      0070000160001000000000001830704
0273207040404CARRELLA         4162621  2MAGCON      0070000180001000000000001830704
0276607041031FRANK            4111413  2MAGCON      0000000000000000000000000000000
0276707041032FRANK            4111413  2MAGCON      0000000000000000000000000000000
0277007041447FRANK            4111413  2MAGCON      0000000000000000000000000000000
0277307051432FBATCH           1 77340  0RESTORE/URGE0000000000000000000000000000000
0278207051041FRANK            4111413  2FILES TO TAP0000000000000000000000000000000
0278707051643CAISX            4156533  2WECO DETAIL 0000000000000000000000000000000
0278807051644CAISX            4156533  2WECEOM.JUN  0000000000000000000000000000000
0182607060330OLD370           4167654  2ARMISH.DET  0000000000000000000000000000000
0283507060906RJK              4   130  2ACTG        0000000000000000000000000000000
0285107061411FRANK            4111413  2ACTG        0000000000000000000000000000000
0285207061619OLD940           4167655  2PST940.JUN  0000000000000000000000000000000
0285307061619OLD940           4167655  2940 EOM-CENT0000000000000000000000000000000
0285507061637OLD370           4167654  2TSPISH.DET  0000000000000000000000000000000
0286407061728OLD370           4167654  2TSPMOC.SGL  0000000000000000000000000000000
0285507061637OLD370           4167654  2TSPISH.DET  0070000030001000000000001830706
0285107061411FRANK            4111413  2ACTG        0070000030002000000000002830706
0188107070052OLDPDP           4167653  2USPS MOVE   0000000000000000000000000000000
0288207070101OLDPDP           4167653  2USPS DETAIL 0000000000000000000000000000000
0288307070107OLDPDP           4167653  2USPS INVOICE0000000000000000000000000000000
0288907070209UAS              4125552  2PST370.JUN  0000000000000000000000000000000
0289107070210UAS              4125552  2370 EOM-CENT0000000000000000000000000000000
0288207070101OLDPDP           4167653  2USPS DETAIL 0070000020001000000000001830707
0289707070538OLDPDP           4167653  2ACTG        0000000000000000000000000000000
0290407070900FRANK            4111413  2FILES TO TAP0000000000000000000000000000000
0290707071312TNE01SUP     21512174646129WECO BILLING0000000000000000000000000000000
0290807071312TNE01SUP     21512174646129WECO BILLING0000000000000000000000000000000
0290907071314TNE01SUP     21512174646129FABS        0000000000000000000000000000000
0291107071038OLDPDP           4167653  2PSTPDP.JUN  0000000000000000000000000000000
0291207071038OLDPDP           4167653  2PDP EOM-CENT0000000000000000000000000000000
0292107071411RODRIGUESP       4163706  2GL/PAYROLL  0000000000000000000000000000000
0293107072120ACTGTYMA         4132017  2ACTG        0000000000000000000000000000000
0290807071312TNE01SUP     21512174646129WECO BILLING0070000010001000000000001830707
0290707071312TNE01SUP     21512174646129WECO BILLING0070000010001000000000001830707
0293707080813FBATCH           1 77340  0STORE       0000000000000000000000000000000
0294307081116OLDPDP           4167653  2MAGCON      0000000000000000000000000000000
0294407081118STRAUSSH     17514161135202JUNE 1983 A/0000000000000000000000000000000
0294307081116OLDPDP           4167653  2MAGCON      0070000010001000000000001830708
0296007081416FRANK            4111413  2FILES TO TAP0000000000000000000000000000000
0196107081415RODRIGUESP       4163706  2GL/PAYROLL  0000000000000000000000000000000
0296707081648TYMUSEA          4216505  2TYMUSE C/B'S0000000000000000000000000000000
0297107082338MAGNUMDB         7227132  3MAGNUM RELEA0000000000000000000000000000000
0201207110920SBILL1           4112057  2LIST        0000000000000000000000000000000
0201607111055RJK              4   130  2ACTG        0000000000000000000000000000000
0201707111059RODRIGUESP       4163706  2GL/PAYROLL  0000000000000000000000000000000
0201807111101MAGNUMDB         7227132  3MAGNUM RELEA0000000000000000000000000000000
0201907111230PAYROLL          4  4072  2MIS/ NEW PAY0000000000000000000000000000000
0202007111230PAYROLL          4  4072  2MIS/ NEW PAY0000000000000000000000000000000
0202507111356RODRIGUESP       4163706  2GL/PAYROLL  0000000000000000000000000000000
0204107111820CAISIX           4216364  2ACTG        0000000000000000000000000000000
0204707120630CAIS             4146225  2ACTG        0000000000000000000000000000000
0205407120903RJK              4   130  2ACTG        0000000000000000000000000000000
0106007121045WUPETERL         4104652  2MIS/ NEW PAY0000000000000000000000000000000
0106107121051WUPETERL         4104652  2MIS/ NEW PAY0000000000000000000000000000000
0106307121052WUPETERL         4104652  2MIS/ NEW PAY0000000000000000000000000000000
0208307130409CAISX            4156533  2ACTG        0000000000000000000000000000000
0208407130634TYMUSEA          4216505  2TYMUSE C/B'S0000000000000000000000000000000
0208507131041RODRIGUESP       4163706  2RESTORE/STOR0000000000000000000000000000000
0208707131254RODRIGUESP       4163706  2RESTORE     0000000000000000000000000000000
0109107131347RODRIGUESP       4163706  2RESTORE     0000000000000000000000000000000
0211107141357RODRIGUESP       4163706  2MAGCON      0000000000000000000000000000000
0211207141359MAGNUMDB         7227132  3            0000000000000000000000000000000
0211107141357RODRIGUESP       4163706  2MAGCON      0070000020001000000000001830714
0211507141541RODRIGUESP       4163706  2RESTORE     0000000000000000000000000000000
0212207150001DANIELSR         1142734  0FILE SAVE   0000000000000000000000000000000
0212407150632TYMUSEA          4216505  2TYMUSE C/B'S0000000000000000000000000000000
0213007151125RODRIGUESP       4163706  2MAGCON      0000000000000000000000000000000
0213207151214MAGNUMDB         7227132  3MAGNUM DEBUG0000000000000000000000000000000
0215307171707CAIS             4146225  2ACTG        0000000000000000000000000000000
0215407171752CAISX            4156533  2ACTG        0000000000000000000000000000000
0215507171804CAISIX           4216364  2ACTG        0000000000000000000000000000000
0215907181156PAYROLL          4  4072  2MIS/ NEW PAY0000000000000000000000000000000
0216107181301PAYROLL          4  4072  2MIS/ NEW PAY0000000000000000000000000000000
0216207181302PAYROLL          4  4072  2MIS/ NEW PAY0000000000000000000000000000000
0216407181323PAYROLL          4  4072  2MIS/ NEW PAY0000000000000000000000000000000
0216207181302PAYROLL          4  4072  2MIS/ NEW PAY0050047750000000000000001830718
0218607191041RODRIGUESP       4163706  2RESTORE     0000000000000000000000000000000
0219907200603TYMUSEA          4216505  2TYMUSE C/B'S0000000000000000000000000000000
0121807211646WUPETERL         4104652  2MIS/ NEW TYM0000000000000000000000000000000
0121907211647WUPETERL         4104652  2MIS/ NEW COM0000000000000000000000000000000
0223007220847CAISX            4156533  2ACTG        0000000000000000000000000000000
0223307221401TYMUSEA          4216505  2TYMUSE C/B'S0000000000000000000000000000000
0223707221535CAISIX           4216364  2ACTG        0000000000000000000000000000000
0223907221651MAGNUMDB         7227132  3MAGNUM RELEA0000000000000000000000000000000
0224107221736MAGNUMDB         7227132  3MAGNUM RELEA0000000000000000000000000000000
0224507222028CAIS             4146225  2ACTG        0000000000000000000000000000000
0226207251205PAYROLL          4  4072  2MIS/ NEW PAY0000000000000000000000000000000
0226307251206PAYROLL          4  4072  2MIS/ NEW PAY0000000000000000000000000000000
0226607251305RODRIGUESP       4163706  2RESTORE     0000000000000000000000000000000
0227107251639STRONACHJ        4225251  2ACTG        0000000000000000000000000000000
0229007261348FRANK            4111413  2FILE RECOVER0000000000000000000000000000000
0230107270627TYMUSEA          4216505  2TYMUSE C/B'S0000000000000000000000000000000
0230207271104TNE01SUP     21512174646129NONE        0000000000000000000000000000000
0231407271639CARRELLA         4162621  2RESTORE     0000000000000000000000000000000
0231807271729CAISIX           4216364  2ACTG        0000000000000000000000000000000
0232207271753CAIS             4146225  2ACTG        0000000000000000000000000000000
0232407272027CAISX            4156533  2ACTG        0000000000000000000000000000000
0232607280008CARRELLA         4162621  2CARRELLA    0000000000000000000000000000000
0233007280936UIS              4125553  2VERTEX MAGCO0000000000000000000000000000000
0233507281027RJK              4   130  2CRPEOM.JUL  0000000000000000000000000000000
0235607291146RJK              4   130  2SSREOM.JUL  0000000000000000000000000000000
0236907300008STRONACHJ        4225251  2APACCT      0000000000000000000000000000000
0237107300801TYMUSEA          4216505  2TYMUSE C/B'S0000000000000000000000000000000
0238508010942BILLING10        1 44355  2BSATFR.JUL  0000000000000000000000000000000
0238808011131MAGNUMDB         7227132  3RESTORAL OF 0000000000000000000000000000000
0238908011145MAGNUMDB         7227132  3RESTORE DIR 0000000000000000000000000000000
0239008011157PAYROLL          4  4072  2MIS/ NEW PAY0000000000000000000000000000000
0239208011235PAYROLL          4  4072  2MIS/ NEW PAY0000000000000000000000000000000
0239308011236PAYROLL          4  4072  2MIS/ NEW PAY0000000000000000000000000000000
0239508011250PAYROLL          4  4072  2MIS/ NEW PAY0000000000000000000000000000000
0239908011506RJK              4   130  2PUH038.JUL  0000000000000000000000000000000
0240508011746TYMUSEA          4216505  2TYMUSE C/B'S0000000000000000000000000000000
0241108020040CAIS             4146225  2PRE370.JUL  0000000000000000000000000000000
0241508020855CAISIX           4216364  2PRE940.JUL  0000000000000000000000000000000
0242908021222CAISX            4156533  2PREPDP.JUL  0000000000000000000000000000000
0243308021317RJK              4   130  2TYMEOM.JUL  0000000000000000000000000000000
0143708021624FRANK            4111413  2MAGCON      0000000000000000000000000000000
0243808021633STRONACHJ        4225251  2MAGCON      0000000000000000000000000000000
0244208022114STRONACHJ        4225251  2MAGCON      0000000000000000000000000000000
0243808021633STRONACHJ        4225251  2MAGCON      0070000230001000000000001830802
0244208022114STRONACHJ        4225251  2MAGCON      0070000240002000000000002830802
0244508030235CARRELLA         4162621  2MAGCON      0000000000000000000000000000000
0244508030235CARRELLA         4162621  2MAGCON      0070000250001000000000001830803
0245208031003RJK              4   130  2ACTG        0000000000000000000000000000000
0245408031114FRANK            4111413  2MAGCON      0000000000000000000000000000000
0245508031140OLD940           4167655  2MAGCON      0000000000000000000000000000000
0245808031219FRANK            4111413  2MAGCON      0000000000000000000000000000000
0245408031114FRANK            4111413  2MAGCON      0070000230001000000000001830803
0245808031219FRANK            4111413  2MAGCON      0070000160001000000000001830803
0246508031350OLD370           4167654  2MAGCON      0000000000000000000000000000000
0248508031755MAGNUMDB         7227132  3MAGNUM RELEA0000000000000000000000000000000
0248608031759MAGNUMDB         7227132  3MAGNUM RELEA0000000000000000000000000000000
0248708031805MAGNUMDB         7227132  3MAGNUM SOURC0000000000000000000000000000000
0249108032253STRONACHJ        4225251  2MAGCON      0000000000000000000000000000000
0249708032319OLDPDP           4167653  2MAGCON      0000000000000000000000000000000
0249108032253STRONACHJ        4225251  2MAGCON      0070000170001000000000001830804
0251508040918PAYROLL          4  4072  2MIS/ TYMSHAR0000000000000000000000000000000
0151608040919PAYROLL          4  4072  2MIS/ TYMNET 0000000000000000000000000000000
0251708040922PAYROLL          4  4072  2MIS/ TYMNET 0000000000000000000000000000000
0252008041029PAYROLTYM    32173305551  2GL/PAYROLL  0000000000000000000000000000000
0252708041319CAISX            4156533  2WECO DETAIL 0000000000000000000000000000000
0252808041319CAISX            4156533  2WECEOM.JUL  0000000000000000000000000000000
0252908041351STRONACHJ        4225251  2ACTG        0000000000000000000000000000000
0253108041454RODRIGUESP       4163706  2MAGCON      0000000000000000000000000000000
0253208041456RODRIGUESP       4163706  2MAGCON      0000000000000000000000000000000
0253308041508FRANK            4111413  2MAGCON      0000000000000000000000000000000
0255008050021OLD370           4167654  2TSPISH.DET  0000000000000000000000000000000
0255108050022OLD370           4167654  2TSPMOC.SGL  0000000000000000000000000000000
0255208050028OLD370           4167654  2TSPNVO.NON  0000000000000000000000000000000
0255308050031OLD940           4167655  2PST940.JUL  0000000000000000000000000000000
0255408050031OLD940           4167655  2940 EOM-CENT0000000000000000000000000000000
0255008050021OLD370           4167654  2TSPISH.DET  0070000030001000000000001830805
0259408051214TNE01SUP     21512174646129WECO BILLING0000000000000000000000000000000
0259508051215TNE01SUP     21512174646129WECO BILLING0000000000000000000000000000000
0259608051216TNE01SUP     21512174646129FABS        0000000000000000000000000000000
0259708050923OLDPDP           4167653  2USPS DETAIL 0000000000000000000000000000000
0259808050929OLDPDP           4167653  2MAGCON      0000000000000000000000000000000
0260108050941OLDPDP           4167653  2STORE       0000000000000000000000000000000
0259708050923OLDPDP           4167653  2USPS DETAIL 0070000020001000000000001830805
0261808051301OLDPDP           4167653  2ACTG        0000000000000000000000000000000
0262308051340OLDPDP           4167653  2PSTPDP.JUL  0000000000000000000000000000000
0262408051341OLDPDP           4167653  2PDP EOM-CENT0000000000000000000000000000000
0263708051542AR.REP           4155047  2ACTG        0000000000000000000000000000000
0163908051640STRAUSSH     17514161135202MONTH END-A/0000000000000000000000000000000
0164008051649STRAUSSH     17514161135202MONTH END   0000000000000000000000000000000
0264108051650OLDPDP           4167653  2IRCS DETAIL 0000000000000000000000000000000
0264208051708STRAUSSH     17514161135202MONTH END A/0000000000000000000000000000000
0265308060718OLD370           4167654  2ARMISH.DET  0000000000000000000000000000000
0265308060718OLD370           4167654  2ARMISH.DET  0070000020002000000000002830806
0265808061111OLD370           4167654  2PST370.JUL  0000000000000000000000000000000
0265908061111OLD370           4167654  2370 EOM-CENT0000000000000000000000000000000
0259508051215TNE01SUP     21512174646129WECO BILLING0070000010001000000000001830807
0259408051214TNE01SUP     21512174646129WECO BILLING0070000010001000000000001830807
0268208080856RODRIGUESP       4163706  2RESTORE     0000000000000000000000000000000
0269108081222PAYROLL          4  4072  2MIS/ NEW PAY0000000000000000000000000000000
0269208081222PAYROLL          4  4072  2MIS/ NEW PAY0000000000000000000000000000000
0170008081813FSIEGEL          7314234  3            0000000000000000000000000000000
0272508090929FRANK            4111413  2FILES TO TAP0000000000000000000000000000000
0272608090930FRANK            4111413  2FILES TO TAP0000000000000000000000000000000
0272708090930MAGNUMDB         7227132  3RESTORE DEFS0000000000000000000000000000000
0273208091014RODRIGUESP       4163706  2RESTORE     0000000000000000000000000000000
0273308091016RODRIGUESP       4163706  2RESTORE     0000000000000000000000000000000
0274908091727DMOULTON         4220667  2            0000000000000000000000000000000
0276008100656TYMUSEA          4216505  2TYMUSE C/B'S0000000000000000000000000000000
0276408100818RODRIGUESP       4163706  2MAGCON      0000000000000000000000000000000
0276508100832RODRIGUESP       4163706  2RESTORE     0000000000000000000000000000000
0277308101032CAISIX           4216364  2ACTG        0000000000000000000000000000000
0277908101636SBILL1           4112057  2LIST        0000000000000000000000000000000
0278308101832CAIS             4146225  2ACTG        0000000000000000000000000000000
0277708101506CORPTEL          4144346  2            0 1     4 10000000      0830810
0278608102108CAISX            4156533  2ACTG        0000000000000000000000000000000
0278808110844OLDPDP           4167653  2RESTORE FILE0000000000000000000000000000000
0180608120937OLDPDP           4167653  2RECOVER FILE0000000000000000000000000000000
0280708120954RODRIGUESP       4163706  2RESTORE     0000000000000000000000000000000
0280908121047DEV370           4167662  2FILE RECOVER0000000000000000000000000000000
0283208150002DANIELSR         1142734  0FILE SAVE   0000000000000000000000000000000
0283908150914RODRIGUESP       4163706  2RESTORE     0000000000000000000000000000000
0284208151138PAYROLL          4  4072  2MIS/ NEW PAY0000000000000000000000000000000
0284408151146PAYROLL          4  4072  2MIS/ NEW PAY0000000000000000000000000000000
0284708151227PAYROLL          4  4072  2MIS/ NEW PAY0000000000000000000000000000000
0284808151229PAYROLL          4  4072  2MIS/ NEW PAY0000000000000000000000000000000
0289008170841FBATCH           1 77340  0STORE       0000000000000000000000000000000
0289508170816CAISX            4156533  2ACTG        0000000000000000000000000000000
0289608170854TYMUSEA          4216505  2TYMUSE C/B'S0000000000000000000000000000000
0290108171046CAISIX           4216364  2ACTG        0000000000000000000000000000000
0290708171323FRANK            4111413  2FILE RECOVER0000000000000000000000000000000
0290908171343CAIS             4146225  2ACTG        0000000000000000000000000000000
0292908181324RODRIGUESP       4163706  2MAGCON      0000000000000000000000000000000
0295308200525TYMUSEA          4216505  2TYMUSE C/B'S0000000000000000000000000000000
0296408221344FBATCH           1 77340  0RELEASE     0000000000000000000000000000000
0296808221213PAYROLTYM    32173305551  2MIS/ NEW PAY0000000000000000000000000000000
0296908221213PAYROLTYM    32173305551  2MIS/ NEW PAY0000000000000000000000000000000
0297408221501CAISIX           4216364  2ACTG        0000000000000000000000000000000
0297608221603CAIS             4146225  2ACTG        0000000000000000000000000000000
0298508221834CAISX            4156533  2ACTG        0000000000000000000000000000000
0200808240725TYMUSEA          4216505  2TYMUSE C/B'S0000000000000000000000000000000
0202808251058MAGNUMDB         7227132  3MAGNUM RELEA0000000000000000000000000000000
0203008251100MAGNUMDB         7227132  3MAGNUM SOURC0000000000000000000000000000000
0204908261640MAGNUMDB         7227132  3MAGNUM RELEA0000000000000000000000000000000
0205008261641MAGNUMDB         7227132  3MAGNUM SOURC0000000000000000000000000000000
0205708270633CAIS             4146225  2ACTG        0000000000000000000000000000000
0205808270703TYMUSEA          4216505  2TYMUSE C/B'S0000000000000000000000000000000
0205908270748CAISX            4156533  2ACTG        0000000000000000000000000000000
0206108270917CAISIX           4216364  2ACTG        0000000000000000000000000000000
0207208291225TNE01SUP     21512174646129NONE        0000000000000000000000000000000
0207708291130RJK              4   130  2SSREOM.AUG  0000000000000000000000000000000
0207908291231PAYROLL          4  4072  2MIS/ NEW PAY0000000000000000000000000000000
0208008291232PAYROLL          4  4072  2MIS/ NEW PAY0000000000000000000000000000000
0208308291246PAYROLL          4  4072  2MIS/ NEW PAY0000000000000000000000000000000
0208508291255PAYROLL          4  4072  2MIS/ NEW PAY0000000000000000000000000000000
0208908291610MAGNUMDB         7227132  3MAGNUM RELEA0000000000000000000000000000000
0210108300833UIS              4125553  2VERTEX MAGCO0000000000000000000000000000000
0211208301420FRANK            4111413  2FILES TO TAP0000000000000000000000000000000
0111608302018TYMACS       37456112315 46PAX         0000000000000000000000000000000
0212408311000TYMUSEA          4216505  2TYMUSE C/B'S0000000000000000000000000000000
0213408311437RJK              4   130  2CRPEOM.AUG  0000000000000000000000000000000
0214008311639MAGNUMDB         7227132  3MAGNUM RELEA0000000000000000000000000000000
0214709010957MAGNUMDB         7227132  3MAGNUM INF  0000000000000000000000000000000
0214809011120RJK              4   130  2ACTG        0000000000000000000000000000000
0215009011140BILLING10        1 44355  2BSATFR.AUG  0000000000000000000000000000000
0215309011255MAGNUMDB         7227132  3MAGNUM RELEA0000000000000000000000000000000
0215509011303MAGNUMDB         7227132  3MAGNUM RELEA0000000000000000000000000000000
0215609011339RJK              4   130  2PUH038.AUG  0000000000000000000000000000000
0215309011255MAGNUMDB         7227132  3MAGNUM RELEA0050000270000000000000001830901
0216209011558MAGNUMDB         7227132  3MAGNUM SOURC0000000000000000000000000000000
0216509011640MAGNUMDB         7227132  3MAGNUM RELEA0000000000000000000000000000000
0217709020639CAISIX           4216364  2PRE940.AUG  0000000000000000000000000000000
0219209021137PAYROLL          4  4072  2MIS/ TYMSHAR0000000000000000000000000000000
0219309021139PAYROLL          4  4072  2MIS/ NEW TYM0000000000000000000000000000000
0219409021143PAYROLL          4  4072  2MIS/ TYMNET 0000000000000000000000000000000
0219609021222PAYROLL          4  4072  2MIS/ NEW PAY0000000000000000000000000000000
0219709021223PAYROLL          4  4072  2MIS/ NEW PAY0000000000000000000000000000000
0220009021345RODRIGUESP       4163706  2PRE370.AUG  0000000000000000000000000000000
0216509011640MAGNUMDB         7227132  3MAGNUM RELEA0050004500000000000000001830902
0120109021349CAISIX           4216364  2MAGCON      0000000000000000000000000000000
0220209021351CAISIX           4216364  2MAGCON      0000000000000000000000000000000
0220409021504PAYROLTYM    32173305551  2MIS/ NEW TYM0000000000000000000000000000000
0220609021514TYMUSEA          4216505  2TYMUSE C/B'S0000000000000000000000000000000
0220809021616FRANK            4111413  2FILES TO TAP0000000000000000000000000000000
0220209021351CAISIX           4216364  2MAGCON      0070000230001000000000001830902
0221409021747CAISX            4156533  2PREPDP.AUG  0000000000000000000000000000000
0221809030732CAISX            4156533  2MAGCON      0000000000000000000000000000000
0221909030812RJK              4   130  2TYMEOM.AUG  0000000000000000000000000000000
0222009030937FRANK            4111413  2MAGCON      0000000000000000000000000000000
0222109030953OLD940           4167655  2MAGCON      0000000000000000000000000000000
0221809030732CAISX            4156533  2MAGCON      0070000230001000000000001830903
0223109031213FRANK            4111413  2MAGCON      0000000000000000000000000000000
0223109031213FRANK            4111413  2MAGCON      0070000290001000000000002830903
0223309031412SDERRY           7204374  3MAGNUM      0000000000000000000000000000000
0223909032039OLD370           4167654  2MAGCON      0000000000000000000000000000000
0224109032116OLDPDP           4167653  2MAGCON      0000000000000000000000000000000
0224609032208OLDPDP           4167653  2MAGCON      0000000000000000000000000000000
0224909032249STRONACHJ        4225251  2MAGCON      0000000000000000000000000000000
0224109032116OLDPDP           4167653  2MAGCON      0070000200001000000000001830904
0224909032249STRONACHJ        4225251  2MAGCON      0070000150001000000000001830904
0227209041213FRANK            4111413  2MAGCON      0000000000000000000000000000000
0227309041216FRANK            4111413  2MAGCON      0000000000000000000000000000000
0227409041221FRANK            4111413  2MAGCON      0000000000000000000000000000000
0228009041350OLDPDP           4167653  2AUG83       0000000000000000000000000000000
0229209041507CAISX            4156533  2WECO DETAIL 0000000000000000000000000000000
0229309041508CAISX            4156533  2WECEOM.AUG  0000000000000000000000000000000
0228009041350OLDPDP           4167653  2AUG83       0070000020001000000000001830904
0229209041507CAISX            4156533  2WECO DETAIL 0070000030001000000000001830904
0230309042057OLD370           4167654  2TSPISH.DET  0000000000000000000000000000000
0230409042058OLD370           4167654  2ACTG        0000000000000000000000000000000
0231209042131OLD370           4167654  2TSPMOC.SGL  0000000000000000000000000000000
0230309042057OLD370           4167654  2TSPISH.DET  0070000030001000000000001830905
0230409042058OLD370           4167654  2ACTG        0070000030001000000000001830905
0233809050621OLDPDP           4167653  2USPS DETAIL 0000000000000000000000000000000
0234009050626OLDPDP           4167653  2USPS INVOICE0000000000000000000000000000000
0234109050627OLDPDP           4167653  2USPS MOVE   0000000000000000000000000000000
0233809050621OLDPDP           4167653  2USPS DETAIL 0070000020001000000000001830905
0235609050944OLDPDP           4167653  2ACTG        0000000000000000000000000000000
0236009051112FRANK            4111413  2PSTPDP.AUG  0000000000000000000000000000000
0236109051114FRANK            4111413  2PDP EOM-CENT0000000000000000000000000000000
0236209051556RODRIGUESP       4163706  2PST940.AUG  0000000000000000000000000000000
0236309051556RODRIGUESP       4163706  2940 EOM-CENT0000000000000000000000000000000
0236909052253OLD370           4167654  2ARMISH.DET  0000000000000000000000000000000
0237309060949FBATCH           1 77340  0STORE       0000000000000000000000000000000
0237509060109OLD370           4167654  2PST370.AUG  0000000000000000000000000000000
0237609060109OLD370           4167654  2370 EOM-CENT0000000000000000000000000000000
0236909052253OLD370           4167654  2ARMISH.DET  0070000020002000000000002830906
0238909060833STRAUSSH     17514161135202MONTH END A/0000000000000000000000000000000
0239909061230TNE01SUP     21512174646129WECO BILLING0000000000000000000000000000000
0240009061232TNE01SUP     21512174646129WECO BILLING0000000000000000000000000000000
0240109061233TNE01SUP     21512174646129FABS        0000000000000000000000000000000
0240509061119RODRIGUESP       4163706  2GL/PAYROLL  0000000000000000000000000000000
0239909061230TNE01SUP     21512174646129WECO BILLING0070000010001000000000001830906
0240009061232TNE01SUP     21512174646129WECO BILLING0070000010001000000000001830906
0242109061710OLDPDP           4167653  2IRCS DETAIL 0000000000000000000000000000000
0242209061711OLDPDP           4167653  2IRCS INVOICE0000000000000000000000000000000
0146209070849STRONACHJ        4225251  2ACTG        0000000000000000000000000000000
0246609071037TYMCSTACT    41674123661  2SAVE CST ALL0000000000000000000000000000000
0249709081052MAGNUMDB         7227132  3MAGNUM RELEA0000000000000000000000000000000
0149809081247MAGNUMDB         7227132  3MAGNUM RELEA0000000000000000000000000000000
0249709081052MAGNUMDB         7227132  3MAGNUM RELEA0050000270000000000000001830908
0251909090746TYMUSEA          4216505  2TYMUSE C/B'S0000000000000000000000000000000
0252209090948SBILL1           4112057  2LIST        0000000000000000000000000000000
0252809091557STRONACHJ        4225251  2ACTG        0000000000000000000000000000000
0254809111618CAISIX           4216364  2ACTG        0000000000000000000000000000000
0255009111638CAIS             4146225  2ACTG        0000000000000000000000000000000
0255409111827CAISX            4156533  2ACTG        0000000000000000000000000000000
0255909121028TYMACS       37456112315 46PAX         0000000000000000000000000000000
0255909121028TYMACS       37456112315 46PAX         0070000010001000000000001830912
0256709121158PAYROLL          4  4072  2MIS/ NEW PAY0000000000000000000000000000000
0256909121238PAYROLL          4  4072  2MIS/ NEW PAY0000000000000000000000000000000
0257009121239PAYROLL          4  4072  2MIS/ NEW PAY0000000000000000000000000000000
0257209121251PAYROLL          4  4072  2MIS/ NEW PAY0000000000000000000000000000000
0258909130822TYMCSTACT    41674123661  2STORE COST A0000000000000000000000000000000
0259109130911STRAUSSH     17514161135202MONTH END A/0000000000000000000000000000000
0259409131108TYMUSEA          4216505  2TYMUSE C/B'S0000000000000000000000000000000
0260909141033MAGNUMDB         7227132  3MAGNUM RELEA0000000000000000000000000000000
0260909141033MAGNUMDB         7227132  3MAGNUM RELEA0050000270000000000000001830914
0261809150000DANIELSR         1142734  0FILE SAVE   0000000000000000000000000000000
0263009161615TYMCSTACT    41674123661  2STORE COST A0000000000000000000000000000000
0263409161634CAISIX           4216364  2ACTG        0000000000000000000000000000000
0263909170132CAISX            4156533  2ACTG        0000000000000000000000000000000
0264109170210CAIS             4146225  2ACTG        0000000000000000000000000000000
0264309170730TYMUSEA          4216505  2TYMUSE C/B'S0000000000000000000000000000000
0265709191059PAYROLTYM    32173305551  2GL/PAYROLL  0000000000000000000000000000000
0266209191224PAYROLL          4  4072  2MIS/ NEW PAY0000000000000000000000000000000
0266309191225PAYROLL          4  4072  2MIS/ NEW PAY0000000000000000000000000000000
0267909200950MAGNUMDB         7227132  3MAGNUM RELEA0000000000000000000000000000000
0268009200953MAGNUMDB         7227132  3MAGNUM SOURC0000000000000000000000000000000
0268509201028MAGNUMDB         7227132  3MAGNUM RELEA0000000000000000000000000000000
0269009201125STRONACHJ        4225251  2ACTG        0000000000000000000000000000000
0270909211716TYMCSTACT    41674123661  2STORE COST A0000000000000000000000000000000
0273109221432PLEEVER          4266254  2            0000000000000000000000000000000
0273409221600CAISIX           4216364  2ACTG        0000000000000000000000000000000
0273909221922CAISX            4156533  2ACTG        0000000000000000000000000000000
0274209230115CAIS             4146225  2ACTG        0000000000000000000000000000000
0275409231809MAGNUMDB         7227132  3MAGNUM QA RE0000000000000000000000000000000
0275509231812MAGNUMDB         7227132  3MAGNUM RELEA0000000000000000000000000000000
0276309241023TYMUSEA          4216505  2TYMUSE C/B'S0000000000000000000000000000000
0277909261153PAYROLL          4  4072  2MIS/ NEW PAY0000000000000000000000000000000
0278109261203PAYROLL          4  4072  2MIS/ NEW PAY0000000000000000000000000000000
0278309261238PAYROLL          4  4072  2MIS/ NEW PAY0000000000000000000000000000000
0278409261238PAYROLL          4  4072  2MIS/ NEW PAY0000000000000000000000000000000
0278609261459UAS              4125552  2FILE RECOVER0000000000000000000000000000000
0279409270122CAISIX           4216364  2ACTG        0000000000000000000000000000000
0279809270456CAIS             4146225  2ACTG        0000000000000000000000000000000
0280109270534CAISX            4156533  2ACTG        0000000000000000000000000000000
0280609271023RJK              4   130  2CRPEOM.SEP  0000000000000000000000000000000
0282409281425TYMCSTACT    41674123661  2STORE COST A0000000000000000000000000000000
0282509280737TYMUSEA          4216505  2TYMUSE C/B'S0000000000000000000000000000000
0282809281117TNE01SUP     21512174646129NONE        0000000000000000000000000000000
0283109281001FRANK            4111413  2INV FILE TO 0000000000000000000000000000000
0283209281049RJK              4   130  2SSREOM.SEP  0000000000000000000000000000000
0283409281153PAYROLL          4  4072  2FILES TO TAP0000000000000000000000000000000
0284609290943UIS              4125553  2VERTEX MAGCO0000000000000000000000000000000
0286809301316PAYROLL          4  4072  2FILES TO TAP0000000000000000000000000000000
0287509301621FRANK            4111413  2FILES TO TAP0000000000000000000000000000000
0288310010948BILLING10        1 44355  2BSATFR.SEP  0000000000000000000000000000000
0288510011708TYMUSEA          4216505  2TYMUSE C/B'S0000000000000000000000000000000
0290410021402CAISIX           4216364  2PRE940.SEP  0000000000000000000000000000000
0290510021402CAIS             4146225  2PRE370.SEP  0000000000000000000000000000000
0290910021719UAS              4125552  2PUH038.SEP  0000000000000000000000000000000
0191010021931CAISX            4156533  2PREPDP.SEP  0000000000000000000000000000000
0291110021954RODRIGUESP       4163706  2MAGCON      0000000000000000000000000000000
0291210022117RODRIGUESP       4163706  2PREPDP.SEP  0000000000000000000000000000000
0291110021954RODRIGUESP       4163706  2MAGCON      0070000220001000000000001831002
0291610030950STRONACHJ        4225251  2MAGCON      0000000000000000000000000000000
0291710030952STRONACHJ        4225251  2MAGCON      0000000000000000000000000000000
0292010031111STRONACHJ        4225251  2ACTG        0000000000000000000000000000000
0292210031238PAYROLL          4  4072  2MIS/ NEW PAY0000000000000000000000000000000
0292310031238PAYROLL          4  4072  2MIS/ NEW PAY0000000000000000000000000000000
0292810031438STRONACHJ        4225251  2TYMEOM.SEP  0000000000000000000000000000000
0291610030950STRONACHJ        4225251  2MAGCON      0070000240002000000000002831003
0296010032120RODRIGUESP       4163706  2MAGCON      0000000000000000000000000000000
0296310040028OLD370           4167654  2MAGCON      0000000000000000000000000000000
0296410040057OLD370           4167654  2MAGCON      0000000000000000000000000000000
0296010032120RODRIGUESP       4163706  2MAGCON      0070000160001000000000001831004
0296310040028OLD370           4167654  2MAGCON      0070000170001000000000001831004
0298010040306OLDPDP           4167653  2MAGCON      0000000000000000000000000000000
0298010040306OLDPDP           4167653  2MAGCON      0070000210001000000000001831004
0200210041341WUPETERL         4104652  2PAYROLL ACTI0000000000000000000000000000000
0201610041805CAISX            4156533  2WECO DETAIL 0000000000000000000000000000000
0201710041806CAISX            4156533  2WECEOM.SEP  0000000000000000000000000000000
0202310041939CAISX            4156533  2MAGCON      0000000000000000000000000000000
0204510050759OLD940           4167655  2PST940.SEP  0000000000000000000000000000000
0204610050759OLD940           4167655  2940 EOM-CENT0000000000000000000000000000000
0205210050830OLD370           4167654  2TSPISH.DET  0000000000000000000000000000000
0205310050832OLD370           4167654  2TSP INVOICES0000000000000000000000000000000
0205910050912OLD370           4167654  2TSPMOC.SGL  0000000000000000000000000000000
0206310050934FRANK            4111413  2MAGCON      0000000000000000000000000000000
0206410050937FRANK            4111413  2MAGCON      0000000000000000000000000000000
0206510050940FRANK            4111413  2MAGCON      0000000000000000000000000000000
0206610051014PAYROLTYM    32173305551  2GL/PAYROLL  0000000000000000000000000000000
0205210050830OLD370           4167654  2TSPISH.DET  0070000030001000000000001831005
0209010051323OLD370           4167654  2SEP83 370 US0000000000000000000000000000000
0210710051540STRONACHJ        4225251  2IRCS DETAIL 0000000000000000000000000000000
0210910051549STRONACHJ        4225251  2ACTG        0000000000000000000000000000000
0211310051814OLDPDP           4167653  2USPS INVOICE0000000000000000000000000000000
0211410051814OLDPDP           4167653  2USPS DETAIL 0000000000000000000000000000000
0211610051823OLDPDP           4167653  2STORE       0000000000000000000000000000000
0211710051825OLDPDP           4167653  2PSTPDP.SEP  0000000000000000000000000000000
0211810051826OLDPDP           4167653  2PDP EOM-CENT0000000000000000000000000000000
0211310051814OLDPDP           4167653  2USPS INVOICE0070000020001000000000001831005
0211410051814OLDPDP           4167653  2USPS DETAIL 0070000020001000000000001831005
0215910061226TYMCOSTACTG  41674123661  2STORE COST A0000000000000000000000000000000
0216010061533FBATCH           1 77340  0STORE       0000000000000000000000000000000
0216110061129TNE01SUP     21512174646129WECO BILLING0000000000000000000000000000000
0216210061130TNE01SUP     21512174646129WECO BILLING0000000000000000000000000000000
0116510061132TNE01SUP     21512174646129WECO BILLING0000000000000000000000000000000
0216610061139TNE01SUP     21512174646129A           0000000000000000000000000000000
0216710060916FRANK            4111413  2FILES TO TAP0000000000000000000000000000000
0216110061129TNE01SUP     21512174646129WECO BILLING0070000010001000000000000831006
0216210061130TNE01SUP     21512174646129WECO BILLING0070000010001000000000001831006
0116810061315TNE01SUP     21512174646129WECO  BILLIN0000000000000000000000000000000
0217010061002PAYROLL          4  4072  2RELEASE TAPE0000000000000000000000000000000
0217110061040STRONACHJ        4225251  2ACTG        0000000000000000000000000000000
0217210061057PAYROLL          4  4072  2RELEASE TAPE0000000000000000000000000000000
0218110061410OLDPDP           4167653  2PSTPDP.SEP  0000000000000000000000000000000
0218210061411OLDPDP           4167653  2PDP EOM-CENT0000000000000000000000000000000
0119510062121OLD370           4167654  2ARMISH.DET  0000000000000000000000000000000
0219610062122OLD370           4167654  2ARMISH.DET  0000000000000000000000000000000
0220210070837OLD370           4167654  2ACTG        0000000000000000000000000000000
0221110070944AR.REP           4155047  2ACTG        0000000000000000000000000000000
0219610062122OLD370           4167654  2ARMISH.DET  0070000020001000000000002831007
0221910071403STRONACHJ        4225251  2PST370.SEP  0000000000000000000000000000000
0222010071414STRONACHJ        4225251  2370 EOM-CENT0000000000000000000000000000000
0222110071604STRAUSSH     17514161135202AR MONTHEND 0000000000000000000000000000000
0222210071604RODRIGUESP       4163706  2MAGCON      0000000000000000000000000000000
0222210071604RODRIGUESP       4163706  2MAGCON      0070000400001000000000001831007
0223010081621TYMUSEA          4216505  2TYMUSE C/B'S0000000000000000000000000000000
0224710100935RODRIGUESP       4163706  2RESTORE     0000000000000000000000000000000
0224910101202PAYROLL          4  4072  2MIS/ NEW PAY0000000000000000000000000000000
0225110101208PAYROLL          4  4072  2MIS/ NEW PAY0000000000000000000000000000000
0225310101247PAYROLL          4  4072  2MIS/ NEW PAY0000000000000000000000000000000
0225410101248PAYROLL          4  4072  2MIS/ NEW PAY0000000000000000000000000000000
0226010101522VINV         175141611342021979 ISSUES 0000000000000000000000000000000
0226810111137FBATCH           1 77340  0STORE       0000000000000000000000000000000
0227410111118TYMUSEA          4216505  2TYMUSE C/B'S0000000000000000000000000000000
0229210111631CAIS             4146225  2ACTG        0000000000000000000000000000000
0229310111635CAISIX           4216364  2ACTG        0000000000000000000000000000000
0229910121433TYMCOSTACTG  41674123661  2STORE COST A0000000000000000000000000000000
0230210120923CAISX            4156533  2ACTG        0000000000000000000000000000000
0230610121457SBILL1           4112057  2LIST        0000000000000000000000000000000
0231210121754CARRELLA         4162621  2RESTORE     0000000000000000000000000000000
0231610131257WUPETERL         4104652  2PAYROLL ACTI0000000000000000000000000000000
0232310131748MAGNUMDB         7227132  3MAGNUM RELEA0000000000000000000000000000000
0232410131751MAGNUMDB         7227132  3MAGNUM RELEA0000000000000000000000000000000
0232610131755MAGNUMDB         7227132  3MAGNUM SOURC0000000000000000000000000000000
0234010142359DANIELSR         1142734  0FILE SAVE   0000000000000000000000000000000
0234110150732TYMUSEA          4216505  2TYMUSE C/B'S0000000000000000000000000000000
0235010161743CAISIX           4216364  2ACTG        0000000000000000000000000000000
0235310162339CAIS             4146225  2ACTG        0000000000000000000000000000000
0235710170754CAISX            4156533  2ACTG        0000000000000000000000000000000
0236010170933STRONACHJ        4225251  2ACTG        0000000000000000000000000000000
0236310171226PAYROLL          4  4072  2MIS/ NEW PAY0000000000000000000000000000000
0236410171227PAYROLL          4  4072  2MIS/ NEW PAY0000000000000000000000000000000
0236810171610WUPETERL         4104652  2MIS/ NEW PAY0000000000000000000000000000000
0238510181433FRANK            4111413  2FILES TO TAP0000000000000000000000000000000
0239610190642TYMUSEA          4216505  2TYMUSE C/B'S0000000000000000000000000000000
0240610201618TYMCOSTACTG  41674123661  2STORE COST A0000000000000000000000000000000
0140910201021PAYROLL          4  4072  2MIS/ NEW TYM0000000000000000000000000000000
0243910220714CAIS             4146225  2ACTG        0000000000000000000000000000000
0244010220835TYMUSEA          4216505  2TYMUSE C/B'S0000000000000000000000000000000
0244110220913CAISX            4156533  2ACTG        0000000000000000000000000000000
0244310221018CAISIX           4216364  2ACTG        0000000000000000000000000000000
0145010241114MAGNUMDB         7227132  3RESTORAL OF 0000000000000000000000000000000
0245210241125MAGNUMDB         7227132  3RESTORAL OF 0000000000000000000000000000000
0245510241151PAYROLL          4  4072  2MIS/ NEW PAY0000000000000000000000000000000
0245710241159PAYROLL          4  4072  2MIS/ NEW PAY0000000000000000000000000000000
0245910241233PAYROLL          4  4072  2MIS/ NEW PAY0000000000000000000000000000000
0246010241234PAYROLL          4  4072  2MIS/ NEW PAY0000000000000000000000000000000
0247910251407MAGNUMDB         7227132  3RESTORAL OF 0000000000000000000000000000000
0248610260620TYMUSEA          4216505  2TYMUSE C/B'S0000000000000000000000000000000
0248710261028TNE01SUP     21512174646129NONE        0000000000000000000000000000000
0249210261049FRANK            4111413  2RELEASE TAPE0000000000000000000000000000000
0249510261156STRAUSSH     17514161135202RESTORE     0000000000000000000000000000000
0149610261743TYMACS       37456112315 46PAX         0000000000000000000000000000000
0251410271941CAISIX           4216364  2ACTG        0000000000000000000000000000000
0251610272029CAIS             4146225  2ACTG        0000000000000000000000000000000
0251810272307CAISX            4156533  2ACTG        0000000000000000000000000000000
0251910280745TYMCOSTACTG  41674123661  2STORE COST A0000000000000000000000000000000
0252010280802UAS              4125552  2RESTORE FROM0000000000000000000000000000000
0252910290945TYMUSEA          4216505  2TYMUSE C/B'S0000000000000000000000000000000
0253210291517RJK              4   130  2SSREOM.OCT  0000000000000000000000000000000
0254010310942TYMACS       37456112315 46ARMY FILES  0000000000000000000000000000000
0254210310909UIS              4125553  2VERTEX MAGCO0000000000000000000000000000000
0254410310928RJK              4   130  2CRPEOM.OCT  0000000000000000000000000000000
0254710311052PAYROLTYM    32173305551  2G/L TEST    0000000000000000000000000000000
0254910311220PAYROLL          4  4072  2MIS/ NEW PAY0000000000000000000000000000000
0255010311222PAYROLL          4  4072  2MIS/ NEW PAY0000000000000000000000000000000
0255210311233PAYROLL          4  4072  2MIS/ TYMNET 0000000000000000000000000000000
0254010310942TYMACS       37456112315 46ARMY FILES  0050000070000000000000003831031
0256410312225RODRIGUESP       4163706  2RESTORE     0000000000000000000000000000000
0256711010913TYMCOSTACTG  41674123661  2STORE COST A0000000000000000000000000000000
0256811010932BILLING10        1 44355  2BSATFR.OCT  0000000000000000000000000000000
0257011011013RJK              4   130  2PUH038.OCT  0000000000000000000000000000000
0257211011026RJK              4   130  2ACTG        0000000000000000000000000000000
0259411020510CAISIX           4216364  2PRE940.OCT  0000000000000000000000000000000
0259511020530TYMUSEA          4216505  2TYMUSE C/B'S0000000000000000000000000000000
0260211020749TYMCOSTACTG  41674123661  2STORE COST A0000000000000000000000000000000
0260611020915FRANK            4111413  2FILES TO TAP0000000000000000000000000000000
0260711020916FRANK            4111413  2INV FILE TO 0000000000000000000000000000000
0261511021346FRANK            4111413  2MAGCON      0000000000000000000000000000000
0261611021356CAIS             4146225  2PRE370.OCT  0000000000000000000000000000000
0262711030713OLD940           4167655  2MAGCON      0000000000000000000000000000000
0262911030723OLD940           4167655  2MAGCON      0000000000000000000000000000000
0262711030713OLD940           4167655  2MAGCON      0070000150001000000000001831103
0264411030842CAISX            4156533  2PREPDP.OCT  0000000000000000000000000000000
0264511030956FRANK            4111413  2MAGCON      0000000000000000000000000000000
0264511030956FRANK            4111413  2MAGCON      0070000260001000000000002831103
0165011031625FRANK            4111413  2FILES TO TAP0000000000000000000000000000000
0265111031636FRANK            4111413  2FILES TO TAP0000000000000000000000000000000
0265411031657FRANK            4111413  2FILES TO TAP0000000000000000000000000000000
0266111032135STRONACHJ        4225251  2MAGCON      0000000000000000000000000000000
0266511032252OLD370           4167654  2MAGCON      0000000000000000000000000000000
0266611032313OLD370           4167654  2MAGCON      0000000000000000000000000000000
0266111032135STRONACHJ        4225251  2MAGCON      0070000200001000000000001831104
0266511032252OLD370           4167654  2MAGCON      0070000180001000000000001831104
0268011041205FRANK            4111413  2MAGCON      0000000000000000000000000000000
0268211041225OLDPDP           4167653  2MAGCON      0000000000000000000000000000000
0268611041354FRANK            4111413  2TYMEOM.OCT  0000000000000000000000000000000
0268011041205FRANK            4111413  2MAGCON      0070000240001000000000001831104
0270011041620STRAUSSH     17514161135202AR MONTHEND 0000000000000000000000000000000
0271211050926FRANK            4111413  2FILES TO TAP0000000000000000000000000000000
0271311050938FRANK            4111413  2MAGCON      0000000000000000000000000000000
0271411050942FRANK            4111413  2MAGCON      0000000000000000000000000000000
0271511050947FRANK            4111413  2MAGCON      0000000000000000000000000000000
0271211050926FRANK            4111413  2FILES TO TAP0070000020001000000000001831105
0272011051206WECOPROD         4207133  2OCT83       0000000000000000000000000000000
0272111051213FRANK            4111413  2WECEOM.OCT  0000000000000000000000000000000
0173011051946OLD370           4167654  2ARMISH.DET  0000000000000000000000000000000
0273111051948OLD370           4167654  2ARMISH.DET  0000000000000000000000000000000
0273111051948OLD370           4167654  2ARMISH.DET  0070000020002000000000002831105
0273811052110OLD370           4167654  2TSPISH.DET  0000000000000000000000000000000
0273911052111OLD370           4167654  2TSP INVOICES0000000000000000000000000000000
0274111052116OLDPDP           4167653  2PST940.OCT  0000000000000000000000000000000
0274611052153OLD370           4167654  2TSPMOC.SGL  0000000000000000000000000000000
0273811052110OLD370           4167654  2TSPISH.DET  0070000030001000000000001831105
0276211060337OLDPDP           4167653  2USPS INVOICE0000000000000000000000000000000
0276311060338OLDPDP           4167653  2USPS DETAIL 0000000000000000000000000000000
0277011060413OLDPDP           4167653  2PSTPDP.OCT  0000000000000000000000000000000
0277111060414OLDPDP           4167653  2PDP EOM-CENT0000000000000000000000000000000
0276311060338OLDPDP           4167653  2USPS DETAIL 0070000020001000000000001831106
0277311060713OLD370           4167654  2ACTG        0000000000000000000000000000000
0279011060848OLD370           4167654  2PST370.OCT  0000000000000000000000000000000
0279111060849OLD370           4167654  2370 EOM-CENT0000000000000000000000000000000
0283411071726FBATCH           1 77340  0STORE       0000000000000000000000000000000
0284011071025RODRIGUESP       4163706  2GL/PAYROLL  0000000000000000000000000000000
0284111071402TNE01SUP     21512174646129FABS        0000000000000000000000000000000
0284611071159PAYROLL          4  4072  2MIS/ NEW PAY0000000000000000000000000000000
0285211071543TNE01SUP     21512174646129WECO BILLING0000000000000000000000000000000
0285311071543TNE01SUP     21512174646129WECO BILLING0000000000000000000000000000000
0285411071249PAYROLL          4  4072  2MIS/ NEW PAY0000000000000000000000000000000
0285511071250PAYROLL          4  4072  2MIS/ NEW PAY0000000000000000000000000000000
0185911071315PAYROLL          4  4072  2MIS/ NEW PAY0000000000000000000000000000000
0186011071317PAYROLL          4  4072  2MIS/ NEW PAY0000000000000000000000000000000
0286211071330PAYROLNET    32173305547  2PAYROLNET/  0000000000000000000000000000000
0285211071543TNE01SUP     21512174646129WECO BILLING0070000010001000000000001831107
0287211071428OLDPDP           4167653  2ACTG        0000000000000000000000000000000
0287311071432OLDPDP           4167653  2IRCS DETAIL 0000000000000000000000000000000
0285311071543TNE01SUP     21512174646129WECO BILLING0070000010001000000000001831107
0292311081152AR.REP           4155047  2ACTG        0000000000000000000000000000000
0192511081356MAGNUMDB         7227132  3MAGNUM RELEA0000000000000000000000000000000
0192611081403MAGNUMDB         7227132  3MAGNUM SOURC0000000000000000000000000000000
0294711091444MAGNUMDB         7227132  3MAGNUM RELEA0000000000000000000000000000000
0295911100855TYMUSEA          4216505  2TYMUSE C/B'S0000000000000000000000000000000
0296411101638TNE01SUP     21512174646129            0000000000000000000000000000000
0296411101638TNE01SUP     21512174646129            0050000030000000000000001831110
0297411110808STRAUSSH     17514161135202RESTORE     0000000000000000000000000000000
0297711110852FRANK            4111413  2FILE RECOVER0000000000000000000000000000000
0297811110946MAGNUMDB         7227132  3            0000000000000000000000000000000
0298011111725MAGNUMDB         7227132  3MAGNUM RELEA0000000000000000000000000000000
0298111111728MAGNUMDB         7227132  3MAGNUM SOURC0000000000000000000000000000000
0298611112310CAISIX           4216364  2ACTG        0000000000000000000000000000000
0298911121939CAIS             4146225  2ACTG        0000000000000000000000000000000
0299011122113CAISX            4156533  2ACTG        0000000000000000000000000000000
0200111141053STRONACHJ        4225251  2RESTORE     0000000000000000000000000000000
0200211141221PAYROLL          4  4072  2MIS/ NEW PAY0000000000000000000000000000000
0200311141222PAYROLL          4  4072  2MIS/ NEW PAY0000000000000000000000000000000
0200711141321STRONACHJ        4225251  2RESTORE     0000000000000000000000000000000
0200811141329SBILL1           4112057  2            0000000000000000000000000000000
0200911141338RODRIGUESP       4163706  2RESTORE     0000000000000000000000000000000
0201411141553RODRIGUESP       4163706  2MAGCON      0000000000000000000000000000000
0202111150502DANIELSR         1142734  0FILE SAVE   0000000000000000000000000000000
0202311150931RODRIGUESP       4163706  2RESTORE     0000000000000000000000000000000
0202811151034MAGNUMDB         7227132  3MAGNUM RESTO0000000000000000000000000000000
0202911151504RODRIGUESP       4163706  2MAGCON      0000000000000000000000000000000
0202911151504RODRIGUESP       4163706  2MAGCON      0050000210000000000000001831115
0204211161732MAGNUMDB         7227132  3TERMINAL TAB0000000000000000000000000000000
0205011170700CAISIX           4216364  2ACTG        0000000000000000000000000000000
0205211171014CAISX            4156533  2ACTG        0000000000000000000000000000000
0205311171141PAYROLL          4  4072  2MIS/ NEW PAY0000000000000000000000000000000
0205611171237PAYROLL          4  4072  2MIS/ NEW PAY0000000000000000000000000000000
0205711171237PAYROLL          4  4072  2MIS/ NEW PAY0000000000000000000000000000000
