2574211031827CATECH      044054251263229            0 9     8    14104      0861103
2574511040905CNFE        011020136151  3            0 9    14    14800      0861104
2574411041129TOOMEYF     044060312407229L           0 9   681  1187621      0861104
2574611040948ACHIPPA     021476406217229            0 9    70   110822      0861104
2574711041426ENFE        011020136364  3            0 9     9     9600      0861104
2574110311417TYMNET       21477175251201            0050002430000010000000001861031
2573910301421TYMNET       21477175251201            0050002670000010000000001861030
2574911051526DMIELKE     044060435215229            0 9    34    43969      0861105
2574811041406TYMNET       21477175251201            005000310    008600000001861104
2574811041406TYMNET       21477175251201            01400001                 861105
2575011051422TYMNET       21477175251201            005000310    009350000001861105
2575011051422TYMNET       21477175251201            01400001                 861106
2574311031540TYMNET       21477175251201            005000196    009350000001861103
2574311031540TYMNET       21477175251201            01400001                 861106
2575411111637RANDERSON   044054464533229            0 9     9     9533      0861111
2575311080749TYMNET       21477175251201            005000474    017190000001861108
2575311080749TYMNET       21477175251201            01400001                 861111
2575611111324TYMNET       21477175251201            0050006570000008700000001861111
2575111061426TYMNET       21477175251201            0050002840000008700000001861106
2575711121353TYMNET       21477175251201            005000365    009350000001861112
2575711121353TYMNET       21477175251201            01400001                 861113
2575911141104TCUPAL      021477130527229            0 9    57    72601      0861114
2575811131415TYMNET       21477175251201            005000534    009350000001861113
2575811131415TYMNET       21477175251201            01400001                 861114
2576111142015ENFE        011020136364  3            0 9    69    77398      0861114
2576211171623RANDERSON   044054464533229            0 9     3     2910      0861117
2576311171639RANDERSON   044054464533229            0 9    66   114446      0861117
2576011141620TYMNET       21477175251201            0050003220000020000000001861114
2576511171335TYMNET       21477175251201            0050003500000010000000001861117
2576711191438KORALEWSKIR 044060270446229            0 9    33    57224      0861119
2576811191458KORALEWSKIR 044060270446229            0 9     5     5298      0861119
2576911191342TYMNET       21477175251201            005000233    017190000001861119
2576911191342TYMNET       21477175251201            01400001                 861120
2576611181421TYMNET       21477175251201            005000420    009350000001861118
2576611181421TYMNET       21477175251201            01400001                 861120
2577411201358TYMNET       21477175251201            0050003190000010000000001861120
2577611241404TYMNET       21477175251201            005000310    009000000001861124
2577611241404TYMNET       21477175251201            01400001                 861125
2577511211336TYMNET       21477175251201            005000145    017190000001861121
2577511211336TYMNET       21477175251201            01400001                 861125
